:100000000C9462000C948A000C948A000C948A0070
:100010000C948A000C948A000C948A000C948A0038
:100020000C948A000C948A000C948A000C948A0028
:100030000C948A000C948A000C948A000C948A0018
:100040000C9450030C948A000C941E030C94F80238
:100050000C948A000C948A000C948A000C948A00F8
:100060000C948A000C948A000000000024002700F1
:100070002A0000000000250028002B0000000000DE
:1000800023002600290004040404040404040202DA
:100090000202020203030303030301020408102007
:1000A0004080010204081020010204081020000012
:1000B0000008000201000003040700000000000027
:1000C00000009A0311241FBECFEFD8E0DEBFCDBFE2
:1000D00011E0A0E0B1E0E8E3FCE002C005900D9281
:1000E000A233B107D9F721E0A2E3B1E001C01D922C
:1000F000AB3EB207E1F710E0C2E6D0E004C02197C2
:10010000FE010E941406C136D107C9F70E94E6031A
:100110000C941A060C940000AF92BF92CF92DF921B
:10012000EF92FF920F931F93CF93DF936C017B01AC
:100130008B01040F151FEB015E01AE18BF08C0173D
:10014000D10759F06991D601ED91FC910190F081B0
:10015000E02DC6010995892B79F7C501DF91CF9173
:100160001F910F91FF90EF90DF90CF90BF90AF90D5
:100170000895FC01538D448D252F30E0842F90E0AD
:10018000821B930B541710F0CF9608950197089592
:10019000FC01918D828D981761F0A28DAE0FBF2F5B
:1001A000B11D5D968C91928D9F5F9F73928F90E0B1
:1001B00008958FEF9FEF0895FC01918D828D981720
:1001C00031F0828DE80FF11D858D90E008958FEF5D
:1001D0009FEF0895FC01918D228D892F90E0805C26
:1001E0009F4F821B91098F739927089583E491E0B3
:1001F0000E94EA0021E0892B09F420E0822F089573
:1002000080E090E0892B29F00E94F60081110C9487
:1002100000000895FC01A48DA80FB92FB11DA35AA9
:10022000BF4F2C91848D90E001968F739927848F16
:10023000A689B7892C93A089B1898C918370806439
:100240008C93938D848D981306C00288F389E02DDA
:1002500080818F7D80830895EF92FF920F931F938B
:10026000CF93DF93EC0181E0888F9B8D8C8D981369
:100270001AC0E889F989808185FF15C09FB7F89475
:10028000EE89FF896083E889F989808183708064C1
:1002900080839FBF81E090E0DF91CF911F910F910C
:1002A000FF90EF900895F62E0B8D10E00F5F1F4F1B
:1002B0000F731127E02E8C8D8E110CC00FB607FC2A
:1002C000FACFE889F989808185FFF5CFCE010E94B8
:1002D0000A01F1CFEB8DEC0FFD2FF11DE35AFF4F1B
:1002E000F0829FB7F8940B8FEA89FB898081806246
:1002F000CFCFCF93DF93EC01888D8823B9F0AA8903
:10030000BB89E889F9898C9185FD03C0808186FDD0
:100310000DC00FB607FCF7CF8C9185FFF2CF80811F
:1003200085FFEDCFCE010E940A01E9CFDF91CF9189
:100330000895833081F028F4813099F08230A9F05B
:1003400008958730A9F08830C9F08430B1F48091E5
:1003500080008F7D03C0809180008F778093800024
:10036000089584B58F7784BD089584B58F7DFBCFC4
:100370008091B0008F778093B00008958091B00095
:100380008F7DF9CF1F93CF93DF93282F30E0F901B2
:10039000E255FF4F8491F901E656FF4FD491F901E0
:1003A000EA57FF4FC491CC23A9F0162F81110E9468
:1003B0009901EC2FF0E0EE0FFF1FEE58FF4FA591D3
:1003C000B4918FB7F894EC91111108C0D095DE2349
:1003D000DC938FBFDF91CF911F910895DE2BF8CF73
:1003E00060E08091E2010E94C2018BE090E0019701
:1003F000F1F70895CF93DF9390E0FC01E656FF4FAD
:1004000024918A579F4FFC0184918823D1F090E07A
:10041000880F991FFC01E859FF4FA591B491FC0189
:10042000EE58FF4FC591D49161110EC09FB7F8945B
:100430008C91E22FE0958E238C932881E223E88330
:100440009FBFDF91CF9108958FB7F894EC91E22B85
:10045000EC938FBFF6CFCF93DF93C0EED1E060E097
:100460008A810E94C20161E08A810E94FA0160E0F3
:1004700088810E94C20161E088810E94FA0161E0E6
:1004800089810E94FA0161E08A810E94C2018BE0A9
:1004900090E00197F1F7DF91CF9108953FB7F8947D
:1004A0008091370190913801A0913901B0913A01C2
:1004B00026B5A89B05C02F3F19F00196A11DB11DBF
:1004C0003FBFBA2FA92F982F8827BC01CD01620FFB
:1004D000711D811D911D42E0660F771F881F991FB6
:1004E0004A95D1F70895FF920F931F93CF93DF930F
:1004F000F62ED0E0C0E0082F10E0B8010C2E02C0AC
:10050000759567950A94E2F761708091E1010E9408
:10051000C20161E08091E0010E94C20160E0FF2021
:1005200089F0C730D10571F48091E1010E94FA0190
:100530002196C830D10509F7DF91CF911F910F9116
:10054000FF9008958091E0010E94C201F1CFFC016B
:1005500001900020E9F73197AF01481B590BBC010E
:1005600083E491E00C948C008F929F92AF92BF92A3
:100570000F931F93CF93DF93CDB7DEB7A1970FB63D
:10058000F894DEBF0FBECDBF19A2423008F44AE096
:100590008E010F5D1F4F842E912CB12CA12CA50133
:1005A00094010E94F205E62FB901CA01EA30F4F481
:1005B000E05DD801EE938D01232B242B252B79F7B9
:1005C00090E080E0109719F0CD010E94A702A1965B
:1005D0000FB6F894DEBF0FBECDBFDF91CF911F9154
:1005E0000F91BF90AF909F908F900895E95CE1CFFD
:1005F0001F920F920FB60F9211242F933F934F9398
:100600005F936F937F938F939F93AF93BF93EF937A
:10061000FF9383E491E00E940A01FF91EF91BF9163
:10062000AF919F918F917F916F915F914F913F918A
:100630002F910F900FBE0F901F9018951F920F9241
:100640000FB60F9211242F938F939F93EF93FF93E5
:10065000E0915301F09154018081E0915901F091B2
:100660005A0182FD1BC0908180915C018F5F8F7366
:1006700020915D01821741F0E0915C01F0E0ED5BBB
:10068000FE4F958F80935C01FF91EF919F918F9129
:100690002F910F900FBE0F901F9018958081F4CF6F
:1006A0001F920F920FB60F9211242F933F938F93A7
:1006B0009F93AF93BF938091330190913401A091A8
:1006C0003501B09136013091320123E0230F2D37EF
:1006D00058F50196A11DB11D20933201809333017D
:1006E00090933401A0933501B09336018091370186
:1006F00090913801A0913901B0913A010196A11D64
:10070000B11D8093370190933801A0933901B093C4
:100710003A01BF91AF919F918F913F912F910F908F
:100720000FBE0F901F90189526E8230F0296A11D6B
:10073000B11DD2CFE3E4F1E01382128288EE93E0A0
:10074000A0E0B0E084839583A683B78384E091E042
:100750009183808385EC90E09587848784EC90E09A
:100760009787868780EC90E0918B808B81EC90E07E
:10077000938B828B82EC90E0958B848B86EC90E05F
:10078000978B868B118E128E138E148EE0EEF1E015
:1007900086E0808387E0818388E082830E942B0249
:1007A00060E08EE80E94730260E080E00E947302C5
:1007B0000E94F0010E942B0260E080E90E94730217
:1007C00060E080E00E9473020C94F001CF93DF930D
:1007D00000D0CDB7DEB7789484B5826084BD84B58F
:1007E000816084BD85B5826085BD85B5816085BD2C
:1007F00080916E00816080936E00109281008091E4
:10080000810082608093810080918100816080936B
:100810008100809180008160809380008091B10090
:1008200084608093B1008091B00081608093B000BB
:1008300080917A00846080937A0080917A0082604F
:1008400080937A0080917A00816080937A00809111
:100850007A00806880937A001092C100E091530181
:10086000F091540182E08083E0914F01F0915001BA
:100870001082E0915101F09152018FEC808310922F
:100880005B01E0915701F091580186E08083E0918F
:100890005501F0915601808180618083E09155017E
:1008A000F0915601808188608083E0915501F0913C
:1008B0005601808180688083E0915501F091560156
:1008C00080818F7D8083EBE3F1E088E0DF011D9282
:1008D0008A95E9F780913B018F78806580933B0191
:1008E00080913C018078866380933C0180913D013A
:1008F0008F7C806180933D0180913E01807F876085
:1009000080933E0180913F01807F896080933F0109
:1009100080914001887F84608093400182E28093CF
:1009200041010E942B0260E08EEB0E947302EBE318
:10093000F1E0FA83E98360E0A981BA818D91BA83FD
:10094000A9830E947302E981FA81E354F14099F787
:100950000E94F001812C912C5401839440E0242EBC
:1009600040E0342E0E942B0261E08FEB0E94730264
:100970002BE3C22E21E0D22E10E000E0712C61E0CA
:100980008091E0010E94C20160E08091E0010E943C
:10099000C2012091E10130E0F901E255FF4F84915D
:1009A000F901E656FF4F6490F901EA57FF4F549062
:1009B000552009F40AC181110E949901E52DF0E04A
:1009C000EE0FFF1FE458FF4FA591B491EC91D501B4
:1009D000C401002E04C0880F991FAA1FBB1F0A94D0
:1009E000D2F76E2209F4F1C0782A0F5F1F4F08304A
:1009F000110509F0C4CFD6017D926D01E981FA811C
:100A0000EA17FB0709F0B8CF0E94F00180913B0183
:100A1000982F929597708F70FAE09F9F800D112408
:100A20008093E30180913C01982F929597708F708D
:100A30009F9F800D11248093E40180913D01982FA8
:100A4000929593708F709F9F800D11248093E50184
:100A50008091400187708093E60180913E01982F3C
:100A6000929593708F709F9F800D11248093E70162
:100A700080913F0184FB992790F98F709F9F800D93
:100A800011248093E80180914101282F22952F7035
:100A90008F7090E02F9F800D911D11248053984FEF
:100AA0009093EA018093E90182E191E00E94A7021C
:100AB0006091E70170E090E080E04AE00E94B402BB
:100AC00088E291E00E94A7026091E80170E090E066
:100AD00080E04AE00E94B40288E291E00E94A7020E
:100AE0004090E9015090EA01052C000C6608770857
:100AF0004AE0C301B20177FE0DC06DE283E491E0EC
:100B00000E942C0166277727CB0164197509860995
:100B100097094AE00E94B4028AE291E00E94A7028B
:100B20006091E50170E090E080E04AE00E94B4024C
:100B30008DE291E00E94A7026091E40170E090E0F4
:100B400080E04AE00E94B4028DE291E00E94A70298
:100B50006091E30170E090E080E04AE00E94B4021E
:100B60008FE291E00E94A7020E944E026B017C017D
:100B700088EE482E83E0582E612C712C0E944E0284
:100B80006C197D098E099F09683E734081059105A6
:100B9000A8F321E0421A51086108710838EEC30E2B
:100BA00033E0D31EE11CF11C4114510461047104B3
:100BB00029F72114310409F4D5CE0E94F6008823C8
:100BC00009F4D0CE0E940000CDCED501C401002E84
:100BD00004C0880F991FAA1FBB1F0A94D2F78095E3
:100BE000782203CFA1E21A2EAA1BBB1BFD010DC068
:100BF000AA1FBB1FEE1FFF1FA217B307E407F507CD
:100C000020F0A21BB30BE40BF50B661F771F881FA8
:100C1000991F1A9469F760957095809590959B013E
:100C2000AC01BD01CF010895EE0FFF1F0590F491B7
:080C3000E02D0994F894FFCFB8
:100C3800000000002C018C00B9007901EA00C8000E
:100C4800DC0043757272656E742044617465202FF0
:100C58002054696D653A20002F002020003A000DCD
:020C68000A0080
:00000001FF
