:100000000C9458000C9480000C9480000C94800098
:100010000C9480000C9480000C9480000C94800060
:100020000C9480000C9480000C9480000C94800050
:100030000C9480000C9480000C9480000C94800040
:100040000C9425060C9480000C94F3050C94CD05BB
:100050000C9480000C9480000C9480000C94800020
:100060000C946F060C94800000000000250028000E
:100070002B00040404040404040402020202020229
:10008000030303030303010204081020408001025C
:1000900004081020010204081020000000080002DB
:1000A00001000003040700000000000000008E07AC
:1000B00011241FBECFEFD8E0DEBFCDBF11E0A0E01E
:1000C000B1E0E8E5F2E102C005900D92A834B10775
:1000D000D9F722E0A8E4B1E001C01D92AA3BB20723
:1000E000E1F710E0C8E5D0E004C02197FE010E94CE
:1000F0002409C735D107C9F70E94C7070C942A09FC
:100100000C94000008950895AF92BF92CF92DF92B1
:10011000EF92FF920F931F93CF93DF936C017B01BC
:100120008B01040F151FEB015E01AE18BF08C0174D
:10013000D10759F06991D601ED91FC910190F081C0
:10014000E02DC6010995892B79F7C501DF91CF9183
:100150001F910F91FF90EF90DF90CF90BF90AF90E5
:100160000895FC01538D448D252F30E0842F90E0BD
:10017000821B930B541710F0CF96089501970895A2
:10018000FC01918D828D981761F0A28DAE0FBF2F6B
:10019000B11D5D968C91928D9F5F9F73928F90E0C1
:1001A00008958FEF9FEF0895FC01918D828D981730
:1001B00031F0828DE80FF11D858D90E008958FEF6D
:1001C0009FEF0895FC01918D228D892F90E0805C36
:1001D0009F4F821B91098F739927089581E192E0C7
:1001E0000E94E20021E0892B09F420E0822F08958B
:1001F00080E090E0892B29F00E94EE0081110C94A0
:1002000000000895FC01A48DA80FB92FB11DA35AB9
:10021000BF4F2C91848D90E001968F739927848F26
:10022000A689B7892C93A089B1898C918370806449
:100230008C93938D848D981306C00288F389E02DEA
:1002400080818F7D80830895EF92FF920F931F939B
:10025000CF93DF93EC0181E0888F9B8D8C8D981379
:100260001AC0E889F989808185FF15C09FB7F89485
:10027000EE89FF896083E889F989808183708064D1
:1002800080839FBF81E090E0DF91CF911F910F911C
:10029000FF90EF900895F62E0B8D10E00F5F1F4F2B
:1002A0000F731127E02E8C8D8E110CC00FB607FC3A
:1002B000FACFE889F989808185FFF5CFCE010E94C8
:1002C0000201F1CFEB8DEC0FFD2FF11DE35AFF4F33
:1002D000F0829FB7F8940B8FEA89FB898081806256
:1002E000CFCFCF93DF93EC01888D8823B9F0AA8913
:1002F000BB89E889F9898C9185FD03C0808186FDE1
:100300000DC00FB607FCF7CF8C9185FFF2CF80812F
:1003100085FFEDCFCE010E940201E9CFDF91CF91A1
:10032000089590E0FC01E656FF4F2491FC01EA5746
:10033000FF4F3491FC01EE58FF4FE491EE23C9F0DA
:10034000222339F0233001F1A8F4213019F12230B1
:1003500029F1F0E0EE0FFF1FE859FF4FA591B4918E
:100360008FB7F894EC91611126C030953E233C93F1
:100370008FBF08952730A9F02830C9F0243049F7FD
:10038000809180008F7D03C0809180008F77809363
:100390008000DFCF84B58F7784BDDBCF84B58F7DC0
:1003A000FBCF8091B0008F778093B000D2CF809147
:1003B000B0008F7DF9CF3E2BDACF3FB7F894809114
:1003C000B1019091B201A091B301B091B40126B5F1
:1003D000A89B05C02F3F19F00196A11DB11D3FBF7D
:1003E000BA2FA92F982F8827BC01CD01620F711D4C
:1003F000811D911D42E0660F771F881F991F4A9546
:10040000D1F708958F929F92AF92BF92CF92DF92D1
:10041000EF92FF924B015C010E94DD016B017C01B8
:100420000E94DD016C197D098E099F09683E7340A9
:1004300081059105A8F321E0821A9108A108B1086D
:1004400088EEC80E83E0D81EE11CF11C81149104D3
:10045000A104B10429F7FF90EF90DF90CF90BF90F7
:10046000AF909F908F90089520918901260F332798
:10047000331F21323105ECF42091E701FC0190E0BB
:1004800080E0243069F082E00895A09189012191F3
:10049000AC0147595E4FA40FB52FB11D2C930196A7
:1004A000861798F380918901680F6093890180E035
:1004B000089581E008951092E70181E08093E601BC
:1004C0001092C10161E082E10E94910161E083E14B
:1004D0000E949101E9EBF0E080818E7F8083808132
:1004E0008D7F808388E48093B80085E48093BC008E
:1004F0000895CF93DF9391E0909368018823B9F03A
:10050000C091B800D091BA008091BC008A7B8093E2
:10051000BC0060E082E10E94910160E083E10E9402
:1005200091010E945B02D093BA00C093B800DF91A2
:10053000CF9108958F929F92AF92BF92CF92DF9208
:10054000EF92FF920F931F93CF93DF93D0911002FE
:10055000D13208F0D7C0182FC0910F020E94DD01E0
:100560006B017C018091E70181116BC082E0809377
:10057000E7011093E6018FEF8093E5011092E4010B
:10058000D093E301AFEEB1E0E3ECF1E080E0D8130B
:1005900091C01092C2018091C201CC0FC82BC093B0
:1005A000C2018091C101813009F088C01092C1015F
:1005B0000E94DD016B017C018091C2018093BB0030
:1005C0008091E9019091EA01A091EB01B091EC01D9
:1005D000892B8A2B8B2BA1F00E94DD010091E90170
:1005E0001091EA012091EB013091EC016C197D0929
:1005F0008E099F09061717072807390708F442C014
:100600008091BC0083FDD8CF85EC8093BC000E9414
:10061000DD016B017C018091E701823009F450C05B
:100620008091E5018F3F09F46FC08091E501803230
:1006300009F46CC08091E501803309F469C084E05D
:1006400026C08091E9019091EA01A091EB01B0915F
:10065000EC01892B8A2B8B2B09F484CF0E94DD01BE
:100660008090E9019090EA01A090EB01B090EC013C
:100670006C197D098E099F0986169706A806B9068A
:1006800008F070CF8091E8010E94790285E0109215
:10069000EE01109210021092ED01DF91CF911F91A7
:1006A0000F91FF90EF90DF90CF90BF90AF909F9011
:1006B0008F9008959D9191938F5F69CF85EEA5CF1F
:1006C0008091E9019091EA01A091EB01B091EC01D8
:1006D000892B8A2B8B2B09F49ECF0E94DD01009180
:1006E000E9011091EA012091EB013091EC016C19C4
:1006F0007D098E099F09061717072807390708F093
:100700008ACFC0CF81E0C3CF80E0C1CF82E0BFCF2E
:1007100083E0BDCF0895E091BA018091B901E81757
:1007200030F4F0E0E85BFE4F808190E008958FEFB9
:100730009FEF08959091BA018091B9012FEF3FEF9B
:10074000981748F4E92FF0E0E85BFE4F208130E095
:100750009F5F9093BA01C90108958091B90190916A
:10076000BA01891B990B0895CF92DF92EF92FF9205
:100770000F931F93CF93DF937C01CB018A012091CC
:10078000ED01222389F0EB016B01C40ED51ECC15BF
:10079000DD0569F06991D701ED91FC910190F0813F
:1007A000E02DC7010995F3CF642F0E943402C801E0
:1007B000DF91CF911F910F91FF90EF90DF90CF903D
:1007C0000895CF93DF931F92CDB7DEB76983209151
:1007D000ED012223F9F020911002203258F021E09F
:1007E00030E0FC013383228390E080E00F90DF91C2
:1007F000CF9108958091EE01E82FF0E0E151FE4F96
:10080000998190838F5F8093EE018093100281E045
:1008100090E0ECCF61E0CE0101960E943402F7CF68
:1008200090E080E00895CF93C42F91E09093ED0184
:1008300080930F021092EE01109210028EEA92E065
:100840000E94E1036C2F8EEA92E00E94E10381E0B6
:10085000CF910C949A02FC0101900020E9F73197A6
:10086000AF01481B590BBC0181E192E00C9484005C
:100870008F929F92AF92BF92CF92DF92EF92FF92B0
:100880000F931F93CF93DF93CDB7DEB7A1970FB62A
:10089000F894DEBF0FBECDBF6B017C01F7FE41C0F7
:1008A0006DE281E192E00E9424018C01222733272E
:1008B000A9012C193D094E095F0919A2CE018196A3
:1008C0007C019AE0892E912CA12CB12CCA01B9018E
:1008D000A50194010E940209605DF70162937F0106
:1008E000211531054105510589F790E080E03097E9
:1008F00019F0CF010E942B04800F911FA1960FB613
:10090000F894DEBF0FBECDBFDF91CF911F910F9145
:10091000FF90EF90DF90CF90BF90AF909F908F901F
:100920000895AC019B0119A28E010F5D1F4F8AE053
:10093000C82ED12CE12CF12CCA01B901A7019601D6
:100940000E940209605DF80162938F012115310553
:100950004105510589F790E080E0309779F2CF01A9
:100960000E942B04CBCFCF92DF92EF92FF920F9396
:100970001F93CF93C82F81E08093ED01C0930F02A6
:100980001092EE01109210028EEA92E00E94E103B2
:1009900081E00E949A020E94DD016B017C0180913E
:1009A000E701811164C081E08093E7018093E60153
:1009B0009FEF9093E5011092E4011092E301809380
:1009C000C2018091C201CC0FC82BC093C20180919B
:1009D000C101813009F078C01092C1010E94DD018F
:1009E0006B017C018091C2018093BB008091E90181
:1009F0009091EA01A091EB01B091EC01892B8A2B37
:100A00008B2BA1F00E94DD010091E9011091EA0118
:100A10002091EB013091EC016C197D098E099F0941
:100A2000061717072807390708F442C08091BC0051
:100A300083FDD8CF85EC8093BC000E94DD016B0163
:100A40007C018091E701813009F440C08091E4018C
:100A500081115EC08091E401A3ECB1E0E8E4F1E033
:100A600090E0981751F12D9121939F5FFACF8091DB
:100A7000E9019091EA01A091EB01B091EC01892B81
:100A80008A2B8B2B09F48BCF0E94DD010091E901A9
:100A90001091EA012091EB013091EC016C197D0974
:100AA0008E099F09061717072807390708F077CF1F
:100AB0008091E8010E94790280E01092BA0180934F
:100AC000B901811127C0FFCF85EEB5CF8091E90133
:100AD0009091EA01A091EB01B091EC01892B8A2B56
:100AE0008B2B09F4AECF0E94DD010091E90110913A
:100AF000EA012091EB013091EC016C197D098E091E
:100B00009F09061717072807390708F09ACFD0CF93
:100B100081E0A2CF8EEA92E0CF911F910F91FF90DA
:100B2000EF90DF90CF900C949A0385ED8093BC00FA
:100B30008091E9019091EA01A091EB01B091EC0163
:100B40000796A11DB11D23E0B695A79597958795AA
:100B50002A95D1F72091BC0024FD03C01092E70133
:100B600008954091E9015091EA016091EB01709183
:100B7000EC01452B462B472B69F30097A105B105E6
:100B800041F025E32A95F1F700000197A109B10989
:100B9000E1CF8091E8010C9479021F920F920FB679
:100BA0000F9211242F933F934F935F936F937F93F3
:100BB0008F939F93AF93BF93EF93FF9381E192E065
:100BC0000E940201FF91EF91BF91AF919F918F9190
:100BD0007F916F915F914F913F912F910F900FBE39
:100BE0000F901F9018951F920F920FB60F9211241D
:100BF0002F938F939F93EF93FF93E0912102F091B6
:100C000022028081E0912702F091280282FD1BC020
:100C1000908180912A028F5F8F7320912B0282171F
:100C200041F0E0912A02F0E0EF5EFD4F958F809356
:100C30002A02FF91EF919F918F912F910F900FBEFC
:100C40000F901F9018958081F4CF1F920F920FB6CE
:100C50000F9211242F933F938F939F93AF93BF9342
:100C60008091AD019091AE01A091AF01B091B00122
:100C70003091AC0123E0230F2D3758F50196A11DCB
:100C8000B11D2093AC018093AD019093AE01A09370
:100C9000AF01B093B0018091B1019091B201A091E8
:100CA000B301B091B4010196A11DB11D8093B101B2
:100CB0009093B201A093B301B093B401BF91AF91EF
:100CC0009F918F913F912F910F900FBE0F901F908A
:100CD000189526E8230F0296A11DB11DD2CF1F92B1
:100CE0000F920FB60F9211242F933F934F935F9360
:100CF0006F937F938F939F93AF93BF93EF93FF93E4
:100D00008091B900887F803609F44AC0F0F58832B6
:100D100009F4A7C018F5803109F49BC0B8F4882302
:100D200009F4F9C0883009F494C0FF91EF91BF91A4
:100D3000AF919F918F917F916F915F914F913F9173
:100D40002F910F900FBE0F901F901895883109F4C6
:100D500088C0803251F78093E50114C0803409F4D3
:100D60009DC040F48033B9F38833F9F68093E501F0
:100D700085ECB0C0803509F485C0883509F496C08B
:100D8000883499F60E949505D0CF883909F48CC033
:100D900038F5883729F050F4883611F0803729F675
:100DA00083E08093E7011092AB0157C0883809F4C3
:100DB0007BC0803919F0803809F0B7CF8091AB0142
:100DC000803208F071C0E091AB0181E08E0F80931A
:100DD000AB018091BB00F0E0E557FE4F80833DC042
:100DE000803B39F0E0F4803A09F479C0883A09F0A0
:100DF0009CCF84E08093E70110928A0110928901D0
:100E0000E091B701F091B8010995809189018111B4
:100E10000FC081E0809389011092690109C0803C74
:100E200009F4A6CF883C09F4A3CF883B09F07DCF15
:100E3000E0918A0181E08E0F80938A01F0E0E7590A
:100E4000FE4F80818093BB0090918A01809189013F
:100E500029C08091C2018093BB0085EC8093BC00C7
:100E600064CF9091E4018091E301981758F5E091E7
:100E7000E40181E08E0F8093E401F0E0ED53FE4F3A
:100E80008081E9CFE091E40181E08E0F8093E4015D
:100E90008091BB00F0E0ED53FE4F80839091E40120
:100EA0008091E3019817C8F285E8D8CFE091E4017A
:100EB00081E08E0F8093E4018091BB00F0E0ED5360
:100EC000FE4F80838091E60181115CCF81E08093A9
:100ED000C10184EA8093BC001092E70126CF85EC23
:100EE0008093BC001092E7018091AB01803230F416
:100EF000E091AB01F0E0E557FE4F10826091AB014D
:100F000070E0E091B501F091B6018BE891E00995B0
:100F10001092AB010ACF1092E50134CFE1E1F2E08B
:100F20001382128288EE93E0A0E0B0E08483958380
:100F3000A683B78324E031E03183208325EC30E0C1
:100F40003587248724EC30E03787268720EC30E093
:100F5000318B208B21EC30E0338B228B22EC30E084
:100F6000358B248B26EC30E0378B268B118E128E3E
:100F7000138E148EEEEAF2E013821282848395833C
:100F8000A683B78386E191E0918380830895789466
:100F900084B5826084BD84B5816084BD85B582607E
:100FA00085BD85B5816085BD80916E00816080932F
:100FB0006E00109281008091810082608093810098
:100FC00080918100816080938100809180008160A8
:100FD000809380008091B10084608093B100809103
:100FE000B00081608093B00080917A00846080932B
:100FF0007A0080917A00826080937A0080917A00F2
:10100000816080937A0080917A00806880937A0072
:101010001092C1001092BA011092B9011092EE0123
:10102000109210020E945B0282E890E09093B80157
:101030008093B70183E890E09093B6018093B50167
:10104000E0912102F091220282E08083E0911D0272
:10105000F0911E021082E0911F02F09120028FECAD
:10106000808310922902E0912502F091260286E009
:101070008083E0912302F09124028081806180834B
:10108000E0912302F0912402808188608083E091C6
:101090002302F0912402808180688083E091230202
:1010A000F091240280818F7D808384E291E00E9410
:1010B0002B0489E391E00E942B044FE060E289E673
:1010C00090E00E94130440E061E289E690E00E9413
:1010D000130448E062E289E690E00E94130440E3D2
:1010E00063E289E690E00E94130440E064E289E64E
:1010F00090E00E9413046CED75E080E090E00E94A7
:10110000020280E0C82E80E0D82E69E289E690E0F5
:101110000E94B304B82E68E289E690E00E94B3040E
:10112000DB2D20E0C22F9E01282BC9019093C00126
:101130008093BF016BE289E690E00E94B304B82E71
:101140006AE289E690E00E94B3041B2D00E098015A
:10115000282BC9019093BE018093BD016DE289E601
:1011600090E00E94B304B82E6CE289E690E00E9401
:10117000B304FB2CE12C9701282BC9019093BC01EF
:101180008093BB018CE391E00E942B046091BF012E
:101190007091C001072E000C880B990B0E94380437
:1011A0008FE391E00E942B046091BD017091BE011C
:1011B000072E000C880B990B0E94380483E491E001
:1011C0000E942B046091BB017091BC01072E000CA2
:1011D000880B990B0E94380489E391E00E942B044C
:1011E00064E670E080E090E00E940202C114D10445
:1011F00009F48BCF0E94EE00882309F486CF0E9469
:10120000000083CFA1E21A2EAA1BBB1BFD010DC05B
:10121000AA1FBB1FEE1FFF1FA217B307E407F507A6
:1012200020F0A21BB30BE40BF50B661F771F881F82
:10123000991F1A9469F760957095809590959B0118
:10124000AC01BD01CF010895EE0FFF1F0590F49191
:08125000E02D0994F894FFCF92
:101258000000000024018400B1007101E200C00018
:10126800D40000000000E103B40310048A03AD03B6
:101278009A038B037374617274696E6720757020AA
:101288004C33473432303044000D0A00583A0020BD
:08129800593A00205A3A000007
:00000001FF
