:100000000C9433010C945B010C945B010C945B0128
:100010000C945B010C945B010C945B010C945B01F0
:100020000C945B010C945B010C945B010C945B01E0
:100030000C945B010C945B010C945B010C945B01D0
:100040000C94FB060C945B010C94C9060C94A3065B
:100050000C945B010C945B010C945B010C945B01B0
:100060000C9445070C945B0100000000250028005B
:100070002B00040404040404040402020202020229
:10008000030303030303010204081020408001025C
:1000900004081020010204081020000000080002DB
:1000A000010000030407000000000000000000EF52
:1000B0002932013300340135003607371738063945
:1000C000123A003F0240FF4101422D460F473C4893
:1000D00000491E4A004B204C004D1A4E144F005050
:1000E00010510052025C005D105E3F5F2760286186
:1000F00000620363F7640365D96603670168C86932
:10010000406A046D006E006F8070007100720073B1
:10011000F07400754280448104822083208400852D
:100120001086008705881889108A018B378C008D0E
:10013000F08E818F069006911E920D930A940A9577
:100140000C9605970A984199149A0A9B3F9C339DF7
:10015000AE9EF99F48A013A110A208A330A419A530
:1001600010A608A724A804A91EAA1EAB19CC0BCD63
:1001700013CE64CF21D00FD188D201E004E141E257
:10018000D6E300E40CE50AE600E700E800E907EE44
:1001900001EF1E001E010F02100302040005B0064D
:1001A00004070D080E099C0A040B050C0F0D020E26
:1001B000120F021002110012011305140715051683
:1001C000071701180419051A0C1B2A1C011D001E13
:1001D0000021002200230125002639277F28082935
:1001E000033000311A321A33073407350136FF372E
:1001F00036380739003AFF3E003F77404041004221
:100200003043A0445C450046004758481E4A1E4BF8
:10021000004C004DA04E804F005000510052005342
:10022000005480571059085A945BE85C085D3D5EA5
:10023000995F456040612D6302649665006697672B
:100240000168CD69016AB06B046C2C6D016E326F70
:100250000071017235730074337531760177847CD7
:10026000037D017E640811241FBECFEFD8E0DEBFFE
:10027000CDBF12E0A0E0B1E0ECEEF4E102C00590E9
:100280000D92A430B107D9F723E0A4E0B2E001C099
:100290001D92A037B207E1F711E0C3E3D1E004C03B
:1002A0002197FE010E946E0AC233D107C9F70E944E
:1002B0009D080C94740A0C94000080917602909131
:1002C0007502891B990B089508950895AF92BF9206
:1002D000CF92DF92EF92FF920F931F93CF93DF9312
:1002E0006C017B018B01040F151FEB015E01AE1841
:1002F000BF08C017D10759F06991D601ED91FC9163
:100300000190F081E02DC6010995892B79F7C5018F
:10031000DF91CF911F910F91FF90EF90DF90CF90E1
:10032000BF90AF900895FC01538D448D252F30E090
:10033000842F90E0821B930B541710F0CF960895F2
:1003400001970895FC01918D828D981761F0A28D1F
:10035000AE0FBF2FB11D5D968C91928D9F5F9F73E5
:10036000928F90E008958FEF9FEF0895FC01918D9B
:10037000828D981731F0828DE80FF11D858D90E008
:1003800008958FEF9FEF0895FC01918D228D892FA5
:1003900090E0805C9F4F821B91098F73992708958D
:1003A00087EC92E00E94C40121E0892B09F420E04F
:1003B000822F089580E090E0892B29F00E94D001DF
:1003C00081110C9400000895FC01A48DA80FB92F91
:1003D000B11DA35ABF4F2C91848D90E001968F736D
:1003E0009927848FA689B7892C93A089B1898C918C
:1003F000837080648C93938D848D981306C00288DB
:10040000F389E02D80818F7D80830895EF92FF92A4
:100410000F931F93CF93DF93EC0181E0888F9B8D27
:100420008C8D98131AC0E889F989808185FF15C0E1
:100430009FB7F894EE89FF896083E889F989808104
:100440008370806480839FBF81E090E0DF91CF91D3
:100450001F910F91FF90EF900895F62E0B8D10E0F5
:100460000F5F1F4F0F731127E02E8C8D8E110CC064
:100470000FB607FCFACFE889F989808185FFF5CFAF
:10048000CE010E94E401F1CFEB8DEC0FFD2FF11DA9
:10049000E35AFF4FF0829FB7F8940B8FEA89FB89EC
:1004A00080818062CFCFCF93DF93EC01888D88234A
:1004B000B9F0AA89BB89E889F9898C9185FD03C0C7
:1004C000808186FD0DC00FB607FCF7CF8C9185FFAC
:1004D000F2CF808185FFEDCFCE010E94E401E9CF0C
:1004E000DF91CF91089590E0FC01E656FF4F2491F3
:1004F000FC01EA57FF4F3491FC01EE58FF4FE491A5
:10050000EE23C9F0222339F0233001F1A8F4213081
:1005100019F1223029F1F0E0EE0FFF1FE859FF4FEB
:10052000A591B4918FB7F894EC91611126C03095E4
:100530003E233C938FBF08952730A9F02830C9F09F
:10054000243049F7809180008F7D03C08091800026
:100550008F7780938000DFCF84B58F7784BDDBCF2A
:1005600084B58F7DFBCF8091B0008F778093B000F2
:10057000D2CF8091B0008F7DF9CF3E2BDACF3FB73D
:10058000F89480914D0290914E02A0914F02B0914B
:10059000500226B5A89B05C02F3F19F00196A11D5A
:1005A000B11D3FBFBA2FA92F982F8827BC01CD01BD
:1005B000620F711D811D911D42E0660F771F881F1C
:1005C000991F4A95D1F708958F929F92AF92BF924B
:1005D000CF92DF92EF92FF924B015C010E94BF022B
:1005E0006B017C010E94BF026C197D098E099F0975
:1005F000683E734081059105A8F321E0821A9108B5
:10060000A108B10888EEC80E83E0D81EE11CF11CD9
:1006100081149104A104B10429F7FF90EF90DF90B9
:10062000CF90BF90AF909F908F900895209125021A
:10063000260F3327331F21323105ECF420919D0220
:10064000FC0190E080E0243069F082E00895A09100
:1006500025022191AC014B5F5D4FA40FB52FB11D59
:100660002C930196861798F380912502680F60936A
:10067000250280E0089581E0089510929D0281E0B6
:1006800080939C021092770261E082E10E947302E3
:1006900061E083E10E947302E9EBF0E080818E7FEC
:1006A000808380818D7F808388E48093B80085E497
:1006B0008093BC000895CF93DF9391E09093040260
:1006C0008823B9F0C091B800D091BA008091BC00E5
:1006D0008A7B8093BC0060E082E10E94730260E04C
:1006E00083E10E9473020E943D03D093BA00C0933D
:1006F000B800DF91CF9108958F929F92AF92BF92F1
:10070000CF92DF92EF92FF920F931F93CF93DF93DD
:10071000D091C602D13208F0D7C0182FC091C502BF
:100720000E94BF026B017C0180919D0281116BC010
:1007300082E080939D0210939C028FEF80939B0236
:1007400010929A02D0939902A5EAB2E0E9E7F2E0AA
:1007500080E0D81391C01092780280917802CC0F7B
:10076000C82BC093780280917702813009F088C04D
:10077000109277020E94BF026B017C018091780287
:100780008093BB0080919F029091A002A091A10252
:10079000B091A202892B8A2B8B2BA1F00E94BF0261
:1007A00000919F021091A0022091A1023091A2021B
:1007B0006C197D098E099F09061717072807390745
:1007C00008F442C08091BC0083FDD8CF85EC8093B3
:1007D000BC000E94BF026B017C0180919D028230AF
:1007E00009F450C080919B028F3F09F46FC0809143
:1007F0009B02803209F46CC080919B02803309F423
:1008000069C084E026C080919F029091A002A091CF
:10081000A102B091A202892B8A2B8B2B09F484CFE1
:100820000E94BF0280909F029090A002A090A1021F
:10083000B090A2026C197D098E099F098616970651
:10084000A806B90608F070CF80919E020E945B0353
:1008500085E01092A4021092C6021092A302DF91CA
:10086000CF911F910F91FF90EF90DF90CF90BF90AD
:10087000AF909F908F9008959D9191938F5F69CFD6
:1008800085EEA5CF80919F029091A002A091A10238
:10089000B091A202892B8A2B8B2B09F49ECF0E9448
:1008A000BF0200919F021091A0022091A1023091FD
:1008B000A2026C197D098E099F09061717072807E0
:1008C000390708F08ACFC0CF81E0C3CF80E0C1CF25
:1008D00082E0BFCF83E0BDCF0895E09175028091A3
:1008E0007602E81730F4F0E0EB5AFD4F808190E09B
:1008F00008958FEF9FEF0895909175028091760291
:100900002FEF3FEF981748F4E92FF0E0EB5AFD4F37
:10091000208130E09F5F90937502C9010895CF92C6
:10092000DF92EF92FF920F931F93CF93DF937C019F
:10093000CB018A012091A302222389F0EB016B01F4
:10094000C40ED51ECC15DD0569F06991D701ED9176
:10095000FC910190F081E02DC7010995F3CF642F40
:100960000E941603C801DF91CF911F910F91FF9054
:10097000EF90DF90CF900895CF93DF931F92CDB784
:10098000DEB769832091A3022223F9F02091C602E9
:10099000203258F021E030E0FC013383228390E0E4
:1009A00080E00F90DF91CF9108958091A402E82F0D
:1009B000F0E0EB55FD4F998190838F5F8093A40207
:1009C0008093C60281E090E0ECCF61E0CE01019619
:1009D0000E941603F7CF90E080E00895FC0101909B
:1009E0000020E9F73197AF01481B590BBC0187EC98
:1009F00092E00C9466018F929F92AF92BF920F93F8
:100A00001F93CF93DF93CDB7DEB7A1970FB6F894BE
:100A1000DEBF0FBECDBF19A2423008F44AE08E01FE
:100A20000F5D1F4F842E912CB12CA12CA501940198
:100A30000E944C0AE62FB901CA01EA30F4F4E05DE5
:100A4000D801EE938D01232B242B252B79F790E0F1
:100A500080E0109719F0CD010E94EE04A1960FB628
:100A6000F894DEBF0FBECDBFDF91CF911F910F91E4
:100A7000BF90AF909F908F900895E95CE1CFCF93A6
:100A8000DF930E94EE04EC0184E291E00E94EE0408
:100A90008C0F9D1FDF91CF910895CF93C62F91E0CA
:100AA0009093A30293E79093C5021092A402109230
:100AB000C602682F84E693E00E94BC046C2F84E693
:100AC00093E00E94BC0481E00E947C03C82F88232D
:100AD00021F087E291E00E94EE048C2FCF910895DF
:100AE0008F929F92AF92BF92CF92DF92EF92FF923E
:100AF0000F931F93CF93DF938B0191E09093A30209
:100B000093E79093C5021092A4021092C602682F38
:100B100084E693E00E94BC0481E00E947C03D82F0D
:100B2000882391F087E291E00E94EE048D2FDF91FF
:100B3000CF911F910F91FF90EF90DF90CF90BF90DA
:100B4000AF909F908F9008950E94BF026B017C012F
:100B500080919D02811164C081E080939D02809309
:100B60009C029FEF90939B0210929A02109299021E
:100B70008093780280917802866E809378028091CB
:100B80007702813009F083C0109277020E94BF0281
:100B90006B017C01809178028093BB0080919F0261
:100BA0009091A002A091A102B091A202892B8A2B60
:100BB0008B2BA1F00E94BF0280909F029090A00218
:100BC000A090A102B090A2026C197D098E099F0924
:100BD00086169706A806B90608F443C08091BC00A3
:100BE00083FDD8CF85EC8093BC000E94BF026B01CF
:100BF0007C0180919D02813009F44BC080919A0262
:100C0000C1E0811102C0C0919A02A9E7B2E0E5E516
:100C1000F2E080E08C1751F19D9191938F5FFACFB4
:100C200080919F029091A002A091A102B091A20296
:100C3000892B8A2B8B2B09F48BCF0E94BF028090CB
:100C40009F029090A002A090A102B090A2026C1905
:100C50007D098E099F0986169706A806B90608F031
:100C600077CF80919E020E945B03C0E010927502D4
:100C7000C093760280917502C81709F457CF84E6B5
:100C800093E00E947C04F80181938F01F3CF85EEFD
:100C9000AACF80919F029091A002A091A102B09151
:100CA000A202892B8A2B8B2B09F4A3CF0E94BF02AF
:100CB00080909F029090A002A090A102B090A2020A
:100CC0006C197D098E099F0986169706A806B90634
:100CD00008F08FCFC6CF85ED8093BC0080919F0236
:100CE0009091A002A091A102B091A2020796A11D2D
:100CF000B11D23E0B695A795979587952A95D1F7CD
:100D00002091BC0024FD03C010929D0208954091E3
:100D10009F025091A0026091A1027091A202452B06
:100D2000462B472B69F30097A105B10541F025E358
:100D30002A95F1F700000197A109B109E1CF80914F
:100D40009E020C945B031F920F920FB60F92112418
:100D50002F933F934F935F936F937F938F939F93C3
:100D6000AF93BF93EF93FF9387EC92E00E94E4016F
:100D7000FF91EF91BF91AF919F918F917F916F9173
:100D80005F914F913F912F910F900FBE0F901F9049
:100D900018951F920F920FB60F9211242F938F93D5
:100DA0009F93EF93FF93E091D702F091D802808157
:100DB000E091DD02F091DE0282FD1BC09081809106
:100DC000E0028F5F8F732091E102821741F0E09182
:100DD000E002F0E0E953FD4F958F8093E002FF9130
:100DE000EF919F918F912F910F900FBE0F901F90B9
:100DF00018958081F4CF1F920F920FB60F92112495
:100E00002F933F938F939F93AF93BF93809149020A
:100E100090914A02A0914B02B0914C02309148024D
:100E200023E0230F2D3758F50196A11DB11D209306
:100E300048028093490290934A02A0934B02B093D8
:100E40004C0280914D0290914E02A0914F02B091C0
:100E500050020196A11DB11D80934D0290934E0248
:100E6000A0934F02B0935002BF91AF919F918F9189
:100E70003F912F910F900FBE0F901F90189526E86D
:100E8000230F0296A11DB11DD2CF1F920F920FB654
:100E90000F9211242F933F934F935F936F937F9300
:100EA0008F939F93AF93BF93EF93FF938091B9007C
:100EB000887F803609F44AC0F0F5883209F4A7C06B
:100EC00018F5803109F49BC0B8F4882309F4F9C0FF
:100ED000883009F494C0FF91EF91BF91AF919F9139
:100EE0008F917F916F915F914F913F912F910F90D3
:100EF0000FBE0F901F901895883109F488C080327A
:100F000051F780939B0214C0803409F49DC040F4D3
:100F10008033B9F38833F9F680939B0285ECB0C037
:100F2000803509F485C0883509F496C0883499F66F
:100F30000E946B06D0CF883909F48CC038F5883709
:100F400029F050F4883611F0803729F683E0809339
:100F50009D021092470257C0883809F47BC080393F
:100F600019F0803809F0B7CF80914702803208F03D
:100F700071C0E091470281E08E0F8093470280911B
:100F8000BB00F0E0E95DFD4F80833DC0803B39F060
:100F9000E0F4803A09F479C0883A09F09CCF84E003
:100FA00080939D021092260210922502E091530236
:100FB000F091540209958091250281110FC081E0C2
:100FC000809325021092050209C0803C09F4A6CF47
:100FD000883C09F4A3CF883B09F07DCFE09126023D
:100FE00081E08E0F80932602F0E0EB5FFD4F808161
:100FF0008093BB00909126028091250229C08091A8
:1010000078028093BB0085EC8093BC0064CF909104
:101010009A0280919902981758F5E0919A0281E01E
:101020008E0F80939A02F0E0E758FD4F8081E9CF60
:10103000E0919A0281E08E0F80939A028091BB002A
:10104000F0E0E758FD4F808390919A0280919902D9
:101050009817C8F285E8D8CFE0919A0281E08E0F08
:1010600080939A028091BB00F0E0E758FD4F8083A7
:1010700080919C0281115CCF81E08093770284EAA9
:101080008093BC0010929D0226CF85EC8093BC001B
:1010900010929D0280914702803230F4E091470225
:1010A000F0E0E95DFD4F10826091470270E0E09151
:1010B0005102F091520287E292E0099510924702A4
:1010C0000ACF10929B0234CFE7ECF2E01382128237
:1010D00088EE93E0A0E0B0E084839583A683B78395
:1010E00024E031E03183208325EC30E0358724870C
:1010F00024EC30E03787268720EC30E0318B208BE2
:1011000021EC30E0338B228B22EC30E0358B248BCA
:1011100026EC30E0378B268B118E128E138E148EB8
:10112000E4E6F3E01382128284839583A683B78377
:1011300086E191E0918380830895CF93DF9300D07F
:10114000CDB7DEB7789484B5826084BD84B5816004
:1011500084BD85B5826085BD85B5816085BD809182
:101160006E00816080936E001092810080918100FA
:1011700082608093810080918100816080938100F2
:10118000809180008160809380008091B1008460B4
:101190008093B1008091B00081608093B000809115
:1011A0007A00846080937A0080917A0082608093D4
:1011B0007A0080917A00816080937A0080917A0031
:1011C000806880937A001092C1001A8219828BEE97
:1011D0009AE00197F1F71092750210927602109240
:1011E000A4021092C6020E943D0384E691E090930F
:1011F00054028093530285E691E0909352028093CB
:1012000051028EE391E00E943F0560E08FEE0E9464
:101210004D0560E08FEE0E944D05BE016E5F7F4F71
:1012200080E00E947005811153C0BE016F5F7F4F47
:1012300081E00E94700581114BC08DE491E00E9415
:10124000EE046A8170E090E080E040E10E94FB04DF
:1012500085E591E00E94EE04698170E090E080E015
:1012600040E10E94FB0484E291E00E94EE048A8146
:10127000803271F58981863759F580E691E00E94C8
:101280003F050EEA10E084E6E82E82E0F82EE01634
:10129000F10651F0F80185919491682F892F0E94F1
:1012A0004D050E5F1F4FF3CF80E791E00E943F0591
:1012B00061E08FEE0E944D0562E185E60E944D05DA
:1012C00060E08FEE0E944D0584E891E00E943F05AA
:1012D000E091D702F091D80282E08083E091D302BE
:1012E000F091D4021082E091D502F091D6028FECF9
:1012F00080831092DF02E091DB02F091DC0286E055
:101300008083E091D902F091DA028081806180834C
:10131000E091D902F091DA02808188608083E091C7
:10132000D902F091DA02808180688083E091D9024D
:10133000F091DA0280818F7D80838AEA91E00E94B9
:101340003F0500E010E01A821982BE016E5F7F4FF8
:1013500083E40E947005811144C08A81883009F4B9
:1013600082C0D0F4823009F453C0843009F465C0DF
:101370008130B9F460E273E080E090E00E94E40222
:10138000BE016E5F7F4F83E40E9470058A818031C9
:10139000E1F48AEB91E01DC08032C9F070F4803135
:1013A000C1F3BE016F5F7F4F84E40E9470058981A5
:1013B0008130B9F48EEF91E028C0803409F469C01F
:1013C000803879F78AEE91E020C08032E1F48FEB2B
:1013D00091E00E943F0568EE73E080E090E00E949B
:1013E000E40264E670E080E090E00E94E40201150F
:1013F000110509F4A8CF0E94D001882309F4A3CFD6
:101400000E940000A0CF83EC91E00E943F05E9CF4D
:1014100060E273E080E090E00E94E402BE016E5F53
:101420007F4F83E40E9470058A81803109F4B1CF37
:10143000803269F288EC91E0E8CF60E273E080E00E
:1014400090E00E94E402BE016E5F7F4F83E40E9441
:1014500070058A81803109F49CCF803209F4B7CFBE
:101460008DEC91E0D2CF60E273E080E090E00E94EA
:10147000E402BE016E5F7F4F83E40E9470058A81A3
:10148000803109F486CF803209F4A1CF81ED91E05B
:10149000BCCF87ED91E0B9CFA1E21A2EAA1BBB1BEE
:1014A000FD010DC0AA1FBB1FEE1FFF1FA217B30730
:1014B000E407F50720F0A21BB30BE40BF50B661F46
:1014C000771F881F991F1A9469F76095709580950A
:1014D00090959B01AC01BD01CF010895EE0FFF1F58
:0C14E0000590F491E02D0994F894FFCFE2
:1014EC00000000000602660193015302C401A20130
:1014FC00B60100000000BC048F04EB046C045D0119
:10150C007C046D040D0A005472616E736D69737303
:10151C00696F6E206572726F722121210A00494E2B
:10152C0049542053454E534F522E2E2E0041646485
:10153C007230203D002C20204164647231203D002B
:10154C0077616B652D75702066696E6973682E0006
:10155C005365742075702067616D696E67206D6FBF
:10156C0064652E0050616A3736323020696E6974BA
:10157C0069616C697A65207265676973746572203C
:10158C0066696E69736865642E004873686F7020B5
:10159C0054657374696E673A20005469656E004C2B
:1015AC00756900506861690054726169004C656E20
:1015BC000058756F6E670043756E672063686965C8
:1015CC007520646F6E6720686F004E67756F6320BF
:1015DC00636869657520646F6E6720686F0077615A
:0415EC007665000020
:00000001FF
