:100000000C9462000C948A000C948A000C948A0070
:100010000C948A000C948A000C948A000C948A0038
:100020000C948A000C948A000C948A000C948A0028
:100030000C948A000C948A000C948A000C948A0018
:100040000C94AF020C948A000C947D020C9457021D
:100050000C948A000C948A000C948A000C948A00F8
:100060000C948A000C948A000000000024002700F1
:100070002A000000000023002600290000000000E4
:10008000250028002B0004040404040404040202D4
:100090000202020203030303030301020408102007
:1000A0004080010204081020010204081020000012
:1000B0000008000201000003040700000000000027
:1000C0000000590511241FBECFEFD8E0DEBFCDBF21
:1000D00011E0A0E0B1E0E8EDFFE002C005900D9274
:1000E000AE33B107D9F721E0AEE3B1E001C01D9214
:1000F000A03FB207E1F710E0C2E6D0E004C02197CC
:10010000FE010E94E407C136D107C9F70E943E03F1
:100110000C94EA070C940000E1EBF0E02491EDE987
:10012000F0E09491E9E8F0E0E491EE23C9F02223B5
:1001300039F0233001F1A8F4213019F1223029F1EE
:10014000F0E0EE0FFF1FE458FF4FA591B4912FB7D9
:10015000F894EC91811126C090959E239C932FBF1B
:1001600008952730A9F02830C9F0243049F72091AC
:1001700080002F7D03C0209180002F772093800086
:10018000DFCF24B52F7724BDDBCF24B52F7DFBCF68
:100190002091B0002F772093B000D2CF2091B000F3
:1001A0002F7DF9CF9E2BDACFAF92BF92CF92DF9205
:1001B000EF92FF920F931F93CF93DF936C017B011C
:1001C0008B01040F151FEB015E01AE18BF08C017AD
:1001D000D10759F06991D601ED91FC910190F08120
:1001E000E02DC6010995892B79F7C501DF91CF91E3
:1001F0001F910F91FF90EF90DF90CF90BF90AF9045
:100200000895FC01538D448D252F30E0842F90E01C
:10021000821B930B541710F0CF9608950197089501
:10022000FC01918D828D981761F0A28DAE0FBF2FCA
:10023000B11D5D968C91928D9F5F9F73928F90E020
:1002400008958FEF9FEF0895FC01918D828D98178F
:1002500031F0828DE80FF11D858D90E008958FEFCC
:100260009FEF0895FC01918D228D892F90E0805C95
:100270009F4F821B91098F739927089583E591E021
:100280000E94320121E0892B09F420E0822F089599
:1002900080E090E0892B29F00E943E0181110C94AE
:1002A00000000895FC01A48DA80FB92FB11DA35A19
:1002B000BF4F2C91848D90E001968F739927848F86
:1002C000A689B7892C93A089B1898C9183708064A9
:1002D0008C93938D848D981306C00288F389E02D4A
:1002E00080818F7D80830895EF92FF920F931F93FB
:1002F000CF93DF93EC0181E0888F9B8D8C8D9813D9
:100300001AC0E889F989808185FF15C09FB7F894E4
:10031000EE89FF896083E889F98980818370806430
:1003200080839FBF81E090E0DF91CF911F910F917B
:10033000FF90EF900895F62E0B8D10E00F5F1F4F8A
:100340000F731127E02E8C8D8E110CC00FB607FC99
:10035000FACFE889F989808185FFF5CFCE010E9427
:100360005201F1CFEB8DEC0FFD2FF11DE35AFF4F42
:10037000F0829FB7F8940B8FEA89FB8980818062B5
:10038000CFCFCF93DF93EC01888D8823B9F0AA8972
:10039000BB89E889F9898C9185FD03C0808186FD40
:1003A0000DC00FB607FCF7CF8C9185FFF2CF80818F
:1003B00085FFEDCFCE010E945201E9CFDF91CF91B1
:1003C00008953FB7F8948091430190914401A09122
:1003D0004501B091460126B5A89B05C02F3F19F0F5
:1003E0000196A11DB11D3FBFBA2FA92F982F8827B5
:1003F000BC01CD01620F711D811D911D42E0660F90
:10040000771F881F991F4A95D1F70895FC01019025
:100410000020E9F73197AF01481B590BBC0183E578
:1004200091E00C94D4008F929F92AF92BF920F9361
:100430001F93CF93DF93CDB7DEB7A1970FB6F89494
:10044000DEBF0FBECDBF19A2423008F44AE08E01D4
:100450000F5D1F4F842E912CB12CA12CA50194016E
:100460000E94C207E62FB901CA01EA30F4F4E05D48
:10047000D801EE938D01232B242B252B79F790E0C7
:1004800080E0109719F0CD010E940602A1960FB6E8
:10049000F894DEBF0FBECDBFDF91CF911F910F91BA
:1004A000BF90AF909F908F900895E95CE1CF1F922D
:1004B0000F920FB60F9211242F933F934F935F9398
:1004C0006F937F938F939F93AF93BF93EF93FF931C
:1004D00083E591E00E945201FF91EF91BF91AF91AE
:1004E0009F918F917F916F915F914F913F912F914C
:1004F0000F900FBE0F901F9018951F920F920FB67E
:100500000F9211242F938F939F93EF93FF93E0917A
:100510006301F09164018081E0916901F0916A01C9
:1005200082FD1BC0908180916C018F5F8F73209141
:100530006D01821741F0E0916C01F0E0ED5AFE4F41
:10054000958F80936C01FF91EF919F918F912F91E7
:100550000F900FBE0F901F9018958081F4CF1F92BF
:100560000F920FB60F9211242F933F938F939F9367
:10057000AF93BF9380913F0190914001A0914101C1
:10058000B091420130913E0123E0230F2D3758F501
:100590000196A11DB11D20933E0180933F019093D0
:1005A0004001A0934101B093420180914301909199
:1005B0004401A0914501B09146010196A11DB11DD4
:1005C0008093430190934401A0934501B093460169
:1005D000BF91AF919F918F913F912F910F900FBE3F
:1005E0000F901F90189526E8230F0296A11DB11DAC
:1005F000D2CFCF92DF92EF92FF920F931F93E82F0B
:10060000F92F05C0015011092109310961F19081CB
:1006100096239417B9F305C0015011092109310936
:1006200011F1908196239413F7CFC12CD12CE12C9A
:10063000F12C0AC08FEFC81AD80AE80AF80A0C157C
:100640001D052E053F0579F080818623841791F3DF
:100650006C2D7D2D8E2D9F2D1F910F91FF90EF9072
:10066000DF90CF90089560E070E080E090E01F910F
:100670000F91FF90EF90DF90CF900895CF93DF938D
:1006800000D000D0CDB7DEB7789484B5826084BD49
:1006900084B5816084BD85B5826085BD85B5816086
:1006A00085BD80916E00816080936E001092810004
:1006B00080918100826080938100809181008160BF
:1006C0008093810080918000816080938000809180
:1006D000B10084608093B1008091B000816080930C
:1006E000B00080917A00846080937A0080917A00D3
:1006F000826080937A0080917A00816080937A0092
:1007000080917A00806880937A001092C100EDE9B0
:10071000F0E02491E9E8F0E08491882399F090E0FA
:10072000880F991FFC01E859FF4FA591B491FC0176
:10073000E458FF4F859194918FB7F894EC91E22B98
:10074000EC938FBFECE9F0E02491E8E8F0E08491CD
:100750008823E1F090E0880F991FFC01E859FF4FD2
:10076000A591B491FC01E458FF4F859194919A832F
:1007700089833FB7F8949C91822F809598239C930E
:10078000E981FA819081892380833FBFE0916301F1
:10079000F091640182E08083E0915F01F09160015B
:1007A0001082E0916101F09162018FEC80831092E0
:1007B0006B01E0916701F091680186E08083E09130
:1007C0006501F0916601808180618083E09165011F
:1007D000F0916601808188608083E0916501F091ED
:1007E0006601808180688083E0916501F0916601F7
:1007F00080818F7D808393E0292E312C81E00E94BF
:100800008C0083E290E00197F1F780E00E948C0079
:10081000C1010197F1F7ECE9F0E06491E8E8F0E05C
:100820008491E82FF0E0EE0FFF1FEE58FF4F859107
:10083000949100E412E42FE030E0462F0E94F90288
:100840006B017C01C114D104E104F10439F0FFEF24
:10085000CF1ADF0AEF0AFF0A8FE0F82280904B01DF
:1008600090904C01A0904D01B0904E0120E030E0FE
:1008700040E252E4C501B4010E9487059B01AC012E
:10088000C501B4010E94F80569837A838B839C8338
:1008900040904701509048016090490170904A0192
:1008A000C701B6010E94990626E933E44BE05DE3F7
:1008B0000E94500720E030E040E05FE30E945007D4
:1008C000A30192010E94860529813A814B815C81B6
:1008D0000E945007A30192010E9487056B017C01D1
:1008E000C0924701D0924801E0924901F0924A013A
:1008F00029813A814B815C8160E070E080E89FE370
:100900000E948605A50194010E94500720E030E076
:1009100040E251E40E94870560934B0170934C01C3
:1009200080934D0190934E01C0924F01D09250019F
:10093000E0925101F092520182E191E00E940602A0
:10094000C0904F01D0905001E0905101F0905201C1
:10095000A7019601C701B6010E94BD078823B9F01F
:100960008FE291E00E9406028BE391E00E94060272
:100970000E94E101E0E0F0E0EF2B09F43FCF0E949C
:100980003E01882309F43ACF0E94000037CF460188
:100990005701E894B7F82FEF3FEF4FE75FE7C50146
:1009A000B4010E94BD0781110DC02FEF3FEF4FE74B
:1009B0005FE7C501B4010E94F30518161CF483E338
:1009C00091E0D0CF2FEF3FEF4FE75FE4C701B601D3
:1009D0000E944B0718161CF487E391E0C3CF2FEF5A
:1009E0003FEF4FE75FECC701B6010E94F30587FDBB
:1009F000F3CF20E030E0A901C701B6010E94F30562
:100A000087FF09C06DE283E591E00E947401F7FA67
:100A1000F094F7F8F0942AE037ED43EA5BE3C7017E
:100A2000B6010E9487054B015C010E946A066B01BA
:100A30007C010E9499069B01AC01C501B4010E9492
:100A400086054B015C014AE0C701B6010E94130212
:100A50006EE283E591E00E94740120E030E040E224
:100A600051E4C501B4010E9450074B015C010E9492
:100A70006A066B01F12CE12C4AE0C701B6010E9425
:100A80001302C701B6010E9499069B01AC01C50182
:100A9000B4010E94860520E030E040E251E40E946B
:100AA00050070E946A0690E080E04AE00E9413022C
:100AB0005BCFE3E5F1E01382128288EE93E0A0E0E1
:100AC000B0E084839583A683B78384E091E091832B
:100AD000808385EC90E09587848784EC90E097870D
:100AE000868780EC90E0918B808B81EC90E0938BFB
:100AF000828B82EC90E0958B848B86EC90E0978BD8
:100B0000868B118E128E138E148E08955058BB272B
:100B1000AA270E949E050C9411070E94030738F033
:100B20000E940A0720F039F49F3F19F426F40C9430
:100B300000070EF4E095E7FB0C94FA06E92F0E94FB
:100B4000220758F3BA17620773078407950720F046
:100B500079F4A6F50C9444070EF4E0950B2EBA2F09
:100B6000A02D0B01B90190010C01CA01A0011124B3
:100B7000FF27591B99F0593F50F4503E68F11A165F
:100B8000F040A22F232F342F4427585FF3CF4695F0
:100B900037952795A795F0405395C9F77EF41F1612
:100BA000BA0B620B730B840BBAF09150A1F0FF0FDC
:100BB000BB1F661F771F881FC2F70EC0BA0F621FC8
:100BC000731F841F48F4879577956795B795F795B8
:100BD0009E3F08F0B0CF9395880F08F09927EE0F4D
:100BE0009795879508950E94D60608F481E00895A8
:100BF0000E940C060C9411070E940A0758F00E94EC
:100C0000030740F029F45F3F29F00C94FA065111D4
:100C10000C9445070C9400070E94220768F399235F
:100C2000B1F3552391F3951B550BBB27AA276217E8
:100C30007307840738F09F5F5F4F220F331F441FF5
:100C4000AA1FA9F335D00E2E3AF0E0E832D0915029
:100C50005040E695001CCAF72BD0FE2F29D0660F16
:100C6000771F881FBB1F261737074807AB07B0E859
:100C700009F0BB0B802DBF01FF2793585F4F3AF05F
:100C80009E3F510578F00C94FA060C9445075F3F9F
:100C9000E4F3983ED4F3869577956795B795F795E5
:100CA0009F5FC9F7880F911D9695879597F90895CD
:100CB000E1E0660F771F881FBB1F62177307840769
:100CC000BA0720F0621B730B840BBA0BEE1F88F778
:100CD000E09508950E942A0788F09F5798F0B92F51
:100CE0009927B751B0F0E1F0660F771F881F991F61
:100CF0001AF0BA95C9F714C0B13091F00E944407B8
:100D0000B1E008950C944407672F782F8827B85FC7
:100D100039F0B93FCCF3869577956795B395D9F7B8
:100D20003EF490958095709561957F4F8F4F9F4FC2
:100D30000895E89409C097FB3EF4909580957095CE
:100D400061957F4F8F4F9F4F9923A9F0F92F96E917
:100D5000BB279395F695879577956795B795F1118C
:100D6000F8CFFAF4BB0F11F460FF1BC06F5F7F4F29
:100D70008F4F9F4F16C0882311F096E911C077233B
:100D800021F09EE8872F762F05C0662371F096E844
:100D9000862F70E060E02AF09A95660F771F881F13
:100DA000DAF7880F9695879597F90895990F0008B7
:100DB000550FAA0BE0E8FEEF16161706E807F9072D
:100DC000C0F012161306E407F50798F0621B730BC8
:100DD000840B950B39F40A2661F0232B242B252B49
:100DE00021F408950A2609F4A140A6958FEF811DEC
:100DF000811D089597F99F6780E870E060E008958D
:100E00009FEF80EC089500240A9416161706180622
:100E10000906089500240A941216130614060506FE
:100E20000895092E0394000C11F4882352F0BB0F8F
:100E300040F4BF2B11F460FF04C06F5F7F4F8F4FF2
:100E40009F4F089557FD9058440F551F59F05F3F2D
:100E500071F04795880F97FB991F61F09F3F79F0DC
:100E600087950895121613061406551FF2CF46955E
:100E7000F1DF08C0161617061806991FF1CF8695E0
:100E80007105610508940895E894BB2766277727C4
:100E9000CB0197F908950E94D60608F48FEF0895C4
:100EA0000E9463070C9411070E94030738F00E9408
:100EB0000A0720F0952311F00C94FA060C94000711
:100EC00011240C9445070E94220770F3959FC1F3EB
:100ED000950F50E0551F629FF001729FBB27F00DE8
:100EE000B11D639FAA27F00DB11DAA1F649F66273D
:100EF000B00DA11D661F829F2227B00DA11D621F8C
:100F0000739FB00DA11D621F839FA00D611D221F45
:100F1000749F3327A00D611D231F849F600D211D29
:100F2000822F762F6A2F11249F5750409AF0F1F0AC
:100F300088234AF0EE0FFF1FBB1F661F771F881F15
:100F400091505040A9F79E3F510580F00C94FA064D
:100F50000C9445075F3FE4F3983ED4F3869577956C
:100F60006795B795F795E7959F5FC1F7FE2B880FBB
:100F7000911D9695879597F908950E94D606880B3E
:100F8000990B0895A1E21A2EAA1BBB1BFD010DC0EF
:100F9000AA1FBB1FEE1FFF1FA217B307E407F50729
:100FA00020F0A21BB30BE40BF50B661F771F881F05
:100FB000991F1A9469F760957095809590959B019B
:100FC000AC01BD01CF010895EE0FFF1F0590F49114
:080FD000E02D0994F894FFCF15
:100FD800000000007401D4000101C10132011001B8
:100FE8002401436F72726563746564206469737465
:100FF800616E63652028696E20636D293A20006E52
:0E100800616E00696E66006F7666000D0A006C
:00000001FF
