:100000000C9463000C948B000C948B000C94AF0345
:100010000C94AF030C94AF030C948B000C948B00E6
:100020000C948B000C948B000C948B000C948B0024
:100030000C948B000C948B000C948B000C948B0014
:100040000C940D030C948B000C947D030C945703BB
:100050000C948B000C948B000C948B000C948B00F4
:100060000C948B000C948B0000000008000201002F
:100070000003040700000000000000000000000072
:1000800023002600290000000000240027002A0089
:1000900000000000250028002B00040404040404D0
:1000A0000404020202020202030303030303010227
:1000B00004081020408001020408102001020408F6
:1000C00010207304440711241FBECFEFD8E0DEBF19
:1000D000CDBF23E0ACEFB1E001C01D92AB31B20760
:1000E000E1F711E0A0E0B1E0EEE8F4E102C0059034
:1000F0000D92AC3FB107D9F710E0C2E6D0E004C0E2
:100100002197FE010E940609C136D107C9F70E9456
:100110005C050C943A0A0C940000809110039091B5
:100120001103892B59F1E0915702F091580282E0B6
:10013000E63FF80719F1309739F0A389B4899C910B
:100140008589809589238C93809114038E7F809379
:100150001403109256021092550286EF92E090938B
:10016000580280935702E0910903F0910A038081BD
:1001700090910B03892B808381E0089580E008959E
:10018000AF92BF92CF92DF92EF92FF920F931F93A5
:10019000CF93DF936C017B018B01040F151FEB01E3
:1001A0005E01AE18BF08C017D10759F06991D6019A
:1001B000ED91FC910190F081E02DC6010995892B0C
:1001C00079F7C501DF91CF911F910F91FF90EF90CB
:1001D000DF90CF90BF90AF900895FC01538D448D78
:1001E000252F30E0842F90E0821B930B541710F0E2
:1001F000CF96089501970895FC01918D828D9817EF
:1002000061F0A28DAE0FBF2FB11D5D968C91928DC6
:100210009F5F9F73928F90E008958FEF9FEF0895F7
:10022000FC01918D828D981731F0828DE80FF11DC0
:10023000858D90E008958FEF9FEF0895FC01918DDB
:10024000228D892F90E0805C9F4F821B91098F73D4
:100250009927089589E592E00E941E0121E0892BEB
:1002600009F420E0822F089580E090E0892B29F0A6
:100270000E942A0181110C9400000895FC01A48DB4
:10028000A80FB92FB11DA35ABF4F2C91848D90E0B8
:1002900001968F739927848FA689B7892C93A0899B
:1002A000B1898C91837080648C93938D848D981325
:1002B00006C00288F389E02D80818F7D80830895B8
:1002C000EF92FF920F931F93CF93DF93EC0181E0A6
:1002D000888F9B8D8C8D98131AC0E889F98980814D
:1002E00085FF15C09FB7F894EE89FF896083E88980
:1002F000F98980818370806480839FBF81E090E072
:10030000DF91CF911F910F91FF90EF900895F62EFE
:100310000B8D10E00F5F1F4F0F731127E02E8C8D98
:100320008E110CC00FB607FCFACFE889F9898081DD
:1003300085FFF5CFCE010E943E01F1CFEB8DEC0F92
:10034000FD2FF11DE35AFF4FF0829FB7F8940B8FFA
:10035000EA89FB8980818062CFCF682F89E592E0AE
:100360000C946001CF93DF93EC01888D8823B9F062
:10037000AA89BB89E889F9898C9185FD03C08081B0
:1003800086FD0DC00FB607FCF7CF8C9185FFF2CF2D
:10039000808185FFEDCFCE010E943E01E9CFDF9144
:1003A000CF910895209157023091580228173907AC
:1003B00071F49091550280915602981741F0E091A6
:1003C0005502F0E0E450FE4F808190E008958FEFF9
:1003D0009FEF08950895EF92FF920F931F93CF938D
:1003E000DF93DC015C96ED90FC905D97E114F104E5
:1003F00079F481E090E013969C938E93129790E0AD
:1004000080E0DF91CF911F910F91FF90EF900895C1
:100410005196ED91FC91529750968C915097982F50
:1004200090950FB75E962C915E97122F127021FD5A
:100430006095F8942081112319F1282B2083E7017E
:100440002197F1F728E0462F50E0308160FF1AC075
:10045000382B3083E7012197F1F7BA01759567953D
:10046000215089F7112381F08081892380830FBF78
:100470005C968D919C910197F1F781E090E0C1CF5E
:100480002923DCCF3923E5CF9081892BEFCF209131
:100490005702309158022817390761F480915602AB
:1004A0002091550290E0805C9F4F821B91098F73D1
:1004B0009927089590E080E00895209157023091A7
:1004C000580228173907B9F49091550280915602C5
:1004D000981789F0E0915502F0E0E450FE4F8081DA
:1004E0002091550230E02F5F3F4F2F733327209329
:1004F000550290E008958FEF9FEF089590E080E01F
:100500000895FC0101900020E9F73197AF01481BE5
:10051000590BBC0189E592E00C94C0008F929F9228
:10052000AF92BF920F931F93CF93DF93CDB7DEB7F8
:10053000A1970FB6F894DEBF0FBECDBF19A242300F
:1005400008F44AE08E010F5D1F4F842E912CB12CD0
:10055000A12CA50194010E949308E62FB901CA01BC
:10056000EA30F4F4E05DD801EE938D01232B242BC7
:10057000252B79F790E080E0109719F0CD010E94CB
:100580008102A1960FB6F894DEBF0FBECDBFDF91FA
:10059000CF911F910F91BF90AF909F908F90089532
:1005A000E95CE1CFCF93DF930E948102EC018AE204
:1005B00091E00E9481028C0F9D1FDF91CF910895E1
:1005C000CF92DF92EF92FF920F931F93CF93DF931F
:1005D0007C01EB01CB0101960E940C098C01AE015C
:1005E000B7010E94310AC00FD11F188240E150E0CC
:1005F00070E060E0C8010E9460076B017C01C801E7
:100600000E94A809C701B601DF91CF911F910F91F8
:10061000FF90EF90DF90CF9008951F920F920FB64A
:100620000F9211242F933F938F939F93AF93BF9378
:100630008091510290915202A0915302B0915402C4
:100640003091500223E0230F2D3758F50196A11D5C
:10065000B11D209350028093510290935202A093B7
:100660005302B093540280914C0290914D02A0919C
:100670004E02B0914F020196A11DB11D80934C0214
:1006800090934D02A0934E02B0934F02BF91AF9151
:100690009F918F913F912F910F900FBE0F901F90C0
:1006A000189526E8230F0296A11DB11DD2CF1F92E7
:1006B0000F920FB60F9211242F933F934F935F9396
:1006C0006F937F938F939F93AF93BF93EF93FF931A
:1006D00089E592E00E943E01FF91EF91BF91AF91B9
:1006E0009F918F917F916F915F914F913F912F914A
:1006F0000F900FBE0F901F9018951F920F920FB67C
:100700000F9211242F938F939F93EF93FF93E09178
:100710006902F0916A028081E0916F02F0917002AB
:1007200082FD1BC09081809172028F5F8F73209138
:100730007302821741F0E0917202F0E0E75AFD4F38
:10074000958F80937202FF91EF919F918F912F91DE
:100750000F900FBE0F901F9018958081F4CF1F92BD
:100760000F920FB60F9211242F933F934F935F93E5
:100770006F937F938F939F93AF93BF93EF93FF9369
:10078000E0915702F0915802309749F0A685B7855D
:100790008585968D91FF14C09C918923A1F4FF91CA
:1007A000EF91BF91AF919F918F917F916F915F91E9
:1007B0004F913F912F910F900FBE0F901F90189562
:1007C0009C91892361F7A389B4899C91858980953F
:1007D00089238C93868997890197F1F7608D718DB4
:1007E000A685B785558538E020E0CB010197F1F764
:1007F000822F90E095958795282F4C91452309F0FD
:100800002068315091F7868D81FD209580915602A8
:1008100090E001968F73992730915502381799F01F
:10082000A0915602B0E0A450BE4F2C938093560284
:10083000828D938D0197F1F7A389B4898C91958965
:10084000892B8C93ACCF868D8160868FF1CF90E021
:10085000FC01E859FF4F2491FC01E255FF4F349110
:10086000FC01E656FF4FE491EE23C9F0222339F054
:10087000233001F1A8F4213019F1223029F1F0E000
:10088000EE0FFF1FE057FF4FA591B4918FB7F8947B
:10089000EC91611126C030953E233C938FBF0895A3
:1008A0002730A9F02830C9F0243049F78091800022
:1008B0008F7D03C0809180008F7780938000DFCF91
:1008C00084B58F7784BDDBCF84B58F7DFBCF8091DE
:1008D000B0008F778093B000D2CF8091B0008F7D31
:1008E000F9CF3E2BDACF0F931F93CF93DF93109264
:1008F0005C0210925B0288EE93E0A0E0B0E080938F
:100900005D0290935E02A0935F02B09360022AE0C2
:1009100031E030935A022093590225EC30E03093B5
:1009200066022093650224EC30E030936802209345
:10093000670220EC30E030936A022093690221ECD8
:1009400030E030936C0220936B0222EC30E0309365
:100950006E0220936D0226EC30E0309370022093FB
:100960006F0210927202109273021092740210922F
:1009700075021092F9021092F8028093FA02909395
:10098000FB02A093FC02B093FD028CE191E09093F6
:10099000F7028093F60210920D0310920C0310924E
:1009A0000F0310920E031092110310921003109275
:1009B000130310921203609114036E7F6D7F609396
:1009C00014036695617081E0682788E00E9427041F
:1009D00046EB50E0FA01649182EA90E0FC01249138
:1009E000222399F030E0220F331FF901EA57FF4F1D
:1009F000A591B491F901E057FF4F259134912FB79C
:100A0000F8943C91632B6C932FBFFA01449140936F
:100A10000603FC018491E82FF0E0EE0FFF1FE05782
:100A2000FF4F85919491909308038093070304EB03
:100A300010E0F8012491C0EAD0E0FE0184918823FF
:100A4000C9F090E0880F991FFC01EA57FF4FA5916C
:100A5000B491FC01E057FF4F459154913FB7F89492
:100A60009C91822F809598239C93FA0190818923F1
:100A700080833FBF8091140381FD04C061E086E064
:100A80000E94270486E080930203F80104910093FA
:100A90000303FE01C491EC2FF0E0EE0FFF1FE458BA
:100AA000FF4F859194919093050380930403DF9108
:100AB000CF911F910F910895789484B5826084BD81
:100AC00084B5816084BD85B5826085BD85B5816052
:100AD00085BD80916E00816080936E0010928100D0
:100AE000809181008260809381008091810081608B
:100AF000809381008091800081608093800080914C
:100B0000B10084608093B1008091B00081608093D7
:100B1000B00080917A00846080937A0080917A009E
:100B2000826080937A0080917A00816080937A005D
:100B300080917A00806880937A001092C100E091E1
:100B40006902F0916A0282E08083E0916502F0918F
:100B500066021082E0916702F09168028FEC808358
:100B600010927102E0916D02F0916E0286E0808336
:100B7000E0916B02F0916C02808180618083E09152
:100B80006B02F0916C02808188608083E0916B023F
:100B9000F0916C02808180688083E0916B02F0911B
:100BA0006C0280818F7D808310921103109210035C
:100BB00010920F0310920E0310920D0310920C036B
:100BC0008DE991E0909313038093120390910203B7
:100BD000963108F046C02DEB30E030930D032093A2
:100BE0000C032BE931E030930F0320930E032CE22A
:100BF00031E030931103209310032091680084E0CA
:100C0000983048F031E09E3008F430E081E001C0D7
:100C1000880F3A95EAF7822B809368002DE630E042
:100C2000983050F02BE630E09E3030F02CE630E08B
:100C3000963110F030E020E030930A03209309034E
:100C4000292F30E0983080F581E001C0880F9A9517
:100C5000EAF780930B03809112039091130301979D
:100C6000F1F70E948D000E948D008DE291E00E94BC
:100C7000D20207E412E0C0E0D0E086EF92E00E94EA
:100C800047021816190664F586EF92E00E945D028D
:100C90008F3F980729F18230910599F410924B0209
:100CA00010924A0240E011C09E3040F428503109B1
:100CB00081E001C0880F2A95EAF7CBCF2E50310989
:100CC000F7CF41E08330910569F720914A023091D6
:100CD0004B022E3031056CF088E391E00E94D20285
:100CE000209759F20E942A01882339F20E940000BD
:100CF000C4CFB9016F5F7F4F70934B0260934A027C
:100D0000245C3D4FF9018083442351F36E3071051B
:100D100009F0B5C0E0903C02F09049028AE591E00C
:100D20000E94D20283E691E00E9481026E2D70E063
:100D300090E080E04AE00E948E028AE291E00E9408
:100D4000810282E791E00E94D20280913D020E94DE
:100D5000AD0180913E020E94AD0187E891E00E94C2
:100D6000D2028FE3C82E82E0D82EF60181916F0166
:100D70000E94AD010C151D05C1F782E991E00E94AA
:100D8000D20289E991E00E948102809147020E948B
:100D9000AD01809148020E94AD018CE291E00E9479
:100DA000D20282EB91E00E9481026F2D70E090E010
:100DB00080E04AE00E948E028AE291E00E94810275
:100DC00080E691E00E94D20268E070E08FE392E05A
:100DD0000E94E0026B017C0181EC91E00E948102A3
:100DE0004AE0C701B601F7FE0BC08DE20E94AD01DB
:100DF00066277727CB016C197D098E099F094AE088
:100E00000E948E028AE291E00E948102C12CD12CC4
:100E10007601B12CA12C62E070E0C501835C9D4F8E
:100E20000E94E002C626D726E826F926F2E0AF0E99
:100E3000B11C2AE0A216B10471F781ED91E00E9485
:100E4000810240E1C701B6010E948E0262E070E0BB
:100E500087E492E00E94E002C616D706E806F9068B
:100E600059F48CEE91E00E9481028CE291E00E94A4
:100E7000D2028AE591E032CF82EF91E0F4CF109276
:100E80004B0210924A022CCF8CE191E09093F70232
:100E90008093F6028091570290915802865F9240AB
:100EA00071F4E0910903F0910A03908180910B03A2
:100EB00080958923808310925802109257020895DA
:100EC000B0E0A0E0E6E6F7E00C94C1085C016B013D
:100ED0007A016115710519F0FB0191838083E1149A
:100EE000F10451F0C7010297839730F040E030E001
:100EF00020E090E072C05E01E5012196F5011081CD
:100F0000812F90E00E947708892BA9F71D3201F507
:100F10002196F501118101E0E114F10409F4DAC030
:100F2000F0E1EF16F10409F082C0103359F4888122
:100F30008F7D883509F076C0198122960260F0E134
:100F4000EF2EF12C812C912CA12C88E0B82E8CC096
:100F50001B3221F4E5012296F501118100E0DCCF7E
:100F6000EAE0EE16F10409F4BBC0F0E1EF16F1047B
:100F700009F06DC0E7CF78E0E72EF12C812C912CA1
:100F8000A12C60E1B62E70C03FE9310F3A3128F450
:100F900039EA332E80C021E09AC0302F3170C1145D
:100FA000D10431F0222309F12197F601D183C083C6
:100FB00027FF21C060E070E080E090E8311104C0BC
:100FC0006FEF7FEF8FEF9FE722E230E03093160361
:100FD00020931503462F372F282F642F732F822F2E
:100FE000CDB7DEB7E1E10C94DD0801FF04C0229724
:100FF000F601D183C083332341F09095809570959D
:1010000061957F4F8F4F9F4FE5CF97FFE3CF82E2F0
:1010100090E090931603809315036FEF7FEF8FEFAF
:101020009FE7D8CF10E3E114F10409F4A4CF28E03E
:10103000E216F10409F4A2CF0CF092CF812C912C8E
:10104000A12CE0E4BE2E82E0E816F10469F060E035
:1010500070E080E090E897010F2C000C440B550BDA
:101060000E94930849015A0120E060E070E0CB0142
:1010700027010F2C000C66087708FE0150ED352E75
:10108000310E39E0331540F43FEB310F3A3108F0BF
:101090007BCF49EC342E310E3E141F040CF07DCF73
:1010A00027FD15C086169706A806B90678F0A30195
:1010B00092010E948308630D711D811D911D613095
:1010C0007105810520E8920708F465CF2FEF21967E
:1010D0001081D3CF103309F42ACF2AE0E22EF12C6D
:1010E0009CEC892E982CA82C9CE0B92EBDCF911198
:1010F0000C948008803219F089508550C8F7089503
:10110000992788270895DB018F939F930E94B50844
:10111000BF91AF91A29F800D911DA39F900DB29F93
:10112000900D11240895A1E21A2EAA1BBB1BFD01EC
:101130000DC0AA1FBB1FEE1FFF1FA217B307E407B6
:10114000F50720F0A21BB30BE40BF50B661F771F0E
:10115000881F991F1A9469F76095709580959095EE
:101160009B01AC01BD01CF0108950E94F708A59F26
:10117000900DB49F900DA49F800D911D1124089592
:101180002F923F924F925F926F927F928F929F9297
:10119000AF92BF92CF92DF92EF92FF920F931F9385
:1011A000CF93DF93CDB7DEB7CA1BDB0B0FB6F89436
:1011B000DEBF0FBECDBF09942A88398848885F8476
:1011C0006E847D848C849B84AA84B984C884DF80E7
:1011D000EE80FD800C811B81AA81B981CE0FD11DCB
:1011E0000FB6F894DEBF0FBECDBFED010895A29FEC
:1011F000B001B39FC001A39F700D811D1124911DEB
:10120000B29F700D811D1124911D0895EE0FFF1FD7
:101210000590F491E02D09940F931F93CF93DF93E2
:101220008230910510F482E090E0E0911903F09192
:101230001A0330E020E0B0E0A0E0309799F42115E7
:10124000310509F44AC0281B390B24303105D8F583
:101250008A819B816115710589F1FB0193838283EA
:10126000FE0111C040815181028113814817590745
:10127000E0F04817590799F4109761F012960C9313
:10128000129713961C933296CF01DF91CF911F9145
:101290000F9108950093190310931A03F4CF2115A9
:1012A000310551F04217530738F0A901DB019A01CB
:1012B000BD01DF01F801C1CFEF01F9CF90931A030F
:1012C00080931903CDCFFE01E20FF31F8193919319
:1012D0002250310939832883D7CF209117033091C9
:1012E0001803232B41F42091020130910301309324
:1012F000180320931703209100013091010121155B
:10130000310541F42DB73EB74091040150910501DC
:10131000241B350BE0911703F0911803E217F30734
:10132000A0F42E1B3F0B2817390778F0AC014E5F55
:101330005F4F2417350748F04E0F5F1F5093180377
:1013400040931703819391939FCFF0E0E0E09CCF0F
:10135000CF93DF930097E9F0FC013297138212825A
:10136000A0911903B0911A03ED0130E020E010972D
:10137000A1F420813181820F931F209117033091B6
:1013800018032817390709F061C0F0931803E09398
:101390001703DF91CF910895EA01CE17DF07E8F533
:1013A0004A815B819E0141155105B1F7E901FB833B
:1013B000EA8349915991C40FD51FEC17FD0761F4D9
:1013C000808191810296840F951FE901998388831A
:1013D000828193819B838A83F0E0E0E012968D9175
:1013E0009C9113970097B9F52D913C911197CD01E0
:1013F0000296820F931F209117033091180328172C
:10140000390739F6309751F510921A0310921903E3
:10141000B0931803A0931703BCCFD383C28340813A
:101420005181840F951FC817D90761F44E5F5F4F34
:1014300088819981480F591F518340838A819B81FC
:10144000938382832115310509F0B0CFF0931A03FD
:10145000E09319039ECFFD01DC01C0CF13821282FD
:10146000D7CFFB01DC0102C001900D9241505040EA
:10147000D8F7089510E0C2E6D0E004C0FE010E9453
:0E14800006092196C336D107C9F7F894FFCFAD
:10148E0000001B038000000000006001C000ED00A2
:10149E00B2011E01FC00100100000000EB01C000B3
:1014AE007E02EA0147025D02D2010D0A0020494E7A
:1014BE00495420444F4E45004572726F723A204295
:1014CE007566666572206F766572666C6F772064DE
:1014DE00657465637465642120002D2D2D2D2D2DD1
:1014EE002D2D004D6573736167652D486561643AF6
:1014FE0020004D6573736167652D4461746120280A
:10150E00484558293A2000202876657273696F6E17
:10151E002900202874616729004D65737361676522
:10152E002D436865636B73756D2028484558293ABD
:10153E0020004D6573736167652D5461696C3A20A7
:10154E0000457874726163746564205461673A2053
:10155E000045787472616374656420436865636BDB
:10156E0073756D2028484558293A200020284F4B86
:0C157E00290020284E4F54204F4B29001C
:00000001FF
