:100000000C9458000C9480000C9480000C94800098
:100010000C9480000C9480000C9480000C94800060
:100020000C9480000C9480000C9480000C94800050
:100030000C9480000C9480000C9480000C94800040
:100040000C944A040C9480000C9418040C94F20351
:100050000C9480000C9480000C9480000C94800020
:100060000C9494040C9480000000000025002800EB
:100070002B00040404040404040402020202020229
:10008000030303030303010204081020408001025C
:1000900004081020010204081020000000080002DB
:1000A0000100000304070000000000000000B30589
:1000B00011241FBECFEFD8E0DEBFCDBF11E0A0E01E
:1000C000B1E0E8E4F2E102C005900D92AE3FB10765
:1000D000D9F723E0AEEFB1E001C01D92AB36B20715
:1000E000E1F710E0C8E5D0E004C02197FE010E94CE
:1000F0001C09C735D107C9F70E940C060C942209C8
:100100000C9400000895089580915D0390915E0322
:10011000891B990B0895AF92BF92CF92DF92EF9215
:10012000FF920F931F93CF93DF936C017B018B01A1
:10013000040F151FEB015E01AE18BF08C017D107F1
:1001400059F06991D601ED91FC910190F081E02D7B
:10015000C6010995892B79F7C501DF91CF911F91D0
:100160000F91FF90EF90DF90CF90BF90AF900895E8
:10017000FC01538D448D252F30E0842F90E0821BAD
:10018000930B541710F0CF96089501970895FC0132
:10019000918D828D981761F0A28DAE0FBF2FB11D8A
:1001A0005D968C91928D9F5F9F73928F90E00895E2
:1001B0008FEF9FEF0895FC01918D828D981731F09C
:1001C000828DE80FF11D858D90E008958FEF9FEFF0
:1001D0000895FC01918D228D892F90E0805C9F4FC6
:1001E000821B91098F73992708958AEB92E00E94F0
:1001F000E90021E0892B09F420E0822F089580E0B6
:1002000090E0892B29F00E94F50081110C940000E8
:100210000895FC01A48DA80FB92FB11DA35ABF4F9B
:100220002C91848D90E001968F739927848FA689F5
:10023000B7892C93A089B1898C91837080648C9349
:10024000938D848D981306C00288F389E02D8081F8
:100250008F7D80830895EF92FF920F931F93CF932A
:10026000DF93EC0181E0888F9B8D8C8D98131AC0F1
:10027000E889F989808185FF15C09FB7F894EE89D8
:10028000FF896083E889F989808183708064808335
:100290009FBF81E090E0DF91CF911F910F91FF9080
:1002A000EF900895F62E0B8D10E00F5F1F4F0F7328
:1002B0001127E02E8C8D8E110CC00FB607FCFACFE3
:1002C000E889F989808185FFF5CFCE010E94090177
:1002D000F1CFEB8DEC0FFD2FF11DE35AFF4FF082B4
:1002E0009FB7F8940B8FEA89FB8980818062CFCF1A
:1002F000682F8AEB92E00C942B01CF93DF93EC01F3
:10030000888D8823B9F0AA89BB89E889F9898C91FD
:1003100085FD03C0808186FD0DC00FB607FCF7CFB9
:100320008C9185FFF2CF808185FFEDCFCE010E94B9
:100330000901E9CFDF91CF91089590E0FC01E656E5
:10034000FF4F2491FC01EA57FF4F3491FC01EE5816
:10035000FF4FE491EE23C9F0222339F0233001F15D
:10036000A8F4213019F1223029F1F0E0EE0FFF1F3F
:10037000E859FF4FA591B4918FB7F894EC916111B2
:1003800026C030953E233C938FBF08952730A9F0B7
:100390002830C9F0243049F7809180008F7D03C058
:1003A000809180008F7780938000DFCF84B58F7736
:1003B00084BDDBCF84B58F7DFBCF8091B0008F777C
:1003C0008093B000D2CF8091B0008F7DF9CF3E2BCB
:1003D000DACF3FB7F8948091470290914802A091FC
:1003E0004902B0914A0226B5A89B05C02F3F19F0DB
:1003F0000196A11DB11D3FBFBA2FA92F982F8827A5
:10040000BC01CD01620F711D811D911D42E0660F7F
:10041000771F881F991F4A95D1F708958F929F9251
:10042000AF92BF92CF92DF92EF92FF924B015C01AD
:100430000E94E9016B017C010E94E9016C197D09B0
:100440008E099F09683E734081059105A8F321E05C
:10045000821A9108A108B10888EEC80E83E0D81E60
:10046000E11CF11C81149104A104B10429F7FF904F
:10047000EF90DF90CF90BF90AF909F908F900895B6
:1004800020911F02260F3327331F21323105ECF450
:1004900020919302FC0190E080E0243069F082E03A
:1004A0000895A0911F022191AC0141505E4FA40F0D
:1004B000B52FB11D2C930196861798F380911F02DA
:1004C000680F60931F0280E0089581E00895109204
:1004D000930281E08093920210928D0261E082E1AA
:1004E0000E949D0161E083E10E949D01E9EBF0E043
:1004F00080818E7F808380818D7F808388E480935C
:10050000B80085E48093BC000895CF93DF9391E019
:100510009093FE018823B9F0C091B800D091BA0041
:100520008091BC008A7B8093BC0060E082E10E94E5
:100530009D0160E083E10E949D010E946702D093CB
:10054000BA00C093B800DF91CF9108950895E0916B
:100550005E0380915D03E81730F4F0E0E756FD4F4D
:10056000808190E008958FEF9FEF089590915E0352
:1005700080915D032FEF3FEF981748F4E92FF0E0EB
:10058000E756FD4F208130E09F5F90935E03C901E5
:100590000895CF92DF92EF92FF920F931F93CF9324
:1005A000DF937C01CB018A0120914B02222389F049
:1005B000EB016B01C40ED51ECC15DD0569F0699108
:1005C000D701ED91FC910190F081E02DC7010995D3
:1005D000F3CF642F0E944002C801DF91CF911F9199
:1005E0000F91FF90EF90DF90CF900895CF93DF931E
:1005F0001F92CDB7DEB7698320914B022223F9F019
:1006000020915B03203258F021E030E0FC0133837D
:10061000228390E080E00F90DF91CF910895809148
:100620005C03E82FF0E0E45BFD4F998190838F5FDE
:1006300080935C0380935B0381E090E0ECCF61E00A
:10064000CE0101960E944002F7CF90E080E008952D
:10065000FC0101900020E9F73197AF01481B590BCD
:10066000BC018AEB92E00C948B008F929F92AF9228
:10067000BF920F931F93CF93DF93CDB7DEB7A197B0
:100680000FB6F894DEBF0FBECDBF19A2423008F4FA
:100690004AE08E010F5D1F4F842E912CB12CA12CAE
:1006A000A50194010E94FA08E62FB901CA01EA30B7
:1006B000F4F4E05DD801EE938D01232B242B252B40
:1006C00079F790E080E0109719F0CD010E9428039F
:1006D000A1960FB6F894DEBF0FBECDBFDF91CF91CC
:1006E0001F910F91BF90AF909F908F900895E95CFC
:1006F000E1CFCF92DF92EF92FF92CF93DF936B0126
:100700007C016DE28AEB92E00E942B01EC016627EE
:100710007727CB016C197D098E099F094AE00E9459
:1007200035038C0F9D1FDF91CF91FF90EF90DF90ED
:10073000CF900895CF93DF930E942803EC0184E2C9
:1007400091E00E9428038C0F9D1FDF91CF910895A7
:10075000CF93DF93EC010A9724F480E390E00E94AA
:100760007801BE01DD0F880B990B4AE0DF91CF9134
:100770000C94350385ED8093BC0080919502909197
:100780009602A0919702B09198020796A11DB11D03
:1007900023E0B695A795979587952A95D1F720914F
:1007A000BC0024FD03C0109293020895409195026D
:1007B000509196026091970270919802452B462BBA
:1007C000472B69F30097A105B10541F025E32A9570
:1007D000F1F700000197A109B109E1CF80919402DE
:1007E0000C9485021F920F920FB60F9211242F9333
:1007F0003F934F935F936F937F938F939F93AF93A9
:10080000BF93EF93FF938AEB92E00E940901FF915F
:10081000EF91BF91AF919F918F917F916F915F9178
:100820004F913F912F910F900FBE0F901F901895F1
:100830001F920F920FB60F9211242F938F939F93B5
:10084000EF93FF93E091CA02F091CB028081E09197
:10085000D002F091D10282FD1BC090818091D30221
:100860008F5F8F732091D402821741F0E091D30201
:10087000F0E0E654FD4F958F8093D302FF91EF9106
:100880009F918F912F910F900FBE0F901F901895F1
:100890008081F4CF1F920F920FB60F9211242F93E5
:1008A0003F938F939F93AF93BF9380914302909117
:1008B0004402A0914502B09146023091420223E0E9
:1008C000230F2D3758F50196A11DB11D209342022B
:1008D0008093430290934402A0934502B093460252
:1008E0008091470290914802A0914902B0914A023A
:1008F0000196A11DB11D8093470290934802A093D9
:100900004902B0934A02BF91AF919F918F913F915D
:100910002F910F900FBE0F901F90189526E8230F70
:100920000296A11DB11DD2CF1F920F920FB60F924A
:1009300011242F933F934F935F936F937F938F93E4
:100940009F93AF93BF93EF93FF938091B900887FFC
:10095000803609F44AC0F0F5883209F4A7C018F5CA
:10096000803109F49BC0B8F4882309F4F9C08830B9
:1009700009F494C0FF91EF91BF91AF919F918F9136
:100980007F916F915F914F913F912F910F900FBE8B
:100990000F901F901895883109F488C0803251F764
:1009A0008093910214C0803409F49DC040F48033D8
:1009B000B9F38833F9F68093910285ECB0C08035A5
:1009C00009F485C0883509F496C0883499F60E94E8
:1009D000BA03D0CF883909F48CC038F5883729F0AC
:1009E00050F4883611F0803729F683E08093930223
:1009F0001092410257C0883809F47BC0803919F041
:100A0000803809F0B7CF80914102803208F071C080
:100A1000E091410281E08E0F809341028091BB0002
:100A2000F0E0EF5DFD4F80833DC0803B39F0E0F4A6
:100A3000803A09F479C0883A09F09CCF84E0809329
:100A400093021092200210921F02E0915903F0913C
:100A50005A03099580911F0281110FC081E0809394
:100A60001F021092FF0109C0803C09F4A6CF883C08
:100A700009F4A3CF883B09F07DCFE091200281E00B
:100A80008E0F80932002F0E0E150FE4F8081809332
:100A9000BB009091200280911F0229C080918E029C
:100AA0008093BB0085EC8093BC0064CF9091900252
:100AB00080918F02981758F5E091900281E08E0F97
:100AC00080939002F0E0E359FD4F8081E9CFE091FF
:100AD000900281E08E0F809390028091BB00F0E045
:100AE000E359FD4F80839091900280918F02981777
:100AF000C8F285E8D8CFE091900281E08E0F809314
:100B000090028091BB00F0E0E359FD4F808380911B
:100B1000920281115CCF81E080938D0284EA809300
:100B2000BC001092930226CF85EC8093BC001092FB
:100B3000930280914102803230F4E0914102F0E072
:100B4000EF5DFD4F10826091410270E0E09157032C
:100B5000F091580381E292E00995109241020ACF88
:100B60001092910234CFCF92DF92EF92FF92EAEB94
:100B7000F2E01382128288EEC82E83E0D82EE12C98
:100B8000F12CC482D582E682F78284E091E09183E1
:100B9000808385EC90E09587848784EC90E097874C
:100BA000868780EC90E0918B808B81EC90E0938B3A
:100BB000828B82EC90E0958B848B86EC90E0978B17
:100BC000868B118E128E138E148E10925E031092ED
:100BD0005D0310925C0310925B030E94670282E83F
:100BE00090E090935A038093590383E890E09093A8
:100BF000580380935703EFE5F3E013821282C48217
:100C0000D582E682F78286E191E091838083FF902E
:100C1000EF90DF90CF900895789484B5826084BD82
:100C200084B5816084BD85B5826085BD85B58160F0
:100C300085BD80916E00816080936E00109281006E
:100C40008091810082608093810080918100816029
:100C500080938100809180008160809380008091EA
:100C6000B10084608093B1008091B0008160809376
:100C7000B00080917A00846080937A0080917A003D
:100C8000826080937A0080917A00816080937A00FC
:100C900080917A00806880937A001092C100E09180
:100CA000CA02F091CB0282E08083E091C602F0910B
:100CB000C7021082E091C802F091C9028FEC8083D4
:100CC0001092D202E091CE02F091CF0286E08083B2
:100CD000E091CC02F091CD02808180618083E0912F
:100CE000CC02F091CD02808188608083E091CC02BB
:100CF000F091CD02808180688083E091CC02F091F8
:100D0000CD0280818F7D808368EC70E080E090E090
:100D10000E940E0287E291E00E949A038BE391E029
:100D20000E949A0305EE35ECF32EDAE042E0942EB1
:100D3000EE24EA9490E0C92E90E0D92E26E0A22E6F
:100D400011E088E6B82E10934B02B0926C0210921C
:100D50005C0310925B0360E08FE593E00E94F60273
:100D6000C0915B03C13208F0E0C00E94E9012B0191
:100D70003C0180919302811166C09092930210937E
:100D80009202E092910210929002C0938F02ECE4E2
:100D9000F2E0ADE6B2E0C8139FC010928E028091DF
:100DA0008E02806D80938E0280918D02813009F0D9
:100DB00097C010928D020E94E9012B013C018091A5
:100DC0008E028093BB008091950290919602A09133
:100DD0009702B0919802892B8A2B8B2BA1F00E944D
:100DE000E90120919502309196024091970250912D
:100DF0009802641975098609970926173707480765
:100E0000590708F441C08091BC0083FDD8CFF0920F
:100E1000BC000E94E9012B013C01809193028230C9
:100E200009F461C080919102C0E08F3F91F18091FF
:100E30009102C2E0803269F180919102C4E0803376
:100E400041F5C3E026C08091950290919602A09151
:100E50009702B0919802892B8A2B8B2B09F489CFAA
:100E60000E94E901209195023091960240919702EB
:100E70005091980264197509860997092617370752
:100E80004807590708F075CF809194020E948502A7
:100E9000C5E010925C0310925B0310924B02CC23CE
:100EA00009F445C01092B9028091B902882309F46F
:100EB0009EC18DE691E00E949A038CE991E00E9428
:100EC0009A0384E291E00E94280368E273E280E0E2
:100ED00090E00E940E0252C191919D938F5F5BCF73
:100EE0000093BC0096CF8091950290919602A091BC
:100EF0009702B0919802892B8A2B8B2B09F48DCF06
:100F00000E94E9012091950230919602409197024A
:100F100050919802641975098609970926173707B1
:100F20004807590708F079CFAFCFC1E0B2CF10938F
:100F3000B9020E94E9012B013C01809193028111C9
:100F400060C01093930210939202E092910210926B
:100F50009002A0928F0210938E0280918E02806D7B
:100F600080938E0280918D02813009F019C1109218
:100F70008D020E94E9012B013C0180918E02809339
:100F8000BB008091950290919602A0919702B0913A
:100F90009802892B8A2B8B2BA1F00E94E9012091CA
:100FA00095023091960240919702509198026419EF
:100FB000750986099709261737074807590708F45E
:100FC00041C08091BC0083FDD8CFF092BC000E944C
:100FD000E9012B013C0180919302813009F4E3C0C7
:100FE00080919002873008F000C180919002ADE6B8
:100FF000B2E0E9E9F2E0C81749F19D919193CF5F22
:10100000FACF8091950290919602A0919702B091AB
:101010009802892B8A2B8B2B09F48FCF0E94E90130
:10102000209195023091960240919702509198023A
:10103000641975098609970926173707480759075C
:1010400008F07BCF809194020E94850210925E038B
:10105000C0935D03C73008F427CF8FE593E00E946B
:10106000B602382E82958770932D9F70892E8D9FA2
:10107000800C11248FE593E00E94B602982F929580
:101080009F708F70582E9D9F500C11248FE593E018
:101090000E94B602982F929593708F70482E9D9F54
:1010A000400C11248FE593E00E94B6028FE593E097
:1010B0000E94B602982F92959F708F70682E9D9F08
:1010C000600C11248FE593E00E94B602982F929550
:1010D0009F708F70782E9D9F700C11248FE593E088
:1010E0000E94B602982F92959F708F70825EC82FD3
:1010F0009D9FC00D112437FCD7CE8FE491E00E9454
:101100002803842D90E00E94A8038AE390E00E94C7
:101110007801852D90E00E94A8038AE390E00E9468
:101120007801882D90E00E94A8038BE591E00E9451
:101130002803662D70E090E080E04AE00E943503CD
:101140008FE290E00E947801672D70E090E080E0EF
:101150004AE00E9435038FE290E00E9478016C2FF4
:1011600070E06E54784F072E000C880B990B4AE004
:101170000E94350384E291E00E94280368EE73E048
:1011800080E090E00E940E02C114D10409F4DBCD8E
:101190000E94F500882309F4D3CD0E940000CACD37
:1011A0000093BC0014CF8091950290919602A0917B
:1011B0009702B0919802892B8A2B8B2B09F40BCFC5
:1011C0000E94E90120919502309196024091970288
:1011D00050919802641975098609970926173707EF
:1011E0004807590708F0F7CE2DCF87E000CF8EECE7
:1011F00091E065CEA1E21A2EAA1BBB1BFD010DC01A
:10120000AA1FBB1FEE1FFF1FA217B307E407F507B6
:1012100020F0A21BB30BE40BF50B661F771F881F92
:10122000991F1A9469F760957095809590959B0128
:10123000AC01BD01CF010895EE0FFF1F0590F491A1
:08124000E02D0994F894FFCFA2
:10124800000000002B018B00B8007D01E900C700F9
:10125800DB0000000000F602C9022503A602840094
:10126800B602A7020D0A00445331333037525443B3
:1012780020526561642054657374002D2D2D2D2D29
:101288002D2D2D2D2D2D2D2D2D2D2D2D2D2D004F91
:101298006B2C2054696D65203D20002C204461741E
:1012A800652028442F4D2F5929203D20005468657A
:1012B800204453313330372069732073746F707052
:1012C80065642E2020506C656173652072756E20F0
:1012D8007468652053657454696D65006578616D3F
:1012E800706C6520746F20696E697469616C697AC5
:1012F80065207468652074696D6520616E6420627C
:101308006567696E2072756E6E696E672E0044534C
:10131800313330372072656164206572726F7221D3
:101328002020506C6561736520636865636B207469
:0E1338006865206369726375697472792E00AE
:00000001FF
