:100000000C9463000C948B000C948B000C94640390
:100010000C9464030C9464030C948B000C948B007C
:100020000C948B000C948B000C948B000C948B0024
:100030000C948B000C948B000C948B000C948B0014
:100040000C94C2020C948B000C9432030C940C039D
:100050000C948B000C948B000C948B000C948B00F4
:100060000C948B000C948B0000000008000201002F
:100070000003040700000000000000000000000072
:1000800023002600290000000000240027002A0089
:1000900000000000250028002B00040404040404D0
:1000A0000404020202020202030303030303010227
:1000B00004081020408001020408102001020408F6
:1000C000102028049D0711241FBECFEFD8E0DEBF0B
:1000D000CDBF12E0A0E0B1E0ECEDF5E102C005908B
:1000E0000D92A436B107D9F724E0A4E6B2E001C02E
:1000F0001D92A639B207E1F710E0C2E6D0E004C0D5
:100100002197FE010E940308C136D107C9F70E945A
:1001100017050C94E10A0C940000AF92BF92CF92A5
:10012000DF92EF92FF920F931F93CF93DF936C01B7
:100130007B018B01040F151FEB015E01AE18BF0898
:10014000C017D10759F06991D601ED91FC9101904A
:10015000F081E02DC6010995892B79F7C501DF9162
:10016000CF911F910F91FF90EF90DF90CF90BF90B4
:10017000AF900895FC01538D448D252F30E0842FDE
:1001800090E0821B930B541710F0CF9608950197BF
:100190000895FC01918D828D981761F0A28DAE0FAC
:1001A000BF2FB11D5D968C91928D9F5F9F73928F33
:1001B00090E008958FEF9FEF0895FC01918D828D5F
:1001C000981731F0828DE80FF11D858D90E008952C
:1001D0008FEF9FEF0895FC01918D228D892F90E084
:1001E000805C9F4F821B91098F739927089581EB43
:1001F00093E00E94EB0021E0892B09F420E0822F9C
:10020000089580E090E0892B29F00E94F700811189
:100210000C9400000895FC01A48DA80FB92FB11D06
:10022000A35ABF4F2C91848D90E001968F7399272C
:10023000848FA689B7892C93A089B1898C9183700A
:1002400080648C93938D848D981306C00288F38903
:10025000E02D80818F7D80830895EF92FF920F9330
:100260001F93CF93DF93EC0181E0888F9B8D8C8D62
:1002700098131AC0E889F989808185FF15C09FB756
:10028000F894EE89FF896083E889F9898081837019
:10029000806480839FBF81E090E0DF91CF911F91C8
:1002A0000F91FF90EF900895F62E0B8D10E00F5FE9
:1002B0001F4F0F731127E02E8C8D8E110CC00FB6BF
:1002C00007FCFACFE889F989808185FFF5CFCE0157
:1002D0000E940B01F1CFEB8DEC0FFD2FF11DE35AC6
:1002E000FF4FF0829FB7F8940B8FEA89FB898081DA
:1002F0008062CFCFCF93DF93EC01888D8823B9F054
:10030000AA89BB89E889F9898C9185FD03C0808120
:1003100086FD0DC00FB607FCF7CF8C9185FFF2CF9D
:10032000808185FFEDCFCE010E940B01E9CFDF91E7
:10033000CF9108952091A6023091A702281739077E
:1003400071F49091A4028091A502981741F0E09178
:10035000A402F0E0EC59FD4F808190E008958FEF0A
:100360009FEF08950895EF92FF920F931F93CF93FD
:10037000DF93DC015C96ED90FC905D97E114F10455
:1003800079F481E090E013969C938E93129790E01D
:1003900080E0DF91CF911F910F91FF90EF90089532
:1003A0005196ED91FC91529750968C915097982FC1
:1003B00090950FB75E962C915E97122F127021FDCB
:1003C0006095F8942081112319F1282B2083E701EF
:1003D0002197F1F728E0462F50E0308160FF1AC0E6
:1003E000382B3083E7012197F1F7BA0175956795AE
:1003F000215089F7112381F08081892380830FBFE9
:100400005C968D919C910197F1F781E090E0C1CFCE
:100410002923DCCF3923E5CF9081892BEFCF2091A1
:10042000A6023091A7022817390771F48091A5021E
:100430002091A40290E0805C9F4F821B910960E4B0
:1004400070E00E94B907089590E080E0089520913F
:10045000A6023091A70228173907B9F49091A40297
:100460008091A502981789F0E091A402F0E0EC5980
:10047000FD4F80812091A40230E02F5F3F4F2F730A
:1004800033272093A40290E008958FEF9FEF089503
:1004900090E080E00895FC0101900020E9F7319799
:1004A000AF01481B590BBC0181EB93E00C948D000C
:1004B0008F929F92AF92BF92CF92DF92EF92FF9274
:1004C0000F931F93CF93DF93CDB7DEB7A1970FB6EE
:1004D000F894DEBF0FBECDBF0FE414E08FE6E82E28
:1004E00084E0F82E9AE0892E912CA12CB12CF801F1
:1004F00021918F0130E050E040E019A26E01F1E25D
:10050000CF0ED11CCA01B901A50194010E94CD07EB
:10051000605DF60162936F012115310541055105BA
:1005200089F7309719F0CF010E944B0284E291E0E5
:100530000E944B02E016F106D1F686E291E00E949D
:100540004B02A1960FB6F894DEBF0FBECDBFDF9170
:10055000CF911F910F91FF90EF90DF90CF90BF90C0
:10056000AF909F908F900895CF93DF930E944B029E
:10057000EC0186E291E00E944B028C0F9D1FDF91FF
:10058000CF9108951F920F920FB60F9211242F93BF
:100590003F938F939F93AF93BF938091AD039091BF
:1005A000AE03A091AF03B091B0033091AC0323E050
:1005B000230F2D3758F50196A11DB11D2093AC03D3
:1005C0008093AD039093AE03A093AF03B093B003B9
:1005D0008091A8039091A903A091AA03B091AB03C5
:1005E0000196A11DB11D8093A8039093A903A09328
:1005F000AA03B093AB03BF91AF919F918F913F91AD
:100600002F910F900FBE0F901F90189526E8230F83
:100610000296A11DB11DD2CF1F920F920FB60F925D
:1006200011242F933F934F935F936F937F938F93F7
:100630009F93AF93BF93EF93FF9381EB93E00E945F
:100640000B01FF91EF91BF91AF919F918F917F919E
:100650006F915F914F913F912F910F900FBE0F902F
:100660001F9018951F920F920FB60F9211242F937F
:100670008F939F93EF93FF93E091C103F091C20397
:100680008081E091C703F091C80382FD1BC0908177
:100690008091CA038F5F8F732091CB03821741F043
:1006A000E091CA03F0E0EF54FC4F958F8093CA03AA
:1006B000FF91EF919F918F912F910F900FBE0F900F
:1006C0001F9018958081F4CF1F920F920FB60F9252
:1006D00011242F933F934F935F936F937F938F9347
:1006E0009F93AF93BF93EF93FF93E091A602F09196
:1006F000A702309749F0A685B7858585968D91FF2D
:1007000014C09C918923A1F4FF91EF91BF91AF9107
:100710009F918F917F916F915F914F913F912F9119
:100720000F900FBE0F901F9018959C91892361F731
:10073000A389B4899C918589809589238C93868926
:1007400097890197F1F7608D718DA685B7855585DD
:1007500038E020E0CB010197F1F7822F90E09595EA
:100760008795282F4C91452309F02068315091F747
:10077000868D81FD20958091A50290E001968F7372
:1007800099273091A402381799F0A091A502B0E002
:10079000AC59BD4F2C938093A502828D938D019708
:1007A000F1F7A389B4898C919589892B8C93ACCF6F
:1007B000868D8160868FF1CF90E0FC01E859FF4F74
:1007C0002491FC01E255FF4F3491FC01E656FF4FA6
:1007D000E491EE23C9F0222339F0233001F1A8F48B
:1007E000213019F1223029F1F0E0EE0FFF1FE05720
:1007F000FF4FA591B4918FB7F894EC91611126C089
:1008000030953E233C938FBF08952730A9F02830C0
:10081000C9F0243049F7809180008F7D03C080911A
:1008200080008F7780938000DFCF84B58F7784BD81
:10083000DBCF84B58F7DFBCF8091B0008F77809325
:10084000B000D2CF8091B0008F7DF9CF3E2BDACFB0
:100850000F931F93CF93DF931092B4031092B303BF
:1008600088EE93E0A0E0B0E08093B5039093B603E8
:10087000A093B703B093B80324E031E03093B20300
:100880002093B10325EC30E03093BE032093BD03E9
:1008900024EC30E03093C0032093BF0320EC30E021
:1008A0003093C2032093C10321EC30E03093C403A2
:1008B0002093C30322EC30E03093C6032093C5039A
:1008C00026EC30E03093C8032093C7031092CA038C
:1008D0001092CB031092CC031092CD0310927A04A5
:1008E0001092790480937B0490937C04A0937D0400
:1008F000B0937E0486E191E090937804809377042E
:1009000010928E0410928D041092900410928F0415
:1009100010929204109291041092940410929304F5
:10092000609195046E7F6D7F60939504669561700C
:1009300081E0682789E00E94DC0347EB50E0FA0180
:10094000649183EA90E0FC012491222399F030E045
:10095000220F331FF901EA57FF4FA591B491F90116
:10096000E057FF4F259134912FB7F8943C91632BBA
:100970006C932FBFFA01449140938704FC0184914A
:10098000E82FF0E0EE0FFF1FE057FF4F85919491A5
:10099000909389048093880405EB10E0F80124917A
:1009A000C1EAD0E0FE0184918823C9F090E0880F6D
:1009B000991FFC01EA57FF4FA591B491FC01E05744
:1009C000FF4F459154913FB7F8949C91822F8095A9
:1009D00098239C93FA019081892380833FBF809163
:1009E000950481FD04C061E087E00E94DC0387E09C
:1009F00080938304F801049100938404FE01C49160
:100A0000EC2FF0E0EE0FFF1FE458FF4F859194911B
:100A1000909386048093850410926F041092700462
:100A200010924E04DF91CF911F910F910895789409
:100A300084B5826084BD84B5816084BD85B58260E3
:100A400085BD85B5816085BD80916E008160809394
:100A50006E001092810080918100826080938100FD
:100A6000809181008160809381008091800081600D
:100A7000809380008091B10084608093B100809168
:100A8000B00081608093B00080917A008460809390
:100A90007A0080917A00826080937A0080917A0057
:100AA000816080937A0080917A00806880937A00D8
:100AB0001092C100E091C103F091C20382E08083F3
:100AC000E091BD03F091BE031082E091BF03F0916D
:100AD000C0038FEC80831092C903E091C503F091AD
:100AE000C60386E08083E091C303F091C403808154
:100AF00080618083E091C303F091C40380818860AA
:100B00008083E091C303F091C40380818068808377
:100B1000E091C303F091C40380818F7D80831092A4
:100B20009204109291041092900410928F041092EB
:100B30008E0410928D048DE991E09093940480933B
:100B4000930490918304963108F047C02DEB30E078
:100B500030938E0420938D042BE931E03093900480
:100B600020938F042CE231E030939204209391047F
:100B70002091680084E0983048F031E09E3008F41D
:100B800030E081E001C0880F3A95EAF7822B80932C
:100B900068002DE630E0983050F02BE630E09E30D3
:100BA00030F02CE630E0963110F030E020E0309369
:100BB0008B0420938A04292F30E0983008F019C163
:100BC00081E001C0880F9A95EAF780938C048091A8
:100BD0009304909194040197F1F78091910490917E
:100BE0009204892B49F1E091A602F091A70284E0DA
:100BF000E737F80709F1309739F0A389B4899C9158
:100C00008589809589238C93809195048E7F80932C
:100C100095041092A5021092A40287E794E09093A5
:100C2000A7028093A602E0918A04F0918B04808150
:100C300090918C04892B808310926F0487E794E055
:100C40009093720480937104109274041092730450
:100C5000109276041092750481E0809370047DE612
:100C6000272E74E0372EEFE74E2EE1E05E2EC8EA25
:100C7000D2E0F6EA6F2EF1E07F2EAA24A394B12CE5
:100C80000EEC11E046EFE42E41E0F42E5EE1C52EBD
:100C900052E0D52E60E0862E60E0962E80917004A2
:100CA0008111B4C089E291E00E94B40280916F0486
:100CB000882309F492C080916C041F928F938091D5
:100CC0006B041F928F935F924F92DF93CF930E949A
:100CD000090888EA92E00E944B0280915A048F939F
:100CE000809159048F93809154048F938091530481
:100CF0008F937F926F92DF93CF930E94090888EAC7
:100D000092E00E944B0280915C048F9380915B047F
:100D10008F93809156048F93809155048F931F93E6
:100D20000F93DF93CF930E94090888EA92E00E9414
:100D30004B0280915E048F9380915D048F9380912C
:100D400058048F93809157048F93FF92EF92DF9313
:100D5000CF930E940908ADB7BEB790960FB6F8942E
:100D6000BEBF0FBEADBF88EA92E00E944B028091E9
:100D70006A048F93809169048F93809168048F93A4
:100D8000809167048F93809166048F9380916504AE
:100D90008F93809164048F93809163048F938091EB
:100DA00062048F93809161048F93809160048F938C
:100DB00080915F048F93DF92CF92DF93CF930E9455
:100DC000090888EA92E00E944B02ADB7BEB7509680
:100DD0000FB6F894BEBF0FBEADBF8114910409F4E5
:100DE0005DCF0E94F700882309F44CCF0E940000D9
:100DF00047CF9E3040F42850310981E001C0880F70
:100E00002A95EAF7E2CE2E503109F7CF10926F04FF
:100E10008091710490917204DC01ED91FC91008449
:100E2000F185E02D0995892B49F18091710490910C
:100E30007204DC01ED91FC910284F385E02D0995AB
:100E4000809374048D3451F490917304923431F48E
:100E500090934F04B0927604A0927504209175048B
:100E600030917604F901E25BFB4F81832F5F3F4FA6
:100E700030937604209375048093730480917504F5
:100E800090917604809709F011CF80914E04909153
:100E90004F04923409F04CC0909150049D3409F0F5
:100EA00047C081110E945802E1E5F4E0808190E0A2
:100EB000982F88272181820F911D819391938BE632
:100EC00094E08E179F0791F780916D0490E0982F22
:100ED000882720916E04820F911D90936E04809359
:100EE0006D0480914E0481110E945802EFE4F4E0F9
:100EF00090E080E02191820F911D2E163F06D1F7E0
:100F000020916D0430916E048217930741F491E0B3
:100F100090936F041092760410927504C7CE80915E
:100F20004E048823B9F384E591E00E94B402F2CF25
:100F3000882381F38AE691E0F8CF86E191E09093EF
:100F40007804809377048091A6029091A702875736
:100F5000944071F4E0918A04F0918B049081809127
:100F60008C048095892380831092A7021092A60298
:100F7000089597FB072E16F4009407D077FD09D04B
:100F80000E94EF0707FC05D03EF4909581959F4F96
:100F90000895709561957F4F0895A1E21A2EAA1BBE
:100FA000BB1BFD010DC0AA1FBB1FEE1FFF1FA21719
:100FB000B307E407F50720F0A21BB30BE40BF50B16
:100FC000661F771F881F991F1A9469F7609570959F
:100FD000809590959B01AC01BD01CF010895AA1B9E
:100FE000BB1B51E107C0AA1FBB1FA617B70710F014
:100FF000A61BB70B881F991F5A95A9F78095909546
:10100000BC01CD010895EE0FFF1F0590F491E02D76
:101010000994AEE0B0E0EFE0F8E00C94B80A0D8976
:101020001E8986E08C831A8309838FEF9FE79E8356
:101030008D83AE01475E5F4F6F89788DCE0101963B
:101040000E942C082F813885020F131FF80110828F
:101050002E96E4E00C94D40AABE0B0E0E2E3F8E0D2
:101060000C94AA0A7C013B018A01FC0117821682BA
:10107000838181FFC8C1CE0101965C01F701938194
:10108000F30193FD859193FF81913F01882309F43A
:1010900053C1853239F493FD859193FF81913F01CE
:1010A000853229F4B70190E00E941C0AE7CF912C09
:1010B000212C312CFFE1F31538F08B3211F190F433
:1010C000803209F1833229F137FC3CC020ED280F32
:1010D0002A3050F536FE20C08AE0989E200D11245B
:1010E000922E06C08D3291F0803371F7689430F8FB
:1010F000F30193FD859193FF81913F018111DACF37
:1011000021C0689431F8689432F8F2CF689433F8CB
:10111000EFCF689434F8ECCFEAE02E9E200D112436
:10112000222E689435F8E4CF8E3229F436FC04C1BF
:10113000689436F8DDCF8C3619F4689437F8D8CF38
:101140008836B1F2982F9F7D95549330E0F0833626
:10115000A1F18337C1F1833509F063C02801F2E0C2
:101160004F0E511CF801C080D180692D70E036FC13
:1011700002C06FEF7FEFC6010E94060A4C0168941F
:1011800037F882010AC00C5F1F4FFFE3F983882400
:101190008394912C6501E89437F833FE2DC0522CCE
:1011A0008114910471F5552009F468CFB70180E2EC
:1011B00090E00E941C0A5A94F6CFF801808189833E
:1011C0000E5F1F4FE4CF2801F2E04F0E511CF801D3
:1011D000C080D180692D70E036FC02C06FEF7FEFD8
:1011E000C6010E94110A4C018201D5CFB70180E2ED
:1011F00090E00E941C0A2A942814190409F0B0F700
:10120000CECFF60137FC859137FE81916F01B70192
:1012100090E00E941C0A51105A94F1E08F1A910834
:10122000BFCF843619F0893609F077C0F80137FE50
:101230006BC060817181828193810C5F1F4FF32DA0
:10124000FF763F2E97FF09C0909580957095619528
:101250007F4F8F4F9F4F689437F82AE030E0A50109
:101260000E944C0AC82ECA188C2C432C36FE0CC087
:10127000E89440F8C91440F434FE05C032FC03C0C1
:10128000F32DFE7E4F2E892C44FE95C0FE01EC0D01
:10129000F11D8081803309F087C0242D297E422EE4
:1012A000842D8870582E43FC95C040FE8FC09C2C26
:1012B000821418F42C0C922C981844FE91C0B7019B
:1012C00080E390E00E941C0A42FE09C088E790E09B
:1012D00041FE02C088E590E0B7010E941C0AC914D3
:1012E00008F48AC0CA94D12C9FEFC91AD90ACA0C33
:1012F000DB1CF60182916F01B70190E00E941C0A8D
:10130000AC14BD04B1F74FCF60817181072E000C82
:10131000880B990B0E5F1F4F92CFD32CE894D4F813
:101320002AE030E0853739F1232D297FD22E8F3600
:1013300001F148F48835A9F0F701868197812B9651
:10134000E2E10C94C60A803749F08837A9F7D4FE49
:1013500002C06894D2F820E130E00DC06894D4F85F
:10136000F6CF34FE03C0822F8660D82E20E132E013
:1013700002C028E030E0F801D7FE0FC06081718123
:10138000828193810C5F1F4FA5010E944C0AC82ED9
:10139000CA183D2CE89437F867CF6081718190E0DE
:1013A00080E00E5F1F4FF0CF42FC02C0839478CFE5
:1013B0008394839475CF842D867809F471CFF6CF0A
:1013C000B70180E290E00E941C0A83948214C0F36B
:1013D000512C73CF522C5818821408F46ECFF8CFCA
:1013E000842D867809F47BCF8BE241FE80E247FCB6
:1013F0008DE2B70190E071CFB70180E390E00E94E9
:101400001C0A9A946CCF8FEF9FEF99CFFC01059047
:10141000615070400110D8F7809590958E0F9F1FF6
:101420000895FC016150704001900110D8F780953B
:1014300090958E0F9F1F08950F931F93CF93DF9367
:10144000182F092FEB018B8181FD09C01FEF0FEFD2
:10145000812F902FDF91CF911F910F91089582FFDF
:1014600014C02E813F818C819D81281739073CF45F
:10147000E881F981CF0101969983888310838E8159
:101480009F8101969F838E83E3CFE885F985812F25
:101490000995892BA1F3DACFFA01AA27283051F157
:1014A000203181F1E8946F936E7F6E5F7F4F8F4F95
:1014B0009F4FAF4FB1E03ED0B4E03CD0670F781FF4
:1014C000891F9A1FA11D680F791F8A1F911DA11DD9
:1014D0006A0F711D811D911DA11D20D009F4689412
:1014E0003F912AE0269F11243019305D3193DEF6BA
:1014F000CF010895462F4770405D4193B3E00FD070
:10150000C9F7F6CF462F4F70405D4A3318F0495D5A
:1015100031FD4052419302D0A9F7EACFB4E0A6953D
:101520009795879577956795BA95C9F7009761055F
:10153000710508959B01AC010A2E069457954795B5
:1015400037952795BA95C9F7620F731F841F951FAA
:10155000A01D08952F923F924F925F926F927F92BB
:101560008F929F92AF92BF92CF92DF92EF92FF92B3
:101570000F931F93CF93DF93CDB7DEB7CA1BDB0B5F
:101580000FB6F894DEBF0FBECDBF09942A88398804
:1015900048885F846E847D848C849B84AA84B9840B
:1015A000C884DF80EE80FD800C811B81AA81B98117
:1015B000CE0FD11D0FB6F894DEBF0FBECDBFED012B
:1015C000089510E0C2E6D0E004C0FE010E940308C6
:0C15D0002196C336D107C9F7F894FFCF6D
:1015DC00000000002D018D00BA007A01EB00C9005B
:1015EC00DD0000000000B3018D004802B2010F02C3
:1015FC0027029A0120000D0A004572726F723A2080
:10160C006D7573742063616C6C20506C616E746FBB
:10161C007765725F504D53373030333A3A696E69A3
:10162C0074282900496E76616C6964206461746168
:10163C0020636865636B73756D004D616C666F72CA
:10164C006D65642066697273742062797465000A32
:10165C0053656E736F722056657273696F6E3A20A4
:10166C002564202020204572726F7220436F6465C0
:10167C003A2025640A0020202020504D312E3020A5
:10168C002875672F6D33293A2025326420202020BD
:10169C00205B61746D6F733A2025645D0A00202015
:1016AC002020504D322E35202875672F6D33293A66
:1016BC002025326420202020205B61746D6F733AEA
:1016CC002025645D0A0020202020504D3130202040
:1016DC002875672F6D33293A20253264202020206D
:1016EC00205B61746D6F733A2025645D0A000A20DB
:1016FC002020205241573A202532645B3E302E3355
:10170C005D202532645B3E302E355D202532645BD6
:10171C003E312E305D202532645B3E322E355D200D
:10172C002532645B3E352E305D202532645B3E31C4
:04173C00305D0A0012
:00000001FF
