:100000000C94A6020C94CE020C94CE020C94CE0258
:100010000C94CE020C94CE020C94CE020C94CE0220
:100020000C9404070C94CE020C94CE020C94CE02D5
:100030000C94CE020C94CE020C94CE020C94CE0200
:100040000C94BA060C94CE020C9488060C946206AA
:100050000C94CE020C94CE020C94CE020C94CE02E0
:100060000C94CE020C94CE025748594E544552007F
:100070004D4147495155455354004C45474F5F50FA
:100080004600424F534557415645004150504C455C
:10009000004F4E4B594F00534F4E59005348415259
:1000A000500053414D53554E470052433600524382
:1000B00035004B415345494B594F5F4D49545355BA
:1000C0004249534849004B415345494B594F5F53AF
:1000D00048415250004B415345494B594F5F4445AD
:1000E0004E4F4E004B415345494B594F5F4A564383
:1000F000004B415345494B594F0050414E41534FDE
:100100004E4943004E4543004C4732004C47004A9D
:1001100056430044454E4F4E0050554C53455F5793
:10012000494454480050554C53455F444953544149
:100130004E434500000000080002010000030407D0
:100140000000000000000000000000002500280062
:100150002B0000000000240027002A00486173687B
:100160002000556E6976657273616C204469737402
:10017000616E63652C20004D61676951756573740C
:100180002C2000426F736577617665202C20004C2F
:1001900065676F20506F7765722046756E6374696E
:1001A0006F6E732C20005768796E7465722C200076
:1001B00053616D73756E672C20004A56432C2000E6
:1001C0004C472C20005243362C20005243352C2023
:1001D00000536F6E792C200044656E6F6E2F53684C
:1001E0006172702C200050616E61736F6E69632FB5
:1001F0004B617365696B796F2C20004E45432C2051
:100200000061742070696E2032005265616479204B
:10021000746F207265636569766520495220736941
:10022000676E616C73206F662070726F746F636F9E
:100230006C733A2000535441525420443A5C41724A
:100240006475696E6F5C4873686F705F51756F633A
:100250005C43616D4269656E5C486F6E674E676FA7
:1002600061695C4952313833385F4D616368546865
:10027000755C6578616D706C65735C495272656D13
:100280006F7465457874656E73696F6E54657374C9
:100290005C495272656D6F7465457874656E7369FB
:1002A0006F6E546573742E696E6F2066726F6D2069
:1002B0004A756C20203720323032320D0A5573696E
:1002C0006E67206C696272617279207665727369FB
:1002D0006F6E20332E372E310066616C7365293BBB
:1002E0000074727565293B002C2066616C73652C67
:1002F00020002C203332002C20002C203078002CC1
:1003000020002C20002C20002020497253656E64B0
:1003100065722E73656E6450756C73654469737491
:10032000616E63655769647468446174612800296B
:100330003B002020497253656E6465722E737061B4
:1003400063652800293B002020497253656E64656F
:10035000722E6D61726B28002020497253656E64A5
:1003600065722E656E61626C6549524F75742833F3
:1003700038293B0050554C53455F44495354414E36
:1003800043453A2053656E6420776974683A0049A2
:100390006620796F752067657420756E6578706565
:1003A0006374656420726573756C74732C20747249
:1003B0007920746F20696E6372656173652074685B
:1003C00065205245434F52445F4741505F4D49437A
:1003D000524F5320696E20495272656D6F74652EBD
:1003E000682E00207573206B6E6F776E20666F72BB
:1003F00020612070726F746F636F6C2E00207573B4
:10040000206265747765656E2074776F206465740B
:100410006563746564207472616E736D697373696A
:100420006F6E20697320736D616C6C6572207468E7
:10043000616E20746865206D696E696D616C2067FE
:100440006170206F6620005370616365206F6620C5
:1004500000554E4B4E4F574E00204C53422066697C
:1004600072737400204D53422066697273740020C9
:100470006269747300205261772D446174613D306C
:100480007800757300206761703D0052657065618A
:1004900074004175746F2D0020546F67676C653D63
:1004A000310020506172697479206661696C0020A6
:1004B00045787472613D30780020436F6D6D616ED8
:1004C000643D30780020416464726573733D307818
:1004D0000020626974732028696E636C2E20676146
:1004E0007020616E64207374617274292072656378
:1004F00065697665640020486173683D3078005016
:10050000726F746F636F6C3D0043616C6C20726539
:1005100073756D652829000000000023002600295E
:10052000000404040404040404020202020202039C
:1005300003030303030102040810204080010204A6
:1005400008102001020408102000F90711241FBE22
:10055000CFEFD8E0DEBFCDBF22E0A8E4B1E001C01C
:100560001D92AD3FB207E1F711E0A0E0B1E0EAE58E
:10057000F7E202C005900D92A834B107D9F712E056
:10058000C6EAD2E004C02197FE010E94A513C53A35
:10059000D107C9F70E9439080C94AB130C940000E2
:1005A000A4EFB1E011968C93119790E0FC01EB5C05
:1005B000FA4FE4911496EC931497FC01EF5DFA4F17
:1005C000E491F0E0EE0FFF1FE95EFA4F8591949100
:1005D00013969C938E93129708950F931F93CF9326
:1005E000DF93E091F002F091F10240915601808595
:1005F00010E0481708F064C0142F117000915501E5
:1006000001114FC0842F90E0880F991FE80FF91F48
:100610000184F285E02D2CEE3FEF112311F024E14F
:1006200030E0C0915301D09154012C0F3D1FC901FE
:1006300063E470E00E947813E617F70760F0C901E1
:1006400068E270E00E9478136F5F7F4F81E090E076
:100650006E177F0710F52C0F3D1FC90163E470E092
:100660000E947813E617F70750F0C90168E270E0BE
:100670000E9478136F5F7F4F6E177F0760F42C0F17
:100680003D1FC90163E470E00E947813E617F70785
:10069000E8F41FEF15C082E090E090935201809340
:1006A00051010F5F009355018091510190915201CA
:1006B0000817190628F0109255014F5F4093560114
:1006C000812FDF91CF911F910F910895C90168E2A9
:1006D00070E00E9478136F5F7F4F6E177F07C8F23C
:1006E00083E090E0DACFFC019B0124513109C9017C
:1006F00063E470E00E947813E617F70758F0C90129
:1007000068E270E00E9478136F5F7F4F81E06E17A0
:100710007F0708F480E008952F923F924F925F92F6
:100720006F927F928F929F92AF92BF92CF92DF9201
:10073000EF92FF920F931F93CF93DF9300D000D0DF
:1007400000D0CDB7DEB7382E3C832B8338012E2C5A
:10075000262F30E0220F331F275F3F4F6091F002BA
:100760007091F102260F371F3E832D839A012C5E74
:100770003F4FC90163E470E00E9478138B01C90107
:1007800068E270E00E947813CB0101969A83898316
:10079000EE20C1F1912CC12CD12C7601931409F4D7
:1007A00066C0ED81FE81808191818017910708F4F8
:1007B0005CC029813A812817390708F456C0A28005
:1007C000B3806B817C81C5010E947303882369F02B
:1007D000CC0CDD1CEE1CFF1C6894C0F88D819E8142
:1007E00004969E838D839394D9CFB301C5010E9453
:1007F0007303282E882309F444C0CC0CDD1CEE1CA6
:10080000FF1CECCF812C912C54018394C12CD12C52
:100810007601332061F1ED81FE8180819181801725
:10082000910778F129813A812817390750F14280E0
:1008300053806B817C81C2010E947303882379F00D
:10084000C828D928EA28FB288D819E8104969E839A
:100850008D83880C991CAA1CBB1C3A94DACFB30177
:10086000C2010E9473038111EFCF212C0AC0C092F4
:10087000EC02D092ED02E092EE02F092EF0222241E
:100880002394822D26960FB6F894DEBF0FBECDBFFF
:10089000DF91CF911F910F91FF90EF90DF90CF905C
:1008A000BF90AF909F908F907F906F905F904F9090
:1008B0003F902F900895AF92BF92CF92DF92EF9228
:1008C000FF920F931F93CF93DF936C017B018B01FA
:1008D000040F151FEB015E01AE18BF08C017D1074A
:1008E00059F06991D601ED91FC910190F081E02DD4
:1008F000C6010995892B79F7C501DF91CF911F9129
:100900000F91FF90EF90DF90CF90BF90AF90089540
:10091000FC01538D448D252F30E0842F90E0821B05
:10092000930B541710F0CF96089501970895FC018A
:10093000918D828D981761F0A28DAE0FBF2FB11DE2
:100940005D968C91928D9F5F9F73928F90E008953A
:100950008FEF9FEF0895FC01918D828D981731F0F4
:10096000828DE80FF11D858D90E008958FEF9FEF48
:100970000895FC01918D228D892F90E0805C9F4F1E
:10098000821B91098F739927089587E591E00E9452
:10099000B90421E0892B09F420E0822F089580E03A
:1009A00090E0892B29F00E94C50481110C9400006D
:1009B0000895FC01A48DA80FB92FB11DA35ABF4FF4
:1009C0002C91848D90E001968F739927848FA6894E
:1009D000B7892C93A089B1898C91837080648C93A2
:1009E000938D848D981306C00288F389E02D808151
:1009F0008F7D80830895EF92FF920F931F93CF9383
:100A0000DF93EC0181E0888F9B8D8C8D98131AC049
:100A1000E889F989808185FF15C09FB7F894EE8930
:100A2000FF896083E889F98980818370806480838D
:100A30009FBF81E090E0DF91CF911F910F91FF90D8
:100A4000EF900895F62E0B8D10E00F5F1F4F0F7380
:100A50001127E02E8C8D8E110CC00FB607FCFACF3B
:100A6000E889F989808185FFF5CFCE010E94D904FC
:100A7000F1CFEB8DEC0FFD2FF11DE35AFF4FF0820C
:100A80009FB7F8940B8FEA89FB8980818062CFCF72
:100A90000F931F93CF93DF938C01D0E0C0E0F80158
:100AA000EC0FFD1F6491662341F087E591E00E9401
:100AB000FB04892B11F02196F2CFCE01DF91CF916B
:100AC0001F910F910895682F87E591E00C94FB0426
:100AD000CF93DF93EC01888D8823B9F0AA89BB8975
:100AE000E889F9898C9185FD03C0808186FD0DC060
:100AF0000FB607FCF7CF8C9185FFF2CF808185FF81
:100B0000EDCFCE010E94D904E9CFDF91CF910895B6
:100B100090E0FC01EC5CFE4F2491FC01EB5CFA4F91
:100B20003491FC01EF5DFA4FE491EE23C9F02223EA
:100B300039F0233001F1A8F4213019F1223029F1E4
:100B4000F0E0EE0FFF1FE85BFE4FA591B4918FB769
:100B5000F894EC91611126C030953E233C938FBFF1
:100B600008952730A9F02830C9F0243049F7809142
:100B700080008F7D03C0809180008F7780938000FC
:100B8000DFCF84B58F7784BDDBCF84B58F7DFBCF7E
:100B90008091B0008F778093B000D2CF8091B00069
:100BA0008F7DF9CF3E2BDACF3FB7F89480914D017E
:100BB00090914E01A0914F01B091500126B5A89B94
:100BC00005C02F3F19F00196A11DB11D3FBFBA2FDF
:100BD000A92F982F8827BC01CD01620F711D811D9F
:100BE000911D42E0660F771F881F991F4A95D1F724
:100BF00008958F929F92AF92BF920F931F93CF93BE
:100C0000DF93CDB7DEB7A1970FB6F894DEBF0FBE66
:100C1000CDBF19A2423008F44AE08E010F5D1F4F8C
:100C2000842E912CB12CA12CA50194010E943C137F
:100C3000E62FB901CA01EA3044F5E05DD801EE9330
:100C40008D01232B242B252B79F790E080E0109742
:100C500069F0FD0101900020E9F73197AF014A1BCF
:100C60005B0BBD0187E591E00E945B04A1960FB686
:100C7000F894DEBF0FBECDBFDF91CF911F910F91D2
:100C8000BF90AF909F908F900895E95CD7CF42E0DE
:100C900050E064E471E087E591E00C945B04CF934D
:100CA000DF930E944805EC010E9447068C0F9D1FB0
:100CB000DF91CF910895BC01990F880B990B4AE001
:100CC0000C94F9051F920F920FB60F9211242F93D7
:100CD0003F934F935F936F937F938F939F93AF93C4
:100CE000BF93EF93FF9387E591E00E94D904FF91B2
:100CF000EF91BF91AF919F918F917F916F915F9194
:100D00004F913F912F910F900FBE0F901F9018950C
:100D10001F920F920FB60F9211242F938F939F93D0
:100D2000EF93FF93E0916701F09168018081E0917A
:100D30006D01F0916E0182FD1BC090818091700168
:100D40008F5F8F7320917101821741F0E0917001E4
:100D5000F0E0E95AFE4F958F80937001FF91EF917B
:100D60009F918F912F910F900FBE0F901F9018950C
:100D70008081F4CF1F920F920FB60F9211242F9300
:100D80003F938F939F93AF93BF938091490190912D
:100D90004A01A0914B01B0914C013091480123E0F0
:100DA000230F2D3758F50196A11DB11D2093480141
:100DB0008093490190934A01A0934B01B0934C0159
:100DC00080914D0190914E01A0914F01B091500141
:100DD0000196A11DB11D80934D0190934E01A093EA
:100DE0004F01B0935001BF91AF919F918F913F916F
:100DF0002F910F900FBE0F901F90189526E8230F8C
:100E00000296A11DB11DD2CF1F920F920FB60F9265
:100E100011242F933F934F935F936F937F938F93FF
:100E20009F93AF93BF93EF93FF93E091F601F091FF
:100E3000F70190818091F80198232091F901309178
:100E4000FA012F3F320731F02F5F3F4F3093FA0105
:100E50002093F9018091F401811135C0911116C0E0
:100E60002091F9013091FA012536310558F01092A0
:100E7000FB013093FE012093FD0181E08093FC0192
:100E80008093F4011092FA011092F9018091E0022E
:100E9000813041F48091DF02911161C061E08111E4
:100EA00061C02D9AFF91EF91BF91AF919F918F916A
:100EB0007F916F915F914F913F912F910F900FBE56
:100EC0000F901F9018958091F4018130A1F499231F
:100ED000E9F2E091FC018E0F8093FC01F0E0EE0F4F
:100EE000FF1FEC50FE4F2091F9013091FA0132873B
:100EF000218782E0C5CF8091F401823039F59111CC
:100F000019C0E091FC0181E0E03720F08093FB0103
:100F100083E0B6CF8E0F8093FC01F0E0EE0FFF1F51
:100F2000EC50FE4F2091F9013091FA013287218770
:100F300081E0A6CF2091F9013091FA0125363105E3
:100F400008F4A4CF83E08093F401A0CF8091F40152
:100F5000833009F09BCF992309F494CF97CF88234E
:100F600021F060E00E9488059DCF2D989BCFEF92E5
:100F7000FF920F931F93CF93DF93EC01F62F8A011B
:100F8000790190E080E030E0E0E0DE01AE0FB11DDD
:100F90002C91222341F0320F2E9F800D911D1124A0
:100FA0001C92FE1315C0332399F0532F5695850FCD
:100FB000911D632F70E00E947813DE01A60FB11D12
:100FC0003C93D8013C9131110EC06C9390E080E0CD
:100FD000EF5FFE17D0F681E0DF91CF911F910F9167
:100FE000FF90EF900895D7013C91332371F380E097
:100FF000F3CFCF93DF93E7E5F1E01382128288EE1F
:1010000093E0A0E0B0E084839583A683B78386E372
:1010100091E09183808385EC90E09587848784ECD0
:1010200090E09787868780EC90E0918B808B81ECB5
:1010300090E0938B828B82EC90E0958B848B86EC96
:1010400090E0978B868B118E128E138E148EC1EECC
:10105000D2E084EF91E0988B8F8780E00E94D002ED
:101060001092DF02D093DE02C093DD02DF91CF91B8
:101070000895CF93DF93CDB7DEB7E6970FB6F89418
:10108000DEBF0FBECDBF789484B5826084BD84B5C9
:10109000816084BD85B5826085BD85B5816085BD73
:1010A00080916E00816080936E001092810080912B
:1010B00081008260809381008091810081608093B3
:1010C0008100809180008160809380008091B100D8
:1010D00084608093B1008091B00081608093B00003
:1010E00080917A00846080937A0080917A00826097
:1010F00080937A0080917A00816080937A00809159
:101100007A00806880937A001092C100E0916701B4
:10111000F091680182E08083E0916301F0916401C5
:101120001082E0916501F091660180E18083109268
:101130006F01E0916B01F0916C0186E08083E0919A
:101140006901F0916A01808180618083E091690189
:10115000F0916A01808188608083E0916901F0915B
:101160006A01808180688083E0916901F0916A0161
:1011700080818F7D808385E392E00E944F0682E02C
:101180000E94D0021092DF028091E0028160809381
:10119000E002E2E4F5E02491EEE2F5E084918823B8
:1011A00099F090E0880F991FFC01EE5AFE4FA5912F
:1011B000B491FC01E85BFE4F859194918FB7F89450
:1011C000EC91E22BEC938FBF8091F50190E0FC0154
:1011D000EB5CFA4F24918F5D9A4FFC018491882338
:1011E000C9F090E0880F991FFC01EE5AFE4F45911F
:1011F0005491FC01E85BFE4FA591B4919FB7F89420
:10120000FA0180812095822380838C91E22FE8234C
:10121000EC939FBF82E08093B0008093B10084E69E
:101220008093B3008093B4001092B2008091F401D7
:10123000833011F41092F40184E0809370008AE00E
:1012400092E00E9448058BEF91E00E94480586EEEF
:1012500091E00E94480588ED91E00E94480581EDEB
:1012600091E00E9448058BEC91E00E94480585ECD6
:1012700091E00E94480580EC91E00E9448058AEBCD
:1012800091E00E94480580EB91E00E94480586EAC3
:1012900091E00E9448058FE891E00E94480583E8AC
:1012A00091E00E94480587E791E00E94480582E6A8
:1012B00091E00E9448058CE591E00E94480581E09C
:1012C00092E00E944F068E010F5F1F4F68018091D0
:1012D000F401833009F016C18091FB01882309F4E1
:1012E0005CC01092FB011092FC0180E48093EB0241
:1012F0001092E2021092E1021092E6021092E502D0
:101300001092E4021092E3021092EC021092ED02AD
:101310001092EE021092EF021092EA021092E9028D
:101320008091EB0286FDA5C0E091F002F091F10200
:101330002085822F8F7B843009F038C18385948586
:10134000865891098C35910508F030C185859685C0
:10135000243009F049C08197489708F027C1878554
:1013600090890897089708F021C181E08093EB02EB
:101370008091F4029091F5029093E4028093E3024D
:101380008091F8029091F9029093E6028093E50231
:101390008091F2029091F30235C21092EB0280919B
:1013A000E1029091E2029093F3028093F202809125
:1013B000E5029091E602B0E0A0E08093F8029093FD
:1013C000F902A093FA02B093FB028091E30290919C
:1013D000E402B0E0A0E08093F4029093F502A093C1
:1013E000F602B093F70284CF825491098F9708F0E8
:1013F000DDC0E12C00E312E020E936E040E352E0FA
:1014000063E080E20E948C03882309F4CFC0E0915E
:10141000F002F091F102E157FF4F8081918108972E
:10142000089708F0C3C02091EC029091ED02609102
:10143000EE028091EF02462F50E05093E602409377
:10144000E502422F592F4E3E17E8510709F08BC095
:1014500025E130E03093E2022093E10290E09093A6
:10146000E4028093E30220E230E03093EA0220932A
:10147000E9028FEF94E00E9448058091E10290918B
:10148000E20201978931910510F00C944912880FFE
:10149000991FFC01E050FF4F808191810E94480517
:1014A0008091E1029091E202892B09F0F6C786EF64
:1014B00094E00E9448056091EC027091ED028091E9
:1014C000EE029091EF0240E10E94F90580E20E9455
:1014D0006305E091F002F091F102808590E00196C1
:1014E000969587950E945B0681ED94E00E944F06D9
:1014F00089E095E00E944F068091F401833011F459
:101500001092F4010E94D4054B015C0184E6482E40
:10151000512C612C712C0E94D405681979098A0913
:101520009B09683E734081059105A8F301E0401ACC
:1015300051086108710818EE810E13E0911EA11C7C
:10154000B11C411451046104710429F780E090E05A
:10155000892B09F4BCCE0E94C504882309F4B7CEB8
:101560000E940000B4CE9095291310C030E0309353
:10157000E4022093E302982F909569130CC088E051
:1015800090E09093E2028093E1026DCF5093E402E9
:101590004093E302F0CF24E130E03093E202209365
:1015A000E1026093E5028093E6025DCFE091F002F4
:1015B000F091F1028085843609F0AFC0838594856F
:1015C000C397859708F0A9C0858596854A97439764
:1015D00008F0A3C0E12C00EB11E020E135E040EB86
:1015E00051E063E080E10E948C03882309F495C0F8
:1015F000F090EC028F2C9090ED02F9E06F2E712CA0
:1016000032E0831630E2930619F1EDE06E2E712C74
:101610005AEA85165AE59506D9F07CE0672E712CBA
:1016200084E5881682E3980699F06BE0662E712CAB
:1016300093E0891691E0990659F0AEE06A2E712C7C
:10164000A3E28A16ABEC9A0619F05AE0652E712CCB
:10165000F9248F2D82958F70F826BF2DBF70FB2E39
:10166000E12C00EB11E020E135E040EB51E063E2DA
:1016700080E20E948C03882309F44FC08091EC0221
:101680009091ED02A091EE02B091EF029C0144E036
:10169000369527954A95E1F73093E4022093E302CB
:1016A0002A2F30E03093E6022093E502282F2A27E4
:1016B0002927382F3F70F31619F034E03093EB02EE
:1016C000EAE06E16710449F03091EB02306130931C
:1016D000EB029092E8028092E7022B1729F08091AA
:1016E000EB0284608093EB02E091F002F091F10252
:1016F0008185928588329A4028F48091EB0281603E
:101700008093EB027092E2026092E10280E390E04B
:101710009093EA028093E902ACCEE091F002F0915E
:10172000F1028085803209F075C0EE24E3940CE06C
:1017300013E02CE137E044E051E061E08FE00E94EB
:101740008C03882309F466C0E091F002F091F10265
:10175000DF01A95BBF4F8D919C910497059708F01D
:1017600059C080E88093EB024090EC025090ED026B
:101770006090EE027090EF02442D4370D301C201DD
:1017800032E0B695A795979587953A95D1F79093BE
:10179000E3021092E4029C0133273093E602209387
:1017A000E502218532852536344088F52091FC02FA
:1017B0002F5F2093FC0240FE11C032E83093EB0211
:1017C0003091F8028095381719F086E88093EB0283
:1017D000832F90E09093E6028093E502223028F078
:1017E0008091EB0281608093EB028FE090E0909318
:1017F000EA028093E902415082E190E0423010F029
:1018000083E090E09093E2028093E10232CE109266
:10181000FC02EBCFE091F002F091F1028385948518
:1018200084974A9708F055C080858A3129F08A321A
:1018300019F0803209F04DC02585368528503109D0
:101840002830310508F045C0E82EF12CC70101977A
:1018500097FDC70195958795982EDF011F96EE0C91
:10186000FF1C19E0E10EF11CEE0EFF1E412C512C65
:101870003201439440E050E0BA01992009F45DC080
:101880002D913C9111972231310500F12032310523
:1018900000F544295529662977299D012E5F3F4F80
:1018A0002E153F0560F412962D913C911397285008
:1018B00031092830310568F49D012C5F3F4F440CFD
:1018C000551C661C771C9A94D901D7CF2930310555
:1018D00080F581E08093560189E793E0909354016D
:1018E00080935301109255010E94ED02813009F05E
:1018F00099C0412C512C320110E0E091F002F0919E
:10190000F102908580915601891708F04AC00E9423
:10191000ED02082F0E94ED02011139C0813009F05B
:1019200081C0440C551C661C771C689440F81F5FEE
:10193000E4CF2131310568F6B0CF4093EC025093EB
:10194000ED026093EE027093EF02242F2F77A7E051
:101950007695679557954795AA95D1F70184F285B5
:10196000E02DE438F34018F431E03093EB0230E03E
:101970003093E6022093E5025093E4024093E302A1
:101980008093E9029093EA0283E190E03BCF01303B
:1019900009F048C0811146C0440C551C661C771CD8
:1019A000C6CF812F90E09093EA028093E9024092A3
:1019B000EC025092ED026092EE027092EF02842DE2
:1019C0008F7390E09093E6028093E502920146E0E7
:1019D000369527954A95E1F72F7133273093E40226
:1019E0002093E302920122273071232B31F4805C93
:1019F0009F4F9093E6028093E50280E88093EB028C
:101A000053FE03C088E88093EB0281859285833E74
:101A1000984028F48091EB0281608093EB028FE084
:101A200090E0F0CEE091F002F091F1028385948590
:101A300088974D9708F046C0858596850C970B973B
:101A400008F040C083E0809356018CEB91E09093C6
:101A5000540180935301109255010E94ED02813090
:101A600089F50E94ED0281112DC0412C512C3201CB
:101A700010E0E091F002F091F10290858091560122
:101A8000891708F071C00E94ED02F82E1330B1F0F2
:101A90000E94ED02082F133021F40E94ED0208137A
:101AA00011C0B1E0FB1256C001110CC0440C551C12
:101AB000661C771C689440F81F5FDBCF0E94ED0224
:101AC000F81631F3E091F002F091F10220852C3309
:101AD00011F0243051F4838594858638910508F4FB
:101AE00088C0833E910508F4A1C0E091F002F09116
:101AF000F1028085843209F406C1823209F031C1D5
:101B0000818592858C3E9C4508F0B3CC8385948575
:101B10000897079708F0ADCCE55BFF4F8081918176
:101B20000897079708F0A5CC81E08093EB0280919D
:101B3000F4029091F5029093E4028093E302809185
:101B4000F8029091F9029093E6028093E50285E015
:101B500090E058CEF110B6CF013009F0B3CF440C6D
:101B6000551C661C771CA8CF812F90E09093EA0249
:101B70008093E9024092EC025092ED026092EE02F4
:101B80007092EF02242D30E0852D1432F8F480E8B5
:101B90008093EB023093E6022093E502852D90E0DE
:101BA0009093E4028093E30260FE03C088E8809390
:101BB000EB028185928583379A4028F48091EB026D
:101BC00081608093EB0280E190E01CCE90E89093DE
:101BD000EB0257FE03C098E89093EB023093E602C5
:101BE0002093E5028F7790E09093E4028093E302E4
:101BF000E0CF8D32910508F478CF6CE175E2B7E063
:101C00008B2E912C8D34910508F06FCF85859685AC
:101C1000243091F44D97469708F067CF87859089D7
:101C20000797089708F061CF81E8A0CB68E670E1DC
:101C3000A6E08A2E912CEACF0E947303882309F430
:101C400054CFEE24E39406E212E02CE236E044EFB7
:101C500051E063E08CE10E948C03882309F445CFB6
:101C6000E091F002F091F102E158FF4F8081918103
:101C70000797089708F039CF80E88093EB028091AE
:101C8000EC029091ED02A091EE02B091EF028C0176
:101C90009D0144E036952795179507954A95D1F70C
:101CA000B8011093E6020093E5028C019D0154E116
:101CB00036952795179507955A95D1F71093E40215
:101CC0000093E30244E050E020E0362F3F70230F02
:101CD00034E0769567953A95E1F741505109A9F7B7
:101CE00082278F709927AA27BB27892B8A2B8B2BBA
:101CF00019F084E88093EB029092E2028092E10274
:101D00008CE190E005CD838594858D5791098735C9
:101D1000910538F585859685CE978C9710F5E12C41
:101D20000EE012E02AE236E04EE052E063E080E1AD
:101D30000E948C038823A9F08091EC022091ED028F
:101D400030E03093E6022093E50290E09093E402C5
:101D50008093E30280E190E09093EA028093E902AD
:101D6000F6CEE091F002F091F1028085982F9F7DF0
:101D7000943419F0863009F08FC0238534852254BD
:101D800031092F32310508F087C025853685215469
:101D900031092F32310508F07FC08630B1F481E07F
:101DA0008093EB028091F4029091F5029093E4020B
:101DB0008093E3028091F8029091F9029093E602F9
:101DC0008093E50281E190E01DCDE12C09E212E073
:101DD0002BE736E049E252E063E08436B9F580E172
:101DE0000E948C03882309F457C08091EC029091E3
:101DF000ED029093E4028093E3022BE736E049E2A0
:101E000052E063E080E20E948C03882309F444C01E
:101E10009091EC023091ED022091EE028091EF0260
:101E20002095821731F09095931719F094E09093D4
:101E3000EB02982F832F9093E6028093E50280E3D4
:101E400090E09093EA028093E902BCCF80E20E9486
:101E50008C03882309F18091EE023091EF022091EA
:101E6000EC029091ED022093E3029093E402932F11
:101E7000909589130CC090E09093E6028093E50260
:101E800020E230E03093EA022093E9029BCF809376
:101E9000E5023093E602F4CFE091F002F091F10216
:101EA000838594852085243469F50B970A9750F52E
:101EB000858596858A974E9728F5EE24E3940EEE55
:101EC00012E026E638E04EEE52E063E080E20E9447
:101ED0008C038823B9F0E091F002F091F102E15710
:101EE000FF4F808191810B970A9760F480E880937F
:101EF000EB0280E290E09093EA028093E90289E1AC
:101F000090E080CCE091F002F091F1022085838591
:101F100094850297049708F062C0243209F05FC0EC
:101F2000858596850F970C9708F059C0EE24E394A9
:101F300007E011E029E232E04EE950E063E080E1A1
:101F40000E948C03882309F44AC0E091F002F091CA
:101F5000F102DF01A15BBF4F8D919C910297049725
:101F6000F0F580E88093EB029091EC028091ED0215
:101F7000292F382F482F42954F708F7004E03695E7
:101F800027950A95E1F72F70392F3F709FE094272E
:101F900098279227391719F094E89093EB026185FE
:101FA0007285683F714128F49091EB0292609093A2
:101FB000EB024093E3021092E402A0E18A9FC00189
:101FC0001124822B9093E6028093E50287E190E052
:101FD0009093E2028093E10280E190E099CBE0915E
:101FE000F002F091F1022085838594850F970C977C
:101FF000B8F52432A9F5858596854597419780F5F2
:10200000E12C04ED11E02CEB35E048E052E063E018
:1020100080E10E948C03882319F1E091F002F09195
:10202000F102DF01A15BBF4F8D919C91089707974B
:10203000B8F48091EC029091ED0298279F3F81F4D3
:1020400021853285223E344018F491E09093EB02D2
:1020500090E09093E6028093E50286E190E0B8CFAD
:10206000A091F002B091F1021896EC9118978AE9CC
:102070008E0F8D3008F04EC07D0120E030E040E052
:1020800050E060E070E080E090E0AA24A394B12CDE
:102090000E2F0150110B1801A214B304F0F4F70134
:1020A00083849484F2E0AF0EB11CF70165847684DA
:1020B0002401460C571CF1E14F1A51080EE040165E
:1020C000510458F501E00E948C138614970408F01F
:1020D000216014E0E10EF11CDFCF88E190E09093E5
:1020E000E2028093E102F501F695E795F093EA02AA
:1020F000E093E90280E98093EB022093E7023093BA
:10210000E8024093EC025093ED026093EE0270936C
:10211000EF02AFC9E43108F451C182E3F601119234
:102120008A95E9F718962C9118972250330B60E0A6
:1021300043E0842F90E0821793079CF4880F991F47
:10214000FD01E80FF91F8185823348F4F601E80F9D
:10215000F11D90819F5F9083681708F4682F4E5F90
:10216000E8CF1EAA1DAA9E012B5C3F4FAE014A5C20
:102170005F4FC6010E94B70782E3D6011D928A9580
:10218000E9F7A091F002B091F10218962C911897FE
:102190002250330B60E044E0842F90E082179307D5
:1021A0009CF4880F991FFD01E80FF91F8185823388
:1021B00048F4F601E80FF11D90819F5F9083681746
:1021C00008F4682F4E5FE8CF1CAA1BAA9E012D5C65
:1021D0003F4FAE014C5C5F4FC6010E94B70788239A
:1021E00009F4ECC0E091F002F091F102808586954F
:1021F00090E04C01B2E08B1A91089092EA02809232
:10220000E902039725E0969587952A95E1F7F82E40
:102210008BA9882309F4CFC083E0582E612C92E368
:10222000792E0CA9079D800111242BA9279D9001CF
:1022300011244EA9479DA0011124882D813208F058
:1022400080E2E12C652D0E948C03882309F4B6C03E
:1022500061103AC00E94470684E793E00E944F064F
:1022600088E593E00E944F0687E493E00E944805CA
:10227000E091F002F091F10283859485789EB0019F
:10228000799E700D112490E080E04AE00E94F905EB
:1022900084E493E00E944F0682E393E00E944805A5
:1022A000E091F002F091F10285859685789EB0016B
:1022B000799E700D112490E080E04AE00E94F905BB
:1022C0008FE293E00E944F0688E093E00E94480569
:1022D0008EA9879DC00111240E945B0685E093E0D2
:1022E0000E9448058BA9879DC00111240E945B06AE
:1022F00082E093E00E9448058EA9879DC0011124C9
:102300000E945B068FEF92E00E9448058CA9879D92
:10231000C00111240E945B068AEF92E00E944805EA
:102320006091EC027091ED028091EE029091EF02CB
:1023300040E10E94F905E0E28E16910490F587EFE6
:1023400092E00E944805B40190E080E04AE00E94DB
:10235000F90588EE92E00E944805F61027C081EE4C
:1023600092E00E944F060E944706F0E45F0E00E2F2
:10237000801A91086394F61408F053CF8CA99BA996
:102380008927982789279093E8028093E70221E024
:1023900030E03093E2022093E10280E18093EB028F
:1023A00068C882EF92E00E944805D3CF89ED92E0A1
:1023B0000E944F06DACF8DA98111EFCFE090F00295
:1023C000F090F102D7011896EC91E63008F451C86C
:1023D00011E025EC3DE94CE151E8F0E00AE0812F05
:1023E00090E0BC016E5F7F4F6E177F07F4F5660FBC
:1023F000771FD701A60FB71F19966D917C91880F93
:10240000991FD701A80FB91F19968D919C91069F0E
:102410004001079F900C1124DC01AA0FBB1FAA0FDB
:10242000BB1FAA0FBB1F8A169B0698F0089FD001FE
:10243000099FB00D1124CB0173E0880F991F7A9585
:10244000E1F762E0962EA817B90720F0992493943B
:1024500001C0912C63E971E080E091E00E942C13AF
:102460009B01AC0129251F5FBACF2093EC0230936A
:10247000ED024093EE025093EF02E0E2F0E0F093C1
:10248000EA02E093E9021092E2021092E1020C9457
:10249000390A81E594E00C944E0A85EC94E00E94A0
:1024A00048056091E3027091E40290E080E040E131
:1024B0000E94F90589EB94E00E9448056091E502CD
:1024C0007091E60290E080E040E10E94F905809181
:1024D000EB0284FF0DC08FEA94E00E9448056091F2
:1024E000E7027091E80290E080E040E10E94F90587
:1024F0008091EB0282FF04C082EA94E00E944805CA
:102500008091EB0283FF04C088E994E00E944805B3
:102510008091EB02837021F180E20E94630580913B
:10252000EB0281FF04C082E994E00E9448058BE839
:1025300094E00E94480585E894E00E944805E091F7
:10254000F002F091F10221853285A2E3B0E00E9411
:1025500069134AE00E94F90582E894E00E94480568
:102560008091EB0280FF0DC08091EC029091ED0212
:10257000A091EE02B091EF02892B8A2B8B2B09F4EC
:1025800068C085E794E00E9448056091EC02709174
:10259000ED028091EE029091EF0240E10E94F90578
:1025A00080E20E9463056091E9027091EA0290E086
:1025B00080E04AE00E94F9058FE694E00E94480519
:1025C0008091EB0287FF42C084E694E00E944F06B0
:1025D0008091E1029091E202039714F00C94780A42
:1025E000E091F002F091F10281859285803991406D
:1025F00010F00C94780A0E94470687E494E00E9449
:102600004805E091F002F091F1028185928522E384
:10261000289FB001299F700D112490E080E04AE0CE
:102620000E94F9058DEF93E00E94480580E29EE448
:102630000E945B0683EE93E00E944F068FE893E0D2
:102640000E944F060E9447060C94780A89E594E0A0
:10265000BDCF0E944706BCCFDB018F939F930E94A2
:102660005E13BF91AF91A29F800D911DA39F900D0E
:10267000B29F900D11240895A1E21A2EAA1BBB1B34
:10268000FD010DC0AA1FBB1FEE1FFF1FA217B3073E
:10269000E407F50720F0A21BB30BE40BF50B661F54
:1026A000771F881F991F1A9469F760957095809518
:1026B00090959B01AC01BD01CF0108950E94691363
:1026C000A59F900DB49F900DA49F800D911D112486
:1026D0000895A29FB001B39FC001A39F700D811DFB
:1026E0001124911DB29F700D811D1124911D08951B
:1026F000AA1BBB1B51E107C0AA1FBB1FA617B70728
:1027000010F0A61BB70B881F991F5A95A9F7809543
:102710009095BC01CD010895002E083090F0982FBF
:10272000872F762F652F542F432F322F22270850C3
:10273000F4CF220F331F441F551F661F771F881FBA
:10274000991F0A95B2F7002D0895EE0FFF1F05900F
:0A275000F491E02D0994F894FFCFF6
:10275A0025011901130151040F010C01080104019B
:10276A00FA00F100E400D500C600B200AE00AA00EB
:10277A00A2009C00970091008B0082007A007000F2
:10278A00680000000000FB045B0488046805B904C3
:08279A009704AB040D0A0000D6
:00000001FF
