:100000000C9462000C948A000C948A000C948A0070
:100010000C948A000C948A000C948A000C948A0038
:100020000C948A000C948A000C948A000C948A0028
:100030000C948A000C948A000C948A000C948A0018
:100040000C944D030C948A000C941B030C94F50241
:100050000C948A000C948A000C948A000C948A00F8
:100060000C948A000C948A000000000023002600F3
:10007000290000000000240027002A0000000000E2
:10008000250028002B0004040404040404040202D4
:100090000202020203030303030301020408102007
:1000A0004080010204081020010204081020000012
:1000B0000008000201000003040700000000000027
:1000C0000000970311241FBECFEFD8E0DEBFCDBFE5
:1000D00011E0A0E0B1E0E6ECFBE002C005900D927B
:1000E000AC33B107D9F721E0ACE3B1E001C01D9218
:1000F000A03FB207E1F710E0C2E6D0E004C02197CC
:10010000FE010E94DB05C136D107C9F70E94E20358
:100110000C94E1050C940000AF92BF92CF92DF9255
:10012000EF92FF920F931F93CF93DF936C017B01AC
:100130008B01040F151FEB015E01AE18BF08C0173D
:10014000D10759F06991D601ED91FC910190F081B0
:10015000E02DC6010995892B79F7C501DF91CF9173
:100160001F910F91FF90EF90DF90CF90BF90AF90D5
:100170000895FC01538D448D252F30E0842F90E0AD
:10018000821B930B541710F0CF9608950197089592
:10019000FC01918D828D981761F0A28DAE0FBF2F5B
:1001A000B11D5D968C91928D9F5F9F73928F90E0B1
:1001B00008958FEF9FEF0895FC01918D828D981720
:1001C00031F0828DE80FF11D858D90E008958FEF5D
:1001D0009FEF0895FC01918D228D892F90E0805C26
:1001E0009F4F821B91098F739927089585E491E0B1
:1001F0000E94EA0021E0892B09F420E0822F089573
:1002000080E090E0892B29F00E94F60081110C9487
:1002100000000895FC01A48DA80FB92FB11DA35AA9
:10022000BF4F2C91848D90E001968F739927848F16
:10023000A689B7892C93A089B1898C918370806439
:100240008C93938D848D981306C00288F389E02DDA
:1002500080818F7D80830895EF92FF920F931F938B
:10026000CF93DF93EC0181E0888F9B8D8C8D981369
:100270001AC0E889F989808185FF15C09FB7F89475
:10028000EE89FF896083E889F989808183708064C1
:1002900080839FBF81E090E0DF91CF911F910F910C
:1002A000FF90EF900895F62E0B8D10E00F5F1F4F1B
:1002B0000F731127E02E8C8D8E110CC00FB607FC2A
:1002C000FACFE889F989808185FFF5CFCE010E94B8
:1002D0000A01F1CFEB8DEC0FFD2FF11DE35AFF4F1B
:1002E000F0829FB7F8940B8FEA89FB898081806246
:1002F000CFCFCF93DF93EC01888D8823B9F0AA8903
:10030000BB89E889F9898C9185FD03C0808186FDD0
:100310000DC00FB607FCF7CF8C9185FFF2CF80811F
:1003200085FFEDCFCE010E940A01E9CFDF91CF9189
:100330000895833081F028F4813099F08230A9F05B
:1003400008958730A9F08830C9F08430B1F48091E5
:1003500080008F7D03C0809180008F778093800024
:10036000089584B58F7784BD089584B58F7DFBCFC4
:100370008091B0008F778093B00008958091B00095
:100380008F7DF9CFCF93DF93282F30E0F901E2552D
:10039000FF4F8491F901E656FF4FD491F901EA57D6
:1003A000FF4FC491CC23A1F081110E949901EC2F41
:1003B000F0E0EE0FFF1FE859FF4FA591B491EC91CB
:1003C000ED2381E090E009F480E0DF91CF91089582
:1003D00080E090E0FACF8E3008F08E508770806415
:1003E00080937C0080917A00806480937A00809171
:1003F0007A0086FDFCCF8091780090917900089575
:100400003FB7F8948091410190914201A09143013E
:10041000B091440126B5A89B05C02F3F19F0019665
:10042000A11DB11D3FBFBA2FA92F982F8827BC014E
:10043000CD01620F711D811D911D42E0660F771F76
:10044000881F991F4A95D1F708958F929F92AF9276
:10045000BF92CF92DF92EF92FF924B015C010E941C
:1004600000026B017C010E9400026C197D098E095B
:100470009F09683E734081059105A8F321E0821A27
:100480009108A108B10888EEC80E83E0D81EE11CCF
:10049000F11C81149104A104B10429F7FF90EF909D
:1004A000DF90CF90BF90AF909F908F900895FC0108
:1004B00001900020E9F73197AF01481B590BBC01AF
:1004C00085E491E00C948C00CF93DF930E94570257
:1004D000EC0182E191E00E9457028C0F9D1FDF9199
:1004E000CF9108958F929F92AF92BF92CF92DF9259
:1004F000EF92FF920F931F93CF93DF93CDB7DEB7A9
:10050000A1970FB6F894DEBF0FBECDBF6B017C0183
:10051000F7FE47C06DE285E491E00E942C018C015A
:1005200022273327A9012C193D094E095F0919A279
:10053000CE0181967C019AE0892E912CA12CB12CC0
:10054000CA01B901A50194010E94A305605DF701EC
:1005500062937F01211531054105510589F790E02E
:1005600080E0309719F0CF010E945702080F191F41
:1005700082E191E00E945702800F911FA1960FB671
:10058000F894DEBF0FBECDBFDF91CF911F910F91C9
:10059000FF90EF90DF90CF90BF90AF909F908F90A3
:1005A0000895AC019B0119A28E010F5D1F4F8AE0D7
:1005B000C82ED12CE12CF12CCA01B901A70196015A
:1005C0000E94A305605DF80162938F01211531053A
:1005D0004105510589F7309729F0CF010E94570254
:1005E0008C01C6CF10E000E0C3CF1F920F920FB670
:1005F0000F9211242F933F934F935F936F937F93A9
:100600008F939F93AF93BF93EF93FF9385E491E014
:100610000E940A01FF91EF91BF91AF919F918F913D
:100620007F916F915F914F913F912F910F900FBEEE
:100630000F901F9018951F920F920FB60F921124D2
:100640002F938F939F93EF93FF93E0915501F09138
:1006500056018081E0915B01F0915C0182FD1BC03D
:10066000908180915E018F5F8F7320915F0182176F
:1006700041F0E0915E01F0E0EB5BFE4F958F8093DF
:100680005E01FF91EF919F918F912F910F900FBE7F
:100690000F901F9018958081F4CF1F920F920FB684
:1006A0000F9211242F933F938F939F93AF93BF93F8
:1006B00080913D0190913E01A0913F01B091400198
:1006C00030913C0123E0230F2D3758F50196A11DF1
:1006D000B11D20933C0180933D0190933E01A09376
:1006E0003F01B09340018091410190914201A0915E
:1006F0004301B09144010196A11DB11D80934101B8
:1007000090934201A0934301B0934401BF91AF91F4
:100710009F918F913F912F910F900FBE0F901F903F
:10072000189526E8230F0296A11DB11DD2CFE5E44E
:10073000F1E01382128288EE93E0A0E0B0E08483BF
:100740009583A683B78384E091E09183808385ECD1
:1007500090E09587848784EC90E09787868780EC8B
:1007600090E0918B808B81EC90E0938B828B82EC7C
:1007700090E0958B848B86EC90E0978B868B118E26
:10078000128E138E148EE2EEF1E082E090E09183FF
:10079000808384E090E09383828385E090E095837A
:1007A000848383E090E09783868386E090E091875E
:1007B000808787E090E09387828788E090E0958744
:1007C00084870895789484B5826084BD84B58160FF
:1007D00084BD85B5826085BD85B5816085BD80910C
:1007E0006E00816080936E00109281008091810084
:1007F000826080938100809181008160809381007C
:10080000809180008160809380008091B10084603D
:100810008093B1008091B00081608093B00080919E
:100820007A00846080937A0080917A00826080935D
:100830007A0080917A00816080937A0080917A00BA
:10084000806880937A001092C10010E000E0C2EE50
:10085000D1E0073011050CF04DC0DE01888199818F
:100860009927FC01E656FF4F24918A579F4FFC01C0
:1008700084918823C9F090E0880F991FFC01EE58FD
:10088000FF4F45915491FC01E458FF4F65917491DD
:100890009FB7F894FA018081209582238083FB0121
:1008A0008081822380839FBF22962D913C913327A4
:1008B000F901E255FF4F8491F901E656FF4FE490AC
:1008C000F901EA57FF4FF490FF2089F081110E944F
:1008D0009901EF2DF0E0EE0FFF1FE458FF4FA591B7
:1008E000B4918FB7F894EC91EE2AEC928FBF0F5F22
:1008F0001F4FAFCFE0915501F091560182E0808308
:10090000E0915101F09152011082E0915301F09178
:1009100054018FEC808310925D01E0915901F091B8
:100920005A0186E08083E0915701F091580180815F
:1009300080618083E0915701F09158018081886047
:100940008083E0915701F091580180818068808315
:10095000E0915701F091580180818F7D8083CC24F4
:10096000CA9483E0D82EE12CF12CC0E0D0E082E0E4
:100970000E94C201892BF1F469E170E080E090E00F
:100980000E94250282E00E94C201892B51F485E178
:1009900091E00E94640268EC70E080E090E00E94C8
:1009A0002502209721F30E94F600882301F30E947C
:1009B0000000DDCF84E00E94C201892B71F469E15F
:1009C00070E080E090E00E94250284E00E94C20175
:1009D000892B39F788E191E0DCCF85E00E94C201E4
:1009E000892B71F469E170E080E090E00E942502BB
:1009F00085E00E94C201892BA1F68DE191E0C9CF6B
:100A000083E00E94C201892B71F469E170E080E00B
:100A100090E00E94250283E00E94C201892B09F622
:100A200082E291E0B6CF86E00E94C201892B79F480
:100A300069E170E080E090E00E94250286E00E947B
:100A4000C201892B09F0ADCF88E291E0A2CF87E007
:100A50000E94C201892B79F469E170E080E090E0A6
:100A60000E94250287E00E94C201892B09F099CFDC
:100A70008EE291E08ECF88E00E94C201892B79F44A
:100A800069E170E080E090E00E94250288E00E9429
:100A9000C201892B09F085CF85E391E07ACF8EE002
:100AA0000E94EB012FEF30E0DC010E94D405A7018A
:100AB00096010E9484058EE02D37310541055105D0
:100AC00099F48FE00E94EB012FEF30E0DC010E94EF
:100AD000D405A70196010E9484052E3731054105F2
:100AE000510509F45ECF8FE00E94EB012FEF30E05B
:100AF000DC010E94D405A70196010E948405CA0169
:100B0000B9010E94720247CF052E97FB1EF4009494
:100B10000E949B0557FD07D00E94A30507FC03D048
:100B20004EF40C949B0550954095309521953F4F80
:100B30004F4F5F4F089590958095709561957F4FC9
:100B40008F4F9F4F0895A1E21A2EAA1BBB1BFD01D8
:100B50000DC0AA1FBB1FEE1FFF1FA217B307E4079C
:100B6000F50720F0A21BB30BE40BF50B661F771FF4
:100B7000881F991F1A9469F76095709580959095D4
:100B80009B01AC01BD01CF010895A29FB001B39FAD
:100B9000C001A39F700D811D1124911DB29F700D86
:100BA000811D1124911D08950E94C505B7FF089568
:100BB000821B930B0895EE0FFF1F0590F491E02D1B
:060BC0000994F894FFCF38
:100BC600000000002C018C00B9007901EA00C80081
:100BD600DC000D0A00555000444F574E004C454668
:100BE6005400524947485400535441525400534507
:0C0BF6004C45435400414E414C4F470019
:00000001FF
