:100000000C9463000C948B000C948B000C948B006C
:100010000C948B000C948B000C948B000C948B0034
:100020000C948B000C948B000C948B000C948B0024
:100030000C948B000C948B000C948B000C948B0014
:100040000C9435030C948B000C9403030C94DD0288
:100050000C948B000C948B000C948B000C948B00F4
:100060000C948B000C948B0000000008000201002F
:100070000003040700000000000000000A0B0C0D44
:100080000E0F0001020304050000000025002800F7
:100090002B0000000000240027002A0004040404B0
:1000A0000404040402020202020203030303030322
:1000B00001020408102040800102040810200102FF
:1000C000040810207F0311241FBECFEFD8E0DEBF4D
:1000D000CDBF21E0ACE1B1E001C01D92A43EB2076A
:1000E000E1F711E0A0E0B1E0E4E2FCE002C005903D
:1000F0000D92AC31B107D9F710E0C3E6D0E004C0EF
:100100002197FE010E940106C236D107C9F70E945D
:10011000D3030C9410060C94000090E0FC01E05511
:10012000FF4F249184569F4FFC018491882399F0BE
:1001300090E0880F991FFC01EE56FF4FA591B491F6
:10014000FC01E857FF4F859194918FB7F894EC919B
:10015000E22BEC938FBF0895AF92BF92CF92DF92C4
:10016000EF92FF920F931F93CF93DF936C017B016C
:100170008B01040F151FEB015E01AE18BF08C017FD
:10018000D10759F06991D601ED91FC910190F08170
:10019000E02DC6010995892B79F7C501DF91CF9133
:1001A0001F910F91FF90EF90DF90CF90BF90AF9095
:1001B0000895FC01538D448D252F30E0842F90E06D
:1001C000821B930B541710F0CF9608950197089552
:1001D000FC01918D828D981761F0A28DAE0FBF2F1B
:1001E000B11D5D968C91928D9F5F9F73928F90E071
:1001F00008958FEF9FEF0895FC01918D828D9817E0
:1002000031F0828DE80FF11D858D90E008958FEF1C
:100210009FEF0895FC01918D228D892F90E0805CE5
:100220009F4F821B91098F739927089586E291E071
:100230000E940A0121E0892B09F420E0822F089511
:1002400080E090E0892B29F00E94160181110C9426
:1002500000000895FC01A48DA80FB92FB11DA35A69
:10026000BF4F2C91848D90E001968F739927848FD6
:10027000A689B7892C93A089B1898C9183708064F9
:100280008C93938D848D981306C00288F389E02D9A
:1002900080818F7D80830895EF92FF920F931F934B
:1002A000CF93DF93EC0181E0888F9B8D8C8D981329
:1002B0001AC0E889F989808185FF15C09FB7F89435
:1002C000EE89FF896083E889F98980818370806481
:1002D00080839FBF81E090E0DF91CF911F910F91CC
:1002E000FF90EF900895F62E0B8D10E00F5F1F4FDB
:1002F0000F731127E02E8C8D8E110CC00FB607FCEA
:10030000FACFE889F989808185FFF5CFCE010E9477
:100310002A01F1CFEB8DEC0FFD2FF11DE35AFF4FBA
:10032000F0829FB7F8940B8FEA89FB898081806205
:10033000CFCFCF93DF93EC01888D8823B9F0AA89C2
:10034000BB89E889F9898C9185FD03C0808186FD90
:100350000DC00FB607FCF7CF8C9185FFF2CF8081DF
:1003600085FFEDCFCE010E942A01E9CFDF91CF9129
:10037000089590E0FC01E859FF4F2491FC01E055FD
:10038000FF4F3491FC01E456FF4FE491EE23C9F096
:10039000222339F0233001F1A8F4213019F1223061
:1003A00029F1F0E0EE0FFF1FE857FF4FA591B49140
:1003B0008FB7F894EC91611126C030953E233C93A1
:1003C0008FBF08952730A9F02830C9F0243049F7AD
:1003D000809180008F7D03C0809180008F77809313
:1003E0008000DFCF84B58F7784BDDBCF84B58F7D70
:1003F000FBCF8091B0008F778093B000D2CF8091F7
:10040000B0008F7DF9CF3E2BDACF682F8091C801E5
:100410000E94B9018091E0019091E1018230910543
:1004200038F0880F991F880F991F05970197F1F7EA
:10043000089581E00C9405023FB7F8948091210162
:1004400090912201A0912301B091240126B5A89B8F
:1004500005C02F3F19F00196A11DB11D3FBFBA2F56
:10046000A92F982F8827BC01CD01620F711D811D16
:10047000911D42E0660F771F881F991F4A95D1F79B
:1004800008958EBD00000DB407FEFDCF8EB5089512
:100490000F931F930091CA011091CB012091CC01C1
:1004A0003091CD0140E052E16AE770E080E004174E
:1004B00015072607370740F47695679557954795B2
:1004C0008F5F8630A1F787E0982F906A9695809588
:1004D00081709CBD8DBD80E01F910F910C94050231
:1004E000CF93C82F0E9448028C2F80620E94410245
:1004F0008093CE01CF910C941902CF93C82F0E9404
:1005000048028C2F0E9441028093CE018FEF0E94FF
:100510004102C82F0E9419028C2FCF910895FF929B
:100520000F931F93CF93DF93C82FF62E072F142F0F
:100530000E9448028C2F80620E9441028093CE016B
:10054000CF2DD02F115020F089910E944102FACF77
:10055000DF91CF911F910F91FF900C9419020E948F
:10056000480280E50E9441028093CE0183E70E9409
:1005700041020C941902CF93DF93D82FC62F0E940B
:1005800048028D2F80620E9441028093CE018C2F01
:100590000E944102DF91CF910C9419026091D50124
:1005A00061FD0AC062606093D50180E00E94BB02D9
:1005B0008BE19EE40197F1F708951F920F920FB619
:1005C0000F9211242F933F934F935F936F937F93D9
:1005D0008F939F93AF93BF93EF93FF9386E291E046
:1005E0000E942A01FF91EF91BF91AF919F918F914E
:1005F0007F916F915F914F913F912F910F900FBE1F
:100600000F901F9018951F920F920FB60F92112402
:100610002F938F939F93EF93FF93E0913601F09187
:1006200037018081E0913C01F0913D0182FD1BC0CA
:10063000908180913F018F5F8F73209140018217DD
:1006400041F0E0913F01F0E0EA5DFE4F958F80932D
:100650003F01FF91EF919F918F912F910F900FBECE
:100660000F901F9018958081F4CF1F920F920FB6B4
:100670000F9211242F933F938F939F93AF93BF9328
:1006800080911D0190911E01A0911F01B091200148
:1006900030911C0123E0230F2D3758F50196A11D41
:1006A000B11D20931C0180931D0190931E01A09306
:1006B0001F01B09320018091210190912201A0910E
:1006C0002301B09124010196A11DB11D8093210148
:1006D00090932201A0932301B0932401BF91AF9185
:1006E0009F918F913F912F910F900FBE0F901F9070
:1006F000189526E8230F0296A11DB11DD2CFE6E280
:10070000F1E01382128288EE93E0A0E0B0E08483EF
:100710009583A683B7838AE091E09183808385ECFB
:1007200090E09587848784EC90E09787868780ECBB
:1007300090E0918B808B81EC90E0938B828B82ECAC
:1007400090E0958B848B86EC90E0978B868B118E56
:10075000128E138E148EE4ECF1E089E090E0938326
:10076000828388E090E09583848380E896E9A8E915
:10077000B0E086839783A087B18780E28387128A5F
:10078000138A85E0858B81E0868B85E090E0A0E090
:10079000B0E0848F958FA68FB78F83EC91E0918323
:1007A000808314860895CF93DF93CDB7DEB7A097EB
:1007B0000FB6F894DEBF0FBECDBF789484B58260CB
:1007C00084BD84B5816084BD85B5826085BD85B5F5
:1007D000816085BD80916E00816080936E00109273
:1007E00081008091810082608093810080918100EE
:1007F000816080938100809180008160809380007F
:100800008091B10084608093B1008091B0008160DC
:100810008093B00080917A00846080937A00809108
:100820007A00826080937A0080917A008160809360
:100830007A0080917A00806880937A001092C100DB
:10084000E0913601F091370182E08083E09132013E
:10085000F09133011082E0913401F09135018FEC79
:10086000808310923E01E0913A01F0913B0186E0D5
:100870008083E0913801F09139018081806180832B
:10088000E0913801F0913901808188608083E091A6
:100890003801F0913901808180688083E0913801CE
:1008A000F091390180818F7D80831FB7F89480910A
:1008B0002501811124C0E6EAF0E08491EAEBF0E042
:1008C0009491E82FF0E0EE0FFF1FEE56FF4FA59139
:1008D000B491EC91E92321F461E08AE00E94B9012E
:1008E0008AE00E948D008CB580618CBD8CB58064DF
:1008F0008CBD8DE00E948D008BE00E948D00809168
:1009000025018F5F809325011FBF8091C6019091C3
:10091000C7018F3F980709F4ADC02091C8013091FD
:10092000C9012F3F320709F4A5C08217930731F0A0
:100930000E948D008091C8010E948D008091C601A7
:100940009091C7012091C8013091C9018217930786
:1009500019F060E00E94B90181E00E9405020E9446
:100960001C026B017C0155E0852E912CA12CB12C31
:100970000E941C026C197D098E099F09683E734014
:1009800081059105A8F381E0881A9108A108B108B2
:1009900098EEC90E93E0D91EE11CF11C811491045C
:1009A000A104B10429F76FE584E00E94BB0285E54C
:1009B00090E0A0E0B0E08093DC019093DD01A09393
:1009C000DE01B093DF0167E086E00E94BB028DE1AB
:1009D0000E947D02182F0E94AF028DE10E947D02CD
:1009E00091E0181390E09093D601882341F01813FA
:1009F00002C00E94AF0260E08DE10E94BB02109233
:100A0000D80160E08CE10E94BB021092DA016FE332
:100A100081E00E94BB0263E082E00E94BB0280E2B0
:100A20008093CF0111E16091CF01812F0E94BB0221
:100A30001F5F1731C1F763E083E00E94BB0285E0CE
:100A40008093D9016CE40E94BB0260E787E00E94BA
:100A5000BB0282EE0E94700281EE0E9470026CE086
:100A600080E00E94BB0280E00E947D028093D5015D
:100A70000E94CE024091D90150E060E071E080ED2B
:100A800091E00E94070681E08093D701ECE7F0E057
:100A900084914091D90160E071E00E948F0282E070
:100AA0000E947D0202E810E0F801949161E070E09C
:100AB00001C0660F9A95EAF7682B82E00E94BB029C
:100AC0000E94CE026091D50161606093D50180E003
:100AD0000E94BB0260E787E00E94BB028091C601D2
:100AE0009091C7012091C8013091C90182179307E5
:100AF00019F061E00E94B9018091D701882309F4BF
:100B00003FC04091D90160ED71E08AE00E948F0200
:100B100030E2B32ECE0101967C0140E0C42E40E0CD
:100B2000D42E8FEF0E9470028091CE0190E09595B7
:100B300087958770863008F058C0F7012B2D1192E9
:100B40002A95E9F78091DA0110E000E2811107C0EF
:100B50001091CF01012F113208F000E2101B0E940A
:100B6000480281E60E9441028093CE014701015074
:100B7000D8F08FEF0E944102F40181934F01F7CF2B
:100B800082E00E947D02F801049121E030E001C082
:100B9000220F0A95EAF72095622F682382E00E94CF
:100BA000BB021092D701B4CF115020F08FEF0E94FA
:100BB0004102FACF0E94190260E487E00E94BB0262
:100BC000F70101900020E9F73197AF014E195F0955
:100BD000B70186E291E00E94AC0042E050E068E19B
:100BE00071E086E291E00E94AC00C114D10409F4E6
:100BF00098CF0E941601882309F493CF0E94000029
:100C000090CFEE0FFF1F0590F491E02D0994FB01AA
:100C1000DC0102C001900D9241505040D8F7089578
:040C2000F894FFCF76
:100C2400303030303100000000004C01AC00D900FD
:0C0C340099010A01E800FC000D0A000014
:00000001FF
