:100000000C949E000C94C6000C94C6000C94FE0543
:100010000C94FE050C94FE050C94C6000C94C600CE
:100020000C94C6000C94C6000C94C6000C94C60038
:100030000C94C6000C94C6000C94C6000C94C60028
:100040000C945C050C94C6000C94CC050C94A6058D
:100050000C94C6000C94C6000C94C6000C94C60008
:100060000C94C6000C94C6004261756420726174E1
:10007000653A20005061636B6574206C656E3A20B0
:100080000044657669636520616464726573733AE0
:1000900020005365637572697479206C6576656CB0
:1000A0003A200043617061636974793A20005379A2
:1000B000732049443A203078005374617475733A60
:1000C0002030780052656164696E672073656E73D5
:1000D0006F7220706172616D6574657273000000EB
:1000E00000080002010000030407000000000000F7
:1000F000000000000000230026002900000000008E
:10010000240027002A0000000000250028002B0002
:1001100004040404040404040202020202020303AD
:1001200003030303010204081020408001020408B5
:100130001020010204081020C206EF0B11241FBE7C
:10014000CFEFD8E0DEBFCDBF24E0A8E5B3E001C02B
:100150001D92AA39B207E1F713E0A0E0B1E0E2ECAA
:10016000F8E102C005900D92A835B107D9F710E06B
:10017000CDE9D0E004C02197FE010E94470CCC39A4
:10018000D107C9F70E94F0070C94540C0C9400009E
:10019000DF92EF92FF920F931F93CF93DF93EC01C7
:1001A00080917504909176046981DC01ED91FC9158
:1001B0000190F081E02D099580917504909176046D
:1001C000DC01ED91FC910190F081E02D68810995B1
:1001D0008091750490917604DC01ED91FC91019081
:1001E000F081E02D6A8109958091750490917604E3
:1001F000DC01ED91FC910190F081E02D6B8109957E
:100200008091750490917604DC01ED91FC91019050
:10021000F081E02D6C8109958091750490917604B0
:10022000DC01ED91FC910190F081E02D6D8109954B
:100230008091750490917604DC01ED91FC91019020
:10024000F081E02D6E8109950F8118850E5F1F4F9B
:100250008091750490917604E12EFF24DC01ED91EC
:10026000FC910190F081E02D6E2D0995809175042F
:1002700090917604DC01ED91FC910190F081E02DEC
:10028000602F09950E0D1F2D111D8E81080F111D58
:10029000D12C8091750490917604DC01ED91FC9154
:1002A0000190F081E02DED2CF12C2F813885E216A4
:1002B000F30660F4EC0EFD1ED70119966C910995BA
:1002C000F7018185080F111DD394E3CF612F0995A4
:1002D0008091750490917604DC01ED91FC91019080
:1002E000F081E02D602FDF91CF911F910F91FF9052
:1002F000EF90DF9009943FB7F89480919E0390911E
:100300009F03A091A003B091A10326B5A89B05C0AF
:100310002F3F19F00196A11DB11D3FBFBA2FA92F84
:10032000982F8827BC01CD01620F711D811D911D81
:1003300042E0660F771F881F991F4A95D1F70895ED
:100340008F929F92AF92BF92CF92DF92EF92FF92E5
:100350004B015C010E947B016B017C010E947B01CF
:100360006C197D098E099F09683E734081059105CE
:10037000A8F321E0821A9108A108B10888EEC80EFE
:1003800083E0D81EE11CF11C81149104A104B10486
:1003900029F7FF90EF90DF90CF90BF90AF909F90A4
:1003A0008F900895EF92FF920F931F93CF93DF9357
:1003B000EC01F12CE12C10E000E0809175049091AB
:1003C0007604DC01ED91FC910084F185E02D099526
:1003D000892B99F461E070E080E090E00E94A00138
:1003E000BFEFEB1AFB0A88EEE81683E0F80628F365
:1003F0008FEF37C002E010E0E0CF8091750490915C
:100400007604DC01ED91FC910284F385E02D0995E1
:100410000930110508F03CC0F801EF5EFD4F0C9467
:10042000470C1A02280238023802380238023D020C
:100430003F0242028F3E09F0C0CF18828983C80173
:100440000196065F1F4F0034110550F48C01B5CFA3
:1004500028813981282B3983288321303F4E51F25E
:100460008EEFDF91CF911F910F91FF90EF90089544
:10047000FE01E00FF11F8083E2CF8E83E0CF1F8269
:100480008887DDCF2F813885282B38872F83D7CFDA
:10049000FE01E00FF11F80832F813885C801089786
:1004A0008217930761F680E0DCCFAF92BF92CF92C4
:1004B000DF92EF92FF920F931F93CF93DF936C0124
:1004C0007B018B01040F151FEB015E01AE18BF0805
:1004D000C017D10759F06991D601ED91FC910190B7
:1004E000F081E02DC6010995892B79F7C501DF91CF
:1004F000CF911F910F91FF90EF90DF90CF90BF9021
:10050000AF900895FC01538D448D252F30E0842F4A
:1005100090E0821B930B541710F0CF96089501972B
:100520000895FC01918D828D981761F0A28DAE0F18
:10053000BF2FB11D5D968C91928D9F5F9F73928F9F
:1005400090E008958FEF9FEF0895FC01918D828DCB
:10055000981731F0828DE80FF11D858D90E0089598
:100560008FEF9FEF08952FB7F8948091A203909199
:10057000A303A091A403B091A5032FBF8093AE0362
:100580009093AF03A093B003B093B10386EA93E0D6
:100590000E94A50297FF26C02FB7F8948091A2036E
:1005A0009091A303A091A403B091A5032FBF409104
:1005B000AE035091AF036091B0037091B103841BFF
:1005C000950BA60BB70B4091AA035091AB0360911A
:1005D000AC037091AD0384179507A607B707B0F277
:1005E0008FEF9FEF0895FC01918D228D892F90E070
:1005F000805C9F4F821B91098F739927089586EA2B
:1006000093E00E94F30221E0892B09F420E0822F7D
:10061000089580E090E0892B29F00E94FF0281116B
:100620000C9400000895FC01A48DA80FB92FB11DF2
:10063000A35ABF4F2C91848D90E001968F73992718
:10064000848FA689B7892C93A089B1898C918370F6
:1006500080648C93938D848D981306C00288F389EF
:10066000E02D80818F7D80830895EF92FF920F931C
:100670001F93CF93DF93EC0181E0888F9B8D8C8D4E
:1006800098131AC0E889F989808185FF15C09FB742
:10069000F894EE89FF896083E889F9898081837005
:1006A000806480839FBF81E090E0DF91CF911F91B4
:1006B0000F91FF90EF900895F62E0B8D10E00F5FD5
:1006C0001F4F0F731127E02E8C8D8E110CC00FB6AB
:1006D00007FCFACFE889F989808185FFF5CFCE0143
:1006E0000E941303F1CFEB8DEC0FFD2FF11DE35AA8
:1006F000FF4FF0829FB7F8940B8FEA89FB898081C6
:100700008062CFCF0F931F93CF93DF938C01D0E004
:10071000C0E0F801EC0FFD1F6491662341F086EA0A
:1007200093E00E943503892B11F02196F2CFCE0180
:10073000DF91CF911F910F910895CF93DF93EC013B
:10074000888D8823B9F0AA89BB89E889F9898C91B9
:1007500085FD03C0808186FD0DC00FB607FCF7CF75
:100760008C9185FFF2CF808185FFEDCFCE010E9475
:100770001303E9CFDF91CF91089520919A0330912F
:100780009B032817390771F490919803809199037E
:10079000981741F0E0919803F0E0E85AFC4F80810F
:1007A00090E008958FEF9FEF08950895EF92FF92E4
:1007B0000F931F93CF93DF93DC015C96ED90FC9039
:1007C0005D97E114F10479F481E090E013969C9335
:1007D0008E93129790E080E0DF91CF911F910F915F
:1007E000FF90EF9008955196ED91FC91529750969D
:1007F0008C915097982F90950FB75E962C915E979D
:10080000122F127021FD6095F8942081112319F1A7
:10081000282B2083E7012197F1F728E0462F50E0AD
:10082000308160FF1AC0382B3083E7012197F1F740
:10083000BA0175956795215089F7112381F0808160
:10084000892380830FBF5C968D919C910197F1F76E
:1008500081E090E0C1CF2923DCCF3923E5CF90811F
:10086000892BEFCF20919A0330919B0328173907EA
:1008700061F4809199032091980390E0805C9F4FF0
:10088000821B91098F739927089590E080E0089565
:1008900020919A0330919B0328173907B9F490915E
:1008A000980380919903981789F0E0919803F0E0FC
:1008B000E85AFC4F80812091980330E02F5F3F4F32
:1008C0002F7333272093980390E008958FEF9FEFC5
:1008D000089590E080E00895FC0101900020E9F780
:1008E0003197AF01481B590BBC0186EA93E00C9489
:1008F00055028F929F92AF92BF920F931F93CF9307
:10090000DF93CDB7DEB7A1970FB6F894DEBF0FBE69
:10091000CDBF19A2423008F44AE08E010F5D1F4F8F
:10092000842E912CB12CA12CA50194010E94250CA0
:10093000E62FB901CA01EA30F4F4E05DD801EE9384
:100940008D01232B242B252B79F790E080E0109745
:1009500019F0CD010E946C04A1960FB6F894DEBF89
:100960000FBECDBFDF91CF911F910F91BF90AF9080
:100970009F908F900895E95CE1CFCF93DF930E9421
:100980006C04EC0184E291E00E946C048C0F9D1FCA
:10099000DF91CF910895CF93DF93462FBC0190E074
:1009A00080E00E947904EC0184E291E00E946C04F2
:1009B0008C0F9D1FDF91CF910895CF93DF93682F08
:1009C00070E090E080E04AE00E947904EC0184E26B
:1009D00091E00E946C048C0F9D1FDF91CF910895D0
:1009E000CF93DF93CDB7DEB7C954D1090FB6F894D2
:1009F000DEBF0FBECDBF21E03FEE3A83298391E0F9
:100A00009F8322E030E0398728879FEF9B839C8378
:100A10009D839E8392E09A878B87CE0101960E94E8
:100A2000C800CE0101960E94D20181110EC08F81B3
:100A3000873059F48A85C75BDF4F0FB6F894DEBF65
:100A40000FBECDBFDF91CF91089581E0F4CFCF935A
:100A5000DF93CDB7DEB7C954D1090FB6F894DEBF26
:100A60000FBECDBF81E09FEE9A83898391E09F8383
:100A700021E030E0398728878FEF8B838C838D834B
:100A80008E839A87CE0101960E94C800CE010196FE
:100A90000E94D20181110EC08F81873059F48A855E
:100AA000C75BDF4F0FB6F894DEBF0FBECDBFDF913F
:100AB000CF91089581E0F4CF1F920F920FB60F925D
:100AC00011242F933F938F939F93AF93BF93809164
:100AD000A2039091A303A091A403B091A503309128
:100AE0009D0323E0230F2D3758F50196A11DB11D5D
:100AF00020939D038093A2039093A303A093A40348
:100B0000B093A50380919E0390919F03A091A003B1
:100B1000B091A1030196A11DB11D80939E039093F6
:100B20009F03A093A003B093A103BF91AF919F91A6
:100B30008F913F912F910F900FBE0F901F9018959E
:100B400026E8230F0296A11DB11DD2CF1F920F924E
:100B50000FB60F9211242F933F934F935F936F9390
:100B60007F938F939F93AF93BF93EF93FF9386EA07
:100B700093E00E941303FF91EF91BF91AF919F917A
:100B80008F917F916F915F914F913F912F910F9036
:100B90000FBE0F901F9018951F920F920FB60F92D5
:100BA00011242F938F939F93EF93FF93E091B603BC
:100BB000F091B7038081E091BC03F091BD0382FD09
:100BC0001BC090818091BF038F5F8F732091C00302
:100BD000821741F0E091BF03F0E0EA55FC4F958F9A
:100BE0008093BF03FF91EF919F918F912F910F9071
:100BF0000FBE0F901F9018958081F4CF1F920F9217
:100C00000FB60F9211242F933F934F935F936F93DF
:100C10007F938F939F93AF93BF93EF93FF93E09155
:100C20009A03F0919B03309749F0A685B785858597
:100C3000968D91FF14C09C918923A1F4FF91EF91AF
:100C4000BF91AF919F918F917F916F915F914F91E4
:100C50003F912F910F900FBE0F901F9018959C9170
:100C6000892361F7A389B4899C918589809589231B
:100C70008C93868997890197F1F7608D718DA68590
:100C8000B785558538E020E0CB010197F1F7822F39
:100C900090E095958795282F4C91452309F0206881
:100CA000315091F7868D81FD20958091990390E0D8
:100CB00001968F73992730919803381799F0A09176
:100CC0009903B0E0A85ABC4F2C9380939903828D6E
:100CD000938D0197F1F7A389B4898C919589892B1C
:100CE0008C93ACCF868D8160868FF1CF90E0FC0134
:100CF000E252FF4F2491FC01EC5DFE4F3491FC0168
:100D0000E05FFE4FE491EE23C9F0222339F0233057
:100D100001F1A8F4213019F1223029F1F0E0EE0FB1
:100D2000FF1FEA5FFE4FA591B4918FB7F894EC9145
:100D3000611126C030953E233C938FBF0895273024
:100D4000A9F02830C9F0243049F7809180008F7DC8
:100D500003C0809180008F7780938000DFCF84B5BF
:100D60008F7784BDDBCF84B58F7DFBCF8091B000C2
:100D70008F778093B000D2CF8091B0008F7DF9CF74
:100D80003E2BDACF0F931F93CF93DF931092A903DB
:100D90001092A80388EE93E0A0E0B0E08093AA034D
:100DA0009093AB03A093AC03B093AD0324E031E088
:100DB0003093A7032093A60325EC30E03093B303D0
:100DC0002093B20324EC30E03093B5032093B403B6
:100DD00020EC30E03093B7032093B60321EC30E0F1
:100DE0003093B9032093B80322EC30E03093BB0377
:100DF0002093BA0326EC30E03093BD032093BC036C
:100E00001092BF031092C0031092C1031092C2034C
:100E100010927E0410927D0480937F04909380044E
:100E2000A0938104B093820486E191E090937C04C6
:100E300080937B0410929204109291041092940477
:100E400010929304109296041092950410929804B4
:100E500010929704609199046E7F6D7F609399045E
:100E60006695617081E0682783E00E94760647E21C
:100E700051E0FA01649183E191E0FC012491222385
:100E800099F030E0220F331FF901E450FF4FA59194
:100E9000B491F901EA5FFE4F259134912FB7F89490
:100EA0003C91632B6C932FBFFA01449140938B04C8
:100EB000FC018491E82FF0E0EE0FFF1FEA5FFE4F88
:100EC0008591949190938D0480938C0406E211E0B7
:100ED000F8012491C2E1D1E0FE0184918823C9F098
:100EE00090E0880F991FFC01E450FF4FA591B49149
:100EF000FC01EA5FFE4F459154913FB7F8949C91F5
:100F0000822F809598239C93FA0190818923808376
:100F10003FBF8091990481FD04C061E082E00E949E
:100F200076068BE794E022E020938704F801049191
:100F300000938804FE01C491EC2FF0E0EE0FFF1F38
:100F4000EE50FF4F2591349130938A042093890409
:100F500010924A041092490410924C0410924B04CF
:100F600020E430E030934E0420934D04109250045E
:100F700010924F044FEF5FEFBA014093510450932A
:100F80005204609353047093540430935604209396
:100F9000550420E031EE309358042093570410920A
:100FA000590410925A0410925B0410925C0440930E
:100FB0005D0450935E0460935F047093600410922C
:100FC0007A04109279049093780480937704909334
:100FD000760480937504DF91CF911F910F9108954E
:100FE000CF93DF93CDB7DEB7C954D1090FB6F894CC
:100FF000DEBF0FBECDBF789484B5826084BD84B55A
:10100000816084BD85B5826085BD85B5816085BD03
:1010100080916E00816080936E00109281008091BB
:101020008100826080938100809181008160809343
:101030008100809180008160809380008091B10068
:1010400084608093B1008091B00081608093B00093
:1010500080917A00846080937A0080917A00826027
:1010600080937A0080917A00816080937A008091E9
:101070007A00806880937A001092C100E091B603F4
:10108000F091B70302E00083E091B203F091B30363
:101090001082E091B403F091B5038FEC808310923D
:1010A000BE03E091BA03F091BB0316E01083E09118
:1010B000B803F091B903808180618083E091B80327
:1010C000F091B903808188608083E091B803F0914A
:1010D000B903808180688083E091B803F091B903FF
:1010E00080818F7D808364E670E080E090E00E94E4
:1010F000A00187E291E00E94BD0468EE73E080E009
:1011000090E00E94A001E0917904F0917A04309778
:1011100031F1A089B1890C93A089B1891C92A48571
:10112000B5851C92A685B78580E18C93108EA48925
:10113000B5891C93A289B3898C9180618C93A28913
:10114000B3898C9188608C93A289B3898C918068D3
:101150008C930288F389E02D80818F7D8083E091DC
:101160007704F0917804309709F477C0138E128ECB
:10117000118E108E178A168A82E490E0958F848FE4
:101180008485863108F03DC02FE030E0378B268B18
:1011900020E430E0318F208F27E230E0338F228F40
:1011A00090916800883008F48CC021E08E3008F4FB
:1011B00020E081E001C0880F2A95EAF7892B80930F
:1011C000680094852DE630E0983050F02BE630E052
:1011D0009E3030F02CE630E0963110F030E020E028
:1011E000348B238B292F30E0983008F06CC081E0DD
:1011F00001C0880F9A95EAF7858B848D958D0197AC
:10120000F1F7828D938D892B41F140919A03509192
:101210009B03E417F50709F14115510569F0DA015F
:1012200053962D913C91D9019C91DA0155968C9160
:1012300080958923D9018C93868D8E7F868F10921D
:10124000990310929803F0939B03E0939A03A38968
:10125000B4898C919589892B8C93809159049091B4
:101260005A0420915B0430915C04EE24E3945FEE19
:10127000F52EFA82E98201E00F8345E050E05987BC
:1012800048871FEF1B831C831D831E8343E14A870E
:101290003B872C879D878E87CE0101960E94C800D0
:1012A000CE0101960E94D2018823D1F080E591E021
:1012B0000E94BD0461E070E080E090E00E94A00127
:1012C000F9CF84E07BCF9E3040F42850310981E093
:1012D00001C0880F2A95EAF78FCF2E503109F7CF3A
:1012E0008F81873019F78A858111E0CF83E791E0FC
:1012F0000E94BD0484EC90E00E94820384E291E0AD
:101300000E946C04FA82E9820F8381E090E0998761
:1013100088871B831C831D831E838FE08A87CE01F1
:1013200001960E94C800CE0101960E94D20181114F
:101330005AC08F81873009F056C08B859C859827CD
:101340008927982790934A04809349048D859E8528
:1013500098278927982790934C0480934B048F8576
:10136000988998278927982790934E0480934D0455
:1013700089899A8998278927982790935004809380
:101380004F046B897C898D899E890E944D0C6093E6
:1013900051047093520480935304909354048F89A2
:1013A000988D982789279827909356048093550401
:1013B000009709F0FCC080E290E09093560480937F
:1013C0005504898D9A8D98278927982740E855E2FA
:1013D000849F9001859F300D949F300D1124309390
:1013E00058042093570489EB90E00E94820360E147
:1013F00070E08091490490914A040E94CB048EEAE7
:1014000090E00E94820360E170E080914B04909133
:101410004C040E94CB0483EA90E00E9482036AE0BD
:1014200070E080914D0490914E040E94CB0482E9BB
:1014300090E00E9482036AE070E080914F049091F6
:1014400050040E94CB0481E890E00E9482036091E6
:10145000510470915204809153049091540440E1DE
:101460000E94790484E291E00E946C0484E790E099
:101470000E9482036AE070E08091550490915604C6
:101480000E94CB0488E690E00E9482036AE070E04C
:1014900080915704909158040E94CB04882483942F
:1014A00020E0E22E20E0F22E01E01FEECC24C394D7
:1014B000D12C44E0A42EB12C99249A9495E0292EA5
:1014C0008DE891E00E94BD048CEA91E00E94BD0489
:1014D00086EA93E00E94F302892BD1F30E94B302C3
:1014E000FC0197FD7EC08D32910521F0C0970A97CF
:1014F00008F06FC0412C512C3201312CE130F10544
:10150000D9F0ED32F10509F469C0CF01C0970A970F
:1015100098F4AAE0B0E0A30192010E940B0C2F0105
:10152000FF0F66087708460E571E681E791EB0E347
:101530004B1A51086108710886EA93E00E949102F3
:101540000E94B302FC01C0970A97C0F2E130F10596
:10155000A9F2332041F07094609450944094411C5F
:10156000511C611C711C442009F4B2CF40929C03B1
:1015700087EF91E00E946C0480919C030E94DD043F
:1015800086E0682E86E092E00E946C0480919C03C5
:101590000E94DD040E942705813009F43FC028F134
:1015A0008230B9F18330E9F18CE592E034C08130CA
:1015B000910519F480E490E000CF8230910519F490
:1015C00080E890E0FACE039709F0FBCE80E091E04E
:1015D000F4CE86EA93E00E94910280CF33243394C4
:1015E000ABCF412C512C3201BECF8EE292E00E9453
:1015F000BD0481E00E94F004863009F442C008F086
:10160000BAC0882389F0813009F4CBC08CE592E020
:101610003AC085EF91E00E94BD04BCCF8AE392E01E
:10162000FACF8EE492E0F7CF8AE692E00E94BD0402
:101630008AE792E00E94BD0460ED77E080E090E0F0
:101640000E94A0010E9427058230E1F78CEB92E016
:101650000E946C0480919C030E94DD0480EC92E067
:101660000E94BD040E942705813009F491C0C8F092
:10167000823009F488C0833009F48DC08CE592E093
:10168000EFCF88E892E00E94BD04E114F10409F470
:1016900017CF0E94FF02882309F40ECF0E9400009A
:1016A0000BCF8EE292E00E94BD0482E00E94F00423
:1016B000863039F308F05FC08111A5CF8AE692E049
:1016C0000E94BD0488ED92E00E946C0480919C030E
:1016D0000E94DD041A8309838F82D986C8869B8283
:1016E0009C829D829E822A86CE0101960E94C8001D
:1016F000CE0101960E94D201811104C08F817A84AB
:10170000873011F077247394872D90E0009709F0CB
:1017100045C08DEE92E00E94BD048CEB92E00E94E9
:101720006C0480919C030E94DD0480919C031A83C9
:1017300009838F82B986A8869B829C829D829E8225
:101740006A868B861C868D87CE0101960E94C80012
:10175000CE0101960E94D201811104C08F817A844A
:10176000873011F077247394872D90E0009709F566
:1017700088E193E088CF873019F0853109F046CFB2
:1017800088E992E080CF85EF91E00E946C046ACFF7
:101790008AE392E065CF8EE492E062CF81309105DA
:1017A00019F48AE392E06FCF0A9789F48DEF92E003
:1017B0006ACF81309105A9F38B30910519F480E24D
:1017C00093E061CF489719F481E493E05CCF8CE516
:1017D00092E00E94BD04772009F4D4CE56CF86E172
:1017E00091E090937C0480937B0480919A03909184
:1017F0009B038B57944071F4E0918E04F0918F0419
:1018000090818091900480958923808310929B031E
:1018100010929A0308950E94160CA59F900DB49FF4
:10182000900DA49F800D911D11240895A29FB001D9
:10183000B39FC001A39F700D811D1124911DB29F04
:10184000700D811D1124911D0895A1E21A2EAA1B6D
:10185000BB1BFD010DC0AA1FBB1FEE1FFF1FA21760
:10186000B307E407F50720F0A21BB30BE40BF50B5D
:10187000661F771F881F991F1A9469F760957095E6
:10188000809590959B01AC01BD01CF010895EE0FAD
:10189000FF1F0590F491E02D099469279627692789
:1018A000782787277827089510E0CDE9D0E004C095
:1018B000FE010E94470C2196CE39D107C9F7F89452
:0218C000FFCF58
:1018C200000000003503550282029D03F3029102DB
:1018D200A50200000000D60355026904D5033204B4
:1018E2004804BD030D0A000A0A4164616672756903
:1018F200742046696E6765727072696E74207365D2
:101902006E736F7220656E726F6C6C6D656E7400B3
:10191200446964206E6F742066696E642066696E25
:101922006765727072696E742073656E736F722070
:101932003A2800466F756E642066696E676572703C
:1019420072696E742073656E736F722100526561E5
:10195200647920746F20656E726F6C6C20612066F2
:10196200696E6765727072696E742100506C656190
:101972007365207479706520696E207468652049EA
:10198200442023202866726F6D203120746F20312D
:1019920032372920796F752077616E7420746F2039
:1019A2007361766520746869732066696E67657213
:1019B2002061732E2E2E00456E726F6C6C696E67FD
:1019C20020494420230057616974696E6720666F5D
:1019D200722076616C69642066696E676572207434
:1019E2006F20656E726F6C6C206173202300496DED
:1019F2006167652074616B656E00436F6D6D756E16
:101A020069636174696F6E206572726F7200496DED
:101A12006167696E67206572726F7200556E6B6ED8
:101A22006F776E206572726F7200496D6167652013
:101A3200636F6E7665727465640052656D6F76656C
:101A42002066696E67657200496D61676520746F13
:101A52006F206D6573737900436F756C64206E6FD0
:101A6200742066696E642066696E67657270726959
:101A72006E74206665617475726573004944200056
:101A8200506C6163652073616D652066696E676580
:101A92007220616761696E004372656174696E6785
:101AA200206D6F64656C20666F722023005072692E
:101AB2006E7473206D617463686564210046696E9B
:101AC2006765727072696E747320646964206E6FE8
:101AD20074206D617463680053746F7265642100D1
:101AE200436F756C64206E6F742073746F7265201F
:101AF200696E2074686174206C6F636174696F6EC3
:101B0200004572726F722077726974696E67207411
:081B12006F20666C617368002E
:00000001FF
