:100000000C945D000C947A000C947A000C947A00A5
:100010000C947A000C947A000C947A000C947A0078
:100020000C947A000C947A000C947A000C947A0068
:100030000C947A000C947A000C947A000C947A0058
:100040000C94F6020C947A000C947A000C947A00CA
:100050000C947A000C947A000C947A000C947A0038
:100060000C947A000C947A00000000080002010051
:100070000003040700000000000000000000000072
:10008000250028002B0000000000240027002A0083
:10009000040404040404040402020202020203032E
:1000A0000303030301020408102040800102040836
:1000B0001020010204081020B40311241FBECFEF4A
:1000C000D8E0DEBFCDBF21E0A0E0B1E001C01D92CD
:1000D000A332B207E1F710E0CDE5D0E004C02197EC
:1000E000FE010E941C04CC35D107C9F70E944003D1
:1000F0000C9458040C94000090E0FC01EC55FF4F68
:10010000249180579F4FFC018491882399F090E0BF
:10011000880F991FFC01EA57FF4FA591B491FC018C
:10012000E458FF4F859194918FB7F894EC91E22BAE
:10013000EC938FBF089590E0FC01E859FF4F2491A4
:10014000FC01EC55FF4F3491FC01E057FF4FE49167
:10015000EE23C9F0222339F0233001F1A8F4213035
:1001600019F1223029F1F0E0EE0FFF1FE458FF4FA4
:10017000A591B4918FB7F894EC91611126C0309598
:100180003E233C938FBF08952730A9F02830C9F053
:10019000243049F7809180008F7D03C080918000DA
:1001A0008F7780938000DFCF84B58F7784BDDBCFDE
:1001B00084B58F7DFBCF8091B0008F778093B000A6
:1001C000D2CF8091B0008F7DF9CF3E2BDACFCF9385
:1001D000DF93EC018091110190911201029749F493
:1001E000C130D10509F43BC06CF560E0209709F4FB
:1001F00037C08091110190911201049749F4C130E8
:10020000D10509F45CC00CF037C0209709F442C056
:100210008091110190911201059709F0E5C0CA3053
:10022000D10508F0E1C0FE01E85EFE4F0C941C040D
:10023000770183019401AA01C501C701CE01DA014A
:10024000EB01F201C230D105A9F060E0C330D10565
:1002500081F6809115010E949B0060E006C061E07C
:10026000809115010E949B0061E0809117010E941E
:100270009B00BFCF61E0EDCFC230D10539F1C33073
:10028000D10509F0C5CF61E0809115010E949B0066
:1002900060E022C061E0809115010E949B0060E057
:1002A000809117010E949B0061E0809119010E94DA
:1002B0009B0060E080911B010E949B00A9CF60E041
:1002C000809115010E949B0061E0EACF60E080917F
:1002D00015010E949B0061E0809117010E949B0024
:1002E00060E0809119010E949B0061E0E3CF60E033
:1002F000809115010E949B0061E0809117010E948E
:100300009B0061E00BC060E0809115010E949B00A2
:1003100061E0809117010E949B0060E080911901CB
:100320000E949B0060E010C060E0809115010E9477
:100330009B0061E0809117010E949B0060E080912A
:1003400019010E949B0061E080911B010E949B00AB
:1003500061E015C060E0809115010E949B0061E0A2
:10036000809117010E949B0060E0809119010E941A
:100370009B0061E080911B010E949B0060E08091E6
:100380001D01DF91CF910C949B0061E0E4CF61E00F
:10039000809115010E949B0060E0E2CF61E08091B6
:1003A00015010E949B0060E0809117010E949B0054
:1003B00061E0DBCF61E0809115010E949B0060E06D
:1003C000809117010E949B0061E0809119010E94B9
:1003D0009B0060E0CFCF61E0809115010E949B00FF
:1003E00060E08BCF60E0F8CFDF91CF9108953FB709
:1003F000F8948091050190910601A0910701B091B8
:10040000080126B5A89B05C02F3F19F00196A11D34
:10041000B11D3FBFBA2FA92F982F8827BC01CD014E
:10042000620F711D811D911D42E0660F771F881FAD
:10043000991F4A95D1F708958F929F92AF92BF92DC
:10044000CF92DF92EF92FF920E94F7014B015C0185
:1004500084E6C82ED12CE12CF12C0E94F7016819FA
:1004600079098A099B09683E734081059105A8F3C3
:1004700021E0C21AD108E108F10888EE880E83E075
:10048000981EA11CB11CC114D104E104F10429F788
:10049000FF90EF90DF90CF90BF90AF909F908F90A4
:1004A00008954F925F926F927F928F929F92AF9238
:1004B000BF92EF92FF920F931F93CF93DF93EC01C4
:1004C00097FF04C0CC27DD27C81BD90B18161906C7
:1004D0000CF061C081E090E090930A0180930901E3
:1004E00004E010E08AE0E82EF12C209709F46FC0B8
:1004F0000E94F70180901F0190902001A09021019F
:10050000B09022012B013C01481859086A087B0869
:1005100080900B0190900C01A0900D01B0900E0105
:10052000481459046A047B0400F360931F0170931C
:1005300020018093210190932201809113019091D9
:1005400014012091090130910A012130310559F53A
:100550000196909314018093130120910F01309123
:1005600010018217930721F41092140110921301C5
:1005700021978091130190911401209111013091E4
:100580001201B7012530310509F0B8010E94E903D5
:100590000E94E700AACF892B09F4A2CF10920A018A
:1005A000109209019DCF892B41F480910F01909108
:1005B0001001909314018093130180911301909185
:1005C000140101979093140180931301D1CFDF910F
:1005D000CF911F910F91FF90EF90BF90AF909F90A0
:1005E0008F907F906F905F904F9008951F920F9221
:1005F0000FB60F9211242F933F938F939F93AF9336
:10060000BF938091010190910201A0910301B091EB
:1006100004013091000123E0230F2D3758F5019696
:10062000A11DB11D2093000180930101909302014F
:10063000A0930301B09304018091050190910601FC
:10064000A0910701B09108010196A11DB11D8093F1
:10065000050190930601A0930701B0930801BF9193
:10066000AF919F918F913F912F910F900FBE0F905F
:100670001F90189526E8230F0296A11DB11DD2CF19
:10068000789484B5826084BD84B5816084BD85B56D
:10069000826085BD85B5816085BD80916E00816079
:1006A00080936E001092810080918100826080931F
:1006B0008100809181008160809381008091800021
:1006C0008160809380008091B10084608093B1004C
:1006D0008091B00081608093B00080917A00846046
:1006E00080937A0080917A00826080937A00809172
:1006F0007A00816080937A0080917A00806880938C
:100700007A001092C10020910F0130911001032E48
:10071000000C440B550B60E077E883E993E00E94FE
:10072000FD03CA01B9012CE030E040E050E00E9436
:10073000FD0320930B0130930C0140930D01509366
:100740000E01C0E0D0E080E098E00E9451020E94DB
:100750001C0280E098EF0E9451020E941C02209728
:1007600091F30E940000EFCFCF93DF93C9E0D1E077
:100770001B861A86198218821E8A1F8A188E198E65
:1007800080E098E09F838E8388E090E09D878C874F
:100790008AE090E09F878E8789E090E0998B888B34
:1007A0008BE090E09B8B8A8B88E00E947C008E859A
:1007B0000E947C0088890E947C008A890E947C00BB
:1007C0001D8A1C8A84E090E099878887DF91CF9109
:1007D000089597FB072E16F4009407D077FD09D0F3
:1007E0000E94220407FC05D03EF4909581959F4F0E
:1007F0000895709561957F4F0895052E97FB1EF41F
:1008000000940E94140457FD07D00E94360407FC90
:1008100003D04EF40C9414045095409530952195D6
:100820003F4F4F4F5F4F089590958095709561951C
:100830007F4F8F4F9F4F0895EE0FFF1F0590F4914C
:10084000E02D0994AA1BBB1B51E107C0AA1FBB1FC7
:10085000A617B70710F0A61BB70B881F991F5A954C
:10086000A9F780959095BC01CD010895A1E21A2EBB
:10087000AA1BBB1BFD010DC0AA1FBB1FEE1FFF1F44
:10088000A217B307E407F50720F0A21BB30BE40B94
:10089000F50B661F771F881F991F1A9469F76095DB
:1008A0007095809590959B01AC01BD01CF01089595
:0408B000F894FFCFEA
:00000001FF
