:100000000C9499000C94C1000C94C1000C94C10094
:100010000C94C1000C94C1000C94C1000C94C1005C
:100020000C94C1000C94C1000C94C1000C94C1004C
:100030000C94C1000C94C1000C94C1000C94C1003C
:100040000C948C070C94C1000C945A070C94340740
:100050000C94C1000C94C1000C94C1000C94C1001C
:100060000C94D6070C94C10007634236B79BD8A7FF
:100070001A39685618AEBAAB558C1D3CB7CC5763CD
:10008000BD6DEDFD753EF6177231BF000000803F7B
:1000900008000000BE922449123EABAAAA2ABECD97
:1000A000CCCC4C3E00000080BEABAAAAAA3E000009
:1000B0000000BF000000803F000000000008417801
:1000C000D3BB4387D1133D190E3CC3BD4282AD2B38
:1000D0003E68EC8276BED98FE1A93E4C80EFFFBE30
:1000E00001C4FF7F3F000000000000000000250069
:1000F00028002B0004040404040404040202020285
:1001000002020303030303030102040810204080DA
:100110000102040810200102040810200000000859
:1001200000020100000304070000000000000000BE
:10013000F50811241FBECFEFD8E0DEBFCDBF12E01F
:10014000A0E0B1E0ECECF2E202C005900D92A6391D
:10015000B107D9F724E0A6E9B2E001C01D92AD34A1
:10016000B207E1F710E0C9E9D0E004C02197FE0131
:100170000E945E11C839D107C9F70E942E090C945C
:1001800064110C9400008091E7029091E802891BB1
:10019000990B089508950895AF92BF92CF92DF9280
:1001A000EF92FF920F931F93CF93DF936C017B012C
:1001B0008B01040F151FEB015E01AE18BF08C017BD
:1001C000D10759F06991D601ED91FC910190F08130
:1001D000E02DC6010995892B79F7C501DF91CF91F3
:1001E0001F910F91FF90EF90DF90CF90BF90AF9055
:1001F0000895FC01538D448D252F30E0842F90E02D
:10020000821B930B541710F0CF9608950197089511
:10021000FC01918D828D981761F0A28DAE0FBF2FDA
:10022000B11D5D968C91928D9F5F9F73928F90E030
:1002300008958FEF9FEF0895FC01918D828D98179F
:1002400031F0828DE80FF11D858D90E008958FEFDC
:100250009FEF0895FC01918D228D892F90E0805CA5
:100260009F4F821B91098F739927089589E593E029
:100270000E942A0121E0892B09F420E0822F0895B1
:1002800080E090E0892B29F00E94360181110C94C6
:1002900000000895FC01A48DA80FB92FB11DA35A29
:1002A000BF4F2C91848D90E001968F739927848F96
:1002B000A689B7892C93A089B1898C9183708064B9
:1002C0008C93938D848D981306C00288F389E02D5A
:1002D00080818F7D80830895EF92FF920F931F930B
:1002E000CF93DF93EC0181E0888F9B8D8C8D9813E9
:1002F0001AC0E889F989808185FF15C09FB7F894F5
:10030000EE89FF896083E889F98980818370806440
:1003100080839FBF81E090E0DF91CF911F910F918B
:10032000FF90EF900895F62E0B8D10E00F5F1F4F9A
:100330000F731127E02E8C8D8E110CC00FB607FCA9
:10034000FACFE889F989808185FFF5CFCE010E9437
:100350004A01F1CFEB8DEC0FFD2FF11DE35AFF4F5A
:10036000F0829FB7F8940B8FEA89FB8980818062C5
:10037000CFCFCF93DF93EC01888D8823B9F0AA8982
:10038000BB89E889F9898C9185FD03C0808186FD50
:100390000DC00FB607FCF7CF8C9185FFF2CF80819F
:1003A00085FFEDCFCE010E944A01E9CFDF91CF91C9
:1003B000089590E0FC01E45EFE4F2491FC01E85FAB
:1003C000FE4F3491FC01EC50FF4FE491EE23C9F055
:1003D000222339F0233001F1A8F4213019F1223021
:1003E00029F1F0E0EE0FFF1FE651FF4FA591B49108
:1003F0008FB7F894EC91611126C030953E233C9361
:100400008FBF08952730A9F02830C9F0243049F76C
:10041000809180008F7D03C0809180008F778093D2
:100420008000DFCF84B58F7784BDDBCF84B58F7D2F
:10043000FBCF8091B0008F778093B000D2CF8091B6
:10044000B0008F7DF9CF3E2BDACF3FB7F894809183
:10045000DF029091E002A091E102B091E20226B5A4
:10046000A89B05C02F3F19F00196A11DB11D3FBFEC
:10047000BA2FA92F982F8827BC01CD01620F711DBB
:10048000811D911D42E0660F771F881F991F4A95B5
:10049000D1F708958F929F92AF92BF92CF92DF9241
:1004A000EF92FF924B015C010E9425026B017C01DF
:1004B0000E9425026C197D098E099F09683E7340D0
:1004C00081059105A8F321E0821A9108A108B108DD
:1004D00088EEC80E83E0D81EE11CF11C8114910443
:1004E000A104B10429F7FF90EF90DF90CF90BF9067
:1004F000AF909F908F9008952091B702260F3327D9
:10050000331F21323105ECF420912F03FC0190E0E0
:1005100080E0243069F082E00895A091B702219133
:10052000AC0149565D4FA40FB52FB11D2C93019618
:10053000861798F38091B702680F6093B70280E046
:10054000089581E0089510922F0381E080932E0397
:100550001092090361E082E10E94D90161E083E128
:100560000E94D901E9EBF0E080818E7F8083808159
:100570008D7F808388E48093B80085E48093BC00FD
:100580000895CF93DF9391E0909396028823B9F07A
:10059000C091B800D091BA008091BC008A7B809352
:1005A000BC0060E082E10E94D90160E083E10E942A
:1005B000D9010E94A302D093BA00C093B800DF9182
:1005C000CF9108958F929F92AF92BF92CF92DF9278
:1005D000EF92FF920F931F93CF93DF93D091580325
:1005E000D13208F0D7C0182FC09157030E942502BE
:1005F0006B017C0180912F0381116BC082E080939D
:100600002F0310932E038FEF80932D0310922C0352
:10061000D0932B03A7E3B3E0EBE0F3E080E0D81343
:1006200091C010920A0380910A03CC0FC82BC0938B
:100630000A0380910903813009F088C010920903F0
:100640000E9425026B017C0180910A038093BB000C
:100650008091310390913203A0913303B091340320
:10066000892B8A2B8B2BA1F00E942502009131034C
:100670001091320320913303309134036C197D09BA
:100680008E099F09061717072807390708F442C083
:100690008091BC0083FDD8CF85EC8093BC000E9484
:1006A00025026B017C0180912F03823009F450C038
:1006B00080912D038F3F09F46FC080912D0380320C
:1006C00009F46CC080912D03803309F469C084E083
:1006D00026C08091310390913203A0913303B091F1
:1006E0003403892B8A2B8B2B09F484CF0E9425029B
:1006F0008090310390903203A0903303B090340384
:100700006C197D098E099F0986169706A806B906F9
:1007100008F070CF809130030E94C10285E01092F2
:1007200036031092580310923503DF91CF911F9139
:100730000F91FF90EF90DF90CF90BF90AF909F9080
:100740008F9008959D9191938F5F69CF85EEA5CF8E
:100750008091310390913203A0913303B09134031F
:10076000892B8A2B8B2B09F49ECF0E9425020091A6
:1007700031031091320320913303309134036C190B
:100780007D098E099F09061717072807390708F002
:100790008ACFC0CF81E0C3CF80E0C1CF82E0BFCF9E
:1007A00083E0BDCF0895E091E8028091E702E81769
:1007B00030F4F0E0E751FD4F808190E008958FEF35
:1007C0009FEF08959091E8028091E7022FEF3FEFAD
:1007D000981748F4E92FF0E0E751FD4F208130E011
:1007E0009F5F9093E802C9010895CF92DF92EF9244
:1007F000FF920F931F93CF93DF937C01CB018A016C
:1008000020913503222389F0EB016B01C40ED51E24
:10081000CC15DD0569F06991D701ED91FC9101904E
:10082000F081E02DC7010995F3CF642F0E947C026F
:10083000C801DF91CF911F910F91FF90EF90DF9052
:10084000CF90089521E02093350327E720935703A5
:10085000109236031092580342E050E0BC0186EF3C
:1008600093E00E94F50381E00E94E202982F8093BA
:100870004C0481E0911180E00895CF93DF931F92A3
:10088000CDB7DEB76983209135032223F9F020919B
:100890005803203258F021E030E0FC0133832283FA
:1008A00090E080E00F90DF91CF9108958091360322
:1008B000E82FF0E0E95CFC4F998190838F5F809393
:1008C00036038093580381E090E0ECCF61E0CE01E5
:1008D00001960E947C02F7CF90E080E00895FC0131
:1008E00001900020E9F73197AF01481B590BBC017B
:1008F00089E593E00C94CC008F929F92AF92BF92C7
:100900000F931F93CF93DF93CDB7DEB7A1970FB6A9
:10091000F894DEBF0FBECDBF19A2423008F44AE002
:100920008E010F5D1F4F842E912CB12CA12CA5019F
:1009300094010E943C11E62FB901CA01EA30F4F497
:10094000E05DD801EE938D01232B242B252B79F725
:1009500090E080E0109719F0CD010E946F04A196FD
:100960000FB6F894DEBF0FBECDBFDF91CF911F91C0
:100970000F91BF90AF909F908F900895E95CE1CF69
:10098000CF93DF930E946F04EC0184E291E00E9418
:100990006F048C0F9D1FDF91CF9108950C946F040D
:1009A0004F925F926F927F928F929F92AF92BF927F
:1009B000EF92FF920F931F93CF93DF937C01D62F7B
:1009C00081E08093350387E78093570310923603C5
:1009D00010925803F701608186EF93E00E943D0476
:1009E00081E00E94E20280934C048111E1C00D2F4E
:1009F0000D2E000C110B0E9425024B015C01809111
:100A00002F03811165C0CD2F81E080932F03809348
:100A10002E039FEF90932D0310922C039D0F909324
:100A20002B0380930A0380910A038E6E80930A033E
:100A300080910903813009F097C0109209030E9448
:100A400025024B015C0180910A038093BB008091D9
:100A5000310390913203A0913303B0913403892B79
:100A60008A2B8B2BA1F00E942502409031035090DD
:100A700032036090330370903403681979098A094E
:100A80009B09461657066806790608F442C080910D
:100A9000BC0083FDD8CF85EC8093BC000E9425026A
:100AA0004B015C0180912F03813009F45FC080917C
:100AB0002C038D1710F4C0912C03EBE0F3E0A9EEAA
:100AC000B2E080E08C1751F191919D938F5FFACF46
:100AD0008091310390913203A0913303B09134039C
:100AE000892B8A2B8B2B09F48ACF0E9425024090F8
:100AF00031035090320360903303709034036819CF
:100B000079098A099B09461657066806790608F08E
:100B100076CF809130030E94C102C0E01092E802BB
:100B2000C093E7028C2F90E008171907E9F7CE2D44
:100B3000870186EF93E00E94E203F80181938F0121
:100B40008E2F8C1B8D17ACF381E0DF91CF911F911D
:100B50000F91FF90EF90BF90AF909F908F907F90FC
:100B60006F905F904F90089585EE96CF80913103FE
:100B700090913203A0913303B0913403892B8A2BD7
:100B80008B2B09F48FCF0E942502409031035090A7
:100B900032036090330370903403681979098A092D
:100BA0009B09461657066806790608F07BCFB1CF39
:100BB00080E0CBCF0F931F93CF93DF9300D0CDB7BF
:100BC000DEB78B01898362E0CE0101960E94D004DA
:100BD000882381F089819A81982789279827F801AD
:100BE0009183808381E00F900F90DF91CF911F91CF
:100BF0000F910895F80111821082F5CF0F931F9382
:100C0000CF93DF9300D0CDB7DEB78B01898362E04D
:100C1000CE0101960E94D004882381F089819A81B7
:100C2000982789279827F8019183808381E00F9086
:100C30000F90DF91CF911F910F910895F8011182CC
:100C40001082F5CF4F925F926F927F928F929F9218
:100C5000AF92BF92CF92DF92EF92FF92CF93DF934A
:100C60006B017C01D42FAC019B010E9402108823F0
:100C700091F087E291E0DF91CF91FF90EF90DF90CC
:100C8000CF90BF90AF909F908F907F906F905F902C
:100C90004F900C946F0426013701E89477F82FEFFA
:100CA0003FEF4FE75FE7C301B2010E9402108111DD
:100CB0000DC02FEF3FEF4FE75FE7C301B2010E9486
:100CC000E80D18161CF48BE291E0D5CF2FEF3FEF23
:100CD0004FE75FE4C701B6010E94400F18161CF4ED
:100CE0008FE291E0C8CF2FEF3FEF4FE75FECC701F6
:100CF000B6010E94E80D87FDF3CF20E030E0A901A6
:100D0000C701B6010E94E80D912C812C87FF0AC013
:100D10006DE289E593E00E946C014C01F7FAF094D2
:100D2000F7F8F094CD2FA12C60E070E080E09FE315
:100D3000AD1640F420E030E040E251E40E94ED0DB9
:100D4000A394F6CFA70196010E947C0D2B013C01D4
:100D50000E945F0E5B016C014AE00E947C047C01F2
:100D6000E80CF91CDD23C1F1C601B5010E948E0E0D
:100D70009B01AC01C301B2010E947B0D4B015C01E0
:100D80006EE289E593E00E946C01E80EF91EC15005
:100D900018F120E030E040E251E4C501B4010E94C6
:100DA000450F2B013C010E945F0E4B01B12CA12C81
:100DB0004AE0C501B4010E947C04E80EF91EC50199
:100DC000B4010E948E0E9B01AC01C301B2010E94CE
:100DD0007B0D4B015C01DBCFC701DF91CF91FF9011
:100DE000EF90DF90CF90BF90AF909F908F907F90CB
:100DF0006F905F904F90089585ED8093BC00809137
:100E0000310390913203A0913303B09134030796DC
:100E1000A11DB11D23E0B695A795979587952A95B5
:100E2000D1F72091BC0024FD03C010922F03089538
:100E30004091310350913203609133037091340338
:100E4000452B462B472B69F30097A105B10541F0CF
:100E500025E32A95F1F700000197A109B109E1CF37
:100E6000809130030C94C1021F920F920FB60F9223
:100E700011242F933F934F935F936F937F938F939F
:100E80009F93AF93BF93EF93FF9389E593E00E9405
:100E90004A01FF91EF91BF91AF919F918F917F9107
:100EA0006F915F914F913F912F910F900FBE0F90D7
:100EB0001F9018951F920F920FB60F9211242F9327
:100EC0008F939F93EF93FF93E0916903F0916A03EF
:100ED0008081E0916F03F091700382FD1BC09081CF
:100EE000809172038F5F8F7320917303821741F09B
:100EF000E0917203F0E0E75AFC4F958F8093720304
:100F0000FF91EF919F918F912F910F900FBE0F90B6
:100F10001F9018958081F4CF1F920F920FB60F92F9
:100F200011242F933F938F939F93AF93BF938091FF
:100F3000DB029091DC02A091DD02B091DE023091E3
:100F4000DA0223E0230F2D3758F50196A11DB11DBC
:100F50002093DA028093DB029093DC02A093DD02FF
:100F6000B093DE028091DF029091E002A091E10255
:100F7000B091E2020196A11DB11D8093DF02909312
:100F8000E002A093E102B093E202BF91AF919F9182
:100F90008F913F912F910F900FBE0F901F9018953A
:100FA00026E8230F0296A11DB11DD2CF1F920F92EA
:100FB0000FB60F9211242F933F934F935F936F932C
:100FC0007F938F939F93AF93BF93EF93FF93809102
:100FD000B900887F803609F44AC0F0F5883209F4F8
:100FE000A7C018F5803109F49BC0B8F4882309F430
:100FF000F9C0883009F494C0FF91EF91BF91AF918F
:101000009F918F917F916F915F914F913F912F9120
:101010000F900FBE0F901F901895883109F488C06B
:10102000803251F780932D0314C0803409F49DC0A1
:1010300040F48033B9F38833F9F680932D0385ECBF
:10104000B0C0803509F485C0883509F496C088346D
:1010500099F60E94FC06D0CF883909F48CC038F587
:10106000883729F050F4883611F0803729F683E06C
:1010700080932F031092D90257C0883809F47BC09F
:10108000803919F0803809F0B7CF8091D9028032C9
:1010900008F071C0E091D90281E08E0F8093D902EF
:1010A0008091BB00F0E0E754FD4F80833DC0803B62
:1010B00039F0E0F4803A09F479C0883A09F09CCF1D
:1010C00084E080932F031092B8021092B702E0914F
:1010D000E502F091E60209958091B70281110FC0F7
:1010E00081E08093B7021092970209C0803C09F416
:1010F000A6CF883C09F4A3CF883B09F07DCFE091CF
:10110000B80281E08E0F8093B802F0E0E956FD4FFF
:1011100080818093BB009091B8028091B70229C072
:1011200080910A038093BB0085EC8093BC0064CF60
:1011300090912C0380912B03981758F5E0912C0384
:1011400081E08E0F80932C03F0E0E55FFC4F8081FF
:10115000E9CFE0912C0381E08E0F80932C038091E6
:10116000BB00F0E0E55FFC4F808390912C03809101
:101170002B039817C8F285E8D8CFE0912C0381E0C3
:101180008E0F80932C038091BB00F0E0E55FFC4F55
:10119000808380912E0381115CCF81E080930903CD
:1011A00084EA8093BC0010922F0326CF85EC8093B5
:1011B000BC0010922F038091D902803230F4E0916C
:1011C000D902F0E0E754FD4F10826091D90270E03F
:1011D000E091E302F091E40289EB92E0099510922C
:1011E000D9020ACF10922D0334CFE9E5F3E0138240
:1011F000128288EE93E0A0E0B0E084839583A6831A
:10120000B78324E031E03183208325EC30E035875B
:10121000248724EC30E03787268720EC30E0318BC0
:10122000208B21EC30E0338B228B22EC30E0358BAD
:10123000248B26EC30E0378B268B118E128E138E8A
:10124000148EE6EFF3E01382128284839583A683E3
:10125000B78386E191E0918380830895CF93DF93F4
:1012600000D000D000D01F92CDB7DEB7789484B5FF
:10127000826084BD84B5816084BD85B5826085BD92
:1012800085B5816085BD80916E00816080936E0020
:101290001092810080918100826080938100809112
:1012A00081008160809381008091800081608093C3
:1012B00080008091B10084608093B1008091B00083
:1012C00081608093B00080917A00846080937A007E
:1012D00080917A00826080937A0080917A008160A8
:1012E00080937A0080917A00806880937A001092CF
:1012F000C100E0916903F0916A0382E08083E0918C
:101300006503F09166031082E0916703F091680332
:101310008FEC808310927103E0916D03F0916E0366
:1013200086E08083E0916B03F0916C0380818061A3
:101330008083E0916B03F0916C03808188608083EF
:10134000E0916B03F0916C03808180688083E09171
:101350006B03F0916C0380818F7D808383E391E048
:101360000E94C0041092E8021092E7021092360325
:10137000109258030E94A3028AEC90E09093E60238
:101380008093E5028BEC90E09093E4028093E3027B
:1013900062E074E08AEA0E94FE05882309F4B3C182
:1013A00064E074E08CEA0E94FE05882309F4ABC176
:1013B00066E074E08EEA0E94FE05882309F4A3C16A
:1013C00062E174E080EB0E94DA05882309F49BC196
:1013D00064E174E082EB0E94DA05882309F493C18A
:1013E00066E174E084EB0E94DA05882309F48BC17E
:1013F00068E074E086EB0E94FE05882309F483C14F
:101400006AE074E088EB0E94FE05882309F47BC142
:101410006CE074E08AEB0E94FE05882309F473C136
:101420006EE074E08CEB0E94FE05882309F46BC12A
:1014300060E174E08EEB0E94FE05882309F463C12D
:101440006091060470910704072E000C880B990B1D
:101450000E94900E20E030E040EA5BE30E94450FDE
:101460002B013C01609112047091130490E080E024
:101470000E948E0E2FE632E143E053E30E94450FB7
:101480006B017C016091080470910904072E000C27
:10149000880B990B0E94900E20E030E048EC57E357
:1014A0000E94450F4B015C0160911404709115047A
:1014B00090E080E00E948E0E2DEC3CEC4CE454E376
:1014C0000E94450F609318047093190480931A04C6
:1014D00090931B04609116047091170490E080E0D3
:1014E0000E948E0E60931C0470931D0480931E0452
:1014F00090931F0460910E0470910F04072E000C4E
:10150000880B990B0E94900E2AE037ED43EA5DE3C9
:101510000E94450F6093200470932104809322045D
:10152000909323046091100470911104072E000C15
:10153000880B990B0E94900E20E030E040E253E4CB
:101540000E94ED0D6093240470932504809326047B
:10155000909327046091020470910304072E000CFD
:10156000880B990B0E94900E6093280470932904B5
:1015700080932A0490932B046091040470910504D5
:10158000072E000C880B990B0E94900E20E030E093
:1015900040EA5CE30E94450F60932C0470932D0495
:1015A00080932E0490932F0460910A0470910B0491
:1015B000072E000C880B990B0E94900E20E030E063
:1015C00048E45AE30E94450F60933004709331045D
:1015D000809332049093330420E030E040E057E4FD
:1015E000C701B6010E94450F60933404709335041F
:1015F0008093360490933704A7019601C301B2018A
:101600000E94450F609338047093390480933A0424
:1016100090933B04A5019401C701B6010E94450FB8
:1016200060933C0470933D0480933E0490933F0488
:101630008CEE91E5A7E1B0E48093400490934104DF
:10164000A0934204B093430480E394E3AEE7BFE386
:101650008093440490934504A0934604B0934704B8
:1016600080E097E5A4E9B6E38093480490934904A9
:10167000A0934A04B0934B048AE391E00E94C00413
:1016800084EF382E00E010E096EF292E84E291E0FE
:101690000E946F0481E691E00E94CE0450E040E099
:1016A00060E070EE8EEC94E40E94220685E791E003
:1016B0000E94CE0450E040E062E57EEA89EA95E4CB
:1016C0000E9422068FE791E00E94C00439828EE2D8
:1016D0008A83CE0101960E942204811119C085E8F7
:1016E00091E00E94C00468E873E180E090E00E940D
:1016F0004A020115110551F20E943601882331F288
:101700000E940000C3CF8EE491E00E94C004FFCF8E
:1017100065E070E080E090E00E944A02298262E089
:10172000CE0101960E94D004882309F4E1C16981A9
:1017300070E090E080E00E94900E20E030E040E811
:1017400053E40E94450F6B017C016A8170E090E0D8
:1017500080E00E94900E9B01AC01C701B6010E947F
:101760007C0D20911C0430911D0440911E04509169
:101770001F040E947B0D20911804309119044091A0
:101780001A0450911B040E94450F6B017C012091AB
:1017900024043091250440912604509127040E948E
:1017A0007C0D9B01AC01609120047091210480911B
:1017B0002204909123040E94ED0DA70196010E943E
:1017C0007C0D6B017C018DEA91E00E94CE0442E029
:1017D00050E0C701B6010E9422068BEB91E00E9407
:1017E000CE0426E636E646EE5FE3C701B6010E9468
:1017F000450F20E030E040E052E40E947C0D42E0E2
:1018000050E00E94220684EC91E00E94C0043982DC
:101810003A82CE0101960E942204882389F06AE16F
:1018200070E080E090E00E944A02298263E0CE01ED
:1018300001960E94D004811106C08EE692E051CF3D
:101840008BEC91E04ECF20E030E048EC51E4C70152
:10185000B6010E947B0D6B017C01AC019B010E94D3
:10186000450F4B015C01698170E090E080E00E94CF
:10187000900E20E030E040E853E40E94450F2B0139
:101880003C016A8170E090E080E00E94900E9B0134
:10189000AC01C301B2010E947C0D2B013C016B81A4
:1018A00070E090E080E00E94900E20E030E040E8A0
:1018B0005BE30E94450F9B01AC01C301B2010E9492
:1018C0007C0D6C837D838E839F83209130043091C7
:1018D00031044091320450913304C501B4010E9497
:1018E000450F2B013C0120912C0430912D04409197
:1018F0002E0450912F04C701B6010E94450F9B0191
:10190000AC01C301B2010E947C0D209128043091EA
:10191000290440912A0450912B040E947C0D9B01C4
:10192000AC016C817D818E819F810E947B0D2B019A
:101930003C0120913C0430913D0440913E04509183
:101940003F04C501B4010E94450F4B015C01209189
:1019500038043091390440913A0450913B04C70156
:10196000B6010E94450F9B01AC01C501B4010E9464
:101970007C0D20913404309135044091360450910F
:1019800037040E947C0D9B01AC01C301B2010E948F
:10199000ED0D6B017C01AC019B010E94450F209174
:1019A00048043091490440914A0450914B040E94EC
:1019B000450F4B015C012091440430914504409156
:1019C000460450914704C701B6010E94450F9B0190
:1019D000AC01C501B4010E947C0D209140043091FE
:1019E000410440914204509143040E947C0D6B01DC
:1019F0007C0180EF91E00E94CE0442E050E0C701FC
:101A0000B6010E94220684E092E00E94CE0429EFF3
:101A10003FEE41EF5CE3C701B6010E94450F42E093
:101A200050E00E9422068AE092E00E94C00427E56E
:101A30003BE941E55FE3C701B6010E94ED0D4B01B3
:101A40005C0180E192E00E94CE0442E050E0C501DA
:101A5000B4010E94220684E092E00E94CE0429EFA5
:101A60003FEE41EF5CE3C501B4010E94450F42E047
:101A700050E00E9422068AE092E00E94C004A50184
:101A80009401C701B6010E94ED0D2EEA3CED42E43F
:101A90005EE30E94B20F9B01AC0160E070E080E861
:101AA0009FE30E947B0D20E03AE24DE257E40E9462
:101AB000450F6B017C0180E392E00E94CE0450E070
:101AC00040E0C701B6010E94220685E791E00E942E
:101AD000CE0428E439EF41E550E4C701B6010E9485
:101AE000450F50E040E00E9422068FE791E0F9CDDB
:101AF00084E492E0F6CD5058BB27AA270E94930DAC
:101B00000C94060F0E94F80E38F00E94FF0E20F091
:101B100039F49F3F19F426F40C94F50E0EF4E09579
:101B2000E7FB0C94EF0EE92F0E94170F58F3BA173A
:101B3000620773078407950720F079F4A6F50C94E3
:101B4000390F0EF4E0950B2EBA2FA02D0B01B90121
:101B500090010C01CA01A0011124FF27591B99F023
:101B6000593F50F4503E68F11A16F040A22F232F2F
:101B7000342F4427585FF3CF469537952795A7957F
:101B8000F0405395C9F77EF41F16BA0B620B730B26
:101B9000840BBAF09150A1F0FF0FBB1F661F771F97
:101BA000881FC2F70EC0BA0F621F731F841F48F44C
:101BB000879577956795B795F7959E3F08F0B0CFD5
:101BC0009395880F08F09927EE0F979587950895BC
:101BD0000E94CB0E08F481E008950E94010E0C943F
:101BE000060F0E94FF0E58F00E94F80E40F029F4F4
:101BF0005F3F29F00C94EF0E51110C943A0F0C94A6
:101C0000F50E0E94170F68F39923B1F3552391F352
:101C1000951B550BBB27AA2762177307840738F05B
:101C20009F5F5F4F220F331F441FAA1FA9F335D0B8
:101C30000E2E3AF0E0E832D091505040E695001C6C
:101C4000CAF72BD0FE2F29D0660F771F881FBB1F26
:101C5000261737074807AB07B0E809F0BB0B802D04
:101C6000BF01FF2793585F4F3AF09E3F510578F030
:101C70000C94EF0E0C943A0F5F3FE4F3983ED4F3CC
:101C8000869577956795B795F7959F5FC9F7880F04
:101C9000911D9695879597F90895E1E0660F771F56
:101CA000881FBB1F621773078407BA0720F0621BE7
:101CB000730B840BBA0BEE1F88F7E09508950E9412
:101CC0001F0F88F09F5798F0B92F9927B751B0F0A0
:101CD000E1F0660F771F881F991F1AF0BA95C9F7B0
:101CE00014C0B13091F00E94390FB1E008950C9406
:101CF000390F672F782F8827B85F39F0B93FCCF3B9
:101D0000869577956795B395D9F73EF4909580952C
:101D1000709561957F4F8F4F9F4F0895E89409C04C
:101D200097FB3EF490958095709561957F4F8F4F0E
:101D30009F4F9923A9F0F92F96E9BB279395F69524
:101D4000879577956795B795F111F8CFFAF4BB0FA2
:101D500011F460FF1BC06F5F7F4F8F4F9F4F16C006
:101D6000882311F096E911C0772321F09EE8872F90
:101D7000762F05C0662371F096E8862F70E060E04C
:101D80002AF09A95660F771F881FDAF7880F9695C5
:101D9000879597F90895990F0008550FAA0BE0E869
:101DA000FEEF16161706E807F907C0F0121613061D
:101DB000E407F50798F0621B730B840B950B39F45D
:101DC0000A2661F0232B242B252B21F408950A26C3
:101DD00009F4A140A6958FEF811D811D089597F903
:101DE0009F6780E870E060E008959FEF80EC0895C1
:101DF00000240A94161617061806090608950024EA
:101E00000A9412161306140605060895092E039463
:101E1000000C11F4882352F0BB0F40F4BF2B11F4D7
:101E200060FF04C06F5F7F4F8F4F9F4F089557FD36
:101E30009058440F551F59F05F3F71F04795880F38
:101E400097FB991F61F09F3F79F0879508951216CF
:101E500013061406551FF2CF4695F1DF08C016167B
:101E600017061806991FF1CF86957105610508942C
:101E70000895E894BB2766277727CB0197F9089543
:101E80000E94CB0E08F48FEF08950E94580F0C9417
:101E9000060F0E94F80E38F00E94FF0E20F09523E6
:101EA00011F00C94EF0E0C94F50E11240C943A0FD3
:101EB0000E94170F70F3959FC1F3950F50E0551FC7
:101EC000629FF001729FBB27F00DB11D639FAA278F
:101ED000F00DB11DAA1F649F6627B00DA11D661FDE
:101EE000829F2227B00DA11D621F739FB00DA11DFF
:101EF000621F839FA00D611D221F749F3327A00DB9
:101F0000611D231F849F600D211D822F762F6A2F54
:101F100011249F5750409AF0F1F088234AF0EE0FB9
:101F2000FF1FBB1F661F771F881F91505040A9F7E6
:101F30009E3F510580F00C94EF0E0C943A0F5F3FDA
:101F4000E4F3983ED4F3869577956795B795F79522
:101F5000E7959F5FC1F7FE2B880F911D969587959A
:101F600097F90895FA01EE0FFF1F3096210531050C
:101F7000A1F16115710561F48038BFE39B0749F158
:101F800068949038810561F08038BFEF9B0741F07D
:101F900099234AF5FF3FE1053105210519F1E89440
:101FA0000894E795D901AA2329F4AB2FBE2FF85F37
:101FB000D0F310C0FF5F70F4A695E0F7F73950F04A
:101FC00019F0FF3A38F49F779F930DD00F9007FCDC
:101FD0009058089546F00C94F50E60E070E080E8AB
:101FE0009FE308954FE79F775F934F933F932F931E
:101FF0000E94B2102F913F914F915F910E94450F27
:102000000C940F100E94CB0E880B990B089529F4A5
:1020100016F00C94EF0E0C94390F0C94F50E0E94F0
:102020001F0FA8F39638A0F707F80F92E8942BE358
:102030003AEA48EB5FE70E945B0F0F920F920F9214
:102040004DB75EB70F920E94FA10E8E6F0E00E94EA
:1020500041104F915F91EF91FF91E595EE1FFF1FAA
:1020600049F0FE57E0684427EE0F441FFA95E1F768
:102070004195550B0E9474100F9007FE0C94681048
:102080000895DF93CF931F930F93FF92EF92DF9208
:102090007B018C01689406C0DA2EEF010E94580F74
:1020A000FE01E894A5912591359145915591A6F3AE
:1020B000EF010E94930DFE019701A801DA9469F7E0
:1020C000DF90EF90FF900F911F91CF91DF910895D6
:1020D0009B01AC0160E070E080E89FE30C94ED0DA3
:1020E0000C94EF0E0C942E110E941F0FD8F399231D
:1020F000C9F3940F511DA3F39150504094F059F03F
:10210000882332F0660F771F881F91505040C1F727
:102110009E3F51052CF7880F911D9695879597F94D
:1021200008955F3FACF0983E9CF0BB27869577956D
:102130006795B79508F4B1609395C1F7BB0F58F751
:1021400011F460FFE8CF6F5F7F4F8F4F9F4FE3CF5A
:102150000C943A0F16F00C942E110C94F50E689412
:102160000C94EF0E0E941F0FA8F39923C1F3AEF356
:10217000DF93CF931F930F93FF92C92FDD278823FF
:102180002AF02197660F771F881FDAF720E030E0EA
:1021900040E85FEB9FE3883920F0803E38F02196DD
:1021A0008F770E947C0DE0E9F0E004C00E947C0D76
:1021B000EDEBF0E00E9441108B01BE01EC01FB2E23
:1021C0006F5771097595771F880B990B0E94900EB8
:1021D00028E132E741E35FE30E94580FAF2D9801F9
:1021E000AE01FF900F911F91CF91DF910E94930D4F
:1021F0000C94060FFA01DC01AA0FBB1F9B01AC0176
:10220000BF5728F4222733274427507820C0B751DE
:1022100090F4AB2F0024469537952795011CA39584
:10222000D2F3002071F0220F331F441FB395DAF36D
:102230000ED00C947B0D61307105A0E88A07B94679
:1022400030F49B01AC016627772788279078309679
:1022500021F0208331834283538308959F3F31F0DF
:10226000915020F4879577956795B795880F911DC4
:102270009695879597F90895A1E21A2EAA1BBB1B84
:10228000FD010DC0AA1FBB1FEE1FFF1FA217B30742
:10229000E407F50720F0A21BB30BE40BF50B661F58
:1022A000771F881F991F1A9469F76095709580951C
:1022B00090959B01AC01BD01CF010895EE0FFF1F6A
:0C22C0000590F491E02D0994F894FFCFF4
:1022CC00000000006C01CC00F900B9012A010801E2
:1022DC001C01000000003D04F5036C04D203C30094
:1022EC00E203D3030D0A006E616E00696E66006F27
:1022FC007666005245424F4F5400424D50313830B3
:10230C0020696E6974207375636365737300424D45
:10231C005031383020696E6974206661696C0A0A24
:10232C000070726F766964656420616C7469747591
:10233C0064653A2000206D65746572732C20002052
:10234C0066656574006572726F7220737461727465
:10235C00696E672074656D70657261747572652045
:10236C006D6561737572656D656E740A0074656D6B
:10237C0070657261747572653A200020646567201F
:10238C00432C2000206465672046006572726F72D2
:10239C00207374617274696E6720707265737375E3
:1023AC007265206D6561737572656D656E740A007A
:1023BC006162736F6C75746520707265737375727E
:1023CC00653A2000206D622C200020696E48670061
:1023DC0072656C617469766520287365612D6C6516
:1023EC0076656C292070726573737572653A20007E
:1023FC00636F6D707574656420616C746974756459
:10240C00653A20006572726F72207265747269652C
:10241C0076696E672074656D70657261747572652E
:10242C00206D6561737572656D656E740A006572F9
:10243C00726F722072657472696576696E6720704E
:10244C0072657373757265206D6561737572656DF8
:06245C00656E740A000029
:00000001FF
