:100000000C9458000C9480000C9480000C94800098
:100010000C9480000C9480000C9480000C94800060
:100020000C9480000C9480000C9480000C94800050
:100030000C9480000C9480000C9480000C94800040
:100040000C9440070C9480000C940E070C94E80666
:100050000C9480000C9480000C9480000C94800020
:100060000C948A070C9480000000000025002800F2
:100070002B00040404040404040402020202020229
:10008000030303030303010204081020408001025C
:1000900004081020010204081020000000080002DB
:1000A0000100000304070000000000000000A90890
:1000B00011241FBECFEFD8E0DEBFCDBF11E0A0E01E
:1000C000B1E0E8E3FDE102C005900D92A835B1076B
:1000D000D9F722E0A8E5B1E001C01D92A23DB20728
:1000E000E1F710E0C8E5D0E004C02197FE010E94CE
:1000F000850EC735D107C9F70E94F0080C949A0EF7
:100100000C94000008950895AF92BF92CF92DF92B1
:10011000EF92FF920F931F93CF93DF936C017B01BC
:100120008B01040F151FEB015E01AE18BF08C0174D
:10013000D10759F06991D601ED91FC910190F081C0
:10014000E02DC6010995892B79F7C501DF91CF9183
:100150001F910F91FF90EF90DF90CF90BF90AF90E5
:100160000895FC01538D448D252F30E0842F90E0BD
:10017000821B930B541710F0CF96089501970895A2
:10018000FC01918D828D981761F0A28DAE0FBF2F6B
:10019000B11D5D968C91928D9F5F9F73928F90E0C1
:1001A00008958FEF9FEF0895FC01918D828D981730
:1001B00031F0828DE80FF11D858D90E008958FEF6D
:1001C0009FEF0895FC01918D228D892F90E0805C36
:1001D0009F4F821B91098F73992708958BE192E0BD
:1001E0000E94E20021E0892B09F420E0822F08958B
:1001F00080E090E0892B29F00E94EE0081110C94A0
:1002000000000895FC01A48DA80FB92FB11DA35AB9
:10021000BF4F2C91848D90E001968F739927848F26
:10022000A689B7892C93A089B1898C918370806449
:100230008C93938D848D981306C00288F389E02DEA
:1002400080818F7D80830895EF92FF920F931F939B
:10025000CF93DF93EC0181E0888F9B8D8C8D981379
:100260001AC0E889F989808185FF15C09FB7F89485
:10027000EE89FF896083E889F989808183708064D1
:1002800080839FBF81E090E0DF91CF911F910F911C
:10029000FF90EF900895F62E0B8D10E00F5F1F4F2B
:1002A0000F731127E02E8C8D8E110CC00FB607FC3A
:1002B000FACFE889F989808185FFF5CFCE010E94C8
:1002C0000201F1CFEB8DEC0FFD2FF11DE35AFF4F33
:1002D000F0829FB7F8940B8FEA89FB898081806256
:1002E000CFCFCF93DF93EC01888D8823B9F0AA8913
:1002F000BB89E889F9898C9185FD03C0808186FDE1
:100300000DC00FB607FCF7CF8C9185FFF2CF80812F
:1003100085FFEDCFCE010E940201E9CFDF91CF91A1
:10032000089590E0FC01E656FF4F2491FC01EA5746
:10033000FF4F3491FC01EE58FF4FE491EE23C9F0DA
:10034000222339F0233001F1A8F4213019F12230B1
:1003500029F1F0E0EE0FFF1FE859FF4FA591B4918E
:100360008FB7F894EC91611126C030953E233C93F1
:100370008FBF08952730A9F02830C9F0243049F7FD
:10038000809180008F7D03C0809180008F77809363
:100390008000DFCF84B58F7784BDDBCF84B58F7DC0
:1003A000FBCF8091B0008F778093B000D2CF809147
:1003B000B0008F7DF9CF3E2BDACF3FB7F894809114
:1003C000A1019091A201A091A301B091A40126B531
:1003D000A89B05C02F3F19F00196A11DB11D3FBF7D
:1003E000BA2FA92F982F8827BC01CD01620F711D4C
:1003F000811D911D42E0660F771F881F991F4A9546
:10040000D1F708952FB7F89460919D0170919E01E6
:1004100080919F019091A0012FBF089520917901B3
:10042000260F3327331F21323105ECF420911502BA
:10043000FC0190E080E0243069F082E00895A09112
:1004400079012191AC01475A5E4FA40FB52FB11D20
:100450002C930196861798F380917901680F609329
:10046000790180E0089581E008951092150281E0FD
:100470008093F4011092EF0161E082E10E9491010A
:1004800061E083E10E949101E9EBF0E080818E7FE1
:10049000808380818D7F808388E48093B80085E4A9
:1004A0008093BC000895CF93DF9391E0909358011F
:1004B0008823B9F0C091B800D091BA008091BC00F7
:1004C0008A7B8093BC0060E082E10E94910160E041
:1004D00083E10E9491010E943502D093BA00C0933B
:1004E000B800DF91CF910895CF92DF92EF92FF9203
:1004F0000F931F93CF93DF93D82FC62F613208F04D
:1005000098C00E94DD016B017C0180911502811170
:100510006BC081E0809315028093F4019FEF90936C
:10052000F3011092F2019C0F9093F1018093F0017E
:100530008091F001DD0FD82BD093F0018091EF0175
:10054000813009F078C01092EF010E94DD016B014B
:100550007C018091F0018093BB0080911702909103
:100560001802A0911902B0911A02892B8A2B8B2BA9
:10057000A1F00E94DD010091170210911802209154
:10058000190230911A026C197D098E099F0906170C
:1005900017072807390708F448C08091BC0083FD7D
:1005A000D8CF85EC8093BC000E94DD016B017C01FB
:1005B00080911502813009F440C08091F2018C17BE
:1005C00010F4C091F201EFECF1E0A5EFB1E080E0B2
:1005D0008C1355C08C2FDF91CF911F910F91FF90FD
:1005E000EF90DF90CF9008958091170290911802BC
:1005F000A0911902B0911A02892B8A2B8B2B09F436
:1006000084CF0E94DD010091170210911802209101
:10061000190230911A026C197D098E099F0906177B
:1006200017072807390708F070CF809116020E943B
:100630005302C0E0CFCF85EEB5CF809117029091E5
:100640001802A0911902B0911A02892B8A2B8B2BC8
:1006500009F4AECF0E94DD0100911702109118023B
:100660002091190230911A026C197D098E099F0997
:10067000061717072807390708F09ACFD6CF9191A8
:100680009D938F5FA5CF8F929F92AF92BF92CF9293
:10069000DF92EF92FF920F931F93CF93DF93D0914E
:1006A000CE01D13208F0D7C0182FC091CD010E94E1
:1006B000DD016B017C018091150281116BC082E02C
:1006C000809315021093F4018FEF8093F301109241
:1006D000F201D093F101ADEAB1E0EFECF1E080E09E
:1006E000D81391C01092F0018091F001CC0FC82B6B
:1006F000C093F0018091EF01813009F088C0109221
:10070000EF010E94DD016B017C018091F00180937B
:10071000BB008091170290911802A0911902B0912C
:100720001A02892B8A2B8B2BA1F00E94DD010091EC
:100730001702109118022091190230911A026C19B7
:100740007D098E099F09061717072807390708F43E
:1007500042C08091BC0083FDD8CF85EC8093BC0063
:100760000E94DD016B017C0180911502823009F449
:1007700050C08091F3018F3F09F46FC08091F30165
:10078000803209F46CC08091F301803309F469C0B0
:1007900084E026C08091170290911802A09119025E
:1007A000B0911A02892B8A2B8B2B09F484CF0E94DB
:1007B000DD018090170290901802A0901902B0906D
:1007C0001A026C197D098E099F0986169706A806DC
:1007D000B90608F070CF809116020E94530285E09E
:1007E0001092AC011092CE011092AB01DF91CF912B
:1007F0001F910F91FF90EF90DF90CF90BF90AF903F
:100800009F908F9008959D9191938F5F69CF85EE12
:10081000A5CF8091170290911802A0911902B09172
:100820001A02892B8A2B8B2B09F49ECF0E94DD01A3
:1008300000911702109118022091190230911A02AA
:100840006C197D098E099F090617170728073907B4
:1008500008F08ACFC0CF81E0C3CF80E0C1CF82E073
:10086000BFCF83E0BDCF1F93CF93DF93162FC4EC90
:10087000D2E0A981BA819B8121E02093AB019093C2
:10088000CD011092AC011092CE01ED91FC91119727
:100890000190F081E02D682FCD01099589819A8121
:1008A000DC01ED91FC910190F081E02D612F099523
:1008B00081E00E9443038883DF91CF911F910895C7
:1008C0000F931F93CF93DF93162F072FC4ECD2E023
:1008D000A981BA819B8121E02093AB019093CD0146
:1008E0001092AC011092CE01ED91FC911197019004
:1008F000F081E02D682FCD01099589819A81DC0175
:10090000ED91FC910190F081E02D602F0995898196
:100910009A81DC01ED91FC910190F081E02D612F35
:10092000099581E00E9443038883DF91CF911F9155
:100930000F9108950895E091AA018091A901E81707
:1009400030F4F0E0EB50FE4F808190E008958FEF9F
:100950009FEF08959091AA018091A9012FEF3FEF99
:10096000981748F4E92FF0E0EB50FE4F208130E07B
:100970009F5F9093AA01C90108958091A901909168
:10098000AA01891B990B0895CF92DF92EF92FF92F3
:100990000F931F93CF93DF937C01CB018A012091AA
:1009A000AB01222389F0EB016B01C40ED51ECC15DF
:1009B000DD0569F06991D701ED91FC910190F0811D
:1009C000E02DC7010995F3CF642F0E940E02C801E4
:1009D000DF91CF911F910F91FF90EF90DF90CF901B
:1009E0000895CF93DF931F92CDB7DEB7698320912F
:1009F000AB012223F9F02091CE01203258F021E002
:100A000030E0FC013383228390E080E00F90DF919F
:100A1000CF9108958091AC01E82FF0E0E355FE4FAF
:100A2000998190838F5F8093AC018093CE0181E0A8
:100A300090E0ECCF61E0CE0101960E940E02F7CF6C
:100A400090E080E00895FC0101900020E9F73197E3
:100A5000AF01481B590BBC018BE192E00C94840060
:100A60000F931F93CF93DF93C4ECD2E0A981BA8197
:100A70009B8121E02093AB019093CD011092AC01BA
:100A80001092CE01ED91FC9111970190F081E02D33
:100A9000682FCD01099581E00E944303888362E0BD
:100AA0008B810E9474021092AA018093A90189810E
:100AB0009A81DC01ED91FC910284F385E02D09958A
:100AC00000E0182F89819A81DC01ED91FC9102846C
:100AD000F385E02D0995802B912BDF91CF911F910C
:100AE0000F910895CF93DF93C4ECD2E0A981BA812E
:100AF0009B8121E02093AB019093CD011092AC013A
:100B00001092CE01ED91FC9111970190F081E02DB2
:100B1000682FCD01099581E00E944303888361E03D
:100B20008B810E9474021092AA018093A90189818D
:100B30009A81DC01ED91FC910284F385E02D099509
:100B4000DF91CF910895CF93DF93EC0181E00E9474
:100B5000720584FB992790F9988383FB992790F974
:100B60009A8382FB992790F9998386FB992790F9BC
:100B70009B83881F8827881F8C83DF91CF910895DE
:100B8000682F616080E00E9433040E94020270932B
:100B9000CC026093CB0283E10E9472058770B9F4A6
:100BA0008091C8029091C902892BA9F30E94020288
:100BB0002091CB023091CC02621B730B8091C80252
:100BC0009091C9028617970730F780E0089561E099
:100BD0008BE00E94330460E080E00E94330481E0F7
:100BE00008958F929F92AF92BF92EF92FF920F93D0
:100BF0001F93CF93DF937C01EB0180E50E94720588
:100C00008F5F880F90E09983888386E40E94720545
:100C1000082F10E00F5F1F4F1D830C83A881B0E0E9
:100C200020E03FE24AE350E00E94720E6C507E4F9B
:100C30008F4F9F4F38EE832E33E0932EA12CB12C93
:100C4000A50194010E94500ED8010E947D0E6C50A7
:100C50007E4F8F4F9F4FA50194010E94500E2A870F
:100C60003B874C875D8781E50E9430058C01112709
:100C700002C0000F111F9A95E2F70F5F1F4F1F83ED
:100C80000E83A881B0E020E03FE24AE350E00E94FA
:100C9000720E6C507E4F8F4F9F4FA50194010E94A2
:100CA000500ED8010E94720E6C507E4F8F4F9F4F96
:100CB000A50194010E94500E2E873F87488B598BC7
:100CC00080E70E9472058F5F880F90E09B838A8384
:100CD00081E70E9430059C01992702C0880F991F67
:100CE0003A95E2F7019699878887F70123812223B5
:100CF00031F02E813F81821B930B99878887AA81CF
:100D0000B0E020E03FE24AE350E00E94720E6C50F7
:100D10007E4F8F4F9F4F28EE822E23E0922EA12CE4
:100D2000B12CA50194010E94500EA885B9850E949E
:100D3000720E6C507E4F8F4F9F4FA50194010E9401
:100D4000500E2A8B3B8B4C8B5D8BDF91CF911F918B
:100D50000F91FF90EF90BF90AF909F908F9008956C
:100D600085ED8093BC008091170290911802A091AC
:100D70001902B0911A020796A11DB11D23E0B69584
:100D8000A795979587952A95D1F72091BC0024FDCA
:100D900003C0109215020895409117025091180255
:100DA0006091190270911A02452B462B472B69F36B
:100DB0000097A105B10541F025E32A95F1F7000060
:100DC0000197A109B109E1CF809116020C94530259
:100DD0001F920F920FB60F9211242F933F934F93B0
:100DE0005F936F937F938F939F93AF93BF93EF9393
:100DF000FF938BE192E00E940201FF91EF91BF917E
:100E0000AF919F918F917F916F915F914F913F91A2
:100E10002F910F900FBE0F901F9018951F920F9259
:100E20000FB60F9211242F938F939F93EF93FF93FD
:100E3000E0912B02F0912C028081E0913102F0913F
:100E4000320282FD1BC09081809134028F5F8F73CC
:100E500020913502821741F0E0913402F0E0E55E26
:100E6000FD4F958F80933402FF91EF919F918F9169
:100E70002F910F900FBE0F901F9018958081F4CF87
:100E80001F920F920FB60F9211242F933F938F93BF
:100E90009F93AF93BF9380919D0190919E01A091EC
:100EA0009F01B091A00130919C0123E0230F2D37C9
:100EB00058F50196A11DB11D20939C0180939D01C1
:100EC00090939E01A0939F01B093A0018091A101F6
:100ED0009091A201A091A301B091A4010196A11D3E
:100EE000B11D8093A1019093A201A093A301B0939F
:100EF000A401BF91AF919F918F913F912F910F903E
:100F00000FBE0F901F90189526E8230F0296A11D83
:100F1000B11DD2CF1F920F920FB60F9211242F93B3
:100F20003F934F935F936F937F938F939F93AF9371
:100F3000BF93EF93FF938091B900887F803609F4C7
:100F40004AC0F0F5883209F4A7C018F5803109F4D9
:100F50009BC0B8F4882309F4F9C0883009F494C020
:100F6000FF91EF91BF91AF919F918F917F916F9181
:100F70005F914F913F912F910F900FBE0F901F9057
:100F80001895883109F488C0803251F78093F301B5
:100F900014C0803409F49DC040F48033B9F3883321
:100FA000F9F68093F30185ECB0C0803509F485C073
:100FB000883509F496C0883499F60E94B006D0CFDF
:100FC000883909F48CC038F5883729F050F4883610
:100FD00011F0803729F683E08093150210929B016F
:100FE00057C0883809F47BC0803919F0803809F07F
:100FF000B7CF80919B01803208F071C0E0919B01D6
:1010000081E08E0F80939B018091BB00F0E0E5585A
:10101000FE4F80833DC0803B39F0E0F4803A09F414
:1010200079C0883A09F09CCF84E080931502109231
:101030007A0110927901E091A701F091A801099538
:101040008091790181110FC081E080937901109224
:10105000590109C0803C09F4A6CF883C09F4A3CF0C
:10106000883B09F07DCFE0917A0181E08E0F80937B
:101070007A01F0E0E75AFE4F80818093BB009091A7
:101080007A018091790129C08091F0018093BB00A1
:1010900085EC8093BC0064CF9091F2018091F101C6
:1010A000981758F5E091F20181E08E0F8093F201DC
:1010B000F0E0E153FE4F8081E9CFE091F20181E061
:1010C0008E0F8093F2018091BB00F0E0E153FE4F60
:1010D00080839091F2018091F1019817C8F285E820
:1010E000D8CFE091F20181E08E0F8093F2018091E0
:1010F000BB00F0E0E153FE4F80838091F401811149
:101100005CCF81E08093EF0184EA8093BC00109271
:10111000150226CF85EC8093BC00109215028091B9
:101120009B01803230F4E0919B01F0E0E558FE4FE6
:10113000108260919B0170E0E091A501F091A60101
:101140008BE791E0099510929B010ACF1092F30171
:1011500034CFEBE1F2E01382128248EE53E060E01C
:1011600070E0448355836683778384E091E09183C4
:10117000808385EC90E09587848784EC90E0978766
:10118000868780EC90E0918B808B81EC90E0938B54
:10119000828B82EC90E0958B848B86EC90E0978B31
:1011A000868B118E128E138E148EA8EBB2E01396DE
:1011B0001C921E92129714964D935D936D937C939F
:1011C000179786E191E011969C938E93E4ECF2E000
:1011D000B283A18389E283831582148216820895E3
:1011E000CF93DF93CDB7DEB7AC970FB6F894DEBFE1
:1011F0000FBECDBF789484B5826084BD84B5816014
:1012000084BD85B5826085BD85B5816085BD8091D1
:101210006E00816080936E00109281008091810049
:101220008260809381008091810081608093810041
:10123000809180008160809380008091B100846003
:101240008093B1008091B00081608093B000809164
:101250007A00846080937A0080917A008260809323
:101260007A0080917A00816080937A0080917A0080
:10127000806880937A001092C100E0912B02F09177
:101280002C0282E08083E0912702F09128021082F4
:10129000E0912902F0912A028FEC808310923302B0
:1012A000E0912F02F091300286E08083E0912D02E0
:1012B000F0912E02808180618083E0912D02F09177
:1012C0002E02808188608083E0912D02F0912E02B1
:1012D000808180688083E0912D02F0912E028081D0
:1012E0008F7D80831092AA011092A9011092AC0107
:1012F0001092CE010E94350282E890E09093A801FE
:101300008093A70183E890E09093A6018093A501C4
:1013100084EF91E09093C9028093C80280EC0E9410
:1013200072058E3E09F086C089E80E947205682F1A
:10133000616089E80E94330460E088E80E94330419
:1013400061E080E80E94330461E08FEF0E94330483
:1013500060E080E00E94330481E90E94720580937E
:10136000CD0261E080E00E94330460E08FEF0E94D4
:10137000330460E080E80E94330480E60E94720536
:10138000682F626180E60E94330460E270E084E4CA
:101390000E9460046FEF81E00E94330461E080E806
:1013A0000E94330461E08FEF0E94330460E080E02C
:1013B0000E94330466E08FEF0E94330483E80E94AA
:1013C0007205682F646083E80E94330467E08FEF42
:1013D0000E94330461E081E80E94330461E080E808
:1013E0000E9433046BE684E90E94330460E083E8E2
:1013F0000E9433040E9402027093CC026093CB02DD
:1014000083E80E94720581111EC08091C8029091EC
:10141000C902892BA9F30E9402022091CB023091CC
:10142000CC02621B730B8091C8029091C90286178F
:10143000970730F784E291E00E9423058CE491E065
:101440000E942305FFCF61E083E80E94330482E914
:101450000E947205F82EE894F7F8D82EDD1CDD24E2
:10146000DD1C60E081E80E94330466E08FEF0E949B
:10147000330483E80E947205682F6B7F83E80E9423
:10148000330461E08FEF0E94330461E080E00E944A
:10149000330460E08FEF0E94330460E080E80E9434
:1014A00033048091C5029091C6022091C70231E0B9
:1014B0003093AB012093CD011092AC011092CE017C
:1014C000DC01ED91FC910190F081E02D60EB09953C
:1014D00081E00E9443038093C40266E08091C702CA
:1014E0000E9474021092AA018093A9018E010E5DE0
:1014F0001F4F580187E0E82EEA94EE2079F08091A2
:10150000C5029091C602DC01ED91FC910284F38545
:10151000E02D0995F50181935F01EECF61E08FEF3A
:101520000E94330460E08FE40E9433046CE28EE496
:101530000E94330460E08FEF0E94330464EB86EB7B
:101540000E943304BCE0EB2ED11001C0E12C90E0EE
:1015500080E0E1E0F0E0482F46954695469550E062
:101560009801240F351FD9012C91682F67708E15B3
:1015700010F0F9123BC0400F511FDF0102C0AA0F4B
:10158000BB1F6A95E2F7BD0160952623DA012C9313
:101590008F5F803301F78091C5029091C602209140
:1015A000C70231E03093AB012093CD011092AC0122
:1015B0001092CE01DC01ED91FC910190F081E02DC3
:1015C00060EB0995A7E0FA2EFA94FF20C9F080910C
:1015D000C5029091C602F80161918F01DC01ED9185
:1015E000FC910190F081E02D0995EECF30E002C032
:1015F000359527956A95E2F720FFCACF9F5FC8CF40
:1016000081E00E9443038093C40261E08FEF0E9457
:10161000330460E080E00E94330460E08FEF0E94BA
:10162000330460E089E00E94330460E080E10E94BE
:10163000330460E081E10E94330461E084E20E94AF
:1016400033046FEF85E20E94330460E085E70E9477
:10165000330461E08FEF0E9433046CE28EE40E9459
:10166000330460E088E40E94330460E280E30E9477
:10167000330460E08FEF0E94330469E080E30E944E
:10168000330460E084E50E94330464E081E30E9457
:10169000330463E082E30E94330463E880E40E9441
:1016A000330465E286E40E94330460E080E60E9431
:1016B000330460E087E20E94330466E080E50E9424
:1016C000330460E081E50E94330466E982E50E940C
:1016D000330468E086E50E94330460E387E50E94F6
:1016E000330460E081E60E94330460E082E60E94F9
:1016F000330460E084E60E94330460E085E60E94E3
:10170000330460EA86E60E94330461E08FEF0E94B2
:10171000330462E382E20E94330464E187E40E94BE
:1017200033046FEF89E40E94330460E08AE40E948E
:10173000330460E08FEF0E9433046AE08AE70E947E
:10174000330460E08BE70E94330461E288E70E9483
:10175000330461E08FEF0E94330464E383E20E946C
:10176000330460E082E40E9433046FEF84E40E945B
:10177000330466E285E40E94330465E086E40E9457
:10178000330460E480E40E94330466E08EE00E944B
:1017900033046AE180E20E94330460E483E40E943F
:1017A000330460E08FEF0E94330463E084E30E941F
:1017B000330464E485E30E94330461E08FEF0E9408
:1017C000330464E081E30E94330469E08BE40E9407
:1017D000330465E08CE40E94330464E08DE40E94ED
:1017E000330460E08FEF0E94330460E084E40E94E1
:1017F000330460E285E40E94330468E087E40E94D9
:10180000330468E288E40E94330460E087E60E94C3
:10181000330464E080E70E94330461E081E70E94C2
:1018200033046EEF82E70E94330460E086E70E9493
:10183000330460E087E70E94330461E08FEF0E9489
:10184000330461E08DE00E94330460E08FEF0E947A
:10185000330461E080E80E94330468EF81E00E9475
:10186000330461E08FEF0E94330461E08EE80E9450
:10187000330461E080E00E94330460E08FEF0E9457
:10188000330460E080E80E94330464E08AE00E9450
:10189000330484E80E947205682F6F7E84E80E94FA
:1018A000330461E08BE00E943304CE0188960E94ED
:1018B000A305BE016F5F7F4FCE0188960E94F105A0
:1018C00088A5882309F4F3C08B859C85AD85BE85EA
:1018D0008C57924FAF4FBF4F2AA5222309F4ECC07B
:1018E0004B855C856D857E854E545D4F6F4F7F4F78
:1018F000440F551F661F771F840F951FA61FB71F24
:101900002BA5222361F04F85588969897A894C5625
:101910005D4F6F4F7F4F840F951FA61FB71F2CA5DC
:10192000222361F04B895C896D897E894A5D5D4F18
:101930006F4F7F4F840F951FA61FB71F8093CE0256
:101940009093CF02A093D002B093D10268EE81E0D1
:101950000E943304C090CE02D090CF02E090D0021B
:10196000F090D102CE0188960E94A305BE016F5F60
:101970007F4FCE0188960E94F10588A5882309F43F
:10198000A8C08B859C85AD85BE858C57924FAF4F87
:10199000BF4F2AA5222309F4A1C04B855C856D8524
:1019A0007E854E545D4F6F4F7F4F440F551F661F0E
:1019B000771F840F951FA61FB71F1BA5112361F06A
:1019C0004F85588969897A894C565D4F6F4F7F4F93
:1019D000840F951FA61FB71F2CA5222309F49AC0B8
:1019E0002C013D01E6E24E0EE2E05E1E611C711C20
:1019F000C414D504E604F70408F48CC0AB81B0E04D
:101A000020E03FE24AE350E00E94720E4B015C018D
:101A1000F4EF8F0EF1E09F1EA11CB11CA7019601EF
:101A20002419350946095709A8EEB3E00E94720E41
:101A30002B013C01C501B40120ED37E040E050E04E
:101A40000E94500E420E531E641E751EC501B40145
:101A500028EE33E040E050E00E94500EC301B20196
:101A60000E94500E112331F08F819885280F391F65
:101A7000411D511D70E060E0211531054105510502
:101A8000F1F189019A01015011092109310970E030
:101A900060E0D901C8018827892B8A2B8B2B59F14B
:101AA00036952795179507956F5F7F4FF2CF86E3A1
:101AB0009BE0A0E0B0E010CF29A5222309F420CFBD
:101AC0004B855C856D857E854C565D4F6F4F7F4F96
:101AD00013CF86E39BE0A0E0B0E05BCF29A52223F3
:101AE00009F46BCF4B855C856D857E854C565D4FCB
:101AF0006F4F7F4F5ECF762F6627602B712B81E76C
:101B00000E946004C092CE02D092CF02E092D00236
:101B1000F092D10261E081E00E94330480E40E94EF
:101B2000C005882309F486CC62E081E00E9433047A
:101B300080E00E94C005882309F47CCC68EE81E037
:101B40000E9433048AE0882E912CA12CB12C90E0C5
:101B5000E92E90E0F92E61E080E80E94330461E014
:101B60008FEF0E94330460E080E00E9433046091B4
:101B7000CD0281E90E94330461E080E00E943304D9
:101B800060E08FEF0E94330460E080E80E9433043D
:101B900061E080E00E9433040E9402027093CC0254
:101BA0006093CB0280E00E94720580FF4FC080915D
:101BB000C8029091C902892BA9F30E9402022091C8
:101BC000CB023091CC02621B730B8091C8029091C2
:101BD000C9028617970730F781E08093CA020FEF9A
:101BE0001FEF980150E040E019A28E010F5D1F4FDA
:101BF000CA01B901A50194010E94500E605DD8018F
:101C00006E938D01211531054105510589F7109716
:101C100019F0CD010E9423058091CA021092CA02D8
:101C2000882321F08FE491E00E9423058CE491E069
:101C30000E942305E114F10409F48DCF0E94EE0007
:101C4000882309F488CF0E94000085CF0E940202F9
:101C50007093CC026093CB0283E10E94720587707F
:101C6000B1F48091C8029091C902892BA9F30E9416
:101C700002022091CB023091CC02621B730B809147
:101C8000C8029091C9028617970730F7A5CF8EE159
:101C90000E9430058C0161E08BE00E943304A1CFEB
:101CA000A1E21A2EAA1BBB1BFD010DC0AA1FBB1F60
:101CB000EE1FFF1FA217B307E407F50720F0A21BD2
:101CC000B30BE40BF50B661F771F881F991F1A943F
:101CD00069F760957095809590959B01AC01BD0169
:101CE000CF0108950E948B0EA59F900DB49F900D7B
:101CF000A49F800D911D11240895B7FF0C94720EBE
:101D00000E94720E821B930B0895EE0FFF1F059029
:101D1000F491E02D0994A29FB001B39FC001A39F4D
:101D2000700D811D1124911DB29F700D811D112414
:081D3000911D0895F894FFCF06
:101D38000000000024018400B1007101E200C0002D
:101D4800D40000000000F104C40420059A04BD0476
:101D5800AA049B044661696C656420746F206465FD
:101D68007465637420616E6420696E697469616C5E
:101D7800697A652073656E736F7221000D0A002001
:081D880054494D454F5554002C
:00000001FF
