:100000000C9460000C9488000C9488000C94880078
:100010000C9488000C9488000C9488000C94880040
:100020000C9488000C9488000C9488000C94880030
:100030000C9488000C9488000C9488000C94880020
:100040000C94FC010C9488000C9488000C9488009B
:100050000C9488000C9488000C9488000C94880000
:100060000C9488000C948800000000080002010035
:10007000000304070000000000000000000102036C
:10008000040500000000250028002B0000000000EF
:10009000240027002A0004040404040404040202C7
:1000A00002020202030303030303010204081020F7
:1000B00040800102040810200102040810201004EE
:1000C00011241FBECFEFD8E0DEBFCDBF21E0A6E1F7
:1000D000B1E001C01D92A134B207E1F711E0A0E048
:1000E000B1E0E0E8F8E002C005900D92A631B1075A
:1000F000D9F710E0C0E6D0E004C02197FE010E94CD
:100100003804CF35D107C9F70E9446020C943E044B
:100110000C94000090E0FC01E655FF4F24918A56B4
:100120009F4FFC018491882399F090E0880F991FDC
:10013000FC01E457FF4FA591B491FC01EE57FF4F2E
:10014000859194918FB7F894EC91E22BEC938FBF4B
:10015000089590E0FC01E859FF4F2491FC01E65519
:10016000FF4F3491FC01EA56FF4FE491EE23C9F0B2
:10017000222339F0233001F1A8F4213019F1223083
:1001800029F1F0E0EE0FFF1FEE57FF4FA591B4915C
:100190008FB7F894EC91611126C030953E233C93C3
:1001A0008FBF08952730A9F02830C9F0243049F7CF
:1001B000809180008F7D03C0809180008F77809335
:1001C0008000DFCF84B58F7784BDDBCF84B58F7D92
:1001D000FBCF8091B0008F778093B000D2CF809119
:1001E000B0008F7DF9CF3E2BDACF682F80912501AB
:1001F0000E94A90080913D0190913E0182309105BD
:1002000038F0880F991F880F991F05970197F1F70C
:10021000089581E00C94F500209123013091240190
:1002200040912501509126012417350721F0682FB0
:10023000822F0C94A90008953FB7F894809118017B
:1002400090911901A0911A01B0911B0126B5A89BAC
:1002500005C02F3F19F00196A11DB11D3FBFBA2F58
:10026000A92F982F8827BC01CD01620F711D811D18
:10027000911D42E0660F771F881F991F4A95D1F79D
:1002800008958F929F92AF92BF92CF92DF92EF929A
:10029000FF924B015C010E941C016B017C010E94DA
:1002A0001C016C197D098E099F09683E7340810508
:1002B0009105A8F321E0821A9108A108B10888EEFF
:1002C000C80E83E0D81EE11CF11C81149104A10426
:1002D000B10429F7FF90EF90DF90CF90BF90AF90DF
:1002E0009F908F9008958EBD00000DB407FEFDCF46
:1002F0008EB508950F931F93009127011091280147
:100300002091290130912A0140E052E16AE770E032
:1003100080E0041715072607370740F476956795A0
:10032000579547958F5F8630A1F787E0982F906AA1
:100330009695809581709CBD8DBD80E01F910F9139
:100340000C94F500CF93C82F0E947A018C2F806205
:100350000E94730180932B01CF910C940901CF93DC
:10036000C82F0E947A018C2F0E94730180932B0169
:100370008FEF0E947301C82F0E9409018C2FCF912B
:1003800008950F931F93CF93182FC62F0E947A01C1
:10039000812F80620E94730180932B0100E011E0A5
:1003A000C15030F0F80181918F010E947301F8CFA4
:1003B000CF911F910F910C9409010E947A0180E561
:1003C0000E94730180932B0183E70E9473010C94B8
:1003D0000901CF93DF93D82FC62F0E947A018D2F6A
:1003E00080620E94730180932B018C2F0E94730105
:1003F000DF91CF910C9409011F920F920FB60F92CB
:1004000011242F933F938F939F93AF93BF9380912A
:100410001D0190911E01A0911F01B091200130910A
:10042000170123E0230F2D3758F50196A11DB11DAB
:100430002093170180931D0190931E01A0931F012B
:10044000B09320018091180190911901A0911A0197
:10045000B0911B010196A11DB11D809318019093CD
:100460001901A0931A01B0931B01BF91AF919F9105
:100470008F913F912F910F900FBE0F901F90189565
:1004800026E8230F0296A11DB11DD2CFCF93DF9393
:10049000CDB7DEB72F970FB6F894DEBF0FBECDBF36
:1004A000789484B5826084BD84B5816084BD85B54F
:1004B000826085BD85B5816085BD80916E0081605B
:1004C00080936E0010928100809181008260809301
:1004D0008100809181008160809381008091800003
:1004E0008160809380008091B10084608093B1002E
:1004F0008091B00081608093B00080917A00846028
:1005000080937A0080917A00826080937A00809153
:100510007A00816080937A0080917A00806880936D
:100520007A001092C1001FB7F89480911C018111CC
:1005300024C0E0EAF0E08491E4EBF0E09491E82F4D
:10054000F0E0EE0FFF1FE457FF4FA591B491EC913F
:10055000E92321F461E08AE00E94A9008AE00E9478
:100560008A008CB580618CBD8CB580648CBD8DE0BB
:100570000E948A008BE00E948A0080911C018F5F9C
:1005800080931C011FBF80912301909124018F3F14
:10059000980709F48FC020912501309126012F3F43
:1005A000320709F487C08217930731F00E948A004E
:1005B000809125010E948A0080E00E940C0181E068
:1005C0000E94F50065E070E080E090E00E9441014B
:1005D0006FE584E00E94E90185E590E0A0E0B0E0ED
:1005E0008093390190933A01A0933B01B0933C0171
:1005F00067E086E00E94E9018DE10E94AF01182FBB
:100600000E94DD018DE10E94AF0191E0181390E09E
:1006100090933301882341F0181302C00E94DD013A
:1006200060E08DE10E94E9011092350160E08CE10B
:100630000E94E901109237016FE381E00E94E90115
:1006400063E082E00E94E90180E280932C0111E1E5
:1006500060912C01812F0E94E9011F5F1731C1F7C2
:1006600063E083E00E94E90185E0809336016CE459
:100670000E94E90160E787E00E94E90182EE0E94A2
:10068000A20181EE0E94A2016CE080E00E94E901DB
:1006900080E00E94AF018093320181FD0BC0682F82
:1006A00062606093320180E00E94E9018BE19EE488
:1006B0000197F1F7609136018AE00E94C1016091D3
:1006C000360180E10E94C10180E00E940C0180910E
:1006D000390190913A018230910538F0880F991FC5
:1006E000880F991F05970197F1F7809135018823AD
:1006F00019F081EE0E94A201609132016E7F609339
:10070000320180E00E94E90182E00E94AF01ECE743
:10071000F0E0E49161E070E001C0660FEA95EAF76D
:10072000682B82E00E94E90180E0E82E80E0F82E4C
:100730008FE0E6E0F1E0DE01119601900D928A95DE
:10074000E1F78091370110E00FE0811107C01091AF
:100750002C01012F103108F00FE0101B0E947A01CC
:1007600080EA0E94730180932B01CE0101965C0107
:10077000015030F0F50181915F010E947301F8CFC3
:10078000115020F080E00E947301FACF0E9409010D
:1007900081E00E940C018FB7F89480901D01909029
:1007A0001E01A0901F01B09020018FBF8FEF0E940B
:1007B000A20180912B01807321F52FB7F8948091CD
:1007C0001D0190911E01A0911F01B09120012FBF2A
:1007D00088199909AA09BB0980369105A105B105B7
:1007E00028F381E08093380168EE73E080E090E0C8
:1007F0000E944101E114F10409F49ACF0E94000023
:1008000097CF80E00E940C0160E787E00E94E90139
:1008100080912B0184FFE8CF81EE0E94A201E4CFFA
:10082000E1E2F1E089E090E09383828388E090E068
:100830009583848380E896E9A8E9B0E0868397836E
:10084000A087B18780E28387128A138A85E0858B2F
:1008500081E0868B85E090E0A0E0B0E0848F958F0A
:10086000A68FB78F86E191E09183808314860895E7
:10087000EE0FFF1F0590F491E02D0994F894FFCF3F
:100880003030303031004873686F702058696E2006
:060890004368616F0000E7
:00000001FF
