:100000000C9458000C9480000C9480000C94800098
:100010000C9480000C9480000C9480000C94800060
:100020000C9480000C9480000C9480000C94800050
:100030000C9480000C9480000C9480000C94800040
:100040000C94E0010C9480000C9450020C942A0251
:100050000C9480000C9480000C9480000C94800020
:100060000C9480000C948000000000002300260007
:10007000290004040404040404040202020202022B
:10008000030303030303010204081020408001025C
:1000900004081020010204081020000000080002DB
:1000A0000100000304070000000000000000C4037A
:1000B00011241FBECFEFD8E0DEBFCDBF11E0A0E01E
:1000C000B1E0E6E3F8E002C005900D92A233B1077B
:1000D000D9F721E0A2E3B1E001C01D92AC3DB20727
:1000E000E1F710E0C8E5D0E004C02197FE010E94CE
:1000F0001304C735D107C9F70E9482020C94190472
:100100000C940000AF92BF92CF92DF92EF92FF92D9
:100110000F931F93CF93DF936C017B018B01040F2F
:10012000151FEB015E01AE18BF08C017D10759F0CB
:100130006991D601ED91FC910190F081E02DC6010D
:100140000995892B79F7C501DF91CF911F910F9107
:10015000FF90EF90DF90CF90BF90AF900895FC019B
:10016000538D448D252F30E0842F90E0821B930B1C
:10017000541710F0CF96089501970895FC01918DC2
:10018000828D981761F0A28DAE0FBF2FB11D5D96C5
:100190008C91928D9F5F9F73928F90E008958FEF67
:1001A0009FEF0895FC01918D828D981731F0828D1B
:1001B000E80FF11D858D90E008958FEF9FEF089572
:1001C000FC01918D228D892F90E0805C9F4F821BD6
:1001D00091098F73992708958FE391E00E94E000C1
:1001E00021E0892B09F420E0822F089580E090E03F
:1001F000892B29F00E94EC0081110C9400000895D5
:10020000FC01A48DA80FB92FB11DA35ABF4F2C918B
:10021000848D90E001968F739927848FA689B78982
:100220002C93A089B1898C91837080648C93938D79
:10023000848D981306C00288F389E02D80818F7D1C
:1002400080830895EF92FF920F931F93CF93DF93D4
:10025000EC0181E0888F9B8D8C8D98131AC0E88902
:10026000F989808185FF15C09FB7F894EE89FF89D1
:100270006083E889F98980818370806480839FBF6F
:1002800081E090E0DF91CF911F910F91FF90EF906F
:100290000895F62E0B8D10E00F5F1F4F0F7311277F
:1002A000E02E8C8D8E110CC00FB607FCFACFE889BA
:1002B000F989808185FFF5CFCE010E940001F1CF41
:1002C000EB8DEC0FFD2FF11DE35AFF4FF0829FB72E
:1002D000F8940B8FEA89FB8980818062CFCFCF931E
:1002E000DF93EC01888D8823B9F0AA89BB89E8895E
:1002F000F9898C9185FD03C0808186FD0DC00FB604
:1003000007FCF7CF8C9185FFF2CF808185FFEDCF81
:10031000CE010E940001E9CFDF91CF910895FC0149
:1003200001900020E9F73197AF01481B590BBC0140
:100330008FE391E00C9482008F929F92AF92BF92D4
:100340000F931F93CF93DF93CDB7DEB7A1970FB66F
:10035000F894DEBF0FBECDBF19A2423008F44AE0C8
:100360008E010F5D1F4F842E912CB12CA12CA50165
:1003700094010E94F103E62FB901CA01EA30F4F4B6
:10038000E05DD801EE938D01232B242B252B79F7EB
:1003900090E080E0109719F0CD010E948F01A196A6
:1003A0000FB6F894DEBF0FBECDBFDF91CF911F9186
:1003B0000F91BF90AF909F908F900895E95CE1CF2F
:1003C0001F920F920FB60F9211242F933F938F938A
:1003D0009F93AF93BF9380913B0190913C01A0917B
:1003E0003D01B0913E0130913A0123E0230F2D37BA
:1003F00058F50196A11DB11D20933A0180933B0150
:1004000090933C01A0933D01B0933E018091360151
:1004100090913701A0913801B09139010196A11D49
:10042000B11D8093360190933701A0933801B093AA
:100430003901BF91AF919F918F913F912F910F9073
:100440000FBE0F901F90189526E8230F0296A11D4E
:10045000B11DD2CF1F920F920FB60F9211242F937E
:100460003F934F935F936F937F938F939F93AF933C
:10047000BF93EF93FF938FE391E00E940001FF9100
:10048000EF91BF91AF919F918F917F916F915F910C
:100490004F913F912F910F900FBE0F901F90189585
:1004A0001F920F920FB60F9211242F938F939F9349
:1004B000EF93FF93E0914F01F09150018081E09123
:1004C0005501F091560182FD1BC090818091580129
:1004D0008F5F8F7320915901821741F0E09158018D
:1004E000F0E0E15CFE4F958F80935801FF91EF9112
:1004F0009F918F912F910F900FBE0F901F90189585
:100500008081F4CF789484B5826084BD84B58160A5
:1005100084BD85B5826085BD85B5816085BD8091CE
:100520006E00816080936E00109281008091810046
:10053000826080938100809181008160809381003E
:10054000809180008160809380008091B100846000
:100550008093B1008091B00081608093B000809161
:100560007A00846080937A0080917A008260809320
:100570007A0080917A00816080937A0080917A007D
:10058000806880937A001092C100E0914F01F09151
:10059000500182E08083E0914B01F0914C01108288
:1005A000E0914D01F0914E018FEC80831092570144
:1005B000E0915301F091540186E08083E091510174
:1005C000F0915201808180618083E0915101F0912E
:1005D0005201808188608083E0915101F091520145
:1005E000808180688083E0915101F0915201808187
:1005F0008F7D8083C1EAD0E00DE810E099E7E92E15
:1006000090E0F92E24E6B22E30E4A32E40E0C42E72
:1006100040E0D42EFE018491F8019491F7012491D9
:10062000222309F4AEC0882359F0833009F492C024
:1006300008F085C0813009F493C0823009F494C079
:10064000E22FF0E0EE0FFF1FE859FF4FA591B491A4
:100650008C91982331E020E009F430E0832F922F31
:10066000B89E9001B99E300D11243093350120932E
:100670003401A0927C0080917A00806480937A009B
:1006800080917A0086FDFCCF90917800809179006E
:10069000892798278927909333018093320182E13B
:1006A00091E00E948F014090320150903301052C5F
:1006B000000C660877084AE0C301B20177FE0DC05E
:1006C0006DE28FE391E00E94220166277727CB013C
:1006D00064197509860997094AE00E949C018DE119
:1006E00091E00E948F014090340150903501052C1B
:1006F000000C660877084AE0C301B20177FE0DC01E
:100700006DE28FE391E00E94220166277727CB01FB
:1007100064197509860997094AE00E949C018EE2D6
:1007200091E00E948F01C114D10409F473CF0E949B
:10073000EC00882309F46ECF0E9400006BCF873055
:10074000B1F08830D1F0843009F07ACF8091800008
:100750008F7D03C0809180008F778093800070CF61
:1007600084B58F7784BD6CCF84B58F7DFBCF8091AE
:10077000B0008F778093B00063CF8091B0008F7D01
:10078000F9CF90E080E06CCFEFE3F1E013821282CA
:1007900088EE93E0A0E0B0E084839583A683B783DE
:1007A00084E091E09183808385EC90E09587848755
:1007B00084EC90E09787868780EC90E0918B808B2B
:1007C00081EC90E0938B828B82EC90E0958B848B14
:1007D00086EC90E0978B868B118E128E138E148E82
:1007E0000895A1E21A2EAA1BBB1BFD010DC0AA1F72
:1007F000BB1FEE1FFF1FA217B307E407F50720F08A
:10080000A21BB30BE40BF50B661F771F881F991F04
:100810001A9469F760957095809590959B01AC014D
:10082000BD01CF010895EE0FFF1F0590F491E02D5B
:060830000994F894FFCFCB
:100836000000000022018200AF006F01E000BE0050
:10084600D200416E616F6C6F67203A200020202035
:10085600202020204469676974616C203A000D0AE3
:02086600000090
:00000001FF
