:100000000C9463000C948B000C948B000C94AA0449
:100010000C94AA040C94AA040C948B000C948B00EE
:100020000C948B000C948B000C948B000C948B0024
:100030000C948B000C948B000C948B000C948B0014
:100040000C9460040C948B000C942E040C94080403
:100050000C948B000C948B000C948B000C948B00F4
:100060000C9422050C948B00000000080002010093
:100070000003040700000000000000000000000072
:1000800023002600290000000000240027002A0089
:1000900000000000250028002B00040404040404D0
:1000A0000404020202020202030303030303010227
:1000B00004081020408001020408102001020408F6
:1000C00010203D06140911241FBECFEFD8E0DEBF7B
:1000D000CDBF11E0A0E0B1E0EAE1F3E102C005909C
:1000E0000D92A234B107D9F722E0A2E4B1E001C039
:1000F0001D92A63CB207E1F710E0C2E6D0E004C0D2
:100100002197FE010E947A09C136D107C9F70E94E2
:100110002E070C9480090C940000AF92BF92CF92EE
:10012000DF92EF92FF920F931F93CF93DF936C01B7
:100130007B018B01040F151FEB015E01AE18BF0898
:10014000C017D10759F06991D601ED91FC9101904A
:10015000F081E02DC6010995892B79F7C501DF9162
:10016000CF911F910F91FF90EF90DF90CF90BF90B4
:10017000AF900895FC01538D448D252F30E0842FDE
:1001800090E0821B930B541710F0CF9608950197BF
:100190000895FC01918D828D981761F0A28DAE0FAC
:1001A000BF2FB11D5D968C91928D9F5F9F73928F33
:1001B00090E008958FEF9FEF0895FC01918D828D5F
:1001C000981731F0828DE80FF11D858D90E008952C
:1001D0008FEF9FEF0895FC01918D228D892F90E084
:1001E000805C9F4F821B91098F739927089584E04B
:1001F00092E00E94EB0021E0892B09F420E0822F9D
:10020000089580E090E0892B29F00E94F700811189
:100210000C9400000895FC01A48DA80FB92FB11D06
:10022000A35ABF4F2C91848D90E001968F7399272C
:10023000848FA689B7892C93A089B1898C9183700A
:1002400080648C93938D848D981306C00288F38903
:10025000E02D80818F7D80830895EF92FF920F9330
:100260001F93CF93DF93EC0181E0888F9B8D8C8D62
:1002700098131AC0E889F989808185FF15C09FB756
:10028000F894EE89FF896083E889F9898081837019
:10029000806480839FBF81E090E0DF91CF911F91C8
:1002A0000F91FF90EF900895F62E0B8D10E00F5FE9
:1002B0001F4F0F731127E02E8C8D8E110CC00FB6BF
:1002C00007FCFACFE889F989808185FFF5CFCE0157
:1002D0000E940B01F1CFEB8DEC0FFD2FF11DE35AC6
:1002E000FF4FF0829FB7F8940B8FEA89FB898081DA
:1002F0008062CFCFCF93DF93EC01888D8823B9F054
:10030000AA89BB89E889F9898C9185FD03C0808120
:1003100086FD0DC00FB607FCF7CF8C9185FFF2CF9D
:10032000808185FFEDCFCE010E940B01E9CFDF91E7
:10033000CF91089590E0FC01E859FF4F2491FC0112
:10034000E255FF4F3491FC01E656FF4FE491EE2356
:10035000C9F0222339F0233001F1A8F4213019F13A
:10036000223029F1F0E0EE0FFF1FE057FF4FA5917B
:10037000B4918FB7F894EC91611126C030953E236B
:100380003C938FBF08952730A9F02830C9F024305E
:1003900049F7809180008F7D03C0809180008F7726
:1003A00080938000DFCF84B58F7784BDDBCF84B5A9
:1003B0008F7DFBCF8091B0008F778093B000D2CF3C
:1003C0008091B0008F7DF9CF3E2BDACF3FB7F89404
:1003D0008091F8019091F901A091FA01B091FB018F
:1003E00026B5A89B05C02F3F19F00196A11DB11D90
:1003F0003FBFBA2FA92F982F8827BC01CD01620FCC
:10040000711D811D911D42E0660F771F881F991F86
:100410004A95D1F708958F929F92AF92BF92CF9253
:10042000DF92EF92FF920E94E6014B015C0184EFA4
:10043000C82EDD24D394E12CF12C0E94E60168192A
:1004400079098A099B09683E734081059105A8F3E3
:1004500021E0C21AD108E108F10888EE880E83E095
:10046000981EA11CB11CC114D104E104F10429F7A8
:10047000FF90EF90DF90CF90BF90AF909F908F90C4
:1004800008952091FE013091FF012817390771F47A
:100490009091FC018091FD01981741F0E091FC01E1
:1004A000F0E0ED54FE4F808190E008958FEF9FEFD4
:1004B00008950895EF92FF920F931F93CF93DF93C8
:1004C000DC015C96ED90FC905D97E114F10479F409
:1004D00081E090E013969C938E93129790E080E0D9
:1004E000DF91CF911F910F91FF90EF90089551965A
:1004F000ED91FC91529750968C915097982F909532
:100500000FB75E962C915E97122F127021FD6095A9
:10051000F8942081112319F1282B2083E7012197DA
:10052000F1F728E0462F50E0308160FF1AC0382BE9
:100530003083E7012197F1F7BA017595679521504E
:1005400089F7112381F08081892380830FBF5C9616
:100550008D919C910197F1F781E090E0C1CF292323
:10056000DCCF3923E5CF9081892BEFCF2091FE019D
:100570003091FF012817390771F48091FD01209116
:10058000FC0190E0805C9F4F821B910960E470E069
:100590000E943009089590E080E008952091FE01C6
:1005A0003091FF0128173907B9F49091FC0180912F
:1005B000FD01981789F0E091FC01F0E0ED54FE4F49
:1005C00080812091FC0130E02F5F3F4F2F73332754
:1005D0002093FC0190E008958FEF9FEF0895209104
:1005E0006901260F3327331F21323105ECF42091A6
:1005F0008D01FC0190E080E0243069F082E00895F4
:10060000A09169012191AC01475B5E4FA40FB52F0A
:10061000B11D2C930196861798F380916901680F9C
:100620006093690180E0089581E008958FEF9FEF66
:1006300008958FEF9FEF08958091420190E091958A
:10064000819591090895CF93DF93CB01EA01642F3F
:100650000E94EF02CE01DF91CF910895CF93DF93F7
:100660001F92CDB7DEB7698361E0CE0101960E948B
:10067000EF0281E090E00F90DF91CF91089590E03C
:1006800080E00895FC0101900020E9F73197AF0167
:10069000481B590BBC0184E092E00C948D008F92B2
:1006A0009F92AF92BF920F931F93CF93DF93CDB7DB
:1006B000DEB7A1970FB6F894DEBF0FBECDBF19A26B
:1006C000423008F44AE08E010F5D1F4F842E912CBA
:1006D000B12CA12CA50194010E944409E62FB90177
:1006E000CA01EA30F4F4E05DD801EE938D01232BCA
:1006F000242B252B79F790E080E0109719F0CD019D
:100700000E944203A1960FB6F894DEBF0FBECDBF84
:10071000DF91CF911F910F91BF90AF909F908F90DD
:100720000895E95CE1CF1F93CF93DF9385ED80932C
:10073000BC008091450190914601A0914701B09184
:1007400048010796A11DB11D23E0B695A795979581
:1007500087952A95D1F72091BC0024FD03C0109203
:100760008D0152C040914501509146016091470171
:1007700070914801452B462B472B69F30097A10543
:10078000B10541F025E32A95F1F700000197A10991
:10079000B109E1CF80914401C1E0C09343018823B6
:1007A00099F1D091B8001091BA008091BC008A7B79
:1007B0008093BC0060E082E10E949A0160E083E1E6
:1007C0000E949A0110928D01C0938F0110928E01A8
:1007D00061E082E10E949A0161E083E10E949A0156
:1007E0008091B9008E7F8093B9008091B9008D7F90
:1007F0008093B90088E48093B80085E48093BC00BE
:100800001093BA00D093B800DF91CF911F91089553
:100810001F920F920FB60F9211242F933F934F9375
:100820005F936F937F938F939F93AF93BF93EF9358
:10083000FF9384E092E00E940B01FF91EF91BF9142
:10084000AF919F918F917F916F915F914F913F9168
:100850002F910F900FBE0F901F9018951F920F921F
:100860000FB60F9211242F938F939F93EF93FF93C3
:10087000E0911402F09115028081E0911A02F0914A
:100880001B0282FD1BC0908180911D028F5F8F73C0
:1008900020911E02821741F0E0911D02F0E0EC5F12
:1008A000FD4F958F80931D02FF91EF919F918F9146
:1008B0002F910F900FBE0F901F9018958081F4CF4D
:1008C0001F920F920FB60F9211242F933F938F9385
:1008D0009F93AF93BF938091F4019091F501A09104
:1008E000F601B091F7013091F30123E0230F2D378A
:1008F00058F50196A11DB11D2093F3018093F401D9
:100900009093F501A093F601B093F7018091F8015F
:100910009091F901A091FA01B091FB010196A11DFE
:10092000B11D8093F8019093F901A093FA01B0935F
:10093000FB01BF91AF919F918F913F912F910F90AC
:100940000FBE0F901F90189526E8230F0296A11D49
:10095000B11DD2CF1F920F920FB60F9211242F9379
:100960003F934F935F936F937F938F939F93AF9337
:10097000BF93EF93FF93E091FE01F091FF01309759
:1009800049F0A685B7858585968D91FF14C09C9109
:100990008923A1F4FF91EF91BF91AF919F918F9126
:1009A0007F916F915F914F913F912F910F900FBE6B
:1009B0000F901F9018959C91892361F7A389B489A2
:1009C0009C918589809589238C9386899789019745
:1009D000F1F7608D718DA685B785558538E020E0EB
:1009E000CB010197F1F7822F90E095958795282FFD
:1009F0004C91452309F02068315091F7868D81FD97
:100A000020958091FD0190E001968F739927309198
:100A1000FC01381799F0A091FD01B0E0AD54BE4F34
:100A20002C938093FD01828D938D0197F1F7A3891B
:100A3000B4898C919589892B8C93ACCF868D8160FC
:100A4000868FF1CF1F920F920FB60F9211242F9322
:100A50003F934F935F936F937F938F939F93AF9346
:100A6000BF93EF93FF938091B900887F803609F49C
:100A70004AC0F0F5883209F4A5C018F5803109F4B0
:100A800099C0B8F4882309F4F5C0883009F492C0FD
:100A9000FF91EF91BF91AF919F918F917F916F9156
:100AA0005F914F913F912F910F900FBE0F901F902C
:100AB0001895883109F486C0803251F780938C01F3
:100AC00014C0803409F49BC040F48033B9F38833F8
:100AD000F9F680938C0185ECAEC0803509F483C0B3
:100AE000883509F494C0883499F60E949303D0CFD6
:100AF000883909F48AC038F5883729F050F48836E7
:100B000011F0803729F683E080938D0110928B01DC
:100B100055C0883809F479C0803919F0803809F057
:100B2000B7CF80918B01803208F06FC0E0918B01CC
:100B300081E08E0F80938B018091BB00F0E0E5593E
:100B4000FE4F80833BC0803B39F0D0F4803A09F4FB
:100B500077C0883A09F09CCF84E080938D01109291
:100B60006A0110926901F0E0E0E009958091690165
:100B700081110FC081E0809369011092490109C081
:100B8000803C09F4A8CF883C09F4A5CF883B09F044
:100B90007FCFE0916A0181E08E0F80936A01F0E0DF
:100BA000E75BFE4F80818093BB0090916A0180914A
:100BB000690129C08091B2018093BB0085EC8093CC
:100BC000BC0066CF9091B1018091B001981758F5A3
:100BD000E091B10181E08E0F8093B101F0E0E05728
:100BE000FE4F8081E9CFE091B10181E08E0F8093CB
:100BF000B1018091BB00F0E0E057FE4F80839091FF
:100C0000B1018091B0019817C8F285E8D8CFE09182
:100C1000B10181E08E0F8093B1018091BB00F0E0C3
:100C2000E057FE4F808380918F0181115ECF81E07C
:100C300080938E0184EA8093BC0010928D0128CFAE
:100C400085EC8093BC0010928D0180918B018032E5
:100C500030F4E0918B01F0E0E559FE4F1082609195
:100C60008B0170E08BE691E0F0E0E0E009951092F6
:100C70008B010ECF10928C0138CF0F931F93CF931F
:100C8000DF93109207021092060288EE93E0A0E034
:100C9000B0E08093080290930902A0930A02B093F7
:100CA0000B0224E031E0309305022093040225EC8E
:100CB00030E0309311022093100224EC30E03093A6
:100CC00013022093120220EC30E03093150220939F
:100CD000140221EC30E0309317022093160222EC2C
:100CE00030E0309319022093180226EC30E0309364
:100CF0001B0220931A0210921D0210921E021092E3
:100D00001F02109220021092AA021092A902809350
:100D1000AB029093AC02A093AD02B093AE0286E119
:100D200091E09093A8028093A7021092BE021092C5
:100D3000BD021092C0021092BF021092C202109225
:100D4000C1021092C4021092C3026091C5026E7F6C
:100D50006D7F6093C5026695617081E068278DE0C4
:100D60000E949A014BEB50E0FA01649187EA90E00F
:100D7000FC012491222399F030E0220F331FF90166
:100D8000EA57FF4FA591B491F901E057FF4F259124
:100D900034912FB7F8943C91632B6C932FBFFA01D9
:100DA00044914093B702FC018491E82FF0E0EE0FEC
:100DB000FF1FE057FF4F859194919093B902809364
:100DC000B8020AEB10E0F8012491C6EAD0E0FE0177
:100DD00084918823C9F090E0880F991FFC01EA579D
:100DE000FF4FA591B491FC01E057FF4F45915491FD
:100DF0003FB7F8949C91822F809598239C93FA0199
:100E00009081892380833FBF8091C50281FD04C00A
:100E100061E08CE00E949A018CE08093B302F801BB
:100E200004910093B402FE01C491EC2FF0E0EE0FA8
:100E3000FF1FE458FF4F859194919093B6028093E1
:100E4000B5021092A4021092A3021092A602109270
:100E5000A502DF91CF911F910F910895CF93DF935A
:100E6000CDB7DEB729970FB6F894DEBF0FBECDBF62
:100E7000789484B5826084BD84B5816084BD85B575
:100E8000826085BD85B5816085BD80916E00816081
:100E900080936E0010928100809181008260809327
:100EA0008100809181008160809381008091800029
:100EB0008160809380008091B10084608093B10054
:100EC0008091B00081608093B00080917A0084604E
:100ED00080937A0080917A00826080937A0080917A
:100EE0007A00816080937A0080917A008068809394
:100EF0007A001092C100E0911402F091150282E094
:100F00008083E0911002F09111021082E0911202B0
:100F1000F091130280E1808310921C02E09118028C
:100F2000F091190286E08083E0911602F091170299
:100F3000808180618083E0911602F09117028081A8
:100F400088608083E0911602F091170280818068AA
:100F50008083E0911602F091170280818F7D80835B
:100F600087EA92E09093A2028093A1021092C202BB
:100F70001092C1021092C0021092BF021092BE02E3
:100F80001092BD028FE190E09093C4028093C3025F
:100F90009091B302963108F047C021E030E03093E1
:100FA000BE022093BD022DE130E03093C0022093B9
:100FB000BF022DE030E03093C2022093C1022091A5
:100FC000680084E0983048F031E09E3008F430E06A
:100FD00081E001C0880F3A95EAF7822B8093680080
:100FE0002DE630E0983050F02BE630E09E3030F0C7
:100FF0002CE630E0963110F030E020E03093BB0278
:101000002093BA02292F30E0983008F000C181E027
:1010100001C0880F9A95EAF78093BC028091C302C1
:101020009091C4020197F1F78091C1029091C202A0
:10103000892B49F1E091FE01F091FF0182E0E73A4E
:10104000F80709F1309739F0A389B4899C91858913
:10105000809589238C938091C5028E7F8093C502F1
:101060001092FD011092FC0187EA92E09093FF013B
:101070008093FE01E091BA02F091BB0280819091D1
:10108000BC02892B808359E0B52E8E010F5F1F4F64
:101090007E01A9E0EA0EF11C60E0C62E60E0D62ECB
:1010A000F8018B2D11928A95E9F78091A102909118
:1010B000A202DC01ED91FC910084F185E02D0995FF
:1010C000892B09F496C08091A1029091A202DC01C3
:1010D000ED91FC910284F385E02D0995893529F77E
:1010E0008091A1029091A202DC01ED91FC91028419
:1010F000F385E02D09958935C1F64E01B3E08B0EDD
:10110000911C42EB442E512C612C712C8091A10238
:101110009091A202DC01ED91FC910284F385E02D17
:101120000995F40181934F01480E511C611C711CFB
:10113000EE16FF0659F78091A1029091A202DC0100
:10114000ED91FC910284F385E02D099555246624E8
:10115000772490E0B0E0A0E0481659066A067B06C6
:1011600009F0A3CF8C8190E0982F88274B81480FFE
:10117000592F511D5093A4024093A3028E8190E0F9
:10118000982F88272D81820F911D9093A60280931E
:10119000A5025093030240930202909301028093B0
:1011A000000284E291E00E94420360910202709189
:1011B000030290E080E04AE00E944F0380E391E068
:1011C0000E94420383E391E00E94420386E391E0A0
:1011D0000E944203609100027091010290E080E061
:1011E0004AE00E944F0383E391E00E9442030E9481
:1011F0000B020E940B02C114D10409F451CF0E94CA
:10120000F700882309F44CCF0E94000049CF9E309C
:1012100040F42850310981E001C0880F2A95EAF78F
:10122000FBCE2E503109F7CF86E191E09093A802D2
:101230008093A7028091FE019091FF01875A92400E
:1012400071F4E091BA02F091BB0290818091BC02EE
:101250008095892380831092FF011092FE010895EA
:1012600097FB072E16F4009407D077FD09D00E9453
:10127000660907FC05D03EF4909581959F4F08952F
:10128000709561957F4F0895A1E21A2EAA1BBB1B92
:10129000FD010DC0AA1FBB1FEE1FFF1FA217B30742
:1012A000E407F50720F0A21BB30BE40BF50B661F58
:1012B000771F881F991F1A9469F76095709580951C
:1012C00090959B01AC01BD01CF010895AA1BBB1BEA
:1012D00051E107C0AA1FBB1FA617B70710F0A61B36
:1012E000B70B881F991F5A95A9F780959095BC0157
:1012F000CD010895EE0FFF1F0590F491E02D0994A4
:1013000010E0C2E6D0E004C0FE010E947A092196F6
:0A131000C336D107C9F7F894FFCFE8
:10131A00000000002D018D00BA007A01EB00C9001F
:10132A00DD00000000005A028D003F035902B60298
:10133A00CE02410244697374616E6365203D2000E8
:10134A00636D000D0A00537472656E677468203D00
:02135A00200071
:00000001FF
