:100000000C9437010C945F010C945F010C945F0118
:100010000C945F010C945F010C945F010C945F01E0
:100020000C945F010C945F010C945F010C945F01D0
:100030000C945F010C945F010C945F010C945F01C0
:100040000C9442060C945F010C9410060C94EA0583
:100050000C945F010C945F010C945F010C945F01A0
:100060000C945F010C945F01000000080002010085
:100070000003040700000000000000000A0B0C0D44
:100080000E0F2A2A2A205052455353202754272046
:10009000746F20626567696E207472616E736D693A
:1000A0007474696E6720746F20746865206F74685B
:1000B0006572206E6F646500726164696F4E756D64
:1000C000626572203D200057686963682072616430
:1000D000696F20697320746869733F20456E746589
:1000E0007220273027206F72202731272E20446569
:1000F0006661756C747320746F2027302700524638
:1001000032342F6578616D706C65732F4765747438
:10011000696E675374617274656400726164696FBB
:10012000206861726477617265206973206E6F74F4
:1001300020726573706F6E64696E672121002A2AD0
:100140002A204348414E47494E4720544F205245AC
:10015000434549564520524F4C45202D2D205052A5
:100160004553532027542720544F20535749544375
:1001700048204241434B002A2A2A204348414E4707
:10018000494E4720544F205452414E534D4954201C
:10019000524F4C45202D2D2050524553532027526D
:1001A0002720544F20535749544348204241434B42
:1001B000003A2000206279746573206F6E207069A8
:1001C000706520005265636569766564200054722D
:1001D000616E736D697373696F6E206661696C65BA
:1001E00064206F722074696D6564206F75740020DF
:1001F00075732E2053656E743A200054696D652026
:10020000746F207472616E736D6974203D200054A8
:1002100072616E736D697373696F6E20737563635A
:1002200065737366756C21200000000000250028AE
:10023000002B0000000000240027002A0004040412
:10024000040404040402020202020203030303037F
:10025000030102040810204080010204081020015C
:100260000204081020000102030405008C0611247A
:100270001FBECFEFD8E0DEBFCDBF11E0A0E0B1E000
:10028000E8E7F9E102C005900D92AE32B107D9F767
:1002900021E0AEE2B1E001C01D92AB3FB207E1F751
:1002A00011E0C7E3D1E004C02197FE010E94AC0C2D
:1002B000C633D107C9F70E94E0060C94BA0C0C941F
:1002C000000090E0FC01EF5AFD4F2491835C9D4FAC
:1002D000FC018491882399F090E0880F991FFC011C
:1002E000ED5CFD4FA591B491FC01E75DFD4F85915B
:1002F00094918FB7F894EC91E22BEC938FBF089513
:10030000AF92BF92CF92DF92EF92FF920F931F9323
:10031000CF93DF936C017B018B01040F151FEB0161
:100320005E01AE18BF08C017D10759F06991D60118
:10033000ED91FC910190F081E02DC6010995892B8A
:1003400079F7C501DF91CF911F910F91FF90EF9049
:10035000DF90CF90BF90AF900895FC01538D448DF6
:10036000252F30E0842F90E0821B930B541710F060
:10037000CF96089501970895FC01918D828D98176D
:1003800061F0A28DAE0FBF2FB11D5D968C91928D45
:100390009F5F9F73928F90E008958FEF9FEF089576
:1003A000FC01918D828D981731F0828DE80FF11D3F
:1003B000858D90E008958FEF9FEF08952FB7F89403
:1003C0008091390190913A01A0913B01B0913C019B
:1003D0002FBF8093450190934601A0934701B093AE
:1003E00048018DE391E00E94D00197FF26C02FB70E
:1003F000F8948091390190913A01A0913B01B0911C
:100400003C012FBF40914501509146016091470149
:1004100070914801841B950BA60BB70B40914101CD
:1004200050914201609143017091440184179507F6
:10043000A607B707B0F28FEF9FEF0895FC01918DEB
:10044000228D892F90E0805C9F4F821B91098F73D2
:10045000992708958DE391E00E941E0221E0892BE7
:1004600009F420E0822F089580E090E0892B29F0A4
:100470000E942A0281110C9400000895FC01A48DB1
:10048000A80FB92FB11DA35ABF4F2C91848D90E0B6
:1004900001968F739927848FA689B7892C93A08999
:1004A000B1898C91837080648C93938D848D981323
:1004B00006C00288F389E02D80818F7D80830895B6
:1004C000EF92FF920F931F93CF93DF93EC0181E0A4
:1004D000888F9B8D8C8D98131AC0E889F98980814B
:1004E00085FF15C09FB7F894EE89FF896083E8897E
:1004F000F98980818370806480839FBF81E090E070
:10050000DF91CF911F910F91FF90EF900895F62EFC
:100510000B8D10E00F5F1F4F0F731127E02E8C8D96
:100520008E110CC00FB607FCFACFE889F9898081DB
:1005300085FFF5CFCE010E943E02F1CFEB8DEC0F8F
:10054000FD2FF11DE35AFF4FF0829FB7F8940B8FF8
:10055000EA89FB8980818062CFCF0F931F93CF936D
:10056000DF938C01D0E0C0E0F801EC0FFD1F649137
:10057000662341F08DE391E00E946002892B11F027
:100580002196F2CFCE01DF91CF911F910F91089567
:10059000CF93DF93EC01888D8823B9F0AA89BB89BA
:1005A000E889F9898C9185FD03C0808186FD0DC0A5
:1005B0000FB607FCF7CF8C9185FFF2CF808185FFC6
:1005C000EDCFCE010E943E02E9CFDF91CF91089599
:1005D00090E0FC01E859FF4F2491FC01EF5AFD4FD8
:1005E0003491FC01E35CFD4FE491EE23C9F022233A
:1005F00039F0233001F1A8F4213019F1223029F12A
:10060000F0E0EE0FFF1FE75DFD4FA591B4918FB7AE
:10061000F894EC91611126C030953E233C938FBF36
:1006200008952730A9F02830C9F0243049F7809187
:1006300080008F7D03C0809180008F778093800041
:10064000DFCF84B58F7784BDDBCF84B58F7DFBCFC3
:100650008091B0008F778093B000D2CF8091B000AE
:100660008F7DF9CF3E2BDACF682F8091DF010E947A
:10067000E8028091F7019091F8018230910538F0FD
:10068000880F991F880F991F05970197F1F7089513
:1006900081E00C9434032091DD013091DE01409122
:1006A000DF015091E0012417350721F0682F822FD8
:1006B0000C94E80208953FB7F89480912F0190912F
:1006C0003001A0913101B091320126B5A89B05C03F
:1006D0002F3F19F00196A11DB11D3FBFBA2FA92FC1
:1006E000982F8827BC01CD01620F711D811D911DBE
:1006F00042E0660F771F881F991F4A95D1F708952A
:100700008F929F92AF92BF92CF92DF92EF92FF9221
:100710004B015C010E945B036B017C010E945B0347
:100720006C197D098E099F09683E7340810591050A
:10073000A8F321E0821A9108A108B10888EEC80E3A
:1007400083E0D81EE11CF11C81149104A104B104C2
:1007500029F7FF90EF90DF90CF90BF90AF909F90E0
:100760008F9008958EBD00000DB407FEFDCF8EB5AD
:100770000895FC0101900020E9F73197AF01481B73
:10078000590BBC018DE391E00C9480018F929F92F4
:10079000AF92BF920F931F93CF93DF93CDB7DEB786
:1007A000A1970FB6F894DEBF0FBECDBF19A242309D
:1007B00008F44AE08E010F5D1F4F842E912CB12C5E
:1007C000A12CA50194010E948A0CE62FB901CA014F
:1007D000EA30F4F4E05DD801EE938D01232B242B55
:1007E000252B79F790E080E0109719F0CD010E9459
:1007F000B903A1960FB6F894DEBF0FBECDBFDF914F
:10080000CF911F910F91BF90AF909F908F900895BF
:10081000E95CE1CFCF93DF930E94AD02EC018FE161
:1008200091E00E94B9038C0F9D1FDF91CF91089535
:100830000F931F930091E1011091E2012091E301D8
:100840003091E40140E052E16AE770E080E0041793
:1008500015072607370740F476956795579547950E
:100860008F5F8630A1F787E0982F906A96958095E4
:1008700081709CBD8DBD80E01F910F910C9434035D
:10088000CF93C82F0E9418048C2F80620E94B2035D
:100890008093E501CF910C944803CF93C82F0E9419
:1008A00018048C2F0E94B2038093E5018FEF0E9401
:1008B000B203C82F0E9448038C2FCF910895FF9256
:1008C0000F931F93CF93DF93C82FF62E072F142F6C
:1008D0000E9418048C2F80620E94B2038093E5016D
:1008E000CF2DD02F115020F089910E94B203FACF62
:1008F000DF91CF911F910F91FF900C9448030E94BC
:10090000180480E50E94B2038093E50183E70E940A
:10091000B2030C944803CF93DF93D82FC62F0E94C5
:1009200018048D2F80620E94B2038093E5018C2F02
:100930000E94B203DF91CF910C94480380E00E94A3
:100940004B038091F3019091F4018230910538F0CE
:10095000880F991F880F991F05970197F1F78091CC
:10096000EF01882319F081EE0E9440046091EC01B0
:100970006E7F6093EC0180E00E948B0482E00E9415
:100980004D04E5E6F2E0E49161E070E001C0660F3D
:10099000EA95EAF7682B82E00C948B046091EC01F5
:1009A00061FD0AC062606093EC0180E00E948B04EC
:1009B0008BE19EE40197F1F708950E94CE046091C7
:1009C000EC0161606093EC0180E00E948B0460E7C1
:1009D00087E00E948B0481E00E944B038091EE012E
:1009E000882339F04091F00167EE71E08AE00C94C1
:1009F0005F0482E00E944D04E5E6F2E0E49121E02C
:100A000030E001C0220FEA95EAF72095622F6823B3
:100A100082E00E948B041092EE0108954F925F9243
:100A20006F927F928F929F92AF92BF92CF92DF92FE
:100A3000EF92FF920F931F93CF936B017C01742E63
:100A4000AC019B010E94850C882399F082E291E021
:100A5000CF911F910F91FF90EF90DF90CF90BF90BB
:100A6000AF909F908F907F906F905F904F900C947D
:100A7000B90346015701E894B7F82FEF3FEF4FE76E
:100A80005FE7C501B4010E94850C81110DC02FEFF5
:100A90003FEF4FE75FE7C501B4010E94340A181623
:100AA0001CF486E291E0D4CF2FEF3FEF4FE75FE4F5
:100AB000C701B6010E94800C18161CF48AE291E06E
:100AC000C7CF2FEF3FEF4FE75FECC701B6010E94A2
:100AD000340A87FDF3CF20E030E0A901C701B60159
:100AE0000E94340A10E000E087FF0AC06DE28DE347
:100AF00091E00E9460028C01F7FAF094F7F8F0940C
:100B0000C0E060E070E080E09FE37C1641F020E010
:100B100030E040E251E40E94DF0BCF5FF6CFA70147
:100B200096010E94730B2B013C010E94510C4B015A
:100B30005C014AE00E94C6037C01E00EF11ECC235A
:100B4000C1F1C501B4010E94390A9B01AC01C30186
:100B5000B2010E94720B4B015C016EE28DE391E0E9
:100B60000E946002E80EF91EC15018F120E030E04A
:100B700040E251E4C501B4010E949A0A2B013C01F4
:100B80000E94510C4B01B12CA12C4AE0C501B401CB
:100B90000E94C603E80EF91EC501B4010E94390A7D
:100BA0009B01AC01C301B2010E94720B4B015C01BD
:100BB000DBCFC701CF911F910F91FF90EF90DF9096
:100BC000CF90BF90AF909F908F907F906F905F90ED
:100BD0004F9008951F920F920FB60F9211242F93EA
:100BE0003F934F935F936F937F938F939F93AF93B5
:100BF000BF93EF93FF938DE391E00E943E02FF913C
:100C0000EF91BF91AF919F918F917F916F915F9184
:100C10004F913F912F910F900FBE0F901F901895FD
:100C20001F920F920FB60F9211242F938F939F93C1
:100C3000EF93FF93E0914D01F0914E018081E0919F
:100C40005301F091540182FD1BC0908180915601A7
:100C50008F5F8F7320915701821741F0E091560109
:100C6000F0E0E35CFE4F958F80935601FF91EF918A
:100C70009F918F912F910F900FBE0F901F901895FD
:100C80008081F4CF1F920F920FB60F9211242F93F1
:100C90003F938F939F93AF93BF938091390190912E
:100CA0003A01A0913B01B0913C0130912E0123E02B
:100CB000230F2D3758F50196A11DB11D20932E014C
:100CC0008093390190933A01A0933B01B0933C018A
:100CD00080912F0190913001A0913101B0913201AA
:100CE0000196A11DB11D80932F0190933001A09317
:100CF0003101B0933201BF91AF919F918F913F919C
:100D00002F910F900FBE0F901F90189526E8230F7C
:100D10000296A11DB11DD2CFEDE3F1E01382128244
:100D200088EE93E0A0E0B0E084839583A683B78348
:100D300081E191E09183808385EC90E095878487C1
:100D400084EC90E09787868780EC90E0918B808B95
:100D500081EC90E0938B828B82EC90E0958B848B7E
:100D600086EC90E0978B868B118E128E138E148EEC
:100D7000EBEDF1E089E090E09383828388E090E0FE
:100D80009583848380E896E9A8E9B0E08683978319
:100D9000A087B18780E28387128A138A85E0858BDA
:100DA00081E0868B85E090E0A0E0B0E0848F958FB5
:100DB000A68FB78F8AED91E0918380831486089582
:100DC000789484B5826084BD84B5816084BD85B526
:100DD000826085BD85B5816085BD80916E00816032
:100DE00080936E00109281008091810082608093D8
:100DF00081008091810081608093810080918000DA
:100E00008160809380008091B10084608093B10004
:100E10008091B00081608093B00080917A008460FE
:100E200080937A0080917A00826080937A0080912A
:100E30007A00816080937A0080917A008068809344
:100E40007A001092C100E0914D01F0914E0182E0D4
:100E50008083E0914901F0914A011082E0914B01B9
:100E6000F0914C0180E1808310925501E091510195
:100E7000F091520186E08083E0914F01F0915001A2
:100E8000808180618083E0914F01F09150018081E9
:100E900088608083E0914F01F091500180818068EB
:100EA0008083E0914F01F091500180818F7D80839C
:100EB000CFB7F89480913301811124C0E7E4F2E0C8
:100EC0008491EBE5F2E09491E82FF0E0EE0FFF1F44
:100ED000ED5CFD4FA591B491EC91E92321F461E023
:100EE0008AE00E94E8028AE00E9461018CB580617C
:100EF0008CBD8CB580648CBD8DE00E9461018BE05F
:100F00000E946101809133018F5F80933301CFBFD5
:100F10008091DD019091DE018F3F980709F4A6C012
:100F20002091DF013091E0012F3F320709F49EC08C
:100F30008217930731F00E9461018091DF010E94C6
:100F4000610180E00E944B0381E00E94340365E070
:100F500070E080E090E00E9480036FE584E00E94F2
:100F60008B0485E590E0A0E0B0E08093F3019093DE
:100F7000F401A093F501B093F60167E086E00E94CA
:100F80008B048DE10E944D04C82F0E947F048DE1E7
:100F90000E944D0491E0C81390E09093ED018823E6
:100FA00041F0C81302C00E947F0460E08DE10E94FE
:100FB0008B041092EF0160E08CE10E948B04109290
:100FC000F1016FE381E00E948B0463E082E00E9404
:100FD0008B0480E28093E601C1E16091E6018C2FF1
:100FE0000E948B04CF5FC731C1F763E083E00E94AA
:100FF0008B0485E08093F0016CE40E948B0460E731
:1010000087E00E948B0482EE0E94400481EE0E94E1
:1010100040046CE080E00E948B0480E00E944D045C
:101020008093EC010E94CE048091EC018E30F1F4AB
:101030008EEF90E00E940A0487EC90E00E940A0480
:101040008DE391E00E941E02892BD1F30E94DE0104
:10105000FC0197FDDBC08D32910569F0C0970A97BE
:1010600050F08DE391E00E94BC01F0CF8BE191E064
:101070000E940A04FFCFC12CD12C7601C0E0E130E0
:10108000F105D9F0ED32F10509F4BEC0CF01C097EA
:101090000A9798F4AAE0B0E0A70196010E94580BC5
:1010A0006F01FF0FEE08FF08C60ED71EE81EF91EDF
:1010B00080E3C81AD108E108F1088DE391E00E94AD
:1010C000BC010E94DE01FC01C0970A97C0F2E1302A
:1010D000F105A9F2CC2341F0F094E094D094C094AF
:1010E000C11CD11CE11CF11CC1E0CC12C0E0C093BA
:1010F0000C0188EB90E00E94AD026C2F70E090E054
:1011000080E04AE00E94C6038FE191E00E94B903AB
:1011100082E890E00E940A0486E00E944D04887FE5
:10112000682F636086E00E948B0484E08093E60170
:10113000C1E16091E6018C2F0E948B04CF5FC73123
:10114000C1F7D0910C01C6E0CD9F80011124005061
:101150001F4F4091F001B8018AE00E945F04409166
:10116000F001B80180E10E945F04EDE7F0E08491B6
:1011700061E0D627CD9FB001112460507F4F409190
:10118000F0010E945F0482E00E944D04E6E6F2E076
:10119000E49161E070E001C0660FEA95EAF7682B20
:1011A00082E00E948B0480913801882399F10E948B
:1011B0009E04C0E0D0E0F0903801FF2009F4E5C0C3
:1011C0000E945B034B015C018091F10110E004E09F
:1011D000811107C01091E601012F153008F004E0DD
:1011E000101B0E94180480EA0E94B2038093E5015C
:1011F00034E3C32E31E0D32E015078F0F601819113
:101200006F010E94B203F8CFC1E057CFC12CD12C9F
:1012100076016ACF0E94DD04CCCF115020F080E02F
:101220000E94B203FACF0E94480381E00E944B0360
:101230008FB7F8944090390150903A0160903B018B
:1012400070903C018FBF8FEF0E9440048091E501B8
:10125000807309F086C02FB7F8948091390190917E
:101260003A01A0913B01B0913C012FBF841995092F
:10127000A609B70980369105A105B10520F381E0E3
:101280008093F201F12C0E945B032B013C01FF20B3
:1012900009F476C08FE092E00E94AD028BEF91E0FE
:1012A0000E94AD02C301B201681979098A099B093C
:1012B0004AE00E94C6038FEE91E00E94AD02609169
:1012C000340170913501809136019091370142E0EF
:1012D0000E940E058FE191E00E94B9032AE037EDEC
:1012E00043E25CE3609134017091350180913601F5
:1012F000909137010E94730B609334017093350114
:10130000809336019093370168EE73E080E090E0BF
:101310000E9480038DE391E00E941E02892BB1F0B0
:101320008DE391E00E94BC010E94B20C843509F06B
:101330005AC080913801811109C081E08093380141
:1013400087E791E00E940A040E949E04209709F416
:1013500032CF0E942A02882309F42DCF0E94000078
:101360002ACF80E00E944B0360E787E00E948B0455
:101370008091E50184FF87CF81EE0E94400482CFF7
:101380008EEC91E00E940A04BFCF8FEF0E944004D0
:101390006091E50170E075956795162F177016300E
:1013A00008F0B8CF0091E6018091F101F02E88237A
:1013B00021F0013210F090E2F92E0E94180481E62B
:1013C0000E94B2038093E50184E3C82E81E0D82E09
:1013D000FA94FFEFFF16C1F08FEF0E94B203F601FF
:1013E00081936F01F5CF823509F0B0CF809138013C
:1013F000882309F4ABCF109238018EE391E00E946C
:101400000A040E94DD04A2CF0E94480360E487E042
:101410000E948B0484EC91E00E94AD02602F70E08A
:1014200090E080E04AE00E94C60384EB91E00E94D5
:10143000AD02612F70E090E080E04AE00E94C603B8
:1014400081EB91E00E94AD02609134017091350111
:10145000809136019091370142E00E940E058FE1A4
:1014600091E00E94B90356CF0E94760A08F481E009
:101470000895E89409C097FB3EF490958095709587
:1014800061957F4F8F4F9F4F9923A9F0F92F96E9D0
:10149000BB279395F695879577956795B795F11145
:1014A000F8CFFAF4BB0F11F460FF1BC06F5F7F4FE2
:1014B0008F4F9F4F16C0882311F096E911C07723F4
:1014C00021F09EE8872F762F05C0662371F096E8FD
:1014D000862F70E060E02AF09A95660F771F881FCC
:1014E000DAF7880F9695879597F90895990F000870
:1014F000550FAA0BE0E8FEEF16161706E807F907E6
:10150000C0F012161306E407F50798F0621B730B80
:10151000840B950B39F40A2661F0232B242B252B01
:1015200021F408950A2609F4A140A6958FEF811DA4
:10153000811D08950E94AD0A0C941E0B0E94100B91
:1015400038F00E94170B20F0952311F00C94070B34
:101550000C940D0B11240C94520B0E942F0B70F362
:10156000959FC1F3950F50E0551F629FF001729F48
:10157000BB27F00DB11D639FAA27F00DB11DAA1F57
:10158000649F6627B00DA11D661F829F2227B00DA4
:10159000A11D621F739FB00DA11D621F839FA00D2F
:1015A000611D221F749F3327A00D611D231F849F7F
:1015B000600D211D822F762F6A2F11249F575040D6
:1015C0009AF0F1F088234AF0EE0FFF1FBB1F661F51
:1015D000771F881F91505040A9F79E3F510580F01A
:1015E0000C94070B0C94520B5F3FE4F3983ED4F33A
:1015F000869577956795B795F795E7959F5FC1F7BE
:10160000FE2B880F911D9695879597F9089597F968
:101610009F6780E870E060E008959FEF80EC089598
:1016200000240A94161617061806090608950024C1
:101630000A9412161306140605060895092E03943B
:10164000000C11F4882352F0BB0F40F4BF2B11F4AF
:1016500060FF04C06F5F7F4F8F4F9F4F089557FD0E
:101660009058440F551F59F05F3F71F04795880F10
:1016700097FB991F61F09F3F79F0879508951216A7
:1016800013061406551FF2CF4695F1DF08C0161653
:1016900017061806991FF1CF869571056105089404
:1016A0000895E894BB2766277727CB0197F908951B
:1016B0000E94630BA59F900DB49F900DA49F800D79
:1016C000911D11240895A29FB001B39FC001A39F53
:1016D000700D811D1124911DB29F700D811D11246B
:1016E000911D08955058BB27AA270E948A0B0C947D
:1016F0001E0B0E94100B38F00E94170B20F039F4DB
:101700009F3F19F426F40C940D0B0EF4E095E7FBC3
:101710000C94070BE92F0E942F0B58F3BA1762079E
:1017200073078407950720F079F4A6F50C94510B04
:101730000EF4E0950B2EBA2FA02D0B01B9019001EC
:101740000C01CA01A0011124FF27591B99F0593F30
:1017500050F4503E68F11A16F040A22F232F342F78
:101760004427585FF3CF469537952795A795F040C6
:101770005395C9F77EF41F16BA0B620B730B840BDB
:10178000BAF09150A1F0FF0FBB1F661F771F881F93
:10179000C2F70EC0BA0F621F731F841F48F48795EB
:1017A00077956795B795F7959E3F08F0B0CF9395DD
:1017B000880F08F09927EE0F9795879508950E9456
:1017C000F30B0C941E0B0E94170B58F00E94100B89
:1017D00040F029F45F3F29F00C94070B51110C9451
:1017E000520B0C940D0B0E942F0B68F39923B1F34D
:1017F000552391F3951B550BBB27AA276217730737
:10180000840738F09F5F5F4F220F331F441FAA1FCA
:10181000A9F335D00E2E3AF0E0E832D09150504086
:10182000E695001CCAF72BD0FE2F29D0660F771F34
:10183000881FBB1F261737074807AB07B0E809F01A
:10184000BB0B802DBF01FF2793585F4F3AF09E3F9F
:10185000510578F00C94070B0C94520B5F3FE4F3A6
:10186000983ED4F3869577956795B795F7959F5FE2
:10187000C9F7880F911D9695879597F90895E1E02E
:10188000660F771F881FBB1F621773078407BA078D
:1018900020F0621B730B840BBA0BEE1F88F7E095E8
:1018A00008950E94370B88F09F5798F0B92F992719
:1018B000B751B0F0E1F0660F771F881F991F1AF03B
:1018C000BA95C9F714C0B13091F00E94510BB1E044
:1018D00008950C94510B672F782F8827B85F39F043
:1018E000B93FCCF3869577956795B395D9F73EF4D4
:1018F00090958095709561957F4F8F4F9F4F08957C
:101900000E94760A08F48FEF08950E94760A880BE9
:10191000990B0895A1E21A2EAA1BBB1BFD010DC055
:10192000AA1FBB1FEE1FFF1FA217B307E407F5078F
:1019300020F0A21BB30BE40BF50B661F771F881F6B
:10194000991F1A9469F760957095809590959B0101
:10195000AC01BD01CF010895EE0FFF1F0590F4917A
:10196000E02D09949111089581568A5108F480520E
:0819700085580895F894FFCF9B
:10197800314E6F646500324E6F64650001000000EF
:101988000060028001AD01C8021E02BC01D0010D39
:0E1998000A006E616E00696E66006F76660072
:00000001FF
