:100000000C9423050C944B050C944B050C944B0558
:100010000C944B050C944B050C944B050C944B0520
:100020000C944B050C944B050C944B050C944B0510
:100030000C944B050C944B050C944B050C944B0500
:100040000C9495290C944B050C944B050C944B0582
:100050000C944B050C944B050C944B050C944B05E0
:100060000C944B050C944B0505A84CCDB2D44EB95D
:100070003836A9020C50B9918688083CA6AAAA2A4B
:10008000BE000000803F0664EC1B3C04BC163E3BF7
:10009000E5B93CC93C37C29E5A3D660498083EEA21
:1000A00069AAAA3E000000803F0000000000240072
:1000B00027002A0000000000250028002B0004046F
:1000C0000404040404040202020202020303030300
:1000D00003030102040810204080010204081020DC
:1000E00001020408102000000008000201000003C3
:1000F000040700000000000000008D001000AE00AA
:100100000200100040008100CF00A100C800A6003E
:10011000A8003F00D3000000D5008000D900F10006
:10012000DA001200DB004000200002008D00140005
:10013000A400A600AF0010008E2F11000C000700D5
:100140002100280006002800050027007F0529005F
:10015000A18900000100FFFF64002900B080FFFFBB
:100160001E002900FEFF07002302FFFF1E000700FC
:10017000330201008321030030682F00FFFF2C00B1
:10018000008027007005020000030B000C581200CD
:1001900009061300003111007F78B103053C3CB221
:1001A00003053C3CB306053C3C053C3CB40103C0A4
:1001B00003280804C101C0C2020D00C3028D2AC475
:1001C000028DEEC5011A170105360108E010032261
:1001D000070A2E30252A28262E3A00010313E110A3
:1001E0000416060D2D26232727252D3B0001041379
:1001F0003A0105290001001C010200000103003042
:1002000010080008080B0000110C0000000F00018E
:1002100014150000002000000021000000FFFF3244
:10022000001000000811003F1FFFFF3200120021E4
:100230000113006F0014004943300000003100DB5F
:100240000032000000330000003400DB0035000005
:10025000003600AF00370000003800DB0039000036
:10026000005000010051000B205200000053000418
:100270000454000C0C55000C0056000101570000FE
:10028000045800081159000C05FFFF320007001741
:1002900010F704A9512C82C0021109C10141C50304
:1002A000000A80B102B011B40102B6020222B70105
:1002B000C6BE020004E90100360108E00F00071085
:1002C00009170B41894B0A0C0E181B0FE10F001781
:1002D0001A040E062F4543020A0932360F11007F19
:1002E0007829003A01553A0166F704A9512C82C0D9
:1002F000021109C10141C503000A80B102B011B465
:100300000102B6020222B701C6BE020004E90100E2
:100310003601083A0155E00F00071009170B418913
:100320004B0A0C0E181B0FE10F00171A040E062FB4
:100330004543020A0932360F11007F7829002E0149
:100340008929018F2B0102E20100E40101E501107E
:10035000E60101E70110E80170F20100EA0100EB9B
:100360000120EC013CED01C8E90138F101011B015C
:100370001A1A010124016125015C23018818013644
:100380001901011F01887F051F01807F051F019052
:100390007F051F01D47F05170105360100280138AC
:1003A0007F2828013C02010003010004010005012F
:1003B000EF06010007010008010109013F0100B932
:1003C00003FF83577FFAB30400000606B60125B089
:1003D0000168CC0105B10600151C1C83AAC006509B
:1003E00050013C1E08B4070240002A2A0D783A0149
:1003F000553601C03501004402000211007F9629E4
:10040000007F3201007F322800F603010100CF0394
:10041000008130ED0464031281E803851078CB0578
:10042000392C003402F70120EA020000B00100B4C8
:100430000100C00121C10111C5023F3CC701B53611
:1004400001883A0155B102001B360148F20100262D
:100450000101E00F0F26240B0E0954A8460C1709C2
:100460000F0700E10F00191B0410072A4739030684
:100470000630380FB7010711007F962900000001F0
:1004800000FFFF32000100000102000007030030FE
:10049000100400000008000202090000000A000029
:1004A000000C0000000D0000000F00000010000014
:1004B00000110007001200000013000000FFFFC839
:1004C000001000901611002702FFFF320012001AE0
:1004D00000FFFF32001300001829002A00FFFF323E
:1004E000003000000031000000320000003500063E
:1004F0000236000808370007003800010239000002
:10050000003C0000003D0000002000000021000031
:1005100000500000005100EF005200000053003F67
:1005200001600000A7610003006A00000090001055
:100530000092000000930003009500001197000056
:1005400000980000000700330100000000003E5B3F
:100550004F5B3E3E6B4F6B3E1C3E7C3E1C183C7E10
:100560003C181C577D571C1C5E7F5E1C00183C18F5
:1005700000FFE7C3E7FF0018241800FFE7DBE7FFF1
:1005800030483A060E2629792926407F050507407E
:100590007F05253F5A3CE73C5A7F3E1C1C08081C3F
:1005A0001C3E7F14227F22145F5F005F5F06097F7D
:1005B000017F006689956A606060606094A2FFA216
:1005C0009408047E040810207E201008082A1C08C5
:1005D000081C2A08081E101010100C1E0C1E0C30CF
:1005E000383E3830060E3E0E0600000000000000C7
:1005F0005F00000007000700147F147F14242A7F87
:100600002A12231308646236495620500008070353
:1006100000001C2241000041221C002A1C7F1C2AD1
:1006200008083E0808008070300008080808080024
:100630000060600020100804023E5149453E00421F
:100640007F400072494949462141494D33181412EF
:100650007F1027454545393C4A4949314121110917
:10066000073649494936464949291E000014000009
:100670000040340000000814224114141414140023
:100680004122140802015909063E415D594E7C126F
:1006900011127C7F494949363E414141227F414107
:1006A000413E7F494949417F090909013E41415184
:1006B000737F0808087F00417F41002040413F01CF
:1006C0007F081422417F404040407F021C027F7F10
:1006D0000408107F3E4141413E7F090909063E4121
:1006E00051215E7F09192946264949493203017F74
:1006F00001033F4040403F1F2040201F3F40384003
:100700003F631408146303047804036159494D439B
:10071000007F4141410204081020004141417F0413
:1007200002010204404040404000030708002054FA
:100730005478407F2844443838444444283844445A
:10074000287F385454541800087E090218A4A49C29
:10075000787F0804047800447D40002040403D003C
:100760007F1028440000417F40007C047804787C9E
:10077000080404783844444438FC18242418182405
:100780002418FC7C08040408485454542404043FEE
:1007900044243C4040207C1C2040201C3C403040F5
:1007A0003C44281028444C9090907C4464544C4421
:1007B00000083641000000770000004136080002C2
:1007C000010204023C2623263C1EA1A161123A40EC
:1007D00040207A3854545559215555794121545463
:1007E0007841215554784020545579400C1E52725E
:1007F000123955555559395454545939555454583A
:100800000000457C410002457D420001457C40F0EE
:10081000292429F0F0282528F07C5455450020543F
:10082000547C547C0A097F4932494949323248484C
:100830004832324A4848303A4141217A3A424020CF
:1008400078009DA0A07D39444444393D4040403D5E
:100850003C24FF2424487E4943662B2FFC2F2BFF8A
:100860000929F620C0887E090320545479410000EC
:10087000447D413048484A32384040227A007A0A62
:100880000A727D0D19317D2629292F28262929292B
:100890002630484D4020380808080808080808385D
:1008A0002F10C8ACBA2F102834FA00007B000008C3
:1008B000142A142222142A1408AA005500AAAA55A0
:1008C000AA55AA000000FF00101010FF0014141415
:1008D000FF001010FF00FF1010F010F0141414FCB3
:1008E000001414F700FF0000FF00FF1414F404FCD0
:1008F000141417101F10101F101F1414141F0010B1
:100900001010F0000000001F101010101F10101029
:1009100010F010000000FF10101010101010101038
:10092000FF10000000FF140000FF00FF00001F1078
:10093000170000FC04F414141710171414F404F432
:100940000000FF00F714141414141414F700F71423
:100950001414171410101F101F141414F414101072
:10096000F010F000001F101F0000001F1400000016
:10097000FC140000F010F01010FF10FF141414FF0E
:10098000141010101F00000000F010FFFFFFFFFF09
:10099000F0F0F0F0F0FFFFFF0000000000FFFF0F9D
:1009A0000F0F0F0F38444438447C2A2A3E147E022D
:1009B000020606027E027E026355494163384444C2
:1009C0003C04407E201E2006027E020299A5E7A577
:1009D000991C2A492A1C4C7201724C304A4D4D30E8
:1009E0003048784830BC625A463D3E494949007E0D
:1009F0000101017E2A2A2A2A2A44445F44444051A4
:100A00004A444040444A51400000FF0103E080FF57
:100A1000000008086B6B083612362436060F090FE3
:100A200006000018180000001010003040FF0101FF
:100A3000001F01011E00191D1712003C3C3C3C0028
:100A400000000000053011241FBECFEFD8E0DEBF4C
:100A5000CDBF12E0A0E0B1E0E2E3FEE602C0059007
:100A60000D92A039B107D9F726E0A0E9B2E001C0A4
:100A70001D92AB3EB207E1F715E0C3E2D5E004C03A
:100A80002197FE010E941A35C232D107C9F70E9490
:100A9000102A0C9417370C940000FC018489958966
:100AA0000895FC0186899789089538E0439FC00125
:100AB0001124807E9770269526952695822B70E0CE
:100AC000762F66276627787F862B972B0895242F0D
:100AD000462F682F89E996E00E9455059093A40659
:100AE0008093A3060895242F462F682F89E996E066
:100AF0000E9455059093A00680939F06089590E06C
:100B0000FC01EA51FF4F2491FC01EE52FF4F34915A
:100B1000FC01E254FF4FE491EE23C9F0222339F0A7
:100B2000233001F1A8F4213019F1223029F1F0E04D
:100B3000EE0FFF1FEC54FF4FA591B4918FB7F894BF
:100B4000EC91611126C030953E233C938FBF0895F0
:100B50002730A9F02830C9F0243049F7809180006F
:100B60008F7D03C0809180008F7780938000DFCFDE
:100B700084B58F7784BDDBCF84B58F7DFBCF80912B
:100B8000B0008F778093B000D2CF8091B0008F7D7E
:100B9000F9CF3E2BDACF3FB7F8948091950690912C
:100BA0009606A0919706B091980626B5A89B05C019
:100BB0002F3F19F00196A11DB11D3FBFBA2FA92FDC
:100BC000982F8827BC01CD01620F711D811D911DD9
:100BD00042E0660F771F881F991F4A95D1F7089545
:100BE0008F929F92AF92BF92CF92DF92EF92FF923D
:100BF0006B017C010E94CB054B015C01C114D10447
:100C0000E104F104B9F00E94CB05681979098A0959
:100C10009B09683E73408105910580F321E0C21A6B
:100C2000D108E108F10888EE880E83E0981EA11C27
:100C3000B11CE4CFFF90EF90DF90CF90BF90AF90CA
:100C40009F908F900895CF93DF93FC01868D88232A
:100C500059F08FEF8EBD00000DB407FEFDCF2EB50D
:100C6000822FDF91CF91089588E0BF016A5B7F4FAB
:100C7000AF014F5B5F4FA3ADB4AD9C91EB013881E9
:100C800093239C93A3ADB4AD9C91EA013881932B3F
:100C90009C93220FA7A9B0AD9C9137AD932309F087
:100CA0002160815041F7DCCFCF92DF92EF92FF922B
:100CB0000F931F93CF93DF93FC01868D882379F0E8
:100CC0006EBD00000DB407FEFDCF8EB5DF91CF9154
:100CD0001F910F91FF90EF90DF90CF90089588E0E3
:100CE00090E020E88F010B5B1F4F7F0130E4E30EA3
:100CF000F11CAF014A5B5F4F6F01C1E4CC0ED11C08
:100D0000A1ADB2AD362F3223B9F03C91E701788125
:100D1000372B3C93A3ADB4AD3C91EA0178813723E6
:100D20003C93A3ADB4AD3C91E6017881372B3C9365
:100D30002695019729F7CACF3C91E801788137239E
:100D4000E8CFFF920F931F93CF93DF93F82E162FC8
:100D5000072FC9E9D6E0EBA9FCA980812091DB0629
:100D600082238083EDA9FEA980812091DC06822365
:100D70008083692FCE010E9454066F2DCE010E9400
:100D80005406EDA9FEA980819EAD892B8083602F3A
:100D9000CE010E945406612FCE010E945406EBA999
:100DA000FCA980819DAD892B8083DF91CF911F911C
:100DB0000F91FF9008950F931F93CF93DF93EC0152
:100DC0008B01FE0185919491FE01329624966591E6
:100DD00074918F3F980771F490E080E00E94F005D5
:100DE000045011091016110664F3DF91CF911F9181
:100DF0000F9108950E94A106F3CFE091CC06F091E7
:100E0000CD0680819091D606892B80838091E5065E
:100E100087FD0EC060E00E947F0562E070E080E028
:100E200090E00E94F00561E08091E5060E947F0558
:100E3000E091CC06F091CD0680819091DB0689236C
:100E40008083E091CE06F091CF0680819091DC0600
:100E50008923808360E089E996E00E945406E0914E
:100E6000CC06F091CD0680819091D606892B8083A7
:100E70000895CF93DF93D82FC62FE091CC06F09141
:100E8000CD0680819091DB0689238083E091CE0698
:100E9000F091CF0680819091DC068923808360E009
:100EA00089E996E00E9454066D2F89E996E00E9438
:100EB000540661E070E080E090E00E94F00589E96E
:100EC00096E00E942306D82F89E996E00E94230627
:100ED000C13069F0E091CC06F091CD06908120916F
:100EE000D606922B90839D2FDF91CF910895C0E07D
:100EF000E6CF2F923F924F925F926F927F928F92A6
:100F00009F92AF92BF92CF92DF92EF92FF920F9398
:100F10001F93CF93DF93EC014A01270137FF05C0F0
:100F2000620F731F3195219531097B01E20EF31E8B
:100F30005B0177FF02C0B12CA12CE881F981068406
:100F4000F785E02DCE0109958E159F0544F4E881C3
:100F5000F9810684F785E02DCE0109957C016701B2
:100F6000CA18DB0817FF05C0800E911E1195019568
:100F70001109080D191D97FE02C0912C812CE881E2
:100F8000F9810484F585E02DCE010995801791073C
:100F900044F4E881F9810484F585E02DCE010995BA
:100FA0008C01380168187908015011099701215006
:100FB0003109E881F9810680F781E02DA401B501AE
:100FC000CE010995EBA9FCA980811E0122E4220E25
:100FD000311CD1019C91892380838A8D9B8D88301F
:100FE000910501F57401C7018819990986159705BE
:100FF0000CF08CC010E000E00C151D057CF4B50170
:10100000600F711FE881F9810280F381E02D920168
:10101000A701CE0109950F5F1F4FEECFBFEFEB1A6F
:10102000FB0AE1CF8E010D5B1F4F892B59F4EDA90F
:10103000FEA98081D8019C918923808360E0CE0144
:101040000E945406EDA9FEA98081D8019C918923B4
:1010500080836BA1CE010E945406C614D7042CF0E5
:10106000962D872D3601C92ED82E952CB52DB87FFB
:10107000EB2EC20123E0969587952A95E1F7282F5C
:101080002C7FF22E842C440C440C440C1C141D04A4
:1010900034F55301EDA9FEA99EAD29A93AA9808195
:1010A000892B80832C303105A1F46E2DCE010E9456
:1010B00054066F2DCE010E945406642DCE010E946D
:1010C000540681E0A81AB10829F791E0C91AD1089D
:1010D000DDCF692DCE010E945406682DEFCF8A8D99
:1010E0009B8D009761F50E891F89015011092C898C
:1010F0003D8921503109E881F9810680F781E02D91
:1011000050E040E070E060E0CE010995EBA9FCA959
:1011100080819DAD892B8083DF91CF911F910F91AD
:10112000FF90EF90DF90CF90BF90AF909F908F9007
:101130007F906F905F904F903F902F900895019710
:1011400029F7EBA9FCA98081D1019C918923808397
:10115000EDA9FEA98081D8019C918923808364E058
:10116000CE010E945406EDA9FEA980819EAD892B77
:1011700080838C899D890197692FCE010E94540636
:10118000EDA9FEA98081D8019C918923808365E027
:10119000CE010E945406EDA9FEA980819EAD892B47
:1011A00080836C896150CE010E945406EDA9FEA98E
:1011B0008081D8019C918923808368E0CE010E94C0
:1011C0005406EDA9FEA980819EAD892B80838E896E
:1011D0009F890197692FCE010E945406EDA9FEA9AF
:1011E0008081D8019C918923808369E0CE010E948F
:1011F0005406EDA9FEA980819EAD892B80836E895E
:101200006150CE010E945406EBA9FCA980819DADDE
:10121000892B80837BCFEF92FF920F931F93CF9305
:10122000DF93F901EA01C81BD90B9E012F5F3F4FE5
:10123000DF01A61BB70B8D010F5F1F4F37FF04C0E7
:101240009E0120953095CA0117FF04C08D010095BD
:101250001095BF01E090A306F090A406AB01BC017D
:1012600089E996E00E947907DF91CF911F910F9154
:10127000FF90EF900895EF92FF920F931F93E090ED
:10128000A306F090A4068A0121E030E0AB01BC0186
:1012900089E996E00E9479071F910F91FF90EF90E6
:1012A00008952F923F924F925F926F927F928F920A
:1012B0009F92AF92BF92CF92DF92EF92FF920F93E5
:1012C0001F93CF93DF933C015B01EA0181E090E043
:1012D0004C01841A950A44245524441A550A440C96
:1012E000551CF12CE12CCC24C394D12C822F81707D
:1012F000282E2270322EEC16FD060CF049C097FC09
:1013000006C0219782E0480E511C840C951C8FEF7B
:10131000E81AF80A82E0C80ED11C8C0C9D1C222011
:10132000D1F0AE01440F551F4F5F5F4F400F511F6B
:10133000B5016C1B7D0BC3018E0D9F1D0E943B09E7
:10134000A601400F511FB5016E197F09CE01860D10
:10135000971D0E943B09332071F2AE01440F551FC7
:101360004F5F5F4F400F511FB5016C1B7D0BC301D9
:101370008E199F090E943B09A601400F511FB5011C
:101380006E197F09C3018C1B9D0B0E943B09B3CFD3
:10139000DF91CF911F910F91FF90EF90DF90CF9051
:1013A000BF90AF909F908F907F906F905F904F9085
:1013B0003F902F900895CF92DF92EF92FF920F937C
:1013C0001F93CF93DF937C016B01EA01440F551FFC
:1013D0004F5F5F4F6C1B7D0BC7010E943B0910E004
:1013E00000E023E0AE01B601C7010E945109DF9180
:1013F000CF911F910F91FF90EF90DF90CF900895C4
:10140000EF92FF920F931F939A01E090A306F09042
:10141000A40601E010E0AB01BC0189E996E00E945E
:1014200079071F910F91FF90EF9008958F929F92EF
:10143000AF92BF92CF92DF92EF92FF920F931F93E2
:10144000CF93DF938C01EB015A0149019A01281BCC
:10145000390B69014FEFC41AD40AC401861B970BDC
:101460007C014FEFE41AF40AD7FE04C06901C0946E
:10147000D0948501F7FE04C07C01E094F094E4016F
:10148000A601BE01C8010E94000AA601B401C8015C
:101490000E94000AA701BE01C8010E943B09A701E2
:1014A000BE01C501DF91CF911F910F91FF90EF9089
:1014B000DF90CF90BF90AF909F908F900C943B099E
:1014C0002F923F924F925F926F927F928F929F9254
:1014D000AF92BF92CF92DF92EF92FF920F931F9342
:1014E000CF93DF93CDB7DEB7A8970FB6F894DEBFE2
:1014F0000FBECDBF6B0158A74FA359012617370761
:101500000CF082C1E616F7060CF495C13C2D2D2D8A
:101510006501A32EB22E382F292F8FA198A53FA3A6
:1015200028A7CE14DF04C1F52FA138A52817390745
:1015300034F4382F292F8FA198A53FA328A7081787
:10154000190744F04FA158A54017510714F418A7E4
:101550000FA38C014FA158A5401B510B4F5F5F4F4C
:10156000B601C801A8960FB6F894DEBF0FBECDBF76
:10157000DF91CF911F910F91FF90EF90DF90CF906F
:10158000BF90AF909F908F907F906F905F904F90A3
:101590003F902F900C94000A302F212F8C01832F25
:1015A000922F3E2D2F2D7601C32ED22E2FA138A59E
:1015B000201B310BA5014E195F09BC01601B710B8B
:1015C0007A836983D601AE19BF09BE83AD83FC015E
:1015D0006FA178A5E61BF70BFA87E987C6018A1980
:1015E0009B099A8B898BAC14BD0409F484C0D50186
:1015F0001197BE8BAD8B1701412C512C32011D86EA
:101600001E861F86188ABA01550F880B990B6F8B9F
:10161000788F898F9A8F8D819E81092E000CAA0B5D
:10162000BB0B8B8F9C8FAD8FBE8FA901330F660BC9
:10163000770B4F8F58A369A37AA369817A81072E0C
:10164000000C880B990B6BA37CA38DA39EA38D89A3
:101650009E89821593050CF451C06D857E858F851A
:1016600098892F89388D498D5A8D0E948132480181
:10167000820E931EC301B2012B8D3C8D4D8D5E8D6C
:101680000E948132200F311F4D855E856F857889DC
:101690008F8D98A1A9A1BAA1480F591F6A1F7B1F5E
:1016A0004D875E876F87788B4BA15CA16DA17EA172
:1016B000440E551E661E771E281539052CF4982DEC
:1016C000892D4901292F382F28193909A9014F5F80
:1016D0005F4FB101C4010E94000A5FEF251A350A6D
:1016E000B6CF3FA128A598A78FA3832F922F3C2D7B
:1016F0002D2D6501ADC0BE8AAD8A7DCFC1018A198D
:101700009B0969857A85869F2001879F500C969F4B
:10171000500C1124052C000C66087708C1018E19A5
:101720009F09A981BA818A9F40018B9F900C9A9F43
:10173000900C1124092C000CAA08BB0829893A89AD
:10174000032E000C440B550B298B3A8B4B8B5C8B77
:101750004D815E81052E000C660B770B4D835E83F9
:101760006F83788769857A85072E000C880B990B23
:1017700069877A878B879C87CD01092E000CAA0B7D
:10178000BB0B89839A83AB83BC83C214D3040CF450
:1017900062C0C301B20129893A894B895C890E94E0
:1017A0008132EFA0F8A4E20EF31EC501B4012D8131
:1017B0003E814F8158850E948132200F311F49851B
:1017C0005A856B857C85440E551E661E771E698181
:1017D0007A818B819C81860E971EA81EB91E2E15BC
:1017E0003F052CF49E2D8F2D7901292F382F2E198E
:1017F0003F09A9014F5F5F4FB101C7010E94000A75
:101800007FEF271A370AC1CFE216F3060CF089CE14
:10181000E616F7060CF465CF302F212F0FA118A57F
:1018200098A78FA3832F922F3A2D2B2D5B01670151
:10183000E32EF22E6BCEE216F3060CF4B7CE302F69
:10184000212F0FA118A53FA328A73E2D2F2D7501ED
:10185000A32EB22EABCEA8960FB6F894DEBF0FBE65
:10186000CDBFDF91CF911F910F91FF90EF90DF904F
:10187000CF90BF90AF909F908F907F906F905F9030
:101880004F903F902F9008956F927F928F929F92EA
:10189000AF92BF92CF92DF92EF92FF920F931F937E
:1018A000CF93DF934C01EB01BA01681B790B6B01FD
:1018B0008FEFC81AD80AC9018C1B9D0B3C01EFEFB2
:1018C0006E1A7E0AD7FE04C06B01C094D0944A0100
:1018D00077FE04C03C0160947094E901540185E0F6
:1018E000A80EB11CE090A306F090A40696012A5021
:1018F00031098301AE01B50189E996E00E947907BB
:10190000EBE06E1A71082596C601880D991D8301BA
:1019100021E045E050E0BE0106970E94510922E017
:1019200045E050E0BE01C5010E945109DF91CF9111
:101930001F910F91FF90EF90DF90CF90BF90AF90ED
:101940009F908F907F906F900895EF92FF920F93EA
:101950001F93E9E9F6E00689178924893589F12C76
:10196000E12C50E040E070E060E0CF010E94790798
:101970001F910F91FF90EF900895AF92BF92CF9279
:10198000DF92EF92FF920F931F93CF93DF9377FD38
:101990006DC057FD6BC079016A015B01EC01E88104
:1019A000F9810684F785E02D09958A159B050CF4CD
:1019B0005DC0E881F9810484F585E02DCE010995AB
:1019C0008C159D050CF452C0E881F9810680F781E1
:1019D000E02D86019501A601B501CE010995EBA97F
:1019E000FCA98081DE01AE5BBF4F9C91892380837F
:1019F0006A8D7B8D6730710561F4EDA9FEA9808148
:101A00009EAD892B80836F2DCE010E9454066E2DD2
:101A100066C068307105C1F5960193E0359527954C
:101A20009A95E1F788899989289FF001299FF00DFF
:101A3000389FF00D1124EA0DFB1DE057FD4F20816A
:101A4000C6010E94063541E050E0BA0102C0660FAF
:101A5000771F8A95E2F7CB01EF2899F0822B8083DC
:101A6000EBA9FCA980819DAD892B8083DF91CF916B
:101A70001F910F91FF90EF90DF90CF90BF90AF90AC
:101A8000089580958223EBCFEDA9FEA9DE01AD5B21
:101A9000BF4F9C9129A93AA98081892380832C304A
:101AA000310509F56BA1CE010E945406EDA9FEA9EE
:101AB00080819EAD892B80836F2D687FCE010E942F
:101AC0005406B70183E0769567958A95E1F76C7FB8
:101AD000CE010E9454066E2D660F660F660FCE0172
:101AE0000E945406BDCF6CA1CE010E9454066BA18A
:101AF000CE010E94540681CFAB012091A306309104
:101B0000A406BC0189E996E00C94BD0C2F923F928B
:101B10004F925F926F927F928F929F92AF92BF92FD
:101B2000CF92DF92EF92FF920F931F93CF93DF93A9
:101B3000EC018B017A016901C61AD70AD7FE03C0EE
:101B4000D194C194D10847018C1A9D0A97FE03C015
:101B50009194819491088C149D0454F49E2D8F2DA2
:101B60007901292F382F9C2F8D2FE801092F182F4D
:101B7000EC16FD0654F4902F812F8901292F382F60
:101B80009C2F8D2FE701E92EF82E17012C1A3D0A04
:101B90002901401A510A57FE03C05194419451083B
:101BA000310137FE03C08FEF681A780A7594679485
:101BB000AA24AA94BA2C021713071CF4AA24A394EB
:101BC000B12CEC16FD069CF0BE01C8018C149D04DE
:101BD00014F0B801CE010E947C0D6418750877FEE0
:101BE00004C00A0D1B1D620C731C2196EACFDF9105
:101BF000CF911F910F91FF90EF90DF90CF90BF900A
:101C0000AF909F908F907F906F905F904F903F909C
:101C10002F9008952F923F924F925F926F927F92F2
:101C20008F929F92AF92BF92CF92DF92EF92FF92EC
:101C30000F931F93CF93DF937C014B01EA0181E067
:101C400090E06C01C41AD50A66247724641A750AD8
:101C5000660C771C10E000E0AA24A394B12C822F1C
:101C60008470582E822F8270482E822F8870382ED2
:101C70002170222E0C171D070CF059C0D7FC06C08E
:101C8000219782E0680E711CC60CD71C0F5F1F4F96
:101C900082E0A80EB11CCA0CDB1C552081F0BE01ED
:101CA000680D791DC701800F911F0E947C0DB40142
:101CB000600F711FCE018E0D9F1D0E947C0D442070
:101CC00081F0B4016C1B7D0BC701800F911F0E9436
:101CD0007C0DB401601B710BCE018E0D9F1D0E9407
:101CE0007C0D332081F0B401600F711FC7018C1B84
:101CF0009D0B0E947C0DBE01680D791DC701801BE4
:101D0000910B0E947C0D222009F4B4CFB401601B1A
:101D1000710BC7018C1B9D0B0E947C0DB4016C1BC9
:101D20007D0BC701801B910B0E947C0DA3CFDF911F
:101D3000CF911F910F91FF90EF90DF90CF90BF90C8
:101D4000AF909F908F907F906F905F904F903F905B
:101D50002F9008953F924F925F926F927F928F9251
:101D60009F92AF92BF92CF92DF92EF92FF920F932A
:101D70001F93CF93DF93EC01590198010E9D6001F1
:101D80000F9DD00C1E9DD00C11248701040F151F30
:101D900001501109260F371F21503109E881F981BF
:101DA0000680F781E02D09952E0182E4480E511C32
:101DB0003E01A3E46A0E711C1C141D040CF096C0B5
:101DC000EBA9FCA98081D2019C9189238083EDA994
:101DD000FEA98081D3019C91892380836EA1CE01CD
:101DE0000E9454066DA1CE010E9454068A8D9B8DDF
:101DF000892B09F043C075018601CE010E9423069C
:101E0000CE010E942306CE010E942306CE010E942D
:101E10002306CE010E942306CE010E942306CE0196
:101E20000E942306382ECE010E942306932DF7012F
:101E3000819391937F0101501109F9F6CC0CDD1CBF
:101E4000AC0CBD1C0E891F89015011092C893D89DC
:101E500021503109E881F9810680F781E02D50E0B9
:101E600040E070E060E0CE010995EBA9FCA980811B
:101E70009DAD892B8083D12CC12C9ECFCE010E9499
:101E80002306750186018FA598A98130910511F56A
:101E9000CE010E942306982ECE010E942306882E92
:101EA000CE010E942306E881F9810190F081E02DA6
:101EB000282F482D692DCE0109954C01D7018D920F
:101EC0009D927D0101501109F1F6CC0CDD1CAC0C8A
:101ED000BD1CCBCF892B91F7CE010E942306882E03
:101EE000CE010E942306982C882EE8CF90E080E057
:101EF000DF91CF911F910F91FF90EF90DF90CF90E6
:101F0000BF90AF909F908F907F906F905F904F9019
:101F10003F9008959F92AF92BF92CF92DF92EF923F
:101F2000FF920F931F93CF93DF93EC016B01942EDD
:101F3000A52E0170B02EEBA9FCA98081DE01AE5B5D
:101F4000BF4F9C91892380832223E9F08A8D9B8D4A
:101F50008E010D5B1F4F892B59F4EDA9FEA98081DD
:101F6000D8019C918923808360E0CE010E945406B1
:101F7000EDA9FEA98081D8019C91892380836BA162
:101F8000CE010E9454067601C92CDA2C1C141D04C3
:101F9000B4F5BB2059F1F70105911491EDA9FEA903
:101FA0009EAD29A93AA98081892B8083612F2C308D
:101FB000310501F5687FCE010E945406B80183E027
:101FC000769567958A95E1F76C7FCE010E9454065D
:101FD000602F660F660F660FCE010E945406B2E0B6
:101FE000EB0EF11CE1E0CE1AD108D0CFD7010D9154
:101FF0001C91D4CFCE010E945406602FEDCFEBA9E7
:10200000FCA980819DAD892B8083DF91CF911F91A9
:102010000F91FF90EF90DF90CF90BF90AF909F9087
:102020000895AF92BF92CF92DF92EF92FF920F93FB
:102030001F93CF93DF93EC01162FB42EA52E022F02
:10204000EBA9FCA98081DE01AE5BBF4F9C91892387
:1020500080838A8D9B8DEDA9FEA99E012D5B3F4F4C
:1020600069010897A1F58081D9019C91892380831A
:10207000612FCE010E945406EB2CFA2CBB24BA949B
:10208000B00E101674F5F70161917F01EDA9FEA95C
:1020900080819EAD892B8083CE010E945406BB2097
:1020A000A1F08A8D9B8D019781F41F5FEDA9FEA998
:1020B0008081D6019C918923808360E0CE010E94BB
:1020C0005406612FCE010E9454060B2DD7CF80817C
:1020D000D9019C918923808360E0CE010E9454063F
:1020E000C7CFEBA9FCA980819DAD892B8083DF91AF
:1020F000CF911F910F91FF90EF90DF90CF90BF9005
:10210000AF900895DF92EF92FF920F931F93CF93BA
:10211000DF93CDB7DEB768970FB6F894DEBF0FBE7A
:10212000CDBF8C017B01F80164913196D4900E5F94
:102130001F4F6F3771F0DE01119690E080E0AD0126
:102140008D1520F5F801E80FF91FE491ED93019644
:10215000F7CF6D2D70E090E080E00E94F005D12C6B
:10216000ED2DF0E03296EE1AFF0A1E141F04DCF289
:1021700068960FB6F894DEBF0FBECDBFDF91CF914A
:102180001F910F91FF90EF90DF9008950D0D111D9D
:102190002D2D89E996E00E941110E2CF2F923F92F7
:1021A0004F925F926F927F928F929F92AF92BF9267
:1021B000CF92DF92EF92FF920F931F93CF93DF9313
:1021C000CDB7DEB728970FB6F894DEBF0FBECDBFF0
:1021D0007C015B016A014901DC01D396ED91FC9120
:1021E000D4978081AE5BBF4F9C9189238083F70198
:1021F000828D938D009721F08B30910509F03DC2BF
:10220000D70158962D913C9159972230310509F408
:1022100017C12330310509F431C1260135012130C0
:10222000310591F450962D913C91A801409550951F
:10223000C094D0943601620E731E250184014301BF
:1022400065015A01A20EB31E009709F02BC1D701F8
:10225000D596ED91FC9180811701B3E42B0E311CD2
:10226000D1019C918923808360E0C7010E945406BC
:1022700060E5C7010E945406D701D596ED91FC9107
:10228000D6978081DE969C91892B80836B2DC70128
:102290000E9454066A2DC7010E945406D701D596A4
:1022A000ED91FC918081D1019C918923808360E034
:1022B000C7010E94540661E5C7010E945406D70178
:1022C000D596ED91FC91D6978081DE969C91892BD5
:1022D0008083692DC7010E945406682DC7010E94A2
:1022E0005406D701D596ED91FC918081D1019C9146
:1022F0008923808360E0C7010E94540662E5C7011C
:102300000E945406D701D596ED91FC91D697808115
:10231000DE969C91892B80836D2DC7010E94540607
:102320006C2DC7010E945406D701D596ED91FC9102
:102330008081D1019C918923808360E0C7010E9444
:10234000540663E5C7010E945406D701D596ED9166
:10235000FC91D6978081DE969C91892B8083612F9A
:10236000C7010E945406602FC7010E945406D7017E
:10237000D596ED91FC918081D1019C918923808338
:1023800060E0C7010E94540660E2C7010E94540643
:10239000D701D596ED91FC91D6978081DE969C91E0
:1023A000892B8083672DC7010E945406662DC701C3
:1023B0000E945406D701D596ED91FC918081D10100
:1023C0009C918923808360E0C7010E94540661E2EA
:1023D000C7010E945406D701D596ED91FC91D6977E
:1023E0008081DE969C91892B8083652DC7010E9498
:1023F0005406642DC7010E945406D701D396ED916F
:10240000FC91D4978081DD969C91892B80832896BE
:102410000FB6F894DEBF0FBECDBFDF91CF911F91F5
:102420000F91FF90EF90DF90CF90BF90AF909F9073
:102430008F907F906F905F904F903F902F90089576
:10244000F70120893189F401E095F09549018A1856
:102450009B0841E0841A910852964D915C91B80115
:1024600060957095C094D0948601040F151F2801C3
:1024700034016B01C40ED51E5F01E4CEF701228941
:102480003389A4014095509529014A185B08F1E071
:102490004F1A510836014801820156016A01C20EE5
:1024A000D31ED2CE0B9709F0A8CFD701D596ED91C8
:1024B000FC9180811701B3E42B0E311CD1019C915A
:1024C0008923808360E0C7010E94540666E3C70148
:1024D0000E945406D701D596ED91FC91D697808144
:1024E000DE969C91892B8083692DC7010E9454063A
:1024F000682DC7010E945406D701D596ED91FC9135
:102500008081D1019C918923808360E0C7010E9472
:10251000540667E3C7010E945406D701D596ED9192
:10252000FC91D6978081DE969C91892B80836B2DC0
:10253000C7010E9454066A2DC7010E945406D701A4
:10254000D596ED91FC918081D1019C918923808366
:1025500060E0C7010E94540668E3C7010E94540668
:10256000D701D596ED91FC91D6978081DE969C910E
:10257000892B8083612FC7010E945406602FC701F9
:102580000E945406D701D596ED91FC918081D1012E
:102590009C918923808360E0C7010E94540669E30F
:1025A000C7010E945406D701D596ED91FC91D697AC
:1025B0008081DE969C91892B80836D2DC7010E94BE
:1025C00054066C2DC7010E945406D701D596ED9193
:1025D000FC918081D1019C9189238083F70160A1C6
:1025E000C7010E945406D7015F966C91C7010E94F3
:1025F0005406D701D596ED91FC91D6978081DE9651
:102600009C91892B8083672DC7010E945406662DFB
:10261000C7010E945406D701D596ED91FC918081A7
:10262000D1019C9189238083F70162A1C7010E9497
:102630005406D70191966C91C7010E945406D701A8
:10264000D596ED91FC91D6978081DE969C91892B51
:102650008083652DC7010E945406642DC7010E9426
:102660005406D701D596ED91FC918081D1019C91C2
:1026700089238083F70163A1BDCE8130910509F0E4
:10268000D9C005A8F6A9E02D80813701B3E46B0E0F
:10269000711CD3019C918923808362E0C7010E9451
:1026A0005406D701D596ED91FC91D6978081DE96A0
:1026B0009C91892B80836B2DC7010E945406D70102
:1026C000D596ED91FC918081D3019C9189238083E3
:1026D00063E0C7010E945406D701D596ED91FC91A5
:1026E000D6978081DE969C91892B80836A2DC701C5
:1026F0000E945406D701D596ED91FC918081D301BB
:102700009C918923808366E0C7010E945406D7010B
:10271000D596ED91FC91D6978081DE969C91892B80
:1027200080836D2DC7010E945406D701D596ED9187
:10273000FC918081D3019C918923808367E0C7014C
:102740000E945406D701D596ED91FC91D6978081D1
:10275000DE969C91892B80836C2DC7010E945406C4
:10276000D701D596ED91FC918081D3019C9189236D
:10277000808364E0C7010E945406D701D596ED918D
:10278000FC91D6978081DE969C91892B8083692D60
:10279000C7010E945406D701D596ED91FC91808126
:1027A000D3019C918923808365E0C7010E94540670
:1027B000D701D596ED91FC91D6978081DE969C91BC
:1027C000892B8083682DC7010E945406D701D596B6
:1027D000ED91FC918081D3019C918923808368E0F5
:1027E000C7010E945406D701D596ED91FC91D6976A
:1027F0008081DE969C91892B8083612FC7010E9486
:102800005406D701D596ED91FC918081D3019C911E
:102810008923808369E0C7010E945406D701D596B9
:10282000ED91FC91D6978081DE969C91892B8083D7
:10283000602FE0CD8730910509F0A7C0808D918D84
:102840008130910531F058F08230910541F00397C5
:10285000A1F442E0C40ED11C0E5F1F4F0EC0C60192
:10286000029698012E5F3F4F6501F2E0CF0ED11C1A
:1028700084010E5F1F4F49015C01D701D596ED9190
:10288000FC9180813701B3E46B0E711CD3019C91E4
:1028900089238083F701678DC7010E945406D70101
:1028A000D596ED91FC91D6978081DE969C91892BEF
:1028B0008083682DC7010E945406D701D596ED91FB
:1028C000FC91D6978081DE969C91892B80836A2D1E
:1028D000C7010E945406D701D596ED91FC918081E5
:1028E000D3019C9189238083F70161A1C7010E94D4
:1028F0005406D701D596ED91FC91D6978081DE964E
:102900009C91892B8083602FC7010E945406D701B8
:10291000D596ED91FC91D6978081DE969C91892B7E
:1029200080836C2DC7010E945406D701D596ED9186
:10293000FC918081D3019C918923808361E2C7014E
:102940000E945406D701D596ED91FC91D6978081CF
:10295000DE969C91892B80836A2DC7010E945406C4
:10296000D701D596ED91FC91D6978081DE969C910A
:10297000892B80836C2DC7010E945406D701D59600
:10298000ED91FC918081D30172CE8830910509F4DC
:102990003ECD678D099769F58685282F30E0A9011E
:1029A0004A0D5B1D5D83A80EAE82280D391D3F8345
:1029B000880E88868785282F30E0A9014C0D5D1D83
:1029C0005983C80ECA82200F311F3B83080F0C8326
:1029D00024E0AE014B5F5F4FC7010E94111024E05D
:1029E000AE014F5F5F4FF70161A1C7010E94111057
:1029F00004CDBD82AE829F822887D9824A831B8301
:102A00000C8324E0AE014B5F5F4FC7010E941110A1
:102A100024E0AE014F5F5F4FD70191966C91E5CFF7
:102A2000CF92DF92EF92FF920F931F93CF93DF939A
:102A300000D000D000D0CDB7DEB7282F237030E013
:102A40003093B2062093B106282F217080FF91C0E9
:102A50008091AB069091AC069093AE068093AD0644
:102A60008091A9069091AA06211104C08091AB061D
:102A70009091AC069093B0068093AF06E091CC069F
:102A8000F091CD0680819091DB068923808320918F
:102A9000B3063091B4062115310521F02B303105F4
:102AA00009F077C08091B1069091B206813091050E
:102AB00009F464C008F46AC08230910509F461C069
:102AC000039709F460C0E091CE06F091CF068081B3
:102AD0009091DC06892380836091C50689E996E0A0
:102AE0000E9454066091C40689E996E00E9454064B
:102AF000E091CE06F091CF0680819091D706892B88
:102B0000808360E189E996E00E9454066C2D89E992
:102B100096E00E9454060091AF061091B006015055
:102B200011092091AD063091AE062150310950E0D7
:102B300040E070E060E089E996E00E94CE1080916C
:102B4000B3069091B4068930910509F4EFC163E0B2
:102B500070E0009709F4FCC18730910509F0CAC103
:102B600070E060E08091C0069091C1060E94A106CD
:102B7000C5C18091A9069091AA066ECF08E2C02E29
:102B8000A2CFC12CA0CF18E1C12E9DCFB0E3CB2E98
:102B90009ACF2630310591F58091B1069091B20619
:102BA0008130910501F138F182309105F9F00397F8
:102BB000F9F0E091CE06F091CF0680819091DC068D
:102BC000892380836091C40689E996E00E945406B7
:102BD000E091CE06F091CF0680819091D706892BA7
:102BE00080836D2D94CFA0EADA2EE3CFD12CE1CFF4
:102BF000F0E6DF2EDECFE0EDDE2EDBCF2930310533
:102C000009F04BC08091B1069091B20681309105D8
:102C100049F1F8F08230910571F10397A9F1E09143
:102C2000CE06F091CF0680819091DC0689238083C7
:102C30006091C40689E996E00E945406E091CE06B0
:102C4000F091CF0680819091D706892B80836E2DDD
:102C50005ECF82E08093A70683E08093A80678ED9C
:102C6000E72EDDCF83E08093A70682E08093A8065D
:102C700068EAE62ED4CF82E08093A70681E08093B5
:102C8000A80658E0E52ECBCF81E08093A70682E02E
:102C90008093A80648E6E42EC2CF2730310509F01C
:102CA000A2C08091B1069091B2068130910549F0A1
:102CB00008F450C08230910509F44CC0039709F024
:102CC0002ACFE091CE06F091CF0680819091DC066C
:102CD0008923808360E089E996E00E94540661E0E0
:102CE00089E996E00E945406E091CE06F091CF0665
:102CF00080819091D706892B808362E289E996E0F2
:102D00000E94540663E889E996E00E945406E09127
:102D1000CE06F091CF0680819091DC0689238083D6
:102D200060E089E996E00E94540663E089E996E054
:102D30000E945406E091CE06F091CF0680819091DA
:102D4000D706892B808368E689E996E00E945406BD
:102D500068E3DDCEE091CE06F091CF0680819091C0
:102D6000DC068923808360E089E996E00E945406AE
:102D700061E089E996E00E945406E091CE06F09168
:102D8000CF0680819091D706892B808361E289E903
:102D900096E00E94540663E889E996E00E94540692
:102DA000E091CE06F091CF0680819091DC068923D8
:102DB000808360E089E996E00E94540663E089E937
:102DC00096E00E945406E091CE06F091CF068081F5
:102DD0009091D706892B808368E689E996E00E9466
:102DE000540660E394CE2830310509F490C08091F8
:102DF000B1069091B206E091CE06F091CF064091D7
:102E0000DC062530310549F581309105D1F010F10E
:102E100082309105C9F00397D1F0808184238083AB
:102E20006091C40689E996E00E945406E091CE06BE
:102E3000F091CF0680819091D706892B80836F2DEA
:102E400066CE38E7F32EE9CF28ECF22EE6CF98EAEB
:102E5000F92EE3CF88E0F82EE0CF2A30310529F5AE
:102E600081309105D1F0F8F082309105C1F00397DF
:102E7000C1F08081842380836091C40689E996E053
:102E80000E945406E091CE06F091CF068081909189
:102E9000D706892B8083602F3ACE08EAEACF08E173
:102EA000E8CF08E7E6CF08ECE4CF81309105D1F018
:102EB000F8F082309105C1F00397C1F0808184233E
:102EC00080836091C40689E996E00E945406E091EF
:102ED000CE06F091CF0680819091D706892B808312
:102EE000612F15CE18E2EACF18E9E8CF18EFE6CF48
:102EF00018E4E4CF20E088309105C9F4E091CC06D5
:102F0000F091CD0680819091D606892B80832696FC
:102F10000FB6F894DEBF0FBECDBFDF91CF911F91EA
:102F20000F91FF90EF90DF90CF90089524E03091C3
:102F3000AB064091AC06032F142F0B97B1F470E051
:102F400060E082E390E00E94A106B801615071093F
:102F50008091C0069091C1060E94A10670E060E0D9
:102F60008091C2069091C30601CE19821A824B83CA
:102F70003C831D822E8326E0AE014F5F5F4F609140
:102F8000C00689E996E00E94111019821A8222E097
:102F9000AE014F5F5F4F6091C20689E996E00E94E3
:102FA00011108091B3069091B406019759F41982DB
:102FB00021E0AE014F5F5F4F61E089E996E00E943A
:102FC00011109CCF20E050E040E063E1F6CF8F92FB
:102FD0009F92AF92BF92CF92DF92EF92FF920F93A8
:102FE0001F93CF93DF930E94CB056B017C0140E0E0
:102FF00060E08FEF0E946705CCE0D0E00091AF0663
:103000001091B006C8010D97C817D907F0F40E50FB
:103010001109BE0190E080E00E94863127ED33EA7D
:1030200040EB5FE30E94C33120E030E040E251E436
:103030000E941B330E94FF339801AB01BE0181E067
:1030400090E00E94860D2596D9CF40E060E08FEF9A
:103050000E946705C091AF06D091B0062E97CE3082
:10306000D10508F1BE0190E080E00E94863127ED95
:1030700033EA40EB5FE30E94C33120E030E040E2FE
:1030800051E40E941B330E94FF33E091AD06F091A2
:10309000AE062CE030E0AB01BE01CF0103970E94E9
:1030A000860D2597DCCF4FEF6FEF80E00E9467051C
:1030B000C091AF06D091B0062E97CE30D105B8F1B1
:1030C0006091AF067091B0066D507109072E000C2B
:1030D000880B990B0E94883127ED33EA40EB5FE3C0
:1030E0000E94C33120E030E040E251E40E941C33F2
:1030F0004B015C01BE0190E080E00E94863127ED2B
:1031000033EA40EB5FE30E94C3319B01AC01C50190
:10311000B4010E941B330E94FF332CE030E0AB016E
:10312000BE0181E090E00E94860D2597C6CF4FEF4B
:103130006FEF80E00E946705CDE0D0E06091AF06C0
:103140007091B0068B010E501109C017D107C4F55C
:103150006D507109072E000C880B990B0E94883165
:1031600027ED33EA40EB5FE30E94C33120E030E01B
:1031700040E251E40E941C334B015C01BE010D2E64
:10318000000C880B990B0E94883127ED33EA40EB45
:103190005FE30E94C3319B01AC01C501B4010E94F1
:1031A0001B330E94FF33E091AD06F091AE0698010B
:1031B000AB01BE01CF0103970E94860D2596BECFBD
:1031C0000E94CB056C197D098E099F09DF91CF9173
:1031D0001F910F91FF90EF90DF90CF90BF90AF9035
:1031E0009F908F9008952F923F924F925F926F928F
:1031F0007F928F929F92AF92BF92CF92DF92EF9287
:10320000FF920F931F93CF93DF93CDB7DEB72A972B
:103210000FB6F894DEBF0FBECDBF0E94CB056D8305
:103220007E838F8398872091AF063091B006C901C5
:10323000889765E070E00E9406355B0183E7869F12
:10324000F001879FF00D1124CF0164E670E00E9429
:10325000F2341B0185E0869FA001879F500D112449
:103260006091AD067091AE06641B750B76956795FF
:103270007A8369838A9DA0018B9D500D1124241BA4
:10328000350B36952795CF0168EC70E00E94F2343B
:103290006150710969807A80660E771E89819A81F2
:1032A00001979A878987290191E0491A5108C50138
:1032B000880F991F880F991F01974C01820E931E4A
:1032C000D12CC12C22E0C216D104B9F040F441E067
:1032D000C416D10481F04FEF60E08FEF11C053E0CE
:1032E000C516D10409F463C064E0C616D10499F789
:1032F00040E06FEFF2CF40E0EFCF40E06FEF80E0D3
:103300000E9467057FEFC71AD70AC2018A0D9B1D6D
:103310009C838B8329853A85220D331D3A8329832B
:103320007C0189019201A301BC0189859A850E94D3
:10333000600AB4016A0D7B1D7B0109811A81940129
:10334000A30189859A850E94600A620C731C8A1801
:103350009B0809811A811A8709874B805C8035E0B8
:10336000C316D10409F0AECF0E94CB052D813E815A
:103370004F815885621B730B840B950B2A960FB6F1
:10338000F894DEBF0FBECDBFDF91CF911F910F919B
:10339000FF90EF90DF90CF90BF90AF909F908F9075
:1033A0007F906F905F904F903F902F9008954FEFD8
:1033B00060E0A5CF2F923F924F925F926F927F92E3
:1033C0008F929F92AF92BF92CF92DF92EF92FF9235
:1033D0000F931F93CF93DF930E94CB052B013C01EA
:1033E0000091AF061091B006C80188976AE070E0BE
:1033F0000E9406355B018AE0869FE001879FD00D21
:1034000011248091AD069091AE068C1B9D0B969574
:1034100087950C1B1D0B169507954B01880C991C65
:103420006B0121E0C21AD108C80ED91E2224332410
:1034300028183908C61BD70B2197C00FD11FF12CB4
:10344000E12C081B190B82E0E816F104A9F040F406
:1034500040E081E0E816F10409F04FEF60E00AC0B7
:1034600023E0E216F104E9F140E06FEF84E0E816B2
:10347000F10499F78FEF03C040E06FEF80E00E9406
:103480006705B8016C0D7D1DA501C6010E94DB0911
:10349000A501BE01C6010E94DB092FEFE21AF20A64
:1034A000C80CD91CC20DD31D85E0E816F10459F6ED
:1034B0000E94CB056419750986099709DF91CF91A0
:1034C0001F910F91FF90EF90DF90CF90BF90AF9042
:1034D0009F908F907F906F905F904F903F902F9034
:1034E00008954FEF60E0CACF2F923F924F925F92C4
:1034F0006F927F928F929F92AF92BF92CF92DF9204
:10350000EF92FF920F931F93CF93DF930E94CB050F
:103510002B013C012090AF063090B006C101889786
:1035200065E070E00E9406356B0185E0869F9001A2
:10353000879F300D11248091AD069091AE06821BBD
:10354000930B96958795221A330A369427947C011B
:1035500021E0E21AF1088B01000F111F000F111F6B
:1035600001501109020D131DD0E0C0E04601820C8C
:10357000931C881A990A281A390AC230D10599F081
:1035800038F440E0C130D10509F04FEF60E009C0E8
:10359000C330D10509F441C040E06FEFC430D1051C
:1035A000A1F78FEF03C040E06FEF80E00E94670556
:1035B00021965601AE0CBF1C94012E0D3F1DB1018A
:1035C0006E0D7F1DA501C7010E94440CB601600F5E
:1035D000711F9801A501C7010E94440C0C191D0917
:1035E0007501C530D10549F60E94CB0564197509EE
:1035F00086099709DF91CF911F910F91FF90EF906E
:10360000DF90CF90BF90AF909F908F907F906F9002
:103610005F904F903F902F9008954FEF60E0C5CF9F
:103620002F923F924F925F926F927F928F929F92D2
:10363000AF92BF92CF92DF92EF92FF920F931F93C0
:10364000CF93DF930E94CB052B013C012090AF0666
:103650003090B006C101889765E070E00E940635A1
:103660006B0185E0869F9001879F300D112480912A
:10367000AD069091AE06821B930B96958795221A04
:10368000330A369427947C0121E0E21AF1088B0179
:10369000000F111F000F111F01501109020D131D02
:1036A000D0E0C0E04601820C931C881A990A281ABF
:1036B000390AC230D10599F038F440E0C130D10563
:1036C00009F04FEF60E009C0C330D10509F441C0F3
:1036D00040E06FEFC430D105A1F78FEF03C040E0A9
:1036E0006FEF80E00E94670521965601AE0CBF1C6B
:1036F00094012E0D3F1DB1016E0D7F1DA501C70167
:103700000E940B09B601600F711F9801A501C70146
:103710000E940B090C191D097501C530D10549F628
:103720000E94CB056419750986099709DF91CF912D
:103730001F910F91FF90EF90DF90CF90BF90AF90CF
:103740009F908F907F906F905F904F903F902F90C1
:1037500008954FEF60E0C5CF2F923F924F925F9256
:103760006F927F928F929F92AF92BF92CF92DF9291
:10377000EF92FF920F931F93CF93DF93CDB7DEB7F6
:103780002F970FB6F894DEBF0FBECDBF2C01CB0133
:103790008E509742029720F5F20101900020E9F740
:1037A0003197E419F5098091A50626E0829FC001B2
:1037B00011248E9F90018F9F300D9E9F300D1124FC
:1037C0008091AD069091AE06821B930B6E307742CE
:1037D000A9F5BC0197FF02C06F5F7F4F7595679594
:1037E00070939C0660939B0650939E0640939D06A3
:1037F00058864F824F81588544195509EF81F885C5
:103800002191F887EF83922F222309F4E2C02A3016
:10381000C9F48091A506F8E08F9FC0011124209182
:103820009D0630919E06820F931F90939E06809373
:103830009D0610929C0610929B06DCCFBC01615045
:103840007109CECF2D30B1F220919B0630919C06AC
:103850003B872A872091AD063091AE064A855B856D
:10386000421753070CF08AC060909D0670909E0628
:103870002091AF063091B006621673060CF07EC040
:103880005091A5065A83C52ED12C2A853B85E6E0AA
:103890005E9F200D311D1124121613060CF06EC010
:1038A000960143E0220F331F4A95E1F7260D371D9D
:1038B000121613060CF062C0903B08F09F5FF09167
:1038C000A606F9872091A1063091A2063C832B839E
:1038D00040919F065091A0065E834D83EA85FB854B
:1038E000FF87EE875F01198229E435E02E1B3F0B2D
:1038F000A90185E0989F400D511D11245D874C87DB
:103900009981E0E0953029F0EC85FD85EA0DFB1DFD
:10391000E4911301912C812C2E2F30E03B872A87D4
:10392000E0FF3CC03A81ED80FE80313009F047C0B5
:103930002D813E81A301480D591DB50189E996E00D
:103940000E94BD0CEA85FB85F595E795FFEF8F1A80
:103950009F0A2C0C3D1C28E082169104E9F63FEFEB
:10396000A31AB30A4E855F854C0D5D1D5F874E8798
:1039700059815F5F5983563009F0C2CF2091A50667
:1039800080919B0690919C06E6E02E9F800D911DF4
:10399000112490939C0680939B062CCF4B815C81D5
:1039A0008D819E814817590769F299859111CACF77
:1039B000EA81EB80FC80E13011F49A01BBCF8601F3
:1039C0009601A1016E857F8589E996E00E947907BD
:1039D000B9CFCA012F960FB6F894DEBF0FBECDBF88
:1039E000DF91CF911F910F91FF90EF90DF90CF90DB
:1039F000BF90AF909F908F907F906F905F904F900F
:103A00003F902F900895FC01808191810C94AC1B14
:103A10002F923F924F925F926F927F928F929F92DE
:103A2000BF92CF92DF92EF92FF920F931F93CF93AB
:103A3000DF93CDB7DEB76B970FB6F894DEBF0FBE3E
:103A4000CDBF7A0169018E010F5F1F4F2BE1F80195
:103A500011922A95E9F76115710581059105C1F467
:103A600080E38A8FB12C88248394912CC4018B0D20
:103A7000911DF801E81BF90B7A96D80101969D017A
:103A8000201B310B28173907C0F521912D93F7CF53
:103A9000B12C97FF09C090958095709561957F4FE7
:103AA0008F4F9F4FBB24B3943E01FBE16F0E711CFF
:103AB000912C812C2AE0222E312C412C512C2AE0F1
:103AC0008216910491F0A20191010E948132605D01
:103AD000F30162933F01B901CA01FFEF8F1A9F0AF8
:103AE000611571058105910551F7BB2009F4BECF21
:103AF000F30131978DE28083B9CF800F911FFC01D4
:103B00001082A601B701C8010E94AC1B6B960FB6CC
:103B1000F894DEBF0FBECDBFDF91CF911F910F9103
:103B2000FF90EF90DF90CF90BF909F908F907F900D
:103B30006F905F904F903F902F9008950E940237B2
:103B4000FC0180819181009711F00C94BC3508959F
:103B5000EF92FF920F931F93CF93DF93EC017B01C2
:103B6000198218821B821A821D821C82FB0101901D
:103B70000020E9F731978F01061B170BB8016F5F23
:103B80007F4F90E080E00E9445360097B9F099831E
:103B900088831B830A832C813D81232B11F4FC0134
:103BA00010821D830C83B70188819981DF91CF91A9
:103BB0001F910F91FF90EF900C941037888199819D
:103BC000009711F00E94BC35198218821D821C8258
:103BD0001B821A82DF91CF911F910F91FF90EF907E
:103BE00008958F929F92AF92BF92EF92FF920F93A0
:103BF0001F93CF93DF9300D000D000D0CDB7DEB7B6
:103C00000E94CB054B015C014FEF60E080E20E9417
:103C1000670509E916E0F8014489558941505109C1
:103C20002AE030E070E060E090E080E00E940B0964
:103C300040E06FEF80E00E947305FF24F394F801E9
:103C4000F486F5866DE571E0CE0101960E94A81D0F
:103C500042E050E06EE077E2CE0101960E94031D43
:103C6000CE0101960E94A01D40E860E880E80E9415
:103C70006705F801668977899B01215031094489DC
:103C80005589415051096B50710990E080E00E94C4
:103C90000B094FEF6FEF8FEF0E947305F801F48669
:103CA000F586E688F788F9E0EF1AF1086BE771E02E
:103CB000CE0101960E94A81DA7016EE077E2CE0119
:103CC00001960E94031DCE0101960E94A01D40E0B6
:103CD0006FEF8FEF0E946705F801268937892C5016
:103CE000310944895589415051096BE070E090E0F9
:103CF00080E00E94160A0E94CB05681979098A099A
:103D00009B0926960FB6F894DEBF0FBECDBFDF919C
:103D1000CF911F910F91FF90EF90BF90AF909F9028
:103D20008F900895CF92DF92EF92FF926B017C010A
:103D3000C114D104E104F10441F00E942E31A70125
:103D400096010E9481326B017C01C701B601FF9090
:103D5000EF90DF90CF9008952F923F924F925F9215
:103D60006F927F928F929F92AF92BF92CF92DF928B
:103D7000EF92FF920F931F93CF93DF93CDB7DEB7F0
:103D8000C657D1090FB6F894DEBF0FBECDBF0E9453
:103D9000CB05E7966CAF7DAF8EAF9FAFE7971091E5
:103DA000AF060091B0061E0121E6220E311CAE01C5
:103DB0004F5F5F4FA7965FAF4EAFA797C12CD12C37
:103DC0007601CA940E942E312B013C010E942E31B3
:103DD0004B015C010E942E31A5966CAF7DAF8EAF7A
:103DE0009FAFA597C301B201A70196010E9481323E
:103DF000762EC501B401A70196010E948132B62E2C
:103E0000A5966CAD7DAD8EAD9FADA597A701960132
:103E10000E948132862F472D6B2D0E94670580916D
:103E2000A3069091A406A796EEADFFADA797819348
:103E30009193A796FFAFEEAFA7972E163F0611F608
:103E4000812F902F60E370E00E940635E3967FAFEC
:103E50006EAFE397812F902F97FD0F969C0164E042
:103E6000359527956A95E1F7AD963FAF2EAFAD97A3
:103E7000C901880F991F880F991F63E070E00E94A5
:103E80000635AB014F5F5F4FAF965FAF4EAFAF9759
:103E9000E3964EAC5FACE3973A01A9963FAF2EAFE5
:103EA000A99785E090E0AB969FAF8EAFAB9720903F
:103EB000AF063090B00637FE03C09FEF291A390ACB
:103EC00035942794E1E02E1A3108A9962EAD3FAD26
:103ED000A997221A330A8091AD069091AE0697FDFC
:103EE0000196959587950197AC0146195709A396B8
:103EF0005FAF4EAFA39756E0549D8001559D100DC6
:103F00001124020D131D01501109920143E0220FEB
:103F1000331F4A95E1F7A3968EAD9FADA397280F67
:103F2000391F21503109A101BC0189E996E00E94A5
:103F3000CE10FE0131966F0191E04916510409F04F
:103F400061C000E021E040E350E0BE016F5F7F4FC1
:103F500089E996E00E948A0F64E670E080E090E0D4
:103F60000E94F005AB968EAD9FADAB970197AB96D7
:103F70009FAF8EAFAB97A996EEADFFADA997AD966B
:103F80002EAD3FADAD97E20FF31FA996FFAFEEAF99
:103F9000A997AF964EAD5FADAF97640E751EE396D1
:103FA0008EAD9FADE397480E591EAB96EEADFFADBB
:103FB000AB97EF2B09F07BCF0E94CB05E7962CAD9A
:103FC0003DAD4EAD5FADE797621B730B840B950B58
:103FD000CA58DF4F0FB6F894DEBF0FBECDBFDF91DA
:103FE000CF911F910F91FF90EF90DF90CF90BF90F6
:103FF000AF909F908F907F906F905F904F903F9089
:104000002F900895A3968EAC9FACA397E196DFAE58
:10401000CEAEE197B12CA12CE196EEADFFADE197CC
:10402000E190F190E196FFAFEEAFE197820192014E
:10403000A101B40189E996E00E947907FFEFAF1A68
:10404000BF0A840C951C28E0A216B10429F730E1C0
:10405000C30ED11C240C351CA7964EAD5FADA7979F
:104060004C155D0579F678CF2F923F924F925F9273
:104070006F927F928F929F92AF92BF92CF92DF9278
:10408000EF92FF920F931F93CF93DF93CDB7DEB7DD
:104090002A970FB6F894DEBF0FBECDBF0E94CB05A6
:1040A00069837A838B839C8386E9282E312CC12CEB
:1040B000D12C7601CA940E942E312B013C010E9422
:1040C0002E314B015C010E942E316D837E838F83E4
:1040D0009887C301B201A70196010E9481326987C6
:1040E000C501B401A70196010E9481326A876D81E2
:1040F0007E818F819885A70196010E948132862F4B
:1041000049856A850E9467056091AF067091B00687
:1041100068517109072E000C880B990B0E94921EA2
:104120009B01245F3F4F3E832D836091AD067091CC
:10413000AE0664507109072E000C880B990B0E9483
:10414000921E8B010E5F1F4F6091AF067091B006FB
:1041500068517109072E000C880B990B0E94921E62
:104160004B013CE0830E911C6091AD067091AE0650
:1041700064507109072E000C880B990B0E94921E47
:104180003B0142E0640E711C6091AF067091B00675
:1041900068517109072E000C880B990B0E94921E22
:1041A0002B015CE0450E511C6091AD067091AE068E
:1041B00064507109072E000C880B990B0E94921E07
:1041C0005B0122E0A20EB11C9401A301B201C50162
:1041D0000E94860D2D813E81A801B401C3010E9479
:1041E000860D9201A5016D817E81C8010E94860D18
:1041F00031E0231A310809F05ECF0E94CB052981F6
:104200003A814B815C81621B730B840B950B2A9660
:104210000FB6F894DEBF0FBECDBFDF91CF911F91D7
:104220000F91FF90EF90DF90CF90BF90AF909F9055
:104230008F907F906F905F904F903F902F90089558
:104240002F923F924F925F926F927F928F929F92A6
:10425000AF92BF92CF92DF92EF92FF920F931F9394
:10426000CF93DF93CDB7DEB760970FB6F894DEBF7C
:104270000FBECDBF0E94CB056B877C878D879E8745
:1042800026E930E03E832D83812C912C54018A94C1
:104290000E942E312B013C010E942E316B017C01CA
:1042A0000E942E3169837A838B839C83C301B20180
:1042B000A50194010E9481326987C701B601A50159
:1042C00094010E9481326F8369817A818B819C8104
:1042D000A50194010E948132862F49856F810E9439
:1042E00067050E942E3128E230E040E050E00E9455
:1042F00081326B011B016091AF067091B006685668
:104300007109072E000C880B990B0E94921E2B013D
:1043100034E3430E511C6091AD067091AE066255B8
:104320007109072E000C880B990B0E94921E3B010D
:1043300049E2640E711C81E090E08C199D099A831A
:104340008983C601880F991F22273327281B390B21
:1043500038872F83B2016C0D7D1DC3010E947C0D37
:10436000B2016C197D09C3010E947C0DC3018C0D43
:104370009D1DB2010E947C0DC3018C199D09B201E3
:104380000E947C0DD12CC12C41E050E05A87498716
:10439000C214D3040CF066C089819A8197FD0FC0C6
:1043A00091E0291A31082F8138852E5F3F4F3887D9
:1043B0002F8349815A81420F531F5A8349835FEFEC
:1043C000C51AD50A89859A8502969A87898729818F
:1043D0003A81280F391F3A8329837301EC0CFD1CA5
:1043E000A201420D531D588B4F87BA01C7010E948D
:1043F0007C0D83010C191D096F857889C8010E9405
:104400007C0DC20182199309988B8F87BC01C7016B
:104410000E947C0D6F857889C8010E947C0D9201F5
:104420002C0D3D1D388B2F87B9018301020D131D03
:10443000C8010E947C0D6F857889A3014219530938
:10444000588B4F87CA010E947C0D7201EC18FD0841
:10445000B701C8010E947C0DB7018F8598890E9421
:104460007C0D96CF8D819E8101979E838D83892BB4
:1044700009F00ECF0E94CB052B853C854D855E85CE
:10448000621B730B840B950B60960FB6F894DEBF1E
:104490000FBECDBFDF91CF911F910F91FF90EF9095
:1044A000DF90CF90BF90AF909F908F907F906F9054
:1044B0005F904F903F902F9008952F923F924F9290
:1044C0005F926F927F928F929F92AF92BF92CF92A4
:1044D000DF92EF92FF920F931F93CF93DF93CDB7AD
:1044E000DEB72B970FB6F894DEBF0FBECDBF0E948C
:1044F000CB056D837E838F83988786E9282E312CA8
:10450000C12CD12C7601CA940E942E312B013C0182
:104510000E942E314B015C010E942E3169837A8307
:104520008B839C83C301B201A70196010E94813253
:104530006987C501B401A70196010E9481326B878A
:1045400069817A818B819C81A70196010E948132C9
:10455000862F49856B850E9467056091AF06709133
:10456000B0066A517109072E000C880B990B0E9446
:10457000921E4B012DE0820E911C6091AD06709150
:10458000AE0664507109072E000C880B990B0E942F
:10459000921EAB014E5F5F4F5A8349836091AF0615
:1045A0007091B0066A517109072E000C880B990BA7
:1045B0000E94921E5B015DE0A50EB11C6091AD06EC
:1045C0007091AE0664507109072E000C880B990B90
:1045D0000E94921E3B0122E0620E711C89819A8129
:1045E000861997098C010F5F1F4F94012A193B0907
:1045F00029014FEF441A540A17FF05C08C0100959A
:10460000109569807A8057FE04C029014094509427
:104610005401C8010A979A878987430195E0890E5A
:10462000911C49855A85B501C4010E94000A950173
:10463000240D351D3A832983B901615071094985DB
:104640005A85C4010E94000A3AE0431A510845E025
:10465000A40EB11CA201B501C3010E943B09060DC5
:10466000171DA201B501C80101970E943B0921E075
:1046700045E050E0B501C4010E940A0E0650110940
:1046800022E045E050E0B501C8010E940A0E898190
:104690009A8106979A83898324E045E050E0BC0123
:1046A000C8010E940A0E28E045E050E069817A8145
:1046B000C4010E940A0E91E0291A310809F024CFA2
:1046C0000E94CB052D813E814F815885621B730B63
:1046D000840B950B2B960FB6F894DEBF0FBECDBFA3
:1046E000DF91CF911F910F91FF90EF90DF90CF90CE
:1046F000BF90AF909F908F907F906F905F904F9002
:104700003F902F9008954F925F926F927F928F9279
:104710009F92AF92BF92CF92DF92EF92FF92CF9390
:10472000DF93CDB7DEB72A970FB6F894DEBF0FBE82
:10473000CDBF0E94CB056D837E838F83988726E94A
:1047400030E03A872987412C512C32014A940E944B
:104750002E314B015C010E942E316B017C010E94C5
:104760002E3169837A838B839C83C501B401A301B5
:1047700092010E948132B62EC701B601A3019201B7
:104780000E948132F62E69817A818B819C81A301FE
:1047900092010E948132862F4B2D6F2D0E9467055A
:1047A0006091AF067091B00668517109072E000C38
:1047B000880B990B0E94921E4B016091AD0670917F
:1047C000AE0664507109072E000C880B990B0E94ED
:1047D000921E6B016091AF067091B006685171092D
:1047E000072E000C880B990B0E94921E69837A8316
:1047F0008B839C836091AD067091AE066450710905
:10480000072E000C880B990B0E94921E9401245FC6
:104810003F4FA6014E5F5F4FE981FA813C96CB0185
:104820000296BF010E94160A49855A8541505109D6
:104830005A874987452B09F08ACF0E94CB052D81E5
:104840003E814F815885621B730B840B950B2A9612
:104850000FB6F894DEBF0FBECDBFDF91CF91FF90B2
:10486000EF90DF90CF90BF90AF909F908F907F9010
:104870006F905F904F9008954F925F926F927F92EA
:104880008F929F92AF92BF92CF92DF92EF92FF9260
:10489000CF93DF93CDB7DEB72A970FB6F894DEBF7C
:1048A0000FBECDBF0E94CB056D837E838F8398871B
:1048B0002CE231E03A872987412C512C32014A946D
:1048C0000E942E314B015C010E942E316B017C0154
:1048D0000E942E3169837A838B839C83C501B40146
:1048E000A30192010E948132B62EC701B601A30135
:1048F00092010E948132F62E69817A818B819C819E
:10490000A30192010E948132862F4B2D6F2D0E94B0
:1049100067056091AF067091B00668517109072E66
:10492000000C880B990B0E94921E4B016091AD0602
:104930007091AE0664507109072E000C880B990B1C
:104940000E94921E6B016091AF067091B006685193
:104950007109072E000C880B990B0E94921E698327
:104960007A838B839C836091AD067091AE06645010
:104970007109072E000C880B990B0E94921E94015E
:10498000245F3F4FA6014E5F5F4FE981FA813C965D
:10499000CB010296BF010E94860D49855A85415080
:1049A00051095A874987452B09F08ACF0E94CB05C8
:1049B0002D813E814F815885621B730B840B950BB3
:1049C0002A960FB6F894DEBF0FBECDBFDF91CF9110
:1049D000FF90EF90DF90CF90BF90AF909F908F901F
:1049E0007F906F905F904F9008954F925F926F927B
:1049F0007F928F929F92AF92BF92CF92DF92EF926F
:104A0000FF92CF93DF93CDB7DEB72A970FB6F89416
:104A1000DEBF0FBECDBF0E94CB0569837A838B8337
:104A20009C8320E137E23A872987C12CD12C76017B
:104A3000CA940E942E312B013C010E942E314B0161
:104A40005C010E942E316D837E838F839887C30122
:104A5000B201A70196010E948132762EC501B401F0
:104A6000A70196010E948132B62E6D817E818F81D1
:104A70009885A70196010E948132862F472D6B2DC4
:104A80000E9467056091AF067091B0066851710988
:104A9000072E000C880B990B0E94921E4B0160910F
:104AA000AD067091AE0664507109072E000C880B9C
:104AB000990B0E94921E3CE0830E911CCB01029642
:104AC000B4010E947C0D49855A85415051095A878D
:104AD0004987452B09F0ADCF0E94CB0529813A814A
:104AE0004B815C81621B730B840B950B2A960FB66E
:104AF000F894DEBF0FBECDBFDF91CF91FF90EF9056
:104B0000DF90CF90BF90AF909F908F907F906F90ED
:104B10005F904F9008952F923F924F925F926F92C5
:104B20007F928F929F92AF92BF92CF92DF92EF923D
:104B3000FF920F931F93CF93DF9300D000D000D04C
:104B40001F92CDB7DEB72DB73EB73F832E8380913E
:104B5000AD069091AE0602974DB75EB7481B590B54
:104B60000FB6F8945EBF0FBE4DBF8DB79EB70196CE
:104B70009D838C830E94CB054B015C014FEF60E06D
:104B800080E00E9467054091AF065091B006485101
:104B900051098091AD069091AE0697FD01969595CD
:104BA00087956CE070E001970E943B094091AD064B
:104BB0005091AE06425051096091AF067091B00617
:104BC00077FF02C06F5F7F4F7595679561507109E0
:104BD00081E090E00E94000A01E010E091E09983FA
:104BE0008091AD069091AE06E4E1E89F9001E99FC7
:104BF000300D1124021713070CF095C0F981FF5FE7
:104C0000F9839C0121503109F217130611F421E0B8
:104C100029833981232E312C9101215031094C8176
:104C20005D81420F531F5B834A83081719070CF1FC
:104C3000FA01C080D12C97FD019695958795019733
:104C40008215930569F08091AF069091B00697FDAB
:104C5000019695958795019740E08C159D0509F47F
:104C60004FEF60E080E00E946705B601C1010E943D
:104C70007C0D4FEF60E48FEF0E946705B801012EB5
:104C8000000C880B990B0E9488312DEC3CEC4CEC0D
:104C90005FE30E94C33123EC35EF48E450E40E9407
:104CA000C33120E030E044E353E40E948D330E949E
:104CB00074342B013C016091AF067091B00677FF10
:104CC00002C06F5F7F4F7595679561507109072E20
:104CD000000C880B990B0E9488316B017C01C80184
:104CE0006CE97FEF0E9406356F5B7F4F072E000C4B
:104CF000880B990B0E948831A30192010E94C33155
:104D00009B01AC01C701B6010E941C330E9406340E
:104D1000D62E70E0C1010E947C0DEA81FB81D08219
:104D20000F5F1F4F5DCF0E94CB05681979098A0973
:104D30009B092E813F810FB6F8943EBF0FBE2DBF59
:104D400027960FB6F894DEBF0FBECDBFDF91CF918F
:104D50001F910F91FF90EF90DF90CF90BF90AF9099
:104D60009F908F907F906F905F904F903F902F908B
:104D700008954F925F926F927F928F929F92AF921F
:104D8000BF92CF92DF92EF92FF920F931F93CF9338
:104D9000DF9300D000D000D0CDB7DEB70E94CB05A6
:104DA0004B015C014FEF60E080E00E94670540919D
:104DB000AF065091B006485151098091AD069091CF
:104DC000AE0697FD0196959587956CE070E001978A
:104DD0000E943B094091AD065091AE0642505109E8
:104DE0006091AF067091B00677FF02C06F5F7F4F92
:104DF000759567956150710981E090E00E94000A05
:104E00000AE010E0EE24E394F12CA4E1CA2ED12CA8
:104E10002091AF063091B006E091AD064091AE060C
:104E2000C9018097B6010E9406356E157F05B8F15D
:104E3000B90137FF02C06F5F7F4F7595679561506D
:104E40007109601B710B8E2F942F97FD019695951C
:104E5000879545E050E003970E94000A6091AF06F5
:104E60007091B00677FF02C06F5F7F4F75956795B1
:104E700061507109600F711F8091AD069091AE066F
:104E800097FD01969595879545E050E003970E9420
:104E9000000A8FEFE81AF80A065F1F4FB9CF0AE041
:104EA00010E0EE24E394F12CB4E1CB2ED12C209130
:104EB000AD063091AE06C9010297B6010E940635D3
:104EC0006E157F05C8F16091AF067091B00677FF4F
:104ED00002C06F5F7F4F7595679563507109C90177
:104EE00037FD019695958795019745E050E0801B29
:104EF000910B0E943B096091AF067091B00677FF5D
:104F000002C06F5F7F4F75956795635071098091FF
:104F1000AD069091AE0697FD019695958795019700
:104F200045E050E0800F911F0E943B098FEFE81A87
:104F3000F80A065F1F4FBBCF4FEF6FEF80E00E9474
:104F400073051092A2061092A10681E08093A50637
:104F50001092A60664E971E0CE0101960E94A81D98
:104F600041E150E065E070E0CE0101960E94031D32
:104F7000CE0101960E94A01D4FEF6FEF80E00E94CE
:104F8000670501E010E08091AD069091AE060297B2
:104F90000817190708F045C0B80190E080E00E94AA
:104FA00086312EEA37E441E150E40E94C33123EC1C
:104FB00035EF48E450E40E94C33120E030E044E3A0
:104FC00053E40E948D330E9474346B017C01609124
:104FD000AF067091B00677FF02C06F5F7F4F759587
:104FE000679561507109072E000C880B990B0E9480
:104FF00088312B013C0120E030E040E752E4C7015A
:10500000B6010E94C3319B01AC01C301B2010E94F1
:105010001C330E94FF33C8010E947C0D0F5F1F4F9D
:10502000B2CF40E06FEF80E00E9473051092A206BD
:105030001092A10681E08093A5061092A60668E969
:1050400071E0CE0101960E94A81D49E150E065E0A3
:1050500070E0CE0101960E94031DCE0101960E94D0
:10506000A01D40E06FEF80E00E94670501E010E0C6
:105070008091AD069091AE0602970817190708F0C7
:1050800045C0B80190E080E00E9486312EEA37E406
:1050900041E150E40E94C33123EC35EF48E450E491
:1050A0000E94C33120E030E044E353E40E948D339A
:1050B0000E9488336B017C016091AF067091B0064D
:1050C00077FF02C06F5F7F4F7595679561507109DB
:1050D000072E000C880B990B0E9488312B013C0194
:1050E00020E030E040E752E4C701B6010E94C3313E
:1050F0009B01AC01C301B2010E941C330E94FF332B
:10510000C8010E947C0D0F5F1F4FB2CF40E06FEFD0
:105110008FEF0E9473051092A2061092A10681E003
:105120008093A5061092A6066CE971E0CE01019667
:105130000E94A81D41E250E065E070E0CE010196BA
:105140000E94031DCE0101960E94A01D40E06FEF5A
:105150008FEF0E94670501E010E08091AD0690910D
:10516000AE0602970817190708F045C0B80190E08D
:1051700080E00E9486312EEA37E441E150E40E944B
:10518000C33123EC35EF48E450E40E94C33120E002
:1051900030E044E353E40E948D330E947C346B0181
:1051A0007C016091AF067091B00677FF02C06F5F1F
:1051B0007F4F7595679561507109072E000C880B1C
:1051C000990B0E9488312B013C0120E030E040E83F
:1051D00050E4C701B6010E94C3319B01AC01C30179
:1051E000B2010E941C330E94FF33C8010E947C0D53
:1051F0000F5F1F4FB2CF40E060E08FEF0E9473055A
:105200001092A2061092A10681E08093A50610924A
:10521000A60660EA71E0CE0101960E94A81D49E24F
:1052200050E065E070E0CE0101960E94031DCE01C2
:1052300001960E94A01D40E060E08FEF0E9467058C
:1052400001E010E08091AD069091AE06029708173C
:10525000190708F04DC0B80190E080E00E94863147
:105260002EEA37E441E150E40E94C33123EC35EFEC
:1052700048E450E40E94C33120E030E044E353E4CA
:105280000E948D330E947C346B017C016091AF06DB
:105290007091B00677FF02C06F5F7F4F759567957D
:1052A00061507109072E000C880B990B0E94883100
:1052B0002B013C0120E030E040E85EE3C701B6018D
:1052C0000E94C3319B01AC0160E070E080E89FE385
:1052D0000E948D339B01AC01C301B2010E941C33BB
:1052E0000E94FF33C8010E947C0D0F5F1F4FAACFA1
:1052F0000E94CB05681979098A099B0926960FB681
:10530000F894DEBF0FBECDBFDF91CF911F910F91FB
:10531000FF90EF90DF90CF90BF90AF909F908F90D5
:105320007F906F905F904F9008951F920F920FB6ED
:105330000F9211242F933F938F939F93AF93BF931B
:105340008091910690919206A0919306B091940657
:105350003091900623E0230F2D3758F50196A11DBB
:10536000B11D209390068093910690939206A0938E
:105370009306B09394068091950690919606A0911D
:105380009706B09198060196A11DB11D80939506D0
:1053900090939606A0939706B0939806BF91AF910D
:1053A0009F918F913F912F910F900FBE0F901F9063
:1053B000189526E8230F0296A11DB11DD2CFCF93D9
:1053C000DF9390E0FC01EE52FF4F249182549F4FF7
:1053D000FC0184918823D1F090E0880F991FFC0193
:1053E000E655FF4FA591B491FC01EC54FF4FC591D8
:1053F000D49161110EC09FB7F8948C91E22FE09583
:105400008E238C932881E223E8839FBFDF91CF9185
:1054100008958FB7F894EC91E22BEC938FBFF6CF01
:10542000CF93DF93CDB7DEB7EC970FB6F894DEBF1E
:105430000FBECDBF789484B5826084BD84B5816091
:1054400084BD85B5826085BD85B5816085BD80914F
:105450006E00816080936E001092810080918100C7
:1054600082608093810080918100816080938100BF
:10547000809180008160809380008091B100846081
:105480008093B1008091B00081608093B0008091E2
:105490007A00846080937A0080917A0082608093A1
:1054A0007A0080917A00816080937A0080917A00FE
:1054B000806880937A001092C1000E94FD0680915E
:1054C000E60687FD03C061E00E947F058091B50676
:1054D0009091B606019609F045C060E084E090E046
:1054E0000E943907892B21F561E084E090E00E9459
:1054F000390781159048E1F480910A0190910B01E0
:10550000A0910C0189839A83AB8323E0AE014F5FA6
:105510005F4F69EB89E996E00E94111060E080ED31
:1055200090E00E94390761E080ED90E00E94390729
:1055300061E083ED90E00E943907813443E99407EC
:1055400069F0863854E9950749F08838A4E99A0744
:1055500029F060E090E080E00E9439079093B60661
:105560008093B5060091B5061091B6060E94FD061F
:1055700068EC70E080E090E00E94F0050532B2E94E
:105580001B0709F4C4C308F05DC00537F5E71F0722
:1055900009F438C380F4063031E1130709F47DC4FF
:1055A0000338124109F43AC48FEF90E09093B406A7
:1055B0008093B3068EC0053357E7150709F4E4C39B
:1055C0000039104989F783E090E09093B406809306
:1055D000B3068AE290E09093B9068093B8068BE216
:1055E00090E09093BB068093BA068CE290E0909393
:1055F000BD068093BC068EE290E09093BF06809338
:10560000BE0683E390E09093C1068093C00687E3D3
:1056100090E09093C3068093C20686E390E0909357
:10562000C5068093C40681E090E09093C7068093FE
:10563000C6069093C9068093C80666E470E08DEBB9
:1056400093E0DDC2013493E9190709F49AC208F026
:105650004EC20532B3E91B0721F00832134909F0A5
:10566000A3CF1092B4061092B3061092B90610920E
:10567000B8061092BB061092BA0682E290E09093B0
:10568000BD068093BC069093BF068093BE0681E65C
:1056900090E09093C1068093C0068AE690E09093D4
:1056A000C3068093C20683E090E09093C506809382
:1056B000C40681E090E09093C7068093C6061092DE
:1056C000C9061092C8066CEC70E08DE794E00E9469
:1056D000DB068091B1060E941015E091CC06F09196
:1056E000CD0680819091DB06892380830091C606D8
:1056F0001091C7062091B3063091B406E091CE0612
:10570000F091CF068091DC062115310509F0FAC32E
:1057100090818923808361E689E996E00E9454069E
:10572000E091CE06F091CF0680819091D706892B2B
:105730008083602F89E996E00E945406E091CC06B0
:10574000F091CD0680819091D606892B80830E94AE
:10575000A50C81E00E9410150DE5202E01E0302EF1
:10576000DD24D39480E0882E80E0982E0E94A50C42
:105770000E94CB052B013C010FE311E0AE014F5F0E
:105780005F4F7A015A01D801ED91FD918D01099584
:10579000F50161937193819391935F0160ED77E0DF
:1057A00080E090E00E94F00540E060E080E00E9430
:1057B00067052091AF063091B0062D503109409118
:1057C000AD065091AE06425051096CE070E081E0A8
:1057D00090E00E940B0920163106A9F611E2A12ED5
:1057E00011E0B12E10E000E040E065EA8FEF0E948A
:1057F0007305D092A506D092A606D5018D919D91F4
:105800005D014091AF065091B0064056510957FFD7
:1058100002C04F5F5F4F5595479541505109400F6A
:10582000511F6091AD067091AE066857710977FF00
:1058300002C06F5F7F4F75956795615071090E9437
:10584000AC1B40E06FEF80E00E947305F7016191AF
:105850007191819191917F012091AF063091B006B5
:105860002056310937FF02C02F5F3F4F35952795EE
:1058700021503109200F311F4091AD065091AE06E5
:105880004857510957FF02C04F5F5F4F55954795E5
:105890004B5B5F4F0E94081D085F1F4F00361105CC
:1058A00009F0A2CF68E873E180E090E00E94F00583
:1058B0000E94CB059B01AC01241935094609570903
:1058C00029013A010091AF061091B0062091AD0672
:1058D0003091AE06EE24EA9487E0F82E50E040E0E6
:1058E00070E060E089E996E00E94790740E060E0BE
:1058F0008FEF0E9467056091AF067091B00677FF49
:1059000002C06F5F7F4F759567958091AD0690914E
:10591000AE0697FD0196959587959B01255D3F4FB6
:10592000AC014A5B5F4F6D527109885491090E9426
:10593000440C4FEF6FEF80E00E947305D092A506F4
:10594000D092A6064091AF065091B00657FF02C014
:105950004F5F5F4F559547958A010F51110964EAD2
:1059600071E0CE0101960E94A81DA8016EE077E2C9
:10597000CE0101960E94031DCE0101960E94A01D3A
:105980004091AF065091B00657FF02C04F5F5F4F86
:10599000559547958A010551110962EB71E0CE01D9
:1059A00001960E94A81DA8016EE077E2CE01019643
:1059B0000E94031DCE0101960E94A01D4091AF06DA
:1059C0005091B00657FF02C04F5F5F4F5595479506
:1059D0008A010B5011096DEB71E0CE0101960E9416
:1059E000A81DA8016EE077E2CE0101960E94031D7A
:1059F000CE0101960E94A01D4091AF065091B006C5
:105A000057FF02C04F5F5F4F559547958A01015080
:105A100011096EEC71E0CE0101960E94A81DA8014B
:105A20006EE077E2CE0101960E94031DCE01019641
:105A30000E94A01D40E06FEF8FEF0E947305E09081
:105A4000AF06F090B006F7FE03C03FEFE31AF30A8B
:105A5000F594E79448E1E40EF11C0091AD06109135
:105A6000AE0617FF02C00F5F1F4F159507950D5328
:105A700011096EED71E0CE0101960E94A81DA701EB
:105A8000B801CE0101960E94031DCE0101960E942D
:105A9000A01D40E06FEF80E00E9473052091AF06EB
:105AA0003091B00637FF02C02F5F3F4F35952795E5
:105AB000285E3F4F4091AD065091AE0657FF02C0A1
:105AC0004F5F5F4F55954795445F5F4FC301B201EC
:105AD0000E94081D60E177E280E090E00E94F005FE
