:100000000C947B000C94A3000C94A3000C94860821
:100010000C9486080C9486080C94A3000C94A300FE
:100020000C94A3000C94A3000C94A3000C94A300C4
:100030000C94A3000C94A3000C94A3000C94A300B4
:100040000C943C080C94A3000C940A080C94E4074C
:100050000C94A3000C94A3000C94A3000C94A30094
:100060000C94A3000C94A3000000000800020100FF
:1000700000030407000000000000000053746172D8
:10008000742072656164696E67205348544333205D
:100090004D6F6462757320284853484F50290025DE
:1000A00000C2B0460900C2B04309000000000023AE
:1000B000002600290000000000240027002A00007C
:1000C000000000250028002B00040404040404049C
:1000D00004020202020202030303030303010204F7
:1000E00008102040800102040810200102040810BA
:1000F00020004A09890C11241FBECFEFD8E0DEBFD3
:10010000CDBF25E0AAE8B4E001C01D92A93AB2072C
:10011000E1F714E0A0E0B1E0E4E8F0E202C005900D
:100120000D92AA38B107D9F710E0CAE7D0E004C0B1
:100130002197FE010E940A0FC937D107C9F70E9413
:100140006E0A0C9435100C940000CF92DF92EF925F
:10015000FF92CF93DF93EC016A017B01E889F98973
:1001600082E08083C11481EED806E104F104A1F09D
:1001700060E079E08DE390E0A70196010E94C90E4E
:1001800021503109410951095695479537952795D1
:10019000211580E1380798F0E889F989108260E834
:1001A00074E88EE190E0A70196010E94C90E2150EB
:1001B0003109410951095695479537952795EC85A1
:1001C000FD853083EE85FF852083188EEC89FD89BF
:1001D00086E08083EA89FB89808180618083EA8967
:1001E000FB89808188608083EA89FB8980818068BF
:1001F0008083EA89FB8980818F7D8083DF91CF9125
:10020000FF90EF90DF90CF900895CF93DF93803CE5
:1002100022E19207C9F0803825E29207C9F08036C2
:1002200029E09207B9F41092A1052091A0052111AF
:1002300013C0AC0170E060E080919E0590919F0535
:10024000DF91CF910C94A50021E02093A105EDCF83
:1002500022E0FBCF2FEFF9CF213009F087C0C0910A
:100260009E05D0919F051B8E1A8E198E188E1F8A9F
:100270001E8A9C0150E040E060E079E08DE390E070
:100280000E94EB0EC90103979D8F8C8F6C856631A0
:1002900008F047C0C9019695879543979F8B8E8B31
:1002A000C9010597998F888FC901880F991F280F59
:1002B000391F36952795369527952C5031093B8F58
:1002C0002A8F9091680084E0683048F021E06E3019
:1002D00008F420E081E001C0880F2A95EAF7892B15
:1002E000809368009C852DE630E0983050F02BE636
:1002F00030E09E3030F02CE630E0963110F030E007
:1003000020E03C8B2B8B292F30E0983090F581E05A
:1003100001C0880F9A95EAF78D8B8C8D9D8D019782
:10032000F1F78A8D9B8D892B09F1E091D504F0912D
:10033000D604CE17DF07D1F0309739F0A389B489FE
:100340009C918589809589238C938E8D8E7F8E8F4D
:100350001092D4041092D304D093D604C093D50441
:10036000EB89FC8980819D89892B8083DF91CF91E6
:1003700008959E3040F42850310981E001C0880F73
:100380002A95EAF7C9CF2E503109F7CFAF92BF9225
:10039000CF92DF92EF92FF920F931F93CF93DF9351
:1003A0006C017B018B01040F151FEB015E01AE1880
:1003B000BF08C017D10759F06991D601ED91FC91A2
:1003C0000190F081E02DC6010995892B79F7C501CF
:1003D000DF91CF911F910F91FF90EF90DF90CF9021
:1003E000BF90AF900895FC01538D448D252F30E0D0
:1003F000842F90E0821B930B541710F0CF96089532
:1004000001970895FC01918D828D981761F0A28D5E
:10041000AE0FBF2FB11D5D968C91928D9F5F9F7324
:10042000928F90E008958FEF9FEF0895FC01918DDA
:10043000828D981731F0828DE80FF11D858D90E047
:1004400008958FEF9FEF0895FC01918D228D892FE4
:1004500090E0805C9F4F821B91098F7399270895CC
:1004600087ED94E00E94240221E0892B09F420E02A
:10047000822F089580E090E0892B29F00E943002BD
:1004800081110C9400000895FC01A48DA80FB92FD0
:10049000B11DA35ABF4F2C91848D90E001968F73AC
:1004A0009927848FA689B7892C93A089B1898C91CB
:1004B000837080648C93938D848D981306C002881A
:1004C000F389E02D80818F7D80830895EF92FF92E4
:1004D0000F931F93CF93DF93EC0181E0888F9B8D67
:1004E0008C8D98131AC0E889F989808185FF15C021
:1004F0009FB7F894EE89FF896083E889F989808144
:100500008370806480839FBF81E090E0DF91CF9112
:100510001F910F91FF90EF900895F62E0B8D10E034
:100520000F5F1F4F0F731127E02E8C8D8E110CC0A3
:100530000FB607FCFACFE889F989808185FFF5CFEE
:10054000CE010E944402F1CFEB8DEC0FFD2FF11D87
:10055000E35AFF4FF0829FB7F8940B8FEA89FB892B
:1005600080818062CFCF0F931F93CF93DF938C0155
:10057000D0E0C0E0F801EC0FFD1F6491662341F06C
:1005800087ED94E00E946602892B11F02196F2CF4C
:10059000CE01DF91CF911F910F910895CF93DF93FB
:1005A000EC01888D8823B9F0AA89BB89E889F9898B
:1005B0008C9185FD03C0808186FD0DC00FB607FCC0
:1005C000F7CF8C9185FFF2CF808185FFEDCFCE01F3
:1005D0000E944402E9CFDF91CF9108953FB7F8948C
:1005E0008091CF049091D004A091D104B091D20415
:1005F00026B5A89B05C02F3F19F00196A11DB11D7E
:100600003FBFBA2FA92F982F8827BC01CD01620FB9
:10061000711D811D911D42E0660F771F881F991F74
:100620004A95D1F708958F929F92AF92BF92CF9241
:10063000DF92EF92FF924B015C010E94EE026B0190
:100640007C010E94EE026C197D098E099F09683EAB
:10065000734081059105A8F321E0821A9108A10851
:10066000B10888EEC80E83E0D81EE11CF11C81148D
:100670009104A104B10429F7FF90EF90DF90CF908F
:10068000BF90AF909F908F9008952FB7F89460918E
:10069000CB047091CC048091CD049091CE042FBFF7
:1006A00008958F929F92AF92BF92CF92DF92EF9276
:1006B000FF920F931F93CF93DF93EC016A017B01AD
:1006C00010E000E00E944503688779878A879B874E
:1006D000E881F9810284F385E02DCE01099597FF29
:1006E00021C00E94450388849984AA84BB84681928
:1006F00079098A099B098C809D80AE80BF8068152E
:1007000079058A059B0520F3C801DF91CF911F91E0
:100710000F91FF90EF90DF90CF90BF90AF909F90A0
:100720008F900895F70181937F010F5F1F4FC016CF
:10073000D10641F6E9CF2091D5043091D60428178F
:10074000390771F49091D3048091D404981741F043
:10075000E091D304F0E0E657FB4F808190E00895EC
:100760008FEF9FEF08950895EF92FF920F931F93DD
:10077000CF93DF93DC015C96ED90FC905D97E114E4
:10078000F10479F481E090E013969C938E93129794
:1007900090E080E0DF91CF911F910F91FF90EF905B
:1007A00008955196ED91FC91529750968C915097E7
:1007B000982F90950FB75E962C915E97122F12701E
:1007C00021FD6095F8942081112319F1282B2083B5
:1007D000E7012197F1F728E0462F50E0308160FFD4
:1007E0001AC0382B3083E7012197F1F7BA017595CC
:1007F0006795215089F7112381F0808189238083B7
:100800000FBF5C968D919C910197F1F781E090E08C
:10081000C1CF2923DCCF3923E5CF9081892BEFCFBE
:100820002091D5043091D6042817390761F48091BE
:10083000D4042091D30490E0805C9F4F821B9109E7
:100840008F739927089590E080E008952091D50452
:100850003091D60428173907B9F49091D3048091C8
:10086000D404981789F0E091D304F0E0E657FB4FE9
:1008700080812091D30430E02F5F3F4F2F733327C7
:100880002093D30490E008958FEF9FEF089590E0B8
:1008900080E00895DC019FEF8FEF615068F02D91AB
:1008A000292730E0F901E25DFD4F90819827F90199
:1008B000E25DFE4F8081F1CF89279827892708952F
:1008C000CF92DF92EF92FF920F931F93CF93DF931C
:1008D00000D000D000D01F92CDB7DEB780919E052A
:1008E00090919F05DC01ED91FC910084F185E02D54
:1008F000099500919E0510919F05892B49F0D8011B
:10090000ED91FC910284F385E02DC8010995E6CFB5
:100910008091A2058093860566E086E895E00E94B6
:100920004A0480938C0590938D05D801ED91FC913C
:100930000280F381E02D48E050E066E875E0C801F0
:1009400009950E9445036B017C010E944503AB01A0
:10095000BC014C195D096E097F098091A305909136
:10096000A405B0E0A0E0481759076A077B0788F0A4
:1009700090E080E027960FB6F894DEBF0FBECDBFA3
:10098000DF91CF911F910F91FF90EF90DF90CF906B
:10099000089580919E0590919F05DC01ED91FC9159
:1009A0000084F185E02D0995892B79F247E050E02C
:1009B000BE016F5F7F4F80919E0590919F050E94C1
:1009C000510367E0CE0101960E944A04009781F628
:1009D0002D81213061F030F0223071F02FEF209323
:1009E000A105C8CF1092A10580E699E0C3CF20935E
:1009F000A10580EC92E1BECF2093A10580E895E2AD
:100A0000B9CFCF92DF92EF92FF92CF93DF9300D0D6
:100A100000D000D01F92CDB7DEB780919E05909197
:100A20009F05DC01ED91FC910084F185E02D099595
:100A3000A0919E05B0919F05ED91FC911197892B96
:100A400031F00284F385E02DCD010995E6CF0280D7
:100A5000F381E02D48E050E066E975E0CD010995AD
:100A60000E9445036B017C010E944503AB01BC0160
:100A70004C195D096E097F098091A3059091A40529
:100A8000B0E0A0E0481759076A077B0770F080E0E4
:100A900027960FB6F894DEBF0FBECDBFDF91CF9182
:100AA000FF90EF90DF90CF90089580919E059091F8
:100AB0009F05DC01ED91FC910084F185E02D099505
:100AC000892B91F247E050E0BE016F5F7F4F80912C
:100AD0009E0590919F050E94510367E0CE0101960B
:100AE0000E944A04892B99F68D818093A205D0CF6C
:100AF000CF92DF92EF92FF920F931F93CF93DF93EA
:100B0000CDB7DEB728970FB6F894DEBF0FBECDBFC6
:100B100080919E0590919F05DC01ED91FC910084F0
:100B2000F185E02D099500919E0510919F05892B77
:100B300049F0D801ED91FC910284F385E02DC801C4
:100B40000995E6CF8091A20580937E0580EC809385
:100B5000830566E08EE795E00E944A048093840551
:100B600090938505D801ED91FC910280F381E02DF1
:100B700048E050E06EE775E0C80109950E94450322
:100B80006B017C010E944503AB01BC014C195D095E
:100B90006E097F098091A3059091A405B0E0A0E0C3
:100BA000481759076A077B0780F080E028960FB640
:100BB000F894DEBF0FBECDBFDF91CF911F910F9193
:100BC000FF90EF90DF90CF90089580919E059091D7
:100BD0009F05DC01ED91FC910084F185E02D0995E4
:100BE000892B81F248E050E0BE016F5F7F4F80911A
:100BF0009E0590919F050E94510368E0CE010196E9
:100C00000E944A04892B89F68E818093A10581E098
:100C1000CDCFCF92DF92EF92FF920F931F93CF939E
:100C2000DF93CDB7DEB728970FB6F894DEBF0FBEBF
:100C3000CDBF80919E0590919F05DC01ED91FC91C7
:100C40000084F185E02D099500919E0510919F0586
:100C5000892B49F0D801ED91FC910284F385E02DB8
:100C6000C8010995E6CF8091A20580938E0581E0A9
:100C70008093930566E08EE895E00E944A04809395
:100C8000940590939505D801ED91FC910280F38134
:100C9000E02D48E050E06EE875E0C80109950E943B
:100CA00045036B017C010E944503AB01BC014C195B
:100CB0005D096E097F098091A3059091A405B0E0BC
:100CC000A0E0481759076A077B0780F080E0289664
:100CD0000FB6F894DEBF0FBECDBFDF91CF911F914D
:100CE0000F91FF90EF90DF90CF90089580919E0537
:100CF00090919F05DC01ED91FC910084F185E02D40
:100D00000995892B81F248E050E0BE016F5F7F4F6B
:100D100080919E0590919F050E94510368E0CE014D
:100D200001960E944A04892B89F68E818093A20540
:100D300081E0CDCFFC0101900020E9F73197AF01B0
:100D4000481B590BBC0187ED94E00C94C6018F92AF
:100D50009F92AF92BF920F931F93CF93DF93CDB724
:100D6000DEB7A1970FB6F894DEBF0FBECDBF19A2B4
:100D7000423008F44AE08E010F5D1F4F842E912C03
:100D8000B12CA12CA50194010E94C90EE62FB90136
:100D9000CA01EA30F4F4E05DD801EE938D01232B13
:100DA000242B252B79F790E080E0109719F0CD01E6
:100DB0000E949A06A1960FB6F894DEBF0FBECDBF73
:100DC000DF91CF911F910F91BF90AF909F908F9027
:100DD0000895E95CE1CF4F925F926F927F928F927C
:100DE0009F92AF92BF92CF92DF92EF92FF920F93BA
:100DF0001F93CF936B017C01742EAC019B010E9469
:100E0000C40E882399F08AE593E0CF911F910F914A
:100E1000FF90EF90DF90CF90BF90AF909F908F901A
:100E20007F906F905F904F900C949A064601570107
:100E3000E894B7F82FEF3FEF4FE75FE7C501B40144
:100E40000E94C40E81110DC02FEF3FEF4FE75FE707
:100E5000C501B4010E948D0C18161CF48EE593E0B8
:100E6000D4CF2FEF3FEF4FE75FE4C701B6010E94F9
:100E7000BF0E18161CF482E693E0C7CF2FEF3FEFAA
:100E80004FE75FECC701B6010E948D0C87FDF3CFE1
:100E900020E030E0A901C701B6010E948D0C10E0EE
:100EA00000E087FF0AC06DE287ED94E00E946602D1
:100EB0008C01F7FAF094F7F8F094C0E060E070E08D
:100EC00080E09FE37C1641F020E030E040E251E416
:100ED0000E941E0ECF5FF6CFA70196010E94B20DB1
:100EE0002B013C010E94900E4B015C014AE00E94E4
:100EF000A7067C01E00EF11ECC23C1F1C501B401AF
:100F00000E94920C9B01AC01C301B2010E94B10D81
:100F10004B015C016EE287ED94E00E946602E80EF0
:100F2000F91EC15018F120E030E040E251E4C50163
:100F3000B4010E94F30C2B013C010E94900E4B0166
:100F4000B12CA12C4AE0C501B4010E94A706E80E0D
:100F5000F91EC501B4010E94920C9B01AC01C301B2
:100F6000B2010E94B10D4B015C01DBCFC701CF91F3
:100F70001F910F91FF90EF90DF90CF90BF90AF90B7
:100F80009F908F907F906F905F904F900895CF9338
:100F9000DF930E949A06EC0186E693E00E949A068F
:100FA0008C0F9D1FDF91CF910895FC0182A593A521
:100FB0000C94AC0FCF93DF93EC010E94D507CE01C8
:100FC000DF91CF910C94AC0F1F920F920FB60F923E
:100FD00011242F933F934F935F936F937F938F933E
:100FE0009F93AF93BF93EF93FF9387ED94E00E949D
:100FF0004402FF91EF91BF91AF919F918F917F91AB
:101000006F915F914F913F912F910F900FBE0F9075
:101010001F9018951F920F920FB60F9211242F93C5
:101020008F939F93EF93FF93E091E704F091E8048F
:101030008081E091ED04F091EE0482FD1BC090816F
:101040008091F0048F5F8F732091F104821741F03B
:10105000E091F004F0E0E952FB4F958F8093F004AB
:10106000FF91EF919F918F912F910F900FBE0F9055
:101070001F9018958081F4CF1F920F920FB60F9298
:1010800011242F933F938F939F93AF93BF9380919E
:10109000CB049091CC04A091CD04B091CE043091BA
:1010A000CA0423E0230F2D3758F50196A11DB11D69
:1010B0002093CA048093CB049093CC04A093CD04D6
:1010C000B093CE048091CF049091D004A091D1042C
:1010D000B091D2040196A11DB11D8093CF049093CD
:1010E000D004A093D104B093D204BF91AF919F914B
:1010F0008F913F912F910F900FBE0F901F901895D9
:1011000026E8230F0296A11DB11DD2CF1F920F9288
:101110000FB60F9211242F933F934F935F936F93CA
:101120007F938F939F93AF93BF93EF93FF93E09140
:10113000D504F091D604309749F0A685B78585850A
:10114000968D91FF14C09C918923A1F4FF91EF919A
:10115000BF91AF919F918F917F916F915F914F91CF
:101160003F912F910F900FBE0F901F9018959C915B
:10117000892361F7A389B4899C9185898095892306
:101180008C93868997890197F1F7608D718DA6857B
:10119000B785558538E020E0CB010197F1F7822F24
:1011A00090E095958795282F4C91452309F020686C
:1011B000315091F7868D81FD20958091D40490E087
:1011C00001968F7399273091D304381799F0A09125
:1011D000D404B0E0A657BB4F2C938093D404828DE7
:1011E000938D0197F1F7A389B4898C919589892B07
:1011F0008C93ACCF868D8160868FF1CF90E0FC011F
:10120000E859FF4F2491FC01E352FF4F3491FC0158
:10121000E753FF4FE491EE23C9F0222339F0233046
:1012200001F1A8F4213019F1223029F1F0E0EE0F9C
:10123000FF1FE154FF4FA591B4918FB7F894EC9143
:10124000611126C030953E233C938FBF089527300F
:10125000A9F02830C9F0243049F7809180008F7DB3
:1012600003C0809180008F7780938000DFCF84B5AA
:101270008F7784BDDBCF84B58F7DFBCF8091B000AD
:101280008F778093B000D2CF8091B0008F7DF9CF5F
:101290003E2BDACFCF92DF92EF92FF920F931F9304
:1012A000CF93DF931092DA041092D904E8EECE2E99
:1012B000E3E0DE2EE12CF12CC092DB04D092DC04C2
:1012C000E092DD04F092DE0482E393E09093D80490
:1012D0008093D70485EC90E09093E4048093E3043A
:1012E00084EC90E09093E6048093E50480EC90E039
:1012F0009093E8048093E70481EC90E09093EA04F3
:101300008093E90482EC90E09093EC048093EB04EA
:1013100086EC90E09093EE048093ED041092F0043C
:101320001092F1041092F2041092F30486E593E017
:10133000909375058093740588E0E6E0F1E0A6E7F8
:10134000B5E001900D928A95E1F788E0EEE0F1E0DA
:10135000AEE7B5E001900D928A95E1F788E0E6E10D
:10136000F1E0A6E8B5E001900D928A95E1F788E0FA
:10137000EEE1F1E0AEE8B5E001900D928A95E1F77B
:1013800088E0E6E2F1E0A6E9B5E001900D928A95E9
:10139000E1F784E690E09093A4058093A3058FE1A4
:1013A00090E00E94100FEC011B821A82CC82DD8239
:1013B000EE82FF8284E493E0998388831F8A1E8AE9
:1013C000198E188E1B8E1A8E1D8E1C8E6E8D6E7F42
:1013D0006D7F6E8F6695617081E068278BE00E945B
:1013E000FE0848EE50E0FA01649184ED90E0FC01C3
:1013F0002491222399F030E0220F331FF901EB549E
:10140000FF4FA591B491F901E154FF4F259134911B
:101410002FB7F8943C91632B6C932FBFFA01449142
:10142000488BFC018491E82FF0E0EE0FFF1FE154A0
:10143000FF4F859194919A8B898B57EEE52E50E062
:10144000F52EF701249103ED10E0F8018491882333
:10145000C9F090E0880F991FFC01EB54FF4FA59154
:10146000B491FC01E154FF4F459154913FB7F8947A
:101470009C91822F809598239C93FA0190818923D7
:1014800080833FBF8E8D81FD04C061E08AE00E94B1
:10149000FE088AE08C87F701E490ED86F80104915C
:1014A000E02FF0E0EE0FFF1FE555FF4F859194917F
:1014B0009F878E87D0939F05C0939E0581E0809380
:1014C000A0058093A1058093A205DF91CF911F9184
:1014D0000F91FF90EF90DF90CF900895CF93DF931F
:1014E000CDB7DEB729970FB6F894DEBF0FBECDBFDC
:1014F000789484B5826084BD84B5816084BD85B5EF
:10150000826085BD85B5816085BD80916E008160FA
:1015100080936E00109281008091810082608093A0
:1015200081008091810081608093810080918000A2
:101530008160809380008091B10084608093B100CD
:101540008091B00081608093B00080917A008460C7
:1015500080937A0080917A00826080937A008091F3
:101560007A00816080937A0080917A00806880930D
:101570007A001092C10040E052EC61E070E087ED2B
:1015800094E00E94A5008CE790E00E94B30286E6FA
:1015900093E00E949A0664EF71E080E090E00E9480
:1015A000130380EC92E10E9405010E94010588234B
:1015B00009F45AC089E693E00E949A060E94010548
:1015C000682F70E090E080E040E10E94A70688E686
:1015D00093E00E94C7076AE070E080E090E00E941C
:1015E00013030E94090668EE73E080E090E00E9419
:1015F00013030E940105813079F40E946004803C4D
:10160000924151F48AE494E00E94C70768EE73E0C7
:1016100080E090E00E94130300E010E00E940105CA
:10162000813009F0FEC00E946004803C924109F0C4
:10163000F8C080919E0590919F05DC01ED91FC9191
:101640000084F185E02D0995E0909E05F0909F05BE
:10165000892B09F48AC0D701ED91FC910284F385AE
:10166000E02DC7010995E5CF80EA93E00E94C70706
:1016700080E699E00E9405016AE070E080E090E079
:101680000E9413030E940105882381F18EEB93E0F1
:101690000E949A060E940105682F70E090E080E0A9
:1016A00040E10E94A70688E693E00E94C70768EE23
:1016B00073E080E090E00E9413030E94090664E159
:1016C00070E080E090E00E9413030E94780564E1DE
:1016D00070E080E090E00E94130380EC92E10E94B1
:1016E000050164E170E080E090E081CF85EF93E058
:1016F0000E94C70780E895E20E9405016AE070E059
:1017000080E090E00E9413030E940105882309F401
:1017100083CF83E194E00E949A060E940105682F1E
:1017200070E090E080E040E10E94A70688E693E048
:101730000E94C70768EE73E080E090E00E94130308
:101740000E94090664EF71E080E090E00E941303BC
:101750000E9478056AE070E080E090E00E94130348
:1017600080EC92E10E94050144CF8091A205809314
:10177000760566E086E795E00E944A0480937C0542
:1017800090937D05D701ED91FC910280F381E02DCE
:1017900048E050E066E775E0C70109950E944503FF
:1017A0006B017C010E944503AB01BC014C195D0932
:1017B0006E097F098091A3059091A405B0E0A0E097
:1017C000481759076A077B07C0F1412C512C320199
:1017D000530142017301620142E0C701B6010E9458
:1017E000EB0686EA90E00E94B30242E0C501B40134
:1017F0000E94EB0681EA90E00E94B30242E0C3013E
:10180000B2010E94EB068FE990E00E94B30286E6E7
:1018100093E00E949A0668EE73E080E090E00E94F8
:1018200013030115110509F4F9CE0E943002882333
:1018300009F4F4CE0E940000F1CE80919E059091B3
:101840009F05DC01ED91FC910084F185E02D099567
:10185000892B09F4A7CF49E050E0BE016F5F7F4FAD
:1018600080919E0590919F050E94510369E0CE01F1
:1018700001960E944A04892B09F0A7CF6E817F81CF
:10188000762767277627072E000C880B990B0E9476
:10189000940C6B017C0120E030E040E057E40E94B2
:1018A000BF0E87FD0AC020E030E040E857E4C701E2
:1018B000B6010E94B10D6B017C0120E030E040E2F6
:1018C00051E4C701B6010E941E0E6B017C0126E6A1
:1018D00036E646EE5FE30E94F30C20E030E040E0A5
:1018E00052E40E94B20D4B015C016C817D81762730
:1018F00067277627072E000C880B990B0E94940C03
:1019000020E030E040E251E40E941E0E2B013C0139
:1019100063CF84E795E00C94D5070E94CF0C08F4C0
:1019200081E00895E89409C097FB3EF49095809576
:10193000709561957F4F8F4F9F4F9923A9F0F92F95
:1019400096E9BB279395F695879577956795B79513
:10195000F111F8CFFAF4BB0F11F460FF1BC06F5FF9
:101960007F4F8F4F9F4F16C0882311F096E911C00B
:10197000772321F09EE8872F762F05C0662371F02C
:1019800096E8862F70E060E02AF09A95660F771F40
:10199000881FDAF7880F9695879597F90895990F1C
:1019A0000008550FAA0BE0E8FEEF16161706E80729
:1019B000F907C0F012161306E407F50798F0621B4A
:1019C000730B840B950B39F40A2661F0232B242B1F
:1019D000252B21F408950A2609F4A140A6958FEF3E
:1019E000811D811D08950E94060D0C94770D0E94A3
:1019F000690D38F00E94700D20F0952311F00C94C1
:101A0000600D0C94660D11240C94AB0D0E94880D92
:101A100070F3959FC1F3950F50E0551F629FF00141
:101A2000729FBB27F00DB11D639FAA27F00DB11D5A
:101A3000AA1F649F6627B00DA11D661F829F2227E3
:101A4000B00DA11D621F739FB00DA11D621F839F6A
:101A5000A00D611D221F749F3327A00D611D231F40
:101A6000849F600D211D822F762F6A2F11249F578E
:101A700050409AF0F1F088234AF0EE0FFF1FBB1F91
:101A8000661F771F881F91505040A9F79E3F510550
:101A900080F00C94600D0C94AB0D5F3FE4F3983E26
:101AA000D4F3869577956795B795F795E7959F5FFA
:101AB000C1F7FE2B880F911D9695879597F908958C
:101AC00097F99F6780E870E060E008959FEF80ECF1
:101AD000089500240A941616170618060906089594
:101AE00000240A9412161306140605060895092EFA
:101AF0000394000C11F4882352F0BB0F40F4BF2B69
:101B000011F460FF04C06F5F7F4F8F4F9F4F0895A8
:101B100057FD9058440F551F59F05F3F71F047959E
:101B2000880F97FB991F61F09F3F79F08795089583
:101B3000121613061406551FF2CF4695F1DF08C0A2
:101B4000161617061806991FF1CF869571056105BF
:101B500008940895E894BB2766277727CB0197F967
:101B600008955058BB27AA270E94C90D0C94770DE1
:101B70000E94690D38F00E94700D20F039F49F3FEB
:101B800019F426F40C94660D0EF4E095E7FB0C9422
:101B9000600DE92F0E94880D58F3BA17620773078A
:101BA0008407950720F079F4A6F50C94AA0D0EF49D
:101BB000E0950B2EBA2FA02D0B01B90190010C015D
:101BC000CA01A0011124FF27591B99F0593F50F475
:101BD000503E68F11A16F040A22F232F342F4427CD
:101BE000585FF3CF469537952795A795F0405395C5
:101BF000C9F77EF41F16BA0B620B730B840BBAF095
:101C00009150A1F0FF0FBB1F661F771F881FC2F7FF
:101C10000EC0BA0F621F731F841F48F48795779513
:101C20006795B795F7959E3F08F0B0CF9395880FCD
:101C300008F09927EE0F9795879508950E94320E28
:101C40000C94770D0E94700D58F00E94690D40F0C1
:101C500029F45F3F29F00C94600D51110C94AB0DE9
:101C60000C94660D0E94880D68F39923B1F35523F7
:101C700091F3951B550BBB27AA276217730784079F
:101C800038F09F5F5F4F220F331F441FAA1FA9F335
:101C900035D00E2E3AF0E0E832D091505040E69523
:101CA000001CCAF72BD0FE2F29D0660F771F881F84
:101CB000BB1F261737074807AB07B0E809F0BB0B77
:101CC000802DBF01FF2793585F4F3AF09E3F51058B
:101CD00078F00C94600D0C94AB0D5F3FE4F3983EEC
:101CE000D4F3869577956795B795F7959F5FC9F774
:101CF000880F911D9695879597F90895E1E0660FF5
:101D0000771F881FBB1F621773078407BA0720F06D
:101D1000621B730B840BBA0BEE1F88F7E0950895D6
:101D20000E94900D88F09F5798F0B92F9927B751CE
:101D3000B0F0E1F0660F771F881F991F1AF0BA956F
:101D4000C9F714C0B13091F00E94AA0DB1E0089516
:101D50000C94AA0D672F782F8827B85F39F0B93F08
:101D6000CCF3869577956795B395D9F73EF4909522
:101D70008095709561957F4F8F4F9F4F08950E947A
:101D8000CF0C08F48FEF08950E94CF0C880B990BAD
:101D90000895A1E21A2EAA1BBB1BFD010DC0AA1FAC
:101DA000BB1FEE1FFF1FA217B307E407F50720F0C4
:101DB000A21BB30BE40BF50B661F771F881F991F3F
:101DC0001A9469F760957095809590959B01AC0188
:101DD000BD01CF010895052E97FB1EF400940E94CB
:101DE000020F57FD07D00E94C90E07FC03D04EF426
:101DF0000C94020F50954095309521953F4F4F4FD1
:101E00005F4F089590958095709561957F4F8F4FA6
:101E10009F4F0895EE0FFF1F0590F491E02D099458
:101E20000F931F93CF93DF938230910510F482E0DC
:101E300090E0E091A705F091A80530E020E0B0E047
:101E4000A0E0309799F42115310509F44AC0281B08
:101E5000390B24303105D8F58A819B8161157105D4
:101E600089F1FB0193838283FE0111C0408151817E
:101E70000281138148175907E0F04817590799F470
:101E8000109761F012960C93129713961C9332964A
:101E9000CF01DF91CF911F910F9108950093A70576
:101EA0001093A805F4CF2115310551F042175307BF
:101EB00038F0A901DB019A01BD01DF01F801C1CFB2
:101EC000EF01F9CF9093A8058093A705CDCFFE0130
:101ED000E20FF31F819391932250310939832883B4
:101EE000D7CF2091A5053091A605232B41F4209151
:101EF0000201309103013093A6052093A50520919E
:101F00000001309101012115310541F42DB73EB793
:101F10004091040150910501241B350BE091A5056A
:101F2000F091A605E217F307A0F42E1B3F0B28172C
:101F3000390778F0AC014E5F5F4F2417350748F042
:101F40004E0F5F1F5093A6054093A5058193919373
:101F50009FCFF0E0E0E09CCFCF93DF930097E9F0D4
:101F6000FC01329713821282A091A705B091A805B7
:101F7000ED0130E020E01097A1F420813181820F43
:101F8000931F2091A5053091A6052817390709F060
:101F900061C0F093A605E093A505DF91CF91089568
:101FA000EA01CE17DF07E8F54A815B819E01411502
:101FB0005105B1F7E901FB83EA8349915991C40FB7
:101FC000D51FEC17FD0761F4808191810296840F83
:101FD000951FE90199838883828193819B838A83FA
:101FE000F0E0E0E012968D919C9113970097B9F57F
:101FF0002D913C911197CD010296820F931F209154
:10200000A5053091A6052817390739F6309751F5FF
:102010001092A8051092A705B093A605A093A50558
:10202000BCCFD383C28340815181840F951FC817D1
:10203000D90761F44E5F5F4F88819981480F591F1E
:10204000518340838A819B8193838283211531054B
:1020500009F0B0CFF093A805E093A7059ECFFD014E
:10206000DC01C0CF13821282D7CF10E0CAE7D0E0E4
:1020700004C0FE010E940A0F2196CB37D107C9F791
:04208000F894FFCF02
:102084000000A90580000003000000020000000613
:1020940007D100000000000307D100010000000682
:1020A40007D000000000FF0307D00001915900C0D1
:1020B400C101C30302C2C60607C705C5C404CC0CCC
:1020C4000DCD0FCFCE0E0ACACB0BC90908C8D8183C
:1020D40019D91BDBDA1A1EDEDF1FDD1D1CDC14D44C
:1020E400D515D71716D6D21213D311D1D010F0307C
:1020F40031F133F3F23236F6F737F53534F43CFC8C
:10210400FD3DFF3F3EFEFA3A3BFB39F9F83828E83B
:10211400E929EB2B2AEAEE2E2FEF2DEDEC2CE4240B
:1021240025E527E7E62622E2E323E12120E0A0607B
:1021340061A163A3A26266A6A767A56564A46CAC4B
:10214400AD6DAF6F6EAEAA6A6BAB69A9A86878B8BB
:10215400B979BB7B7ABABE7E7FBF7DBDBC7CB474CB
:1021640075B577B7B67672B2B373B17170B050907B
:1021740091519353529296565797559594549C5C0B
:102184005D9D5F9F9E5E5A9A9B5B995958988848BB
:1021940049894B8B8A4A4E8E8F4F8D4D4C8C44848B
:1021A400854587474686824243834181804000C1FA
:1021B400814001C0804101C0804100C1814001C013
:1021C400804100C1814000C1814001C0804101C003
:1021D400804100C1814000C1814001C0804100C1F3
:1021E400814001C0804101C0804100C1814001C0E3
:1021F400804100C1814000C1814001C0804100C1D3
:10220400814001C0804101C0804100C1814000C1C2
:10221400814001C0804101C0804100C1814001C0B2
:10222400804100C1814000C1814001C0804101C0A2
:10223400804100C1814000C1814001C0804100C192
:10224400814001C0804101C0804100C1814000C182
:10225400814001C0804101C0804100C1814001C072
:10226400804100C1814000C1814001C0804100C162
:10227400814001C0804101C0804100C1814001C052
:10228400804100C1814000C1814001C0804101C042
:10229400804100C1814000C1814001C0804100C132
:1022A400814001C0804101C0804100C181400000E3
:1022B40000006602C601F301CE02240202021602E5
:1022C40000000000B403C6014704B303100426044D
:1022D4009B0300000000D507DA076E616E00696E8B
:1022E40066006F7666000D0A0053656E736F722781
:1022F400732062617564726174652069733A203475
:1023040038303020616E64206465766963652773B4
:1023140020616464726573732069733A20307800B5
:1023240053656E736F722773206261756472617492
:1023340065206973206E6F74203438303000536523
:102344006E736F72277320626175647261746520A5
:1023540069733A203234303020616E6420646576CB
:10236400696365277320616464726573732069739C
:102374003A2030780053656E736F72277320626160
:10238400756472617465206973206E6F74203234D1
:1023940030300053656E736F722773206261756409
:1023A400726174652069733A203936303020616E69
:1023B400642064657669636527732061646472656B
:1023C40073732069733A20307800536574757020F4
:1023D40073656E736F7220746F20466163746F72DD
:1023E4007920436F6E6669673A204164647265734D
:1023F4007328307830312920262042617564726157
:0A24040074652834383030290000D8
:00000001FF
